:100000000C948F010C94B7010C94B7010C94B701B8
:100010000C94B7010C94C6210C94B7010C949F2149
:100020000C94B7010C94B7010C94B7010C94B70170
:100030000C94B7010C94B7010C94B7010C94B70160
:100040000C9455210C94B7010C94B7010C94B70192
:100050000C94B7010C94B7010C94B7010C94B70140
:100060000C94B7010C94B70108000000BE9224491B
:10007000123EABAAAA2ABECDCCCC4C3E00000080DA
:10008000BEABAAAAAA3E00000000BF000000803F4D
:100090000000000000084178D3BB4387D1133D190D
:1000A0000E3CC3BD4282AD2B3E68EC8276BED98F3A
:1000B000E1A93E4C80EFFFBE01C4FF7F3F0000007E
:1000C0000000202020202020202000524954003A07
:1000D00020004C454400515541440049512070686E
:1000E0006173650052656620667271005057522038
:1000F0006D617800505752206D696E004357204D56
:1001000073675F36004357204D73675F3500435771
:10011000204D73675F34004357204D73675F330092
:100120004357204D73675F32004351204D73675F23
:1001300031004357205245504541542078350054F2
:100140005820447269766500535120564F58005626
:100150004F580043572053706565640053656D69BF
:100160002051534B004357204465636F6465720010
:10017000532D4D6574657200415454004E52004138
:100180004743005249540056464F0053746570006F
:1001900042616E64004257004D6F646500566F6C9B
:1001A0000000000000240027002A000000000025B5
:1001B0000028002B00000000002300260029000476
:1001C00004040404040404020202020202030303FE
:1001D00003030301020408102040800102040810F8
:1001E00020010204081020000000080002010000A5
:1001F0000304070000000000000000436865636B13
:10020000205054542F6B65790052657365742073C8
:10021000657474696E67732E2E0032313038323651
:100220000020520055534452202B0070726F6674A8
:100230007064406D61696C2E727500506574726FE8
:10024000762052560008040A050A0408000000003F
:1002500000000000001010101010101010101014EA
:10026000141414141410101515151515150C121E50
:1002700012120000001C121C121C000000000000E2
:10028000000000000064426D2000506F7765722D01
:100290006F6666203733203A2D29007E2045544969
:1002A000414E4D53555257444B474F4856462A4CA2
:1002B0002A504A425843595A512A2A353453332A2C
:1002C0002A2A322A2A2B2A2A2A4A31363D2F2A2A3A
:1002D0002A482A372A472A382A39302A2A2A2A2A13
:1002E0002A2A2A2A2A2A2A3F5F2A2A2A2A222A2A2C
:1002F0002E2A2A2A2A402A2A2A272A2A2D2A2A2A44
:100300002A2A2A2A2A3B212A292A2A2A2A2A2C2A44
:100310002A2A2A3A2A2A2A2A0000013220321124C3
:100320001FBECFEFD8E0DEBFCDBF14E0A0E0B1E04C
:10033000E8E8F3E702C005900D92AA31B107D9F7BA
:1003400026E0AAE1B4E001C01D92A63AB207E1F7A7
:1003500011E0CEE8D1E004C02197FE010E94F735FC
:10036000CD38D107C9F70E9411220C94B7390C94EB
:10037000000087FF76C03C983D9800000000000018
:1003800000003D9A000000000000000086FF6BC0E6
:100390003C983D9800000000000000003D9A0000DD
:1003A00000000000000085FF60C03C983D98000000
:1003B0000000000000003D9A000000000000000066
:1003C00084FF55C03C983D980000000000000000EC
:1003D0003D9A000000000000000083FF4AC03C98E6
:1003E0003D9800000000000000003D9A0000000061
:1003F0000000000082FF3FC03C983D9800000000D4
:10040000000000003D9A000000000000000081FF95
:1004100034C03C983D9800000000000000003D9A68
:10042000000000000000000080FF29C03C983D98BB
:1004300000000000000000003D9A000000000000E5
:1004400000003C9800000000000000003D98000003
:100450000000000000003D9A0000000000000000C5
:1004600008953C9A89CF3C9A94CF3C9A9FCF3C9A6E
:10047000AACF3C9AB5CF3C9AC0CF3C9ACBCF3C9AFE
:10048000D6CF2F923F924F925F926F927F928F9230
:100490009F92AF92BF92CF92DF92EF92FF920F9313
:1004A0001F93CF93DF9300D000D0CDB7DEB79B0171
:1004B000AC0180918F0690919006A0919106B09129
:1004C000920689839A83AB83BC83A0918C06C090EB
:1004D0009B06D0909C06E0909D06F0909E06B0E0B2
:1004E0000E941B364B015C01BB0C8808982C540100
:1004F0009B01AC01682D782D882D982D07E10E9475
:10050000FD3656016701E12CF12C00E010E00E945D
:10051000283649015A0149805A806B807C80480CFA
:10052000591C6A1C7B1C80918D0690918E06860D4D
:10053000971D8093970680E180939806852D9927D3
:100540008093990640929A060F900F900F900F900B
:10055000DF91CF911F910F91FF90EF90DF90CF909F
:10056000BF90AF909F908F907F906F905F904F90D3
:100570003F902F900895E0918706E7FD15C0F0E0C9
:10058000E556FD4FE491EA3279F0A2EBB2E0119624
:100590008C9111978D9382E0A13CB807C1F7E0934D
:1005A000C10281E08093860681E0809387060895EA
:1005B000AF92BF92CF92DF92EF92FF920F931F9371
:1005C000CF93DF936C017B018B01040F151FEB01AF
:1005D0005E01AE18BF08C017D10759F06991D60166
:1005E000ED91FC910190F081E02DC6010995892BD8
:1005F00079F7C501DF91CF911F910F91FF90EF9097
:10060000DF90CF90BF90AF900895833081F028F4B1
:10061000813099F08230A9F008958730A9F08830B0
:10062000C9F08430B1F4809180008F7D03C0809147
:1006300080008F7780938000089584B58F7784BD84
:10064000089584B58F7DFBCF8091B0008F77809324
:10065000B00008958091B0008F7DF9CFCF93DF93E4
:10066000282F30E0F901E951FE4F8491F901ED5254
:10067000FE4FD491F901E154FE4FC491CC23A1F077
:1006800081110E940503EC2FF0E0EE0FFF1FEB54E9
:10069000FE4FA591B491EC91ED2381E090E009F437
:1006A00080E0DF91CF91089580E090E0FACF1F9332
:1006B000CF93DF93282F30E0F901E951FE4F849169
:1006C000F901ED52FE4FD491F901E154FE4FC4916E
:1006D000CC23A9F0162F81110E940503EC2FF0E026
:1006E000EE0FFF1FE555FE4FA591B4918FB7F8941B
:1006F000EC91111108C0D095DE23DC938FBFDF9100
:10070000CF911F910895DE2BF8CFCF93DF9390E028
:10071000FC01ED52FE4F249181549E4FFC018491C7
:100720008823C9F090E0880F991FFC01EF55FE4F18
:10073000A591B491FC01E555FE4FC591D49161118D
:100740000DC09FB7F8948C91209582238C9388815B
:10075000282328839FBFDF91CF910895623051F401
:100760009FB7F8943C91822F809583238C93E881E6
:100770002E2BEFCF8FB7F894EC912E2B2C938FBFAD
:10078000EACF8E50806480937C0080917A008064F0
:1007900080937A0080917A0086FDFCCF809178006A
:1007A0009091790008953FB7F8948091F405909165
:1007B000F505A091F605B091F70526B5A89B05C0F3
:1007C0002F3F19F00196A11DB11D3FBFBA2FA92FD0
:1007D000982F8827BC01CD01620F711D811D911DCD
:1007E00042E0660F771F881F991F4A95D1F7089539
:1007F0008F929F92AF92BF92CF92DF92EF92FF9231
:100800006B017C010E94D3034B015C01C114D10434
:10081000E104F104B9F00E94D303681979098A0947
:100820009B09683E73408105910580F321E0C21A5F
:10083000D108E108F10888EE880E83E0981EA11C1B
:10084000B11CE4CFFF90EF90DF90CF90BF90AF90BE
:100850009F908F9008952FB7F8946091F005709154
:10086000F1058091F2059091F3052FBF08953C9A10
:100870003D9800000000000000003C9887B18F7C8C
:1008800087B93C9A08953D9A0000000000000000DE
:100890003C980895CF93DF930E94430480EC0E941C
:1008A000B9018EE10E94B901C8E8D6E08F850E94A7
:1008B000B90188890E94B90189890E94B9018A8990
:1008C0000E94B901DF91CF910C943704CF93DF934D
:1008D000D82FC62F0E94430480E40E94B9018D2FB7
:1008E0000E94B9018C2F0E94B901DF91CF910C9425
:1008F0003704CF93DF93D82FC92F6FEF87E00E9483
:1009000066046FEF86E00E9466046D2F82E00E940D
:10091000660460E086E00E9466046C2F83E00E941B
:10092000660460E087E0DF91CF910C946604FF924B
:100930000F931F93CF93DF93C82FF62E072F142FFB
:100940000E94430480EC0E94B9018C2F0E94B901DF
:10095000CF2DD02F115020F089910E94B901FACFEC
:10096000DF91CF911F910F91FF900C943704CF939B
:10097000DF931F92CDB7DEB7698341E0BE016F5FA1
:100980007F4F0E9497040F90DF91CF9108952F928F
:100990003F924F925F926F927F928F929F92AF920F
:1009A000BF92CF92DF92EF92FF920F931F93CF935C
:1009B000DF93CDB7DEB764970FB6F894DEBF0FBEF6
:1009C000CDBF898B48015901FB8AEA8ACC8ACB01C9
:1009D000BA01A90198010E94B635290119012430F4
:1009E000310509F497C09B01AC0160E070E080E044
:1009F00090E000E10E94FD36F9017501640100E01C
:100A000010E098018986DA86AB86FC860D871E8702
:100A10002F87388B54016701E12CF12C00E010E0A6
:100A20009F010E945936A32FF42FE52F422F5A2FF2
:100A30006F2F7E2FC12CD12C7601E394CB01BA010C
:100A400027E0660F771F881F991F2A95D1F7A70106
:100A500096010E94B63542019694982C882497946A
:100A60008794B12CA12C02E0901AA108B108280D9E
:100A7000391D4A1D5B1DBC89A0E1BA9FF0011124FC
:100A8000842E8E2AE4E02E16310409F04CC0ECE0EE
:100A90001982CA828E2A8B823C832D8394E0CC0CEF
:100AA000DD1CEE1CFF1C9A95D1F7E82AEE827F83AD
:100AB000688748E0BE016F5F7F4F8989880F880F84
:100AC000880F865D0E949704612F6295660F660FFE
:100AD000607CC988C7FE29C060688C2D885E0E9432
:100AE000B70464960FB6F894DEBF0FBECDBFDF919A
:100AF000CF911F910F91FF90EF90DF90CF90BF901B
:100B0000AF909F908F907F906F905F904F903F90AD
:100B10002F90089540E050E0BA0111E0C12CD12C93
:100B20007601C3948BCFE0E0B3CF6F608989805F9B
:100B30000E94B704EA88FB88E49CA001E59C500D64
:100B4000F49C500D112421E01227212F30E0429F08
:100B5000C001439F900D529F900D11246AE570E0F3
:100B60000E948E3589898B55BACF2F923F924F9232
:100B70005F926F927F928F929F92AF92BF92CF922D
:100B8000DF92EF92FF920F931F93CF93DF93CDB736
:100B9000DEB760970FB6F894DEBF0FBECDBF4B0136
:100BA0005C0149875A8329833B8321E0821623EA2B
:100BB000920621EEA20621E1B206DCF023E030E04D
:100BC000CA01B9010E948E3569877A8389819B8128
:100BD000B9010E948E3569837B83C501B40123E08E
:100BE00030E040E050E00E94D83549015A011886B3
:100BF00011C060E2861661EA960667E0A606B104B7
:100C0000B4F747E0880C991CAA1CBB1C4A95D1F785
:100C100077E0788780E8881683EC980689ECA80648
:100C200081E0B806CCF460919B0670919C0680919F
:100C30009D0690919E06A0EE8A16A7E69A06A5E369
:100C4000AA06B1040CF445C124E0660F771F881F83
:100C5000991F2A95D1F749C160919B0670919C0616
:100C600080919D0690919E0635E0660F771F881F44
:100C7000991F3A95D1F7A50194010E94B635190143
:100C8000B1E08B16BBE39B06B8E5AB06B8E0BB064C
:100C90000CF031C120FE03C02FEF221A320AD1011D
:100CA000A501940128583341410951090E941B367E
:100CB0006B017C0120919B0630919C0640919D0622
:100CC00050919E0640909B0650909C0660909D0619
:100CD00070909E064C825D826E827F820E94B63545
:100CE00029013A019101A0E1B7E20E9405366C0D9D
:100CF0007D1D8E1D9F1D2C813D814E815F810E9437
:100D0000B635421653066406750619F022E0220E27
:100D1000311CD101A50194010E941B362B013C011D
:100D200000919B0610919C0620919D0630919E0695
:100D3000C12CF12CE12CBC01A2018EEF0E94C70452
:100D4000C884E984FA8095018401B301A20180E09E
:100D50000E94C704C884E980FB809501B301A20109
:100D600081E00E94C704C884F12CE12C9501B301F5
:100D7000A20182E00E94C7046985062E000C770B51
:100D80008981681B710987FD73957D836C83C3011D
:100D9000B201A50194010E94B635AC81BD81A29F2C
:100DA000C001A39F900DB29F900D11246AE570E0E1
:100DB0000E94A23580919F069091A0068617970702
:100DC00041F07093A00660939F0660EA81EB0E9459
:100DD000B7046CEF83E00E94B7048092880690927B
:100DE0008906A0928A06B0928B0620928C062091EA
:100DF0009B0630919C0640919D0650919E06C30132
:100E0000B2010E94B6352450310941095E4F369532
:100E1000322F22273795279530938E0620938D0603
:100E200020919B0630919C0640919D0650919E0614
:100E3000C0909B06D0909C06E0909D06F0909E0688
:100E4000C301B2010E94B6352B013C01812C912CCB
:100E5000540169875A868B877C868D869E86AF86ED
:100E6000B88A9B01AC0160E070E080E090E007E1AF
:100E70000E94FD362A83398356016701E12CF12C4B
:100E800000E010E02A8139810E945936C901DA0157
:100E900080938F0690939006A0939106B09392064C
:100EA00060960FB6F894DEBF0FBECDBFDF91CF9135
:100EB0001F910F91FF90EF90DF90CF90BF90AF9078
:100EC0009F908F907F906F905F904F903F902F906A
:100ED000089520919B0630919C0640919D0650916B
:100EE0009E06A7E0B0E00E941B36A50194010E9477
:100EF000B6351901CFCE94E0292E312CCBCECF932D
:100F00006FEF83E00E94B70460E088E10E94B704BD
:100F100060E089E10E94B704C0E160E88C2F0E9484
:100F2000B704CF5FC831C9F760E08BEB0E94B7040C
:100F300060E085E90E94B70462ED87EBCF910C94E5
:100F4000B70480916601882319F05B9A789408951C
:100F50005B98FCCFF8949BB1907F9061892B8BB903
:100F60008BE090E00197F1F75C980E94A1078BEE6F
:100F700090E00197F1F70895CF93C82F82958F7075
:100F80000E94AA078C2F8F70CF910C94AA078CE037
:100F90000C94BC070F931F93CF93DF934091EE0502
:100FA000C0916501C41BDD0BEEEEF4E030E020E003
:100FB0000FEF10E0C901B8010E948E35640F6193F4
:100FC0002C0F3D1F85E0EE3EF807A1F7DF91CF9192
:100FD0001F910F9108958091AB028F5B80680E94F2
:100FE000BC078EE00C94BC079091AB02980F9093D5
:100FF000AB029091AB02911103C098E09093AB02C9
:101000009091AB02993018F091E09093AB029091DF
:10101000AB02943021F09091AB02923029F4909180
:10102000AB02890F8093AB020C94EB0780917A009E
:10103000806480937A008091530480938A00809129
:101040007800909179002091670192502450330BE1
:1010500002C0880F991F2A95E2F7803E2FEF920772
:101060004CF0803E910514F08FED90E080968093D7
:101070005304089580E0FBCF80917A0080648093D0
:101080007A008091ED0580938A000E944A04809145
:101090007800909179009250092E000CAA0BBB0B9E
:1010A0002091670104C0880F991FAA1FBB1F2A95B2
:1010B000D2F74091540450915504609156047091B8
:1010C0005704840F951FA61FB71F893823E1920785
:1010D000A105B105B4F58093540490935504A093F1
:1010E0005604B09357048091540490915504A091F4
:1010F0005604B091570488379C4EAF4FBF4F64F4ED
:1011000088E79CEEAFEFBFEF8093540490935504B3
:10111000A0935604B0935704609154047091550401
:10112000809156049091570426E095958795779580
:1011300067952A95D1F7072E000C880B990B0C9414
:10114000410288E893E1A0E0B0E0C5CF0895909116
:101150007E00E1E0F0E0082E01C0EE0F0A94EAF70D
:101160009E2B90937E0010927A0010927B0010923A
:101170007C0090917C00892B80937C0080917C0086
:1011800090E4611190EC892B80937C0068EB7BE705
:1011900087E190E00E94B63580E0369527952115CD
:1011A000310511F08F5FF9CF90917A008770892B0C
:1011B00080937A0080917A00806880937A00089505
:1011C0008091640680937C0080917A008064809393
:1011D0007A0020917800309179002F5F3140809122
:1011E000E5049091E604820F931F959587953093BF
:1011F000E6042093E504209168062223A1F01092D2
:10120000E4041092E3041092E0041092DF042091B1
:10121000E3043091E4043093E2042093E10420E8F5
:101220002093880008954091E1045091E2042091B8
:10123000DF043091E004240F351F3093E004209345
:10124000DF046091E3047091E404460F571F50934C
:10125000E2044093E104359527953595279535951A
:10126000279535952795359527952F37310524F006
:101270002FEF20938800089520384FEF340714F49F
:1012800020E83FEF2058CCCF8091630680937C000C
:10129000EAE7F0E0808180648083209178003091DB
:1012A00079002F5F314083E99BE09093FA058093AA
:1012B000F9058091DD049091DE044091DB045091AA
:1012C000DC04480F591FCA01880F991F840F951F0E
:1012D000820F931F4091D9045091DA04840F951F17
:1012E000959587953093DE042093DD042091D704F3
:1012F0003091D8044091D5045091D604420F531F29
:101300009A01220F331F240F351F280F391F4091D8
:10131000D3045091D404240F351F3093D20420936A
:10132000D1049093D8048093D704089580916306E4
:1013300080937C00EAE7F0E0808180648083809184
:1013400078009091790029E13AE03093FA052093F2
:10135000F9052091DB043091DC043093DA0420930A
:10136000D9048F5F91409093DC048093DB0408954F
:101370008091630680937C00EAE7F0E080818064DE
:10138000808320917800309179002F5F31408DE883
:101390009AE09093FA058093F9058091D504909195
:1013A000D6049093D4048093D3048091DD0490916B
:1013B000DE044091DB045091DC04480F591FCA0140
:1013C000880F991F840F951F820F931F4091D90496
:1013D0005091DA04840F951F959587959093D604C4
:1013E0008093D5043093DE042093DD04089580912A
:1013F000630680937C00EAE7F0E08081806480836C
:1014000080917800909179002FE13BE03093FA05CC
:101410002093F9052091DB043091DC043093DA0449
:101420002093D9048F5F91409093DC048093DB0478
:1014300008958091640680937C0080917A00806496
:1014400080937A0020917800309179002F5F3140AD
:101450008091E5049091E604820F931F95958795FE
:101460003093E6042093E50420916806222331F1AD
:101470001092E4041092E3041092E0041092DF044E
:101480002091E3043091E4043093E2042093E104DA
:1014900020E82093880024E439E03093FA05209373
:1014A000F9052091CF043091D0043093CE042093DD
:1014B000CD049093D0048093CF0408954091E1042B
:1014C0005091E2042091DF043091E004240F351F95
:1014D0003093E0042093DF046091E3047091E4040E
:1014E000460F571F5093E2044093E104359527952A
:1014F00035952795359527953595279535952795D4
:101500002F37310514F02FEFC4CF20384FEF3407B9
:1015100014F420E83FEF2058BCCF809164068093FC
:101520007C0080917A00806480937A0080917800BA
:10153000909179008F5F91402091E5043091E6040D
:10154000280F391F359527959093E6048093E5047D
:1015500080916806882309F443C01092E404109235
:10156000E3041092E0041092DF048091E304909170
:10157000E4049093E2048093E10480E8809388007F
:1015800086E999E09093FA058093F9058091CB0460
:101590009091CC049093CA048093C9048091C704AD
:1015A0009091C8044091CF045091D004480F591F26
:1015B000CA01880F991F840F951F820F931F4091B6
:1015C000CD045091CE04840F951F959587959093E7
:1015D000CC048093CB043093C8042093C7040895AF
:1015E0004091E1045091E2048091DF049091E00485
:1015F000840F951F9093E0048093DF046091E304CF
:101600007091E404460F571F5093E2044093E104A5
:1016100095958795959587959595879595958795B2
:10162000959587958F37910514F08FEFA7CF803868
:101630004FEF940714F480E89FEF80589FCF80917C
:10164000640680937C0080917A00806480937A00A5
:1016500020917800309179002F5F31408091E5042E
:101660009091E604820F931F959587953093E60439
:101670002093E50420916806222331F11092E404BE
:101680001092E3041092E0041092DF042091E3042E
:101690003091E4043093E2042093E10420E82093A5
:1016A000880028EB39E03093FA052093F905209162
:1016B000CF043091D0043093CE042093CD04909386
:1016C000D0048093CF0408954091E1045091E20446
:1016D0002091DF043091E004240F351F3093E004A3
:1016E0002093DF046091E3047091E404460F571FD8
:1016F0005093E2044093E10435952795359527955D
:101700003595279535952795359527952F373105AB
:1017100014F02FEFC4CF20384FEF340714F420E833
:101720003FEF2058BCCF2F923F924F925F926F9223
:101730007F928F929F92AF92BF92CF92DF92EF9261
:10174000FF920F931F93CF93DF930E94E00827EF40
:1017500039E03093FA052093F9052091C7043091C0
:10176000C8044091CF045091D004420F531F9A01F6
:10177000220F331F240F351F280F391F4091CD042E
:101780005091CE04240F351F359527959093C804AA
:101790008093C7048091C5049091C6044091CB0406
:1017A0005091CC04480F591FCA01880F991F840F0C
:1017B000951F820F931F4091C9045091CA04840F52
:1017C000951F3093C6042093C504A091D104B09115
:1017D000D204309168063111CFC14091C3045091B9
:1017E000C4042091C1043091C204BA01621B730B7E
:1017F0002091BF043091C004FB01E21BF30BF09376
:10180000E404E093E304C091BE043C2FCF5FC09397
:10181000BE04311107C078944091C3045091C404B0
:10182000C091BE047093C0046093BF045093C2047F
:101830004093C10430916E01AD0102C055954795AA
:101840003A95E2F79A014091B102443009F4BDC0E3
:101850004091B102433009F4B8C0C090A604D090C2
:10186000A7048090BA049090BB04E090AA04F09082
:10187000AB04A090B604B090B704F701EA19FB09D5
:101880000091AE041091AF04A091B204B091B304E2
:10189000A8014A1B5B0B6090A2047090A304621A1B
:1018A000730AB60168197909660F771F660F771FEB
:1018B000660E771E77FE03C06FE3660E711C062C62
:1018C000672C000C661C7708000C661C771CBF0197
:1018D000640F751F77FF02C0695F7F4F759567952D
:1018E0007595679575956795660E771EBF01660FAE
:1018F000771F660F771F6E0F7F1F641B750B77FFB7
:1019000002C061587F4F660F672F661F770B660E08
:10191000771E57FF02C04F5F5F4F55954795640E86
:10192000751E4091A4045091A5045093A3044093C4
:10193000A204D092A504C092A4044091A80450919E
:10194000A9045093A7044093A604F092A904E0923E
:10195000A8044091AC045091AD045093AB04409363
:10196000AA041093AD040093AC044091B0045091CC
:10197000B1045093AF044093AE04B093B104A0936C
:10198000B0044091B4045091B5045093B304409313
:10199000B204B092B504A092B4044091B80450913E
:1019A000B9045093B7044093B6049092B90480925E
:1019B000B8044091BC045091BD045093BB044093C3
:1019C000BA043093BD042093BC0440916E0102C060
:1019D000959587954A95E2F79093FF058093FE05CC
:1019E0003093A1042093A004409192045091930459
:1019F00020919404309195043093930420939204A1
:101A00002091960430919704309395042093940488
:101A10002091980430919904309397042093960470
:101A200020919A0430919B04309399042093980458
:101A300020919C0430919D0430939B0420939A0440
:101A400020919E0430919F0430939D0420939C0428
:101A500090939F0480939E049091B102943009F476
:101A6000E3C18091B102833009F49BC05195419547
:101A70005109461957098A0190918504DFEFD90F62
:101A8000D0938504C0908104D0908204E0908304B8
:101A9000F09084049111AFC0C0921306D092140646
:101AA000E0921506F09216061092810410928204BC
:101AB000109283041092840480911001813009F403
:101AC000B6C0809197028E300CF003C1209197022E
:101AD0008DE090E0821B910927FD939502C05595FA
:101AE00047958A95E2F78091A902811118C18091EA
:101AF0006A06811134C1C0907D04D0907E04E090CC
:101B00007F04F0908004DF7309F0CAC0C09207061A
:101B1000D0920806E0920906F0920A0610927D041F
:101B200010927E0410927F041092800441158EEF73
:101B3000580714F440E05EEF4115E2E05E0714F050
:101B40004FEF51E05093C4044093C304C150C0937D
:101B5000BE04DF91CF911F910F91FF90EF90DF9026
:101B6000CF90BF90AF909F908F907F906F905F903D
:101B70004F903F902F9008951092C4041092C30488
:101B80001092C2041092C1041092C0041092BF04BB
:101B900010926806F0E0E0E070E060E050E040E0C5
:101BA0002ECE0091FE051091FF058091A00490912A
:101BB000A104119501951109081B190B8091880446
:101BC000882309F443C28091860490918704209170
:101BD000FE053091FF05289FA001299F500D389FD9
:101BE000500D11248091FE059091FF05909387047C
:101BF0008093860441CFC80117FF04C08827992726
:101C0000801B910B092E000CAA0BBB0B8C0D9D1D8C
:101C1000AE1DBF1D8093810490938204A093830422
:101C2000B093840480911001813009F04ACF8091F3
:101C3000020190910301811574E0970774F09C01F3
:101C4000232F330F330B25952595FA01E29FA00131
:101C5000E39F500DF29F500D1124252F25952595BA
:101C6000352F330F330B37FD00C261E070E0FB010D
:101C7000E21BF30B6FEF7FE7681B790BE617F707A3
:101C800034F48E0F9F1F9093030180930201181666
:101C900019060CF0E3C12091970280E190E01ACF81
:101CA000C80117FF03C0919581959109092E000C79
:101CB000AA0BBB0B8C019D010C0D1D1D2E1D3F1D84
:101CC00000937D0410937E0420937F04309380045E
:101CD0002DCF80919702052E000C660B770B8D504F
:101CE00004C0440F551F661F771F8A95D2F74130F5
:101CF000F0E85F07FFEF6F077F070CF4E7C04115BF
:101D000020E85207610571050CF4EDCE4FEF5FE757
:101D100060E070E08091A902882309F4E8CEE091A8
:101D20006904F0916A042091A902CA018E1B9F0BDD
:101D30002150330B61E070E002C0660F771F2A95D7
:101D4000E2F70E94A235AB014E0F5F1F50936A0469
:101D50004093690480916A06882309F4CCCE80916F
:101D60006A06E0907304F0907404C0907704D090F9
:101D70007804873008F0BCC080917B0490917C048B
:101D800050937C0440937B04BA01681B790B2EE1CD
:101D9000269FD001279FB00D112429E1249FC00167
:101DA000259F900D1124A80FB91FB7FD5F96B5951B
:101DB000A795B595A795B595A795B595A795B5950B
:101DC000A795E0916A06E150E73008F469C1B09345
:101DD0007A04A09379049D01E0916A06A0906D04B5
:101DE000B0906E04E150E73008F443C130937004C2
:101DF00020936F04A901B0926C04A0926B045093DD
:101E00006E0440936D04F0927204E092710430937A
:101E1000740420937304D0927604C0927504B09336
:101E20007804A093770467CE0091FE051091FF051A
:101E30008091A0049091A104119501951109081BAE
:101E4000190B8091FE059091FF056091FE05709140
:101E5000FF05181619061CF071956195710980919E
:101E6000A0049091A1042091A0043091A10418161F
:101E700019061CF03195219531092617370794F181
:101E8000759567957B01E20EF31EC0909004D0908B
:101E90009104B6010D2C000C880B990B0E94743331
:101EA00022E739EF4FE75FE30E94D9340E943C33C9
:101EB0009701220F331FC901860F971FAC014C19E0
:101EC0005D099093910480939004D6CD41E050E851
:101ED0006FEF7FEF411520E85207610571050CF4A3
:101EE00002CE14CF359527957901E60EF71ECDCF9A
:101EF00080916A06893009F416C308F48DC28A30CD
:101F000009F4E5C08B3009F009C3209171043091C8
:101F10007204A3ECBFEF0E94FD354B015C012EE67D
:101F200030E0D7010E941436860E971EA81EB91EF7
:101F3000B7FE05C0FFE38F0E911CA11CB11CC501AB
:101F4000B401E6E09595879577956795EA95D1F781
:101F5000F601E60FF71FF0937A04E093790480917D
:101F60006A06A0906D04B0906E04893009F4A6C290
:101F700008F470C28A3009F4F6C28B3009F0EEC260
:101F8000C701880F991F4F01881A990A2090710480
:101F900030907204820C931C97FE03C06FE1860E92
:101FA000911C95948794959487949594879495948F
:101FB00087949594879420916B0430916C04A2ECE3
:101FC000BFEF0E94FD352B013C0120E730E0D50139
:101FD0000E941436460E571E681E791E77FE05C0F5
:101FE0007FE3470E511C611C711C96E07594679449
:101FF000579447949A95D1F7480C591C5092700405
:1020000040926F04B0926C04A0926B0450926E04E4
:1020100040926D04F0927204E0927104F0937404A3
:10202000E0937304D0927604C092750450937804C0
:1020300040937704A20157FE02C0495F5F4F559558
:102040004795559547955595479555CD8091FE05F2
:102050009091FF0521E020938804B9CD81E090E0C4
:10206000909303018093020116CE31952195310999
:10207000FCCDF0E0E75BFF4EA701440F551F420F78
:10208000531F8091710490917204480F591F0C9452
:10209000F735B0119911791156113B11E411C7119F
:1020A000F0E0E05AFF4E9601220F331F2A0F3B1F2C
:1020B0008091750490917604280F391F0C94F735A0
:1020C000FE10ED10D210AD108210271111112091C9
:1020D000710430917204A2ECBFEF0E94FD354B01F8
:1020E0005C012EE630E0D7010E941436860E971E62
:1020F000A81EB91EB7FE23CFEFE38E0E911CA11CC4
:10210000B11C1DCF37FF02C02F5F3F4F359527957C
:102110004091710450917204CA01880F991F880F71
:10212000991F840F951FA701440F551F440F551F7A
:10213000440F551F841B950B97FD0F96959587951A
:10214000959587959595879595958795281B390B36
:1021500030937A04209379043FCE37FF02C02F5F7B
:102160003F4F5901B594A7948091710490917204E6
:10217000880F991F880F991FEBEF6E2F970162034D
:10218000A001639F500D1124840F951F97FD0F969A
:102190009595879595958795959587959595879527
:1021A0009501D4CF37FF02C02F5F3F4F359527955C
:1021B0008091710490917204880F991FF701E81BB8
:1021C000F90BCF01F7FD079695958795959587951E
:1021D00095958795280F391FBBCF37FF02C02F5F1A
:1021E0003F4F359527958091710490917204880F27
:1021F000991F880F991F8E0D9F1D9ECF37FF02C01C
:102200002F5F3F4F3595279580917104909172040F
:102210008E0D9F1D97FD03969595879595958795AE
:1022200095CF37FF02C02F5F3F4F5901B594A79458
:102230004091710450917204CA01880F991F880F50
:10224000991F880F991F841B950BE4EF96CF37FFDA
:1022500002C02F5F3F4F5901B594A794409171047C
:1022600050917204CA01880F991F840F951F880F1F
:10227000991FE6EF82CF57FF02C04D5F5F4F559524
:1022800047955595479580916B0490916C048A19F8
:102290009B0997FD03969595879595958795481B7E
:1022A000590B5093700440936F04A5CD57FF02C0A3
:1022B0004D5F5F4F559547955595479580916B04B8
:1022C00090916C04FC01EE0FFF1FE80FF91FC50190
:1022D000880F991FE81BF90BF7FD3F96F595E795D9
:1022E000F595E795F595E795F595E7954E1B5F0B09
:1022F000D8CF57FF02C04D5F5F4F55954795559515
:10230000479580916B0490916C04BC01660F771F18
:10231000660F771F861B970B97FD0F9695958795F0
:10232000959587959595879595958795480F591F0C
:10233000B8CF57FF02C04D5F5F4F559547955595F4
:10234000479580916B0490916C04FC01EE0FFF1F88
:10235000E80FF91FC501880F991FE80FF91FBCCFBF
:1023600057FF02C04D5F5F4F55954795559547956F
:1023700080916B0490916C04FC01EE0FFF1FE80F3D
:10238000F91FC501880F991F880F991FE6CF57FFC6
:1023900002C04D5F5F4F5595479555954795809184
:1023A0006B0490916C04FC01EE0FFF1FEE0FFF1FFA
:1023B000E80FF91FC501880F991F880F991FB501F4
:1023C000681B790BCB01C7CF57FF02C04D5F5F4F32
:1023D0003A017594679475946794E0916B04F09159
:1023E0006C04EE0FFF1FEE0FFF1F5BEF952E692DA4
:1023F000A5016403C001659F900D1124E80FF91F2A
:10240000F7FD3F96F595E795F595E795F595E795F1
:10241000F595E795A3016ACF883009F07FC0209138
:10242000710430917204A7ECBFEF0E94FD354B019F
:102430005C0122E730E0D7010E941436860E971E19
:10244000A81EB91EB7FE7BCD7FE3870E911CA11C91
:10245000B11C75CD883009F081C020916B0430919A
:102460006C04ACECBFEF0E94FD352B013C012FE565
:1024700030E0D5010E941436460E571E681E791EA4
:1024800077FE05C02FE3420E511C611C711C36E023
:1024900075946794579447943A95D1F7C701880F7C
:1024A000991FBF01681B790BCB01209171043091FA
:1024B0007204820F931F480E591EA0CDC701880FCA
:1024C000991F4F01881A990A8091710490917204A2
:1024D000880E991E97FE03C073E0870E911C959499
:1024E00087949594879420916B0430916C04A5ECAB
:1024F000BFEF0E94FD352B013C012AE630E0D501FB
:102500000E941436460E571E681E791E77FE6DCD4A
:102510008FE3480E511C611C711C67CDE09179045A
:10252000F0917A041CCD2091710430917204A4ECD6
:10253000BFEF0E94FD354B015C0121E730E0D70180
:102540000E941436860E971EA81EB91EB7FEF7CC41
:102550008FE3880E911CA11CB11CF1CC40906F043C
:10256000509070044FCDC701880F991F1F01281A82
:10257000390A8090710490907204280C391C37FE3F
:1025800003C02FE0220E311C3594279435942794F4
:10259000359427943594279420916B0430916C04E2
:1025A000A2ECBFEF0E94FD352B013C0121E730E09A
:1025B000D5010E941436460E571E681E791E77FEFE
:1025C00005C03FE3430E511C611C711C66E075940D
:1025D0006794579447946A95D1F7420C531C0ECDDB
:1025E0008091ED0580938A00E091960284E0E89F57
:1025F000F0011124EA52FD4F208131814281538143
:10260000AEE1B3E00E941B3620EC32E140E050E046
:102610000E94B63580910001309152042802C00119
:102620001124EFE7F0E0BF010E94A235360F30938E
:10263000520480915204309100012802C0011124FB
:10264000BF010E94A235361B309300018091010129
:102650008823A1F08091520440910101082E000CC2
:10266000990B20E130E0241B310902C09595879534
:102670002A95E2F7805880938800089580E8FBCF80
:102680000F931F93CF93DF93EFE2F4E02DE434E058
:1026900042815381419351932E173F07C9F79C0103
:1026A000220F331F40912D0450912E04240F351F0B
:1026B000440F551F841B950BE3E0F0E0BF010E941F
:1026C000A23570932E0460932D0480912B04909179
:1026D0002C04880F991F820F931FBF010E94A235FF
:1026E00070932C0460932B04261B370B30934E04FD
:1026F00020934D0480913D0490913E04FC01EE0F27
:10270000FF1F40913B0450913C0460913F04709145
:102710004004461B570B20913304309134046091E0
:10272000470470914804261B370B220F331F220FDA
:10273000331F60912F0470913004A0914B04B0912D
:102740004C046A1B7B0B260F371F220F331F60912F
:10275000370470913804A0914304B09144046A1B7B
:102760007B0BC5E1C69FD001C79FB00D11242A0F76
:102770003B1FBA0114E0660F771F1A95E1F7260F89
:10278000371F37FF02C0215C3F4F66E03595279524
:102790006A95E1F7240F351FE230F10544F4CF01CB
:1027A000F7FD019695958795919581959109B901C8
:1027B0002230310594F075956795681779073CF1DB
:1027C000E230F1050CF4EEC0CF01B3E095958795AA
:1027D000BA95E1F7860F971F22C037FF02C06F5FDF
:1027E0007F4F7595679571956195710968177907A0
:1027F0003CF7A90137FF02C0495F5F4FC3E0559521
:102800004795CA95E1F751954195510906C0A9012F
:10281000D3E055954795DA95E1F7840F951F4091E0
:1028200068014817190608F0CEC040917D06411195
:10283000C8C04FEF40937D064091670102C0880FEA
:10284000991F4A95E2F78F3F910509F020F44091D6
:102850006701483011F48FEF90E040917D064423EA
:1028600009F4BAC082519B4FDC018C9180935304D0
:10287000E90137FF04C0CC27DD27C21BD30B8F0132
:10288000F7FF04C0002711270E1B1F0B0C171D0795
:102890000CF0A4C045EE4003C001419F900D1124EF
:1028A000BE010E94A2356A597F4F609FC001619F9F
:1028B000900D709F900D1124BE010E94A235CB0196
:1028C00066E970E0681B790BF7FF06C08CE291E0C7
:1028D000DC01A61BB70BBD0137FF03C071956195E5
:1028E00071098091290490912A049B01281B390BBE
:1028F00070932A046093290437FF02C0285A3D4F81
:102900002C32B1E03B076CF08091EA04882349F057
:102910002C5231409091510481E0911180E08093DC
:10292000510480916A06882309F474C080916A0674
:10293000833009F472C08CE291E08217930714F59A
:1029400080916A06882309F46BC080916A068330FF
:1029500009F469C08CE291E0281B390B621B730BF0
:1029600070932A046093290480916A0628E532E076
:10297000882341F080916A062CE231E0833011F423
:1029800026E930E08091B102813009F04FC0C901E1
:1029900023E0880F991F2A95E1F7DF91CF911F91CE
:1029A0000F910895AF01F7FF02C0495F5F4FA3E0A9
:1029B00055954795AA95E1F788279927841B950B8C
:1029C00009CF4EEF37CF40917D06442309F434CF31
:1029D00040917D0641502ECF80E048CF70E060E00E
:1029E000309709F479CF45EEBE014603C001479FF9
:1029F000900D1124B8010E94A2356A597F4F6C9F37
:102A0000C0016D9F900D7C9F900D1124B8010E9414
:102A1000A2355ACF88E592E090CF86E990E08DCF3D
:102A200088E592E099CF86E990E096CF48EF42039F
:102A3000C001439F900D1124B0CFCF93DF93C0917D
:102A40007800D091790080917A00806480937A0038
:102A50000E944A048091EA04882341F08091510445
:102A60006FE081116FE182E10E94B704809153040D
:102A700080938A008091780090917900C80FD91FC7
:102A800080917A00806480937A0080914F049091C5
:102A900050040E9440132091780030917900C20FB9
:102AA000D31F20917A00206420937A00BC01990FF3
:102AB000880B990B0E944102209178003091790097
:102AC00090917A00906490937A00CE01820F931FC8
:102AD00097FD03969595879595958795805E91408E
:102AE0009093500480934F0480917D06813031F49F
:102AF00010928A006FEF83E00E94B70480917D06F8
:102B00008F3F31F46BEF83E0DF91CF910C94B704EA
:102B1000DF91CF910895F8948BB1807F8061962FDB
:102B200092959F70892B8BB98BB1807F80616F707C
:102B3000682B3C9800005C986BB93C9A3C9800006C
:102B40005C983C9A0E94A1078BEE90E00197F1F708
:102B500081E090E00895682F81EA96E00C948B154F
:102B60008F929F92AF92BF92CF92DF92EF92FF929D
:102B7000CF93C091000680916804C81709F47AC009
:102B80008091840681110DC00E94C7078FEC0E94BE
:102B9000BC0782E5C11101C080E20E94AB150E9412
:102BA000EB078090580490905904A0905A04B0907C
:102BB0005B04CC2309F493C00E942B04609364044B
:102BC0007093650480936604909367040E942B04BD
:102BD000C0906004D0906104E0906204F0906304BF
:102BE0009B01AC012C193D094E095F0969017A016D
:102BF000C0925C04D0925D04E0925E04F0925F04A7
:102C000080918706823030F1D501C401880F991F69
:102C1000AA1FBB1F8C159D05AE05BF05D8F40E94E9
:102C2000BB0260EB74E080E090E0A50194010E949B
:102C3000B635CA01B901A2E0660F771F881F991F38
:102C4000AA95D1F723E030E040E050E00E94B6358D
:102C500020936D01A5E0B0E0A50194010E941B3610
:102C6000C616D706E806F90628F081E080938706A5
:102C70000E94BB020E942B04C0906004D0906104AB
:102C8000E0906204F09063049B01AC012C193D09B3
:102C90004E095F0969017A01209158043091590465
:102CA00040915A0450915B04A6E0B0E00E941B36AC
:102CB0006C157D058E059F0530F480918706823066
:102CC00010F00E94BB02C0936804CF91FF90EF9078
:102CD000DF90CF90BF90AF909F908F9008950E940B
:102CE0002B0460936004709361048093620490935A
:102CF00063040E942B04C0906404D0906504E090AB
:102D00006604F09067049B01AC012C193D094E0943
:102D10005F0969017A01D501C401880F991FAA1FB3
:102D2000BB1FC816D906EA06FB0620F089288A28A8
:102D30008B28A1F4BC01CD016C0D7D1D8E1D9F1D46
:102D400023E030E040E050E00E94B6352093580484
:102D50003093590440935A0450935B0420915804D3
:102D60003091590440915A0450915B04A5E0B0E0C1
:102D70000E941B366C157D058E059F0580F4C701EA
:102D8000B60123E030E040E050E00E94B6352093E9
:102D900058043093590440935A0450935B04409173
:102DA00058045091590460915A0470915B04DB01FE
:102DB000CA01B695A795979587958C159D05AE0583
:102DC000BF0508F057CF8091870690E0880F991FC4
:102DD000440F551F661F771F21E04C155D056E05DA
:102DE0007F0508F020E0822B8093870643CF0F9366
:102DF0001F93CF93DF938C01D0E0C0E0F801EC0F7C
:102E0000FD1F6491662341F081EA96E00E948B15D4
:102E1000892B11F02196F2CFCE01DF91CF911F9136
:102E20000F91089582EC90E00C94F7160F931F9386
:102E3000CF93C62F8A018130A1F580E80E94BC079C
:102E40008C2F82958F70CF708A3021F481E30E949D
:102E5000AB1580E0805D0E94AB158EE20E94AB1541
:102E6000CA3020F0CA5081E30E94AB1580E38C0F7A
:102E70000E94AB1580E20E94AB15C8010E94F716B4
:102E80000E9412170E94121780EC0E94BC078091CA
:102E90008406823098F08EE3CF911F910F910C94AD
:102EA000AB1580EC0E94BC07C8010E94F7168FEC9E
:102EB00090E0CF911F910F910C94F716CF911F9135
:102EC0000F910895089590E080E008950F931F9367
:102ED000CF93DF9390E080E00E947904D0E0C0E0DF
:102EE00001E010E0C8010C2E02C0880F991F0A945F
:102EF000E2F78095909581600E9479046EE170E020
:102F000080E090E00E94F80390E080E00E94790465
:102F10002196C031D10531F7DF91CF911F910F91EB
:102F20000895FC0101900020E9F73197AF01481B9B
:102F3000590BBC0181EA96E00C94D8028F929F92C3
:102F4000AF92BF920F931F93CF93DF93CDB7DEB7AE
:102F5000A1970FB6F894DEBF0FBECDBF19A24230C5
:102F600008F44AE08E010F5D1F4F842E912CB12C86
:102F7000A12CA50194010E94B635E62FB901CA0122
:102F8000EA30F4F4E05DD801EE938D01232B242B7D
:102F9000252B79F790E080E0109719F0CD010E9481
:102FA0009117A1960FB6F894DEBF0FBECDBFDF918B
:102FB000CF911F910F91BF90AF909F908F900895E8
:102FC000E95CE1CFCF92DF92EF92FF92CF93DF9354
:102FD00097FF19C06B017C018DE20E94AB15EC01DB
:102FE00066277727CB016C197D098E099F094AE076
:102FF0000E949E178C0F9D1FDF91CF91FF90EF9045
:10300000DF90CF9008954AE0DF91CF91FF90EF904D
:10301000DF90CF900C949E17009711F00C949117AD
:1030200090E080E008954F925F926F927F928F922E
:103030009F92AF92BF92CF92DF92EF92FF920F9347
:103040001F93CF93DF934B015C0180EC0E94BC0780
:1030500080916B0690916C06A0916D06B0916E0602
:10306000892B8A2B8B2B09F040C040916906309147
:10307000690620917D0681E090E0323011F090E009
:1030800080E030E082239323417020E0842B922B58
:10309000892B69F586E00E94AB1580916B069091B3
:1030A0006C06A0916D06B0916E06892B8A2B8B2B36
:1030B00001F180917D0681111CC080906B0690907B
:1030C0006C06A0906D06B0906E068BEC90E00E94AE
:1030D000F71680916B0690916C06A0916D06B091E9
:1030E0006E06B7FF83C08DE282C080E2D4CF87E056
:1030F000D2CFC501B40120E836E948E950E00E948A
:10310000D835232B242B252B09F47AC040E8C42E74
:1031100046E9D42E48E9E42EF12C9AE0492E512CB0
:10312000612C712CC501B401A70196010E94D8350C
:103130008B01D82FC92F57FF07C050954095309568
:1031400021953F4F4F4F5F4FCA01B9010E94E217CF
:1031500088EEC81683E0D806E104F10441F020E4CB
:10316000C21622E4D2062FE0E206F10419F48CE242
:103170000E94AB154801AD2EBC2EC701B601A301BC
:1031800092010E94D83569017A0181E0C816D10404
:10319000E104F10439F680E20E94AB15E091B1023E
:1031A000F0E0EE0FFF1FE55AFE4F808191810E94F3
:1031B0000C1880E20E94AB158FEC0E94BC07809136
:1031C0008206811128C082E5DF91CF911F910F9176
:1031D000FF90EF90DF90CF90BF90AF909F908F9037
:1031E0007F906F905F904F900C94AB158BE20E9494
:1031F000AB1538EEC32E33E0D32EE12CF12C8DCF5E
:1032000080E20E94AB1520E4C22E22E4D22E2FE0F1
:10321000E22EF12C82CF86E5D7CF4F925F926F924C
:103220007F928F929F92AF92BF92CF92DF92EF9256
:10323000FF926B017C01AC019B010E944635882303
:1032400081F086E393E0FF90EF90DF90CF90BF9006
:10325000AF909F908F907F906F905F904F900C9465
:10326000911746015701E894B7F82FEF3FEF4FE76A
:103270005FE7C501B4010E94463581110DC02FEFF3
:103280003FEF4FE75FE7C501B4010E94C532181652
:103290001CF48AE393E0D7CF2FEF3FEF4FE75FE4D3
:1032A000C701B6010E947C3418161CF48EE393E02B
:1032B000CACF2FEF3FEF4FE75FECC701B6010E9487
:1032C000C53287FDF3CF20E030E0A901C701B60188
:1032D0000E94C532B12CA12C87FF08C08DE20E944C
:1032E000AB155C01F7FAF094F7F8F0942AE037EDAB
:1032F00043EA5BE3C701B6010E9459322B013C014E
:103300000E9443336B017C010E9472339B01AC012C
:10331000C301B2010E9458322B013C014AE0C701AF
:10332000B6010E949E177C01EA0CFB1C8EE20E94F3
:10333000AB15E80EF91E20E030E040E251E4C30195
:10334000B2010E94D9342B013C010E9443334B014E
:10335000B12CA12C4AE0C501B4010E949E17E80ED1
:10336000F91EC501B4010E9472339B01AC01C30177
:10337000B2010E94583220E030E040E251E40E9465
:10338000D9340E94433390E080E04AE00E949E17C7
:103390008E0D9F1DFF90EF90DF90CF90BF90AF906C
:1033A0009F908F907F906F905F904F900895CF93F4
:1033B000DF93282FCB016091EC047091ED04C42FB2
:1033C000D0E0233079F0243089F04091EC04509122
:1033D000ED04C40FD51FD093ED04C093EC04DF912E
:1033E000CF910895AE010E943032EFCFAE010E941E
:1033F0004032EBCFEF92FF920F931F93CF937B015D
:10340000642F843009F48BC058F4823098F040E285
:10341000B701CF911F910F91FF90EF900C94D719A6
:103420008630A9F780918506803218F48F5F8093EB
:10343000850681E090918406933011F01092850604
:1034400090918406923019F493E090938406C09191
:103450008506D701AC0FB11D9C91E92F092E000CF8
:10346000FF0B409183068F01040F111D47FD1A9534
:1034700000321105BCF0409183068F01040F111D2D
:1034800047FD1A95012B71F040918306E40FF11D61
:1034900047FDFA95EB35F1050CF03FC040918306EE
:1034A000940F01C090E29C9310928306A9010E94A0
:1034B00016170C2F06950695069588E0089F800143
:1034C00011240E0D1F1DF12CE12CF80181918F01AB
:1034D000882349F00E94AB15FFEFEF1AFF0A8DE039
:1034E000E816F10491F781E00E94AB150E941217D3
:1034F000909184068C2F8770805CC1E0923008F434
:10350000C0E08C0F80680E94BC078EE0CF911F91B5
:103510000F91FF90EF900C94BC079AE5C4CFF70190
:10352000B09692919F7D09F072CF1082EE16FF0641
:10353000C1F76DCF4F925F926F927F928F929F9261
:10354000AF92BF92CF92DF92EF92FF920F931F93B1
:10355000CF93DF93CDB7DEB7FB01823008F063C0B5
:10356000908140908306042C000C5508660877086B
:10357000490E511C611C711C4C145D046E047F04C7
:103580006CF5C0826901F42E5F01E82E109283066B
:103590000E94C707A6016F2D8E2D0E941617F501F8
:1035A00001151105A1F5608170E090E080E04AE02E
:1035B0000E949E170E941217DF91CF911F910F91C9
:1035C000FF90EF90DF90CF90BF90AF909F908F9043
:1035D0007F906F905F904F900C9412179081C090E5
:1035E00083060C2C000CDD08EE08FF08C90ED11C68
:1035F000E11CF11C8C149D04AE04BF0414F4808201
:10360000C1CF508190918306950F9083BBCF80816D
:1036100090E0880F991F080F191FF8018081918190
:103620000E940C18C7CF41E0DF91CF911F910F91FD
:10363000FF90EF90DF90CF90BF90AF909F908F90D2
:103640007F906F905F904F900C94D7194F925F923C
:103650006F927F928F929F92AF92BF92CF92DF92A2
:10366000EF92FF920F931F93CF93DF93EB01823082
:1036700008F076C0488059806A807B8090918306EC
:10368000892E990F9908AA08BB08840C951CA61CC2
:10369000B71CB7FE2EC0188219821A821B826901DC
:1036A000F42EE82E109283060E94C707A6016F2D04
:1036B0008E2D0E9416170115110509F043C068816F
:1036C00079818A819B810E94E2170E941217DF9103
:1036D000CF911F910F91FF90EF90DF90CF90BF900F
:1036E000AF909F908F907F906F905F904F900C94D1
:1036F0001217488059806A807B8090918306892EBA
:10370000990F9908AA08BB08840C951CA61CB71C25
:10371000C814D904EA04FB042CF4C882D982EA82D2
:10372000FB82BDCF88809980AA80BB809091830660
:10373000C92E990FDD08EE08FF08C80CD91CEA1C39
:10374000FB1CEBCF88819981AA81BB81880F991FCF
:10375000080F191FF801808191810E940C18B5CFC4
:1037600044E0DF91CF911F910F91FF90EF90DF9098
:10377000CF90BF90AF909F908F907F906F905F9011
:103780004F900C94D71980E80E94BC078091EA04FE
:10379000882321F181E780934703809127068823BE
:1037A00091F01F928F938AE493E09F938F9387E425
:1037B00093E09F938F930E9416370F900F900F9076
:1037C0000F900F900F9082E493E00E940C1881E01C
:1037D0000E94AB150E9412170C94121780E2DBCFE7
:1037E0008F929F92AF92BF92CF92DF92EF92FF9211
:1037F0000F931F93CF93DF93C82FD62F7DEFB72E54
:10380000B80E00E511E021E02B1580F01093ED04D7
:103810000093EC04AA24A394AD1640F46A2D85E02D
:103820000E94F01BA394F8CFDFE2EDCFDF3F59F504
:10383000D1E06D2F8C2F0E94F01BDF5FDE33C9F7C4
:103840006BEC6D0F693008F09BC3A62EB12CB5014F
:10385000660F771F660F771F6D5C794FC12CD12CD7
:10386000760110E000E030E020E040E08C2F0E9484
:10387000261BB501685D794F812C912C540130E0F5
:1038800020E040E0BAC0D533D8F6ED2FF0E0E55B9C
:10389000F34E0C94F735B81F801CEE1C011D111D52
:1038A000211D311D401D4F1D5E1D201C6E1D7E1DE6
:1038B000201C8E1D201C201C9D1DAC1D201C201CAE
:1038C000201C201C091E181E281E201C201C381E0F
:1038D000481E511E571E5D1E631E691E6F1E841EEC
:1038E000961E081F201C181F201C201C201C201C9A
:1038F000201C201C271F361F411F4C1F5A1F681FEA
:10390000C23008F064C08091970240918306082E6F
:10391000000C990BAA0BBB0B042E000C550B660B6D
:10392000770B840F951FA61FB71F8F3F9F4FAF4F79
:10393000BF4F7CF58FEF80939702109283060E9411
:10394000C7074DE951E061E18C2F0E941617809165
:10395000970287FD03C08BE20E94AB15609197022E
:10396000062E000C770B880B990B0E94E2170E9421
:1039700012170E9412178D2FDF91CF911F910F9177
:10398000FF90EF90DF90CF90BF90AF909F908F907F
:1039900008958091970240918306082E000C990BA0
:1039A000AA0BBB0B042E000C550B660B770B840F78
:1039B000951FA61FB71F4197A105B10514F080E11F
:1039C000BACF8091970290918306890FB4CF41E0DE
:1039D00067E972E08C2F0E94D719CDCF64E0862E64
:1039E000912CA12CB12CC12CD12C76010BE511E02E
:1039F00028E931E042E161EB72E08C2F0E949A1AD3
:103A0000BACF5BE0852E912CA12CB12CC12CD12CEE
:103A1000760103E411E025E931E043E16AE676E06E
:103A2000ECCF4AE0842E912CA12CB12CC12CD12CAE
:103A300076010DE211E020E931E044E168E972E04D
:103A4000DCCF39E0832E912CA12CB12CC12CD12CB0
:103A5000760109E111E02BE831E045E16BEA72E023
:103A6000CCCF812C912C54018394C12CD12C760184
:103A700005E111E027E831E046E169E676E0BDCFF7
:103A8000C12CD12C7601C39401E111E023E831E08F
:103A900047E16BE676E08C2F0E94261B6CCF812CD1
:103AA000912C54018394C12CD12C760101E111E0B9
:103AB0002FE731E048E160E171E09FCF00E1802E27
:103AC000912CA12CB12CC12CD12C760110E000E05E
:103AD0002CE731E049E169EA72E08FCF10E1812EF5
:103AE000912CA12CB12CC12CD12C760110E000E03E
:103AF00028E731E04BE16EE671E07FCFB4E08B2E3A
:103B0000912CA12CB12CC12CD12C760106E011E016
:103B100020E731E04CE16FEA72E06FCF812C912C0D
:103B200054018394C12CD12C760101E111E025E6EA
:103B300031E041E260EB72E060CF812C912C5401C6
:103B40008394C12CD12C760101E111E02CE531E008
:103B500044E26BEE74E051CFC23008F056C0809161
:103B600071019091720140918306092E000CAA0BFD
:103B7000BB0B042E000C550B660B770B840F951FA7
:103B8000A61FB71F181619061A061B06CCF081E0EF
:103B900090E09093720180937101109283060E94CD
:103BA000C70743E551E065E28C2F0E94161760912C
:103BB000710170917201072E000C880B990BD5CE04
:103BC000809171019091720140918306092E000C41
:103BD000AA0BBB0B042E000C550B660B770B840F46
:103BE000951FA61FB71F4F97A105B1051CF08EE1C9
:103BF00090E0CFCF80917101909172012091830666
:103C0000820F911D27FD9A95C4CF42E061E771E0D4
:103C1000E1CE812C912C54018394C12CD12C7601BE
:103C200001E111E02FE431E041E362E876E0E5CE26
:103C300070E5872E912CA12CB12CC12CD12C7601B2
:103C400010E000E028E431E042E368E671E0D5CE20
:103C500060E1862E912CA12CB12CC12CD12C7601A7
:103C600010E000E02FE331E043E367E671E0C5CE0A
:103C700058EC852E912CA12CB12CC12CD12C760185
:103C800010E000E022E331E041E463E771E0B5CE0B
:103C900029E231E042E464E771E08C2F0E94FA19D6
:103CA0006ACE20E231E043E464EA71E0F6CF27E136
:103CB00031E044E464ED71E0F0CF2EE031E045E422
:103CC00064E072E0EACF25E031E046E464E372E0CC
:103CD000E4CF2CEF30E047E464E672E0DECF809082
:103CE0006501882D8150990B4C01092C000CAA0804
:103CF000BB08C12CD12C760110E000E024EF30E0AD
:103D000041E86EEE75E079CEC090EE05D12CF12C35
:103D1000E12C46E9842E912CA12CB12C10E000E07E
:103D20002CEE30E042E865E671E067CEC23008F084
:103D30006BC080919B0690919C06A0919D06B091CE
:103D40009E0640918306042E000C550B660B770BE4
:103D5000840F951FA61FB71F80389F49A54DB10539
:103D600014F580E89FE9A5EDB0E080939B06909361
:103D70009C06A0939D06B0939E06109283060E9417
:103D8000C70744EE50E063E88C2F0E94161760913D
:103D90009B0670919C0680919D0690919E064AE03C
:103DA0000E949E17E4CD80919B0690919C06A09165
:103DB0009D06B0919E0640918306042E000C550B83
:103DC000660B770B840F951FA61FB71F81309F438B
:103DD000AB4AB1402CF080E09FE3ABEAB1E0C5CF45
:103DE00080919B0690919C06A0919D06B0919E06A5
:103DF00040918306042E000C550B660B770B840F45
:103E0000951FA61FB71FB1CF44E06BE976E0E2CD66
:103E100034EB832E912CA12CB12CC12CD12C76010A
:103E200010E000E02BED30E044E864E972E0E5CD1D
:103E3000812C912C54018394C12CD12C760101E169
:103E400011E026ED30E047E86AEE74E0D6CD812C33
:103E5000912C54018394C12CD12C760101E111E005
:103E600022ED30E041EA66E671E0C7CDC12CD12CED
:103E7000760110E000E030E020E040E06DE972E023
:103E80000ACEC12CD12C760110E000E030E020E019
:103E900040E061EA72E0FFCD812C912C5401C12CED
:103EA000D12C760110E000E030E020E040E065EA4F
:103EB00072E0A3CD812C912C5401C12CD12C760120
:103EC00010E000E030E020E040E066EA72E095CDEE
:103ED000C23008F049C02091FC053091FD05809169
:103EE0008306082E000C990BAA0BBB0B820F931FA5
:103EF000A11DB11DB7FF15C01092FD051092FC0564
:103F0000109283060E94C70750E040E060E08C2FCB
:103F10000E9416176091FC057091FD0590E080E00D
:103F20003ECF2091FC053091FD0580918306082E3F
:103F3000000C990BAA0BBB0B820F931FA11DB11D87
:103F4000181619061A061B06BCF28091FC05909102
:103F5000FD0520918306820F911D27FD9A95909370
:103F6000FD058093FC05CCCF42E06CEF75E032CDCF
:103F7000109284060E94C31B81E08093AA02FBCCAE
:103F8000C23009F0F8CCDF3209F4F5CC8091830619
:103F900021E030E0181614F02FEF3FEF8D2F90E066
:103FA000280F391F2033310514F420918306209106
:103FB0008306121674F421E030E0820F931FC0973D
:103FC0000CF032CC80918306181634F481E0D80FBF
:103FD0001ACC2FEF3FEFF1CF8FEFF9CFCF93C82F50
:103FE000809170008D7F809370008BE490E001974A
:103FF000F1F7F894C0937D0680916B0690916C0662
:10400000A0916D06B0916E06892B8A2B8B2B51F0F7
:104010006091990270919A0280919B0290919C020A
:104020000E941318CC2309F495C08091040190914B
:1040300005019093E9048093E804109279061092A8
:104040007A0610927B0610927C068091B102823033
:1040500009F477C008F46EC0833009F478C0843066
:1040600009F472C07894CC2309F4ADC08091650640
:1040700080937C001092FB058091B002882361F050
:104080008091B102823041F481E0C11101C080E031
:10409000809300060E94B015CC2309F4A9C060E00B
:1040A00088E00E94570361E08BE00E9457038FEC89
:1040B0000E94BC0784E50E94AB158091B10282305A
:1040C00009F085C080915F0690916006A09161061D
:1040D000B09162069C01AD0166277727CB01621B78
:1040E000730B840B950B0E9441020E944A046BEFF4
:1040F00083E00E94B70480E8809388008091E70401
:10410000811109C08091B102823029F08091800034
:104110008F77809380008091800080628093800000
:1041200080E48093B300809170008260809370007F
:10413000CF9108958DE195E19093FA058093F9056B
:1041400091CF80EF92E1F8CF86E198E0F5CF8CE354
:1041500098E0F2CF8091B102823009F58091790622
:1041600090917A06A0917B06B0917C06892B8A2BD0
:104170008B2BA9F40E942B04605C7F4F8F4F9F4FC5
:104180006093790670937A0680937B0690937C0601
:104190008091EB04811114C083E99BE0CDCF809125
:1041A000E8049091E9049093050180930401109232
:1041B000790610927A0610927B0610927C06ECCF5C
:1041C00086EA98E0B9CF81E08093680653CF80916A
:1041D0006B0690916C06A0916D06B0916E06892BCE
:1041E0008A2B8B2B09F483CF60E070E0CB017BCF6F
:1041F00080918000806880938000809180008F7D16
:104200008093800060E08AE00E94570310928A0049
:104210008091EA04882321F06FE082E10E94B704D4
:104220006CEF83E00E94B7048091790690917A0642
:10423000A0917B06B0917C06892B8A2B8B2B21F0D9
:104240008091EB0481110DC08091660661E082309F
:1042500009F460E088E00E94570360E08BE00E9470
:10426000570360916B0670916C0680916D0690917A
:104270006E060E9441020E944A0480916F018823C9
:1042800031F00E94C31B8FE493E00E940C188FEC66
:104290000E94BC0780918206811105C082E50E94C0
:1042A000AB1584E03ECF86E5FACF1F920F920FB692
:1042B0000F9211242F933F938F939F93AF93BF93AC
:1042C0008091F0059091F105A091F205B091F30570
:1042D0003091EF0523E0230F2D3758F50196A11DEE
:1042E000B11D2093EF058093F0059093F105A09305
:1042F000F205B093F3058091F4059091F505A09136
:10430000F605B091F7050196A11DB11D8093F40546
:104310009093F505A093F605B093F705BF91AF9183
:104320009F918F913F912F910F900FBE0F901F90F3
:10433000189526E8230F0296A11DB11DD2CF1F921A
:104340000F920FB60F9211242F933F934F935F93C9
:104350006F937F938F939F93AF93BF93EF93FF934D
:10436000E091F905F091FA050995FF91EF91BF9160
:10437000AF919F918F917F916F915F914F913F91FD
:104380002F910F900FBE0F901F9018951F920F92B4
:104390000FB60F9211240F931F932F933F934F93B8
:1043A0005F936F937F938F939F93AF93BF93CF93BD
:1043B000DF93EF93FF93C091F80580E1C89FE00180
:1043C000112486E00E942E038C0187E00E942E03B8
:1043D000000F111F8C2B802B8093F8058332B9F0CE
:1043E0008233D9F0FF91EF91DF91CF91BF91AF91DF
:1043F0009F918F917F916F915F914F913F912F91FD
:104400001F910F910F900FBE0F901F9018958091E4
:1044100083068F5F80938306E5CF8091830681506A
:10442000F9CFCF93DF93CDB7DEB7A2970FB6F8944D
:10443000DEBF0FBECDBF789484B5826084BD84B5E5
:10444000816084BD85B5826085BD85B5816085BD8F
:1044500080916E00816080936E0010928100809147
:1044600081008260809381008091810081608093CF
:104470008100809180008160809380008091B100F4
:1044800084608093B1008091B00081608093B0001F
:1044900080917A00846080937A0080917A008260B3
:1044A00080937A0080917A00816080937A00809175
:1044B0007A00806880937A001092C10060E08AE000
:1044C0000E9457030E947F0714BE88E198E20FB64E
:1044D000F894A895809360000FBE9093600080E4EC
:1044E00080937C001092680010926B0010926C0018
:1044F00010926D0062E087E00E94850362E086E032
:104500000E94850380916D00806C80936D00809186
:10451000680084608093680086E00E942E036C012E
:1045200087E00E942E03CC0CDD1CC82AC092F8053F
:10453000789460E08BE00E94570361E088E00E947D
:10454000570360E08AE00E94570360E089E00E9420
:10455000570361E089E00E94850361E08BE00E94DF
:10456000850361E088E00E94850361E08AE00E94A3
:10457000850360E081E10E94850362E08DE00E9496
:10458000850360E08CE00E94850360E08EE00E947D
:10459000570360E08FE00E94570360E08EE00E94C6
:1045A000850360E08FE00E94850360E08BE00E945D
:1045B000570361E08BE00E94850360E084E10E9484
:1045C000850360E085E10E94850361E085E00E944B
:1045D000850364E670E080E090E00E94F8038AB111
:1045E0008F618AB93C9A8BE39DE00197F1F73C9A81
:1045F0005C9883E30E94BC078BE4C82E86E4D82E27
:10460000C6010197F1F783E30E94BC07C601019739
:10461000F1F783E30E94BC0783E592E00197F1F78D
:1046200082E30E94BC0788E20E94BC078CE00E94E3
:10463000BC0781E00E94BC0763E070E080E090E08E
:104640000E94F80386E00E94BC071092FF051092BA
:10465000FE055E0129E0A20EB11C8091FE0590913D
:10466000FF050897A9F16091FE057091FF0513E021
:10467000660F771F1A95E1F76B5B7D4F48E050E0BE
:10468000CE0101960E9427328091FE059091FF0590
:104690008F5F48E0849FC0011124887380640E946A
:1046A000BC07CE0101966C01D6016D916D0181EAC6
:1046B00096E00E948B15CA14DB04B1F78091FE05C9
:1046C0009091FF0501969093FF058093FE05C5CF5D
:1046D0000E94C31B0E94121780E80E94BC078BE354
:1046E00092E00E94F71680EC0E94BC078BE292E0F9
:1046F0000E94F71668EE73E080E090E00E94F803F5
:104700000E94121780E80E94BC0784E292E00E9497
:10471000F71687E80E94BC0781E292E00E94F71634
:104720008AE192E00E94F7160E9412176CED75E084
:1047300080E090E00E94F80384E080936701E091BC
:104740009602B4E0EB9FF0011124EA52FD4F808104
:104750009181A281B38180935F0690936006A093BC
:104760006106B0936206E3E3F6E08CE2DF011D929E
:104770008A95E9F710922B0610922A0610922906C4
:104780001092280681E08093300680932F06809354
:104790002E0680932D0680932C0664E383E00E940E
:1047A000F01B8091FC059091FD05823D984009F435
:1047B00098C382ED98E09093FD058093FC056FEF20
:1047C00084E00E94F01B80EC0E94BC0789E092E02C
:1047D0000E94F7166CED75E080E090E00E94F8030F
:1047E000A8951092A00610929F06DD24D394D09233
:1047F000AA028091980280939502109282061092EC
:104800006B0610926C0610926D0610926E068091E7
:104810006906082F017010E0000F111F000F111F13
:10482000F801E356FD4F80819181A281B38180938D
:10483000990290939A02A0939B02B0939C0280915C
:10484000690680FBEE24E0F8F12CF701EB55FD4FF3
:1048500080818093B1020E94CA0760E273E080E029
:1048600090E00E94F8030E94C31BD0926806109249
:10487000FB0583E99BE09093FA058093F90524E614
:104880003EED45E050E061E082E00E94A7088091A3
:104890007C00809365068091660661E0813009F4B2
:1048A00060E029E937E741E050E080E00E94A70896
:1048B00080917C00809363068091660661E0813080
:1048C00009F460E029E937E741E050E081E00E9427
:1048D000A70880917C00809364061092800010925B
:1048E000810080918000826A8093800080918100A5
:1048F000896180938100109287008FEF80938600FA
:10490000109289001092880010928B0010928A00F9
:104910008091B6008F7D8093B6001092B000109207
:10492000B1001092B2008091B00082608093B0001C
:104930008091B10084608093B100809170008260AA
:104940008093700084E08093B300809180008F7D1D
:104950008093800060E08AE00E9457038DE00E940F
:104960002E03892B09F4C8C28091B102809182067E
:10497000882391F18091B102882321F08091B102C6
:10498000813051F580918106811106C380918006A6
:1049900091E0980F90938006803109F0C4C2809115
:1049A0007E0690917F06A4E096958795AA95E1F7FB
:1049B000805E91400E9440131092800610927F0604
:1049C00010927E0680917D06882331F081E08093ED
:1049D00081068FEF0E94EE1F8091B102823009F0B4
:1049E0007AC08091B002882309F475C080917D0659
:1049F000811171C08091790690917A06A0917B0611
:104A0000B0917C06892B8A2B8B2B09F064C0809097
:104A1000070690900806A0900906B0900A06C0907C
:104A20006901D0906A01E0906B01F0906C01C501C2
:104A3000B4016C197D098E099F0920E031E040E046
:104A400050E00E94D835C20ED31EE41EF51EC0925F
:104A50006901D0926A01E0926B01F0926C01C7018A
:104A6000B60122E030E040E050E00E94D83511E08D
:104A7000281539054A055B050CF010E01093060671
:104A800080910506181751F00E942B0460930106CF
:104A90007093020680930306909304060E942B04F1
:104AA0008090010690900206A0900306B090040644
:104AB000681979098A099B09613171058105910598
:104AC00008F479C2809100061813109300060E9422
:104AD000B0151093050680918406811127C080913E
:104AE0008606882309F47CC287E0E3ECF2E0DE016D
:104AF000119601900D928A95E1F7E091AF0241E0A5
:104B000050E04C0F5D1F4E0F511DFA0110810E94A5
:104B1000C7071092860680E80E94BC07812F90E0AC
:104B20008E549D4F0E940C180E94EB078091B10299
:104B300080918106811152C18DE00E942E03892B44
:104B400009F04CC110927506109276061092770605
:104B50001092780681E00E94EE1FA8958091B10224
:104B6000823009F073C36AE070E080E090E00E9458
:104B7000F8038091B102823009F022C10E942B0417
:104B8000009171061091720620917306309174069F
:104B9000601771078207930708F412C108E010E05C
:104BA000812C912C54017501640184E10E94C103A0
:104BB000BC01990F880B990B0E9474332CE03EE2E4
:104BC00048EB5BE30E94D9349B01AC01C701B601FD
:104BD0000E9459326B017C0185E10E94C103BC0136
:104BE000990F880B990B0E9474332CE03EE248EB3E
:104BF0005BE30E94D9349B01AC01C501B4010E9462
:104C000059324B015C0165E070E080E090E00E9469
:104C1000F8030150110949F620E030E040E05EE37E
:104C2000C701B6010E94D9346B017C0120E030E05D
:104C300040E05EE3C501B4010E94D93469877A87F8
:104C40008B879C87A7019601C701B6010E94D934C2
:104C50002B013C01A701960169857A858B859C858E
:104C60000E94CA324B015C0120E030E040E85FE383
:104C70000E9459326F8F78A389A39AA3A50194014A
:104C800060E070E080E89FE30E9458329B01AC0135
:104C90006F8D78A189A19AA10E94CA324B015C0153
:104CA0002AE037ED4FE151E40E947C34181654F0AD
:104CB00020E030E040E85FE3C501B4010E94C53266
:104CC00087FF08C0EAE08E2EE7ED9E2EEFE1AE2EC4
:104CD000E1E4BE2E20911B0630911C0640911D067A
:104CE00050911E06C301B2010E94C53281110FC04E
:104CF000A50194016091170670911806809119061C
:104D000090911A060E94C532882309F44BC00E9474
:104D1000C70780E80E94BC0780916F01823009F4C8
:104D20009AC2833009F4CEC2813061F58EE593E0FA
:104D30000E940C1820E030E048EC52E4C301B201BC
:104D40000E94D9340E94AF3320E030E048EC52E4B6
:104D50000E94CA320E940D1980E693E00E940C184E
:104D600020E030E048EC52E4C501B4010E94D9349F
:104D70000E94AF3320E030E048EC52E40E94CA3297
:104D80000E940D1940921B0650921C0660921D064F
:104D900070921E068092170690921806A09219062D
:104DA000B0921A060E942B046C507E4F8F4F9F4F7B
:104DB00060937106709372068093730690937406E5
:104DC00081E10E942E03892B31F48DE00E942E0395
:104DD000892B09F4C2CE80E00E94EE1FC0907906B4
:104DE000D0907A06E0907B06F0907C06C114D10446
:104DF000E104F10451F00E942B04C616D706E80620
:104E0000F90618F480E00E94EE1F81E10E942E0353
:104E1000892B09F4B7C58091700682FD05C0809189
:104E20007006857009F47FC280917006807F909132
:104E30008306992309F4F6C29CE0892B80937006BF
:104E400080917006823209F48AC408F01DC386314D
:104E500008F0EAC2843108F0C0C3813109F4C3C349
:104E600080918406811107C0909167068091840625
:104E7000981709F4A1C610918306809184068130A9
:104E800009F087C5112309F486C5909183068091A6
:104E9000AE02890F8093AE028091AE028F322CF465
:104EA0008091AE0218160CF070C58091AE028F3260
:104EB0000CF06DC58091AE028093AE026091AE029F
:104EC00082E00E94F01B8093AE02109283068091D4
:104ED000840660E081116091AE0281E00E94F01BC7
:104EE00060C581E10E942E03892B09F062CC6FEF2F
:104EF00083E00E94F01B75CC80EC0E94BC0781E22D
:104F00000E94AB1581E20E94AB158BEF91E00E94ED
:104F1000F7160E9412176CED75E080E090E00E9499
:104F2000F803A8951BCDF89483E880937A008091CC
:104F30006801803220F060E088E00E945703909181
:104F40007C0080917A0084FFFCCF8091650680937D
:104F50007C0080917A00806480937A0080917A004E
:104F600084FFFCCF90937C0080916801803220F018
:104F700061E088E00E945703209178003091790029
:104F8000789480917E0690917F06820F931F909374
:104F90007F0680937E0616CD80917D0681111CCD03
:104FA0000E94EE1F1092810660E270E080E090E0C7
:104FB0000E94F80311CDC701B60124E630E040E0BD
:104FC00050E00E94D835C20ED31EE41EF51EC092DA
:104FD0006901D0926A01E0926B01F0926C0177CD89
:104FE0008091790690917A06A0917B06B0917C061B
:104FF000892B8A2B8B2B09F099CD80918106811109
:105000000C94FD31409113065091140660911506E1
:105010007091160680910F0690911006A0911106CE
:10502000B091120684179507A607B70708F4F3C0D6
:10503000C0900F06D0901006E0901106F090120676
:10504000C0920F06D0921006E0921106F09212065E
:105050008091AF02882311F40C94F93180910D06F0
:1050600090910E06019690930E0680930D06977010
:10507000892B11F00C94F93180916E0161E070E0A0
:1050800002C0660F771F8A95E2F7072E000C880B87
:10509000990B0E9474334B015C01C701B6010E9459
:1050A00072339B01AC01C501B4010E94D93421EDDA
:1050B00035E443EE5FE40E94CA329B01AC010E94DA
:1050C000D93420E030E048E452E40E94CA320E9421
:1050D000813420E030E040E251E40E94D93420E005
:1050E00030E040EF51E40E9459320E943C336B01A2
:1050F00070930C0660930B060E94C7078091AF0265
:10510000813069F489E80E94BC07B601DD0C880B88
:10511000990B0E94E21785E892E00E94F7168091B1
:10512000AF028230F9F480910B0690910C06813C1D
:105130005FEF95070CF078C081589F4F66E070E0F4
:105140000E94A235162F8EE80E94BC071A3018F470
:1051500083E50E94AB15612F70E090E080E04AE0AB
:105160000E949E178091AF02833039F580910B0623
:1051700090910C06813CAFEF9A070CF05EC081580D
:105180009F4F66E070E00E94A235FE01319694EFD9
:10519000960F8F0182E016162CF481E0860F6530A1
:1051A0000CF085E0819363506913F4CF1D828CE885
:1051B0000E94BC07C8010E940C188091AF02843085
:1051C00099F48EE80E94BC078091B102823041F4CC
:1051D00060916D0170E090E080E04AE00E949E17CF
:1051E0008DE593E00E940C180E94EB0780910F065A
:1051F00090911006A0911106B0911206B695A79550
:105200009795879580930F0690931006A0931106AB
:10521000B09312068BCCC0901306D0901406E09089
:105220001506F09016060CCF875B1AE0612F0E94DE
:105230008235819F102D112486CF875B2AE0622F53
:105240000E948235829F602D11249FCF64E670E01A
:1052500080E090E08CCC88E693E00E940C1820E07F
:1052600030E048EC52E4C301B2010E94D9340E94FC
:10527000AF3320E030E048EC52E40E94CA320E9492
:105280000D198CE693E00E940C1829853A854B8510
:105290005C85CA01B9010E94D93420E030E048ECB5
:1052A00052E40E94D9340E94AF3320E030E048EC51
:1052B00052E40E94CA320E940D1981E793E00E94D5
:1052C0000C1860CD88E693E00E940C1820E030E0D6
:1052D00048EC52E4C701B6010E94D9340E94AF33B2
:1052E00020E030E048EC52E40E94CA320E940D19DE
:1052F00083E793E00E940C1820E030E048EC52E491
:1053000069857A858B859C850E94D9340E94AF334C
:1053100020E030E048EC52E40E94CA320E940D19AD
:1053200088E793E0CCCFF89480917A0084FFFCCF9B
:10533000E0907A00F0907C0080917A00877F8093E3
:105340007A0080917A00876080937A0080E480936D
:105350007C0061E070E080E090E00E94F80381E171
:105360000E94C1038C01E0927A00F0927C00789454
:1053700081E0809370060E942B046B017C0181E127
:105380000E942E03892B71F00E942B046C197D0959
:105390008E099F096D3271408105910578F184E095
:1053A000809370066AE070E080E090E00E94F8036D
:1053B00080917006843099F00E942B046C197D094D
:1053C0008E099F09643F71408105910540F481E198
:1053D0000E942E03892BA1F082E08093700681E168
:1053E0000E942E03892B89F080918306882321F067
:1053F00080917006843031F0A895F1CFA895BFCF89
:10540000A895D6CF8CE08093700690E10C35F3E040
:105410001F0728F090E2073D134008F090E38091C9
:1054200070060BCD95E009CD8C3109F4DAC08132DC
:1054300009F016CD8091840681117BC11091B102D3
:1054400080916B0690916C06A0916D06B0916E06EE
:10545000892B8A2B8B2B09F402C110926B061092B8
:105460006C0610926D0610926E062091B10281E0DA
:1054700090E0223011F090E080E084559D4FDC01F7
:105480008C918093AB0251C1823309F469C270F4EC
:10549000843209F4C1C1813309F0E2CC80918406E1
:1054A000811141C281E00E94F407DACC843309F40F
:1054B00062C28C3309F0D4CC81E10E942E03892B87
:1054C00009F433C1A895809183068823A9F361E08C
:1054D00080E00E94F01B8091970287FF4EC28AE015
:1054E0008093970261E084E00E94F01B80EC0E94B0
:1054F000BC078AE892E00E94F7160E94121787EF15
:1055000084BF0FB6F894A89580916000886180935D
:105510006000109260000FBE809170008D7F8093BC
:10552000700061E070E080E090E00E94F80310926B
:10553000880010928A0080917A00877F80937A0099
:1055400080917A00876080937A0080E480937C0069
:105550000E947F076CED75E080E090E00E94F80308
:105560001092680010926B0010926C0010926D0007
:1055700010926E0010926F001092700010926000F6
:1055800080916C00886080936C00809168008260DC
:10559000809368008FEF8093640088E00E94BC07CE
:1055A0005D9883B7817F846083BF83B7816083BF49
:1055B000789485B7806685BF8F7D85BF889583B7D2
:1055C0008E7F83BF88E198E00FB6F894A89580930A
:1055D00060000FBE90936000FFCF82E0809384064E
:1055E0003FCC81E0FBCF80918406813041F48091F3
:1055F000AE028D3124F08091AE028332A4F080910E
:105600008406882311F180918406813031F181E094
:1056100090918406923010F36091AE0284E00E9473
:10562000F01B80E0DBCF0E942B0460937506709323
:10563000760680937706909378068091AE028D511E
:1056400080936F06109284060BCC8091AE0281117C
:10565000DACF81E08093AE02D6CF82E0D9CF8091BD
:10566000B1028F5F8093B1028091B102833010F05C
:105670001092B1028091B102823011F41092A9020D
:1056800081E090E0123011F090E080E02091AB02D8
:10569000FC01E455FD4F20834091B10221E030E050
:1056A000423011F030E020E024553D4FF9012081D7
:1056B0002093AB0220916A0689559D4FDC012C9303
:1056C0002091B10281E090E0223011F090E080E082
:1056D00089559D4FFC01808180936A0690916906EF
:1056E0008091B10291709D871E86ED85FE85EB55F8
:1056F000FD4F80838091690663E380FF62E384E06D
:105700000E94F01B62E084E00E94F01B63E084E0F2
:105710000E94F01B1092A00610929F06123029F4EE
:105720008091B00281110E94C31B81E08093AA0284
:1057300097CB80918406813011F410928406809179
:105740008406823008F48CCB81E0809384068093B9
:10575000AA026091AE0284E00E94F01B81CB80918E
:105760006A068F5F80936A0681E080936806809165
:10577000B102823039F480916A068C3018F084E0EE
:1057800080936A068091B102823039F480916A0672
:10579000843019F486E08093AB028091B1028230AC
:1057A00079F480916A06853021F080916A0686300E
:1057B00039F48091AB02873018F487E08093AB0214
:1057C0008091B102823059F480916A06873039F4B1
:1057D0008091AB02883018F488E08093AB0280910E
:1057E000B102823031F080916A06843010F010925C
:1057F0006A061092830663E080E00E94F01B63E07B
:1058000084E00E94F01BA8956CED75E080E090E0CC
:105810000E94F803A89589CF40916B0650916C06C1
:1058200060916D0670916E0681E090E0A0E0B0E0BE
:10583000452B462B472B19F080E090E0DC0180934C
:105840006B0690936C06A0936D06B0936E068091E4
:105850006B0690916C06A0916D06B0916E06892B37
:105860008A2B8B2B09F058C02091B10281E090E087
:10587000223011F090E080E084559D4FDC018C9146
:105880008093AB0280916B0690916C06A0916D069F
:10589000B0916E06892B8A2B8B2B09F046CF909105
:1058A000690681E0911180E0809369068091690624
:1058B00080FB222420F8312CF101EE0FFF1FEE0FA8
:1058C000FF1FE356FD4F80819181A281B3818093B8
:1058D000990290939A02A0939B02B0939C028091AC
:1058E000690681708F87188AEF85F889EB55FD4F1F
:1058F00080818093B1028091B102823079F085E09D
:105900008093AB028091B102823051F484E08093A5
:105910006A061092A90209CF88E0B2CF86E0F0CFE4
:1059200010926A0602CF80918406809184068230AC
:10593000A9F481E08093AA026091AE0284E00E9403
:10594000F01B81E090918406933009F047CE60917E
:10595000AE0286E00E94F01B83E040CE82E0F2CFF0
:10596000809198028F5F8A3020F48093980285E0BE
:1059700088CD81E0FACF8FEF96CD61E084E00E9480
:10598000F01B9ACD109270066BCA81E095CA8FE227
:1059900093CA11119CCA909167068091840698134E
:1059A00096CA80918406809367068091840682302F
:1059B00009F002C1112309F4FFC080EC0E94BC076A
:1059C0008EE00E94BC078091AE02823069F5909112
:1059D00069068091B1029170998B1A8AE989FA89D6
:1059E000EB55FD4F80838091690663E380FF62E39E
:1059F00084E00E94F01B81E08093AA021092A0062E
:105A000010929F068091B102823009F4D6C385E0DE
:105A10008093AB028091B102823009F0D0C384E060
:105A200080936A061092A9028091AE02843019F424
:105A300081E08093AA028091AE028630C9F59091F0
:105A4000690691709B8B1C8AEB89FC89EE0FFF1F06
:105A5000EE0FFF1FE356FD4F40815181628173813C
:105A60004093990250939A0260939B0270939C0218
:105A70009091690691709D8B1E8AED89FE89EB5588
:105A8000FD4F90819093B1029091B102923009F054
:105A900085E08093AB028091B102823009F092C31D
:105AA00084E080936A061092A90281E08093AA02A2
:105AB0008091AE02873099F480916B0690916C06CC
:105AC000A0916D06B0916E06892B8A2B8B2B09F461
:105AD0007CC388E08093AB0281E08093AA0280912E
