:100000000C948F010C94B7010C94B7010C94B701B8
:100010000C94B7010C949C210C94B7010C9475219D
:100020000C94B7010C94B7010C94B7010C94B70170
:100030000C94B7010C94B7010C94B7010C94B70160
:100040000C942B210C94B7010C94B7010C94B701BC
:100050000C94B7010C94B7010C94B7010C94B70140
:100060000C94B7010C94B70108000000BE9224491B
:10007000123EABAAAA2ABECDCCCC4C3E00000080DA
:10008000BEABAAAAAA3E00000000BF000000803F4D
:100090000000000000084178D3BB4387D1133D190D
:1000A0000E3CC3BD4282AD2B3E68EC8276BED98F3A
:1000B000E1A93E4C80EFFFBE01C4FF7F3F0000007E
:1000C0000000202020202020202000524954003A07
:1000D00020004C454400515541440049512070686E
:1000E0006173650052656620667271005057522038
:1000F0006D617800505752206D696E004357204D56
:1001000073675F36004357204D73675F3500435771
:10011000204D73675F34004357204D73675F330092
:100120004357204D73675F32004351204D73675F23
:1001300031004357205245504541542078350054F2
:100140005820447269766500535120564F58005626
:100150004F580043572053706565640053656D69BF
:100160002051534B004357204465636F6465720010
:10017000532D4D6574657200415454004E52004138
:100180004743005249540056464F0053746570006F
:1001900042616E64004257004D6F646500566F6C9B
:1001A0000000000000240027002A000000000025B5
:1001B0000028002B00000000002300260029000476
:1001C00004040404040404020202020202030303FE
:1001D00003030301020408102040800102040810F8
:1001E00020010204081020000000080002010000A5
:1001F0000304070000000000000000436865636B13
:10020000205054542F6B65790052657365742073C8
:10021000657474696E67732E2E0031333038323650
:100220000020520055534452202B0070726F6674A8
:100230007064406D61696C2E727500506574726FE8
:10024000762052560008040A050A0408000000003F
:1002500000000000001010101010101010101014EA
:10026000141414141410101515151515150C121E50
:1002700012120000001C121C121C000000000000E2
:10028000000000000064426D2000506F7765722D01
:100290006F6666203733203A2D29007E2045544969
:1002A000414E4D53555257444B474F4856462A4CA2
:1002B0002A504A425843595A512A2A353453332A2C
:1002C0002A2A322A2A2B2A2A2A4A31363D2F2A2A3A
:1002D0002A482A372A472A382A39302A2A2A2A2A13
:1002E0002A2A2A2A2A2A2A3F5F2A2A2A2A222A2A2C
:1002F0002E2A2A2A2A402A2A2A272A2A2D2A2A2A44
:100300002A2A2A2A2A3B212A292A2A2A2A2A2C2A44
:100310002A2A2A3A2A2A2A2A0000FC311B321124CE
:100320001FBECFEFD8E0DEBFCDBF14E0A0E0B1E04C
:10033000EEE7F3E702C005900D92A232B107D9F7BC
:1003400026E0A2E2B4E001C01D92AE3AB207E1F7A6
:1003500011E0CEE8D1E004C02197FE010E94F23501
:10036000CD38D107C9F70E94E7210C94B2390C941B
:10037000000087FF76C03C983D9800000000000018
:1003800000003D9A000000000000000086FF6BC0E6
:100390003C983D9800000000000000003D9A0000DD
:1003A00000000000000085FF60C03C983D98000000
:1003B0000000000000003D9A000000000000000066
:1003C00084FF55C03C983D980000000000000000EC
:1003D0003D9A000000000000000083FF4AC03C98E6
:1003E0003D9800000000000000003D9A0000000061
:1003F0000000000082FF3FC03C983D9800000000D4
:10040000000000003D9A000000000000000081FF95
:1004100034C03C983D9800000000000000003D9A68
:10042000000000000000000080FF29C03C983D98BB
:1004300000000000000000003D9A000000000000E5
:1004400000003C9800000000000000003D98000003
:100450000000000000003D9A0000000000000000C5
:1004600008953C9A89CF3C9A94CF3C9A9FCF3C9A6E
:10047000AACF3C9AB5CF3C9AC0CF3C9ACBCF3C9AFE
:10048000D6CF2F923F924F925F926F927F928F9230
:100490009F92AF92BF92CF92DF92EF92FF920F9313
:1004A0001F93CF93DF9300D000D0CDB7DEB79B0171
:1004B000AC018091970690919806A0919906B09111
:1004C0009A0689839A83AB83BC83A0919406C090DB
:1004D000A306D090A406E090A506F090A606B0E092
:1004E0000E9416364B015C01BB0C8808982C540105
:1004F0009B01AC01682D782D882D982D07E10E9475
:10050000F83656016701E12CF12C00E010E00E9462
:10051000233649015A0149805A806B807C80480CFF
:10052000591C6A1C7B1C8091950690919606860D3D
:10053000971D80939F0680E18093A006852D9927C3
:100540008093A1064092A2060F900F900F900F90FB
:10055000DF91CF911F910F91FF90EF90DF90CF909F
:10056000BF90AF909F908F907F906F905F904F90D3
:100570003F902F900895E0918F06E7FD15C0F0E0C1
:10058000E556FD4FE491EA3279F0A0EBB2E0119626
:100590008C9111978D9382E0AF3BB807C1F7E09340
:1005A000BF0281E080938E0681E080938F060895DC
:1005B000AF92BF92CF92DF92EF92FF920F931F9371
:1005C000CF93DF936C017B018B01040F151FEB01AF
:1005D0005E01AE18BF08C017D10759F06991D60166
:1005E000ED91FC910190F081E02DC6010995892BD8
:1005F00079F7C501DF91CF911F910F91FF90EF9097
:10060000DF90CF90BF90AF900895833081F028F4B1
:10061000813099F08230A9F008958730A9F08830B0
:10062000C9F08430B1F4809180008F7D03C0809147
:1006300080008F7780938000089584B58F7784BD84
:10064000089584B58F7DFBCF8091B0008F77809324
:10065000B00008958091B0008F7DF9CFCF93DF93E4
:10066000282F30E0F901E951FE4F8491F901ED5254
:10067000FE4FD491F901E154FE4FC491CC23A1F077
:1006800081110E940503EC2FF0E0EE0FFF1FEB54E9
:10069000FE4FA591B491EC91ED2381E090E009F437
:1006A00080E0DF91CF91089580E090E0FACF1F9332
:1006B000CF93DF93282F30E0F901E951FE4F849169
:1006C000F901ED52FE4FD491F901E154FE4FC4916E
:1006D000CC23A9F0162F81110E940503EC2FF0E026
:1006E000EE0FFF1FE555FE4FA591B4918FB7F8941B
:1006F000EC91111108C0D095DE23DC938FBFDF9100
:10070000CF911F910895DE2BF8CFCF93DF9390E028
:10071000FC01ED52FE4F249181549E4FFC018491C7
:100720008823C9F090E0880F991FFC01EF55FE4F18
:10073000A591B491FC01E555FE4FC591D49161118D
:100740000DC09FB7F8948C91209582238C9388815B
:10075000282328839FBFDF91CF910895623051F401
:100760009FB7F8943C91822F809583238C93E881E6
:100770002E2BEFCF8FB7F894EC912E2B2C938FBFAD
:10078000EACF8E50806480937C0080917A008064F0
:1007900080937A0080917A0086FDFCCF809178006A
:1007A0009091790008953FB7F8948091FC0590915D
:1007B000FD05A091FE05B091FF0526B5A89B05C0DB
:1007C0002F3F19F00196A11DB11D3FBFBA2FA92FD0
:1007D000982F8827BC01CD01620F711D811D911DCD
:1007E00042E0660F771F881F991F4A95D1F7089539
:1007F0008F929F92AF92BF92CF92DF92EF92FF9231
:100800006B017C010E94D3034B015C01C114D10434
:10081000E104F104B9F00E94D303681979098A0947
:100820009B09683E73408105910580F321E0C21A5F
:10083000D108E108F10888EE880E83E0981EA11C1B
:10084000B11CE4CFFF90EF90DF90CF90BF90AF90BE
:100850009F908F9008952FB7F8946091F80570914C
:10086000F9058091FA059091FB052FBF08953C9AF8
:100870003D9800000000000000003C9887B18F7C8C
:1008800087B93C9A08953D9A0000000000000000DE
:100890003C980895CF93DF930E94430480EC0E941C
:1008A000B9018EE10E94B901C0E9D6E08F850E94AE
:1008B000B90188890E94B90189890E94B9018A8990
:1008C0000E94B901DF91CF910C943704CF93DF934D
:1008D000D82FC62F0E94430480E40E94B9018D2FB7
:1008E0000E94B9018C2F0E94B901DF91CF910C9425
:1008F0003704CF93DF93D82FC92F6FEF87E00E9483
:1009000066046FEF86E00E9466046D2F82E00E940D
:10091000660460E086E00E9466046C2F83E00E941B
:10092000660460E087E0DF91CF910C946604FF924B
:100930000F931F93CF93DF93C82FF62E072F142FFB
:100940000E94430480EC0E94B9018C2F0E94B901DF
:10095000CF2DD02F115020F089910E94B901FACFEC
:10096000DF91CF911F910F91FF900C943704CF939B
:10097000DF931F92CDB7DEB7698341E0BE016F5FA1
:100980007F4F0E9497040F90DF91CF9108952F928F
:100990003F924F925F926F927F928F929F92AF920F
:1009A000BF92CF92DF92EF92FF920F931F93CF935C
:1009B000DF93CDB7DEB764970FB6F894DEBF0FBEF6
:1009C000CDBF898B48015901FB8AEA8ACC8ACB01C9
:1009D000BA01A90198010E94B135290119012430F9
:1009E000310509F497C09B01AC0160E070E080E044
:1009F00090E000E10E94F836F9017501640100E021
:100A000010E098018986DA86AB86FC860D871E8702
:100A10002F87388B54016701E12CF12C00E010E0A6
:100A20009F010E945436A32FF42FE52F422F5A2FF7
:100A30006F2F7E2FC12CD12C7601E394CB01BA010C
:100A400027E0660F771F881F991F2A95D1F7A70106
:100A500096010E94B13542019694982C882497946F
:100A60008794B12CA12C02E0901AA108B108280D9E
:100A7000391D4A1D5B1DBC89A0E1BA9FF0011124FC
:100A8000842E8E2AE4E02E16310409F04CC0ECE0EE
:100A90001982CA828E2A8B823C832D8394E0CC0CEF
:100AA000DD1CEE1CFF1C9A95D1F7E82AEE827F83AD
:100AB000688748E0BE016F5F7F4F8989880F880F84
:100AC000880F865D0E949704612F6295660F660FFE
:100AD000607CC988C7FE29C060688C2D885E0E9432
:100AE000B70464960FB6F894DEBF0FBECDBFDF919A
:100AF000CF911F910F91FF90EF90DF90CF90BF901B
:100B0000AF909F908F907F906F905F904F903F90AD
:100B10002F90089540E050E0BA0111E0C12CD12C93
:100B20007601C3948BCFE0E0B3CF6F608989805F9B
:100B30000E94B704EA88FB88E49CA001E59C500D64
:100B4000F49C500D112421E01227212F30E0429F08
:100B5000C001439F900D529F900D11246AE570E0F3
:100B60000E94893589898B55BACF2F923F924F9237
:100B70005F926F927F928F929F92AF92BF92CF922D
:100B8000DF92EF92FF920F931F93CF93DF93CDB736
:100B9000DEB760970FB6F894DEBF0FBECDBF4B0136
:100BA0005C0149875A8329833B8321E0821623EA2B
:100BB000920621EEA20621E1B206DCF023E030E04D
:100BC000CA01B9010E94893569877A8389819B812D
:100BD000B9010E94893569837B83C501B40123E093
:100BE00030E040E050E00E94D33549015A011886B8
:100BF00011C060E2861661EA960667E0A606B104B7
:100C0000B4F747E0880C991CAA1CBB1C4A95D1F785
:100C100077E0788780E8881683EC980689ECA80648
:100C200081E0B806CCF46091A3067091A40680918F
:100C3000A5069091A606A0EE8A16A7E69A06A5E359
:100C4000AA06B1040CF445C124E0660F771F881F83
:100C5000991F2A95D1F749C16091A3067091A40606
:100C60008091A5069091A60635E0660F771F881F34
:100C7000991F3A95D1F7A50194010E94B135190148
:100C8000B1E08B16BBE39B06B8E5AB06B8E0BB064C
:100C90000CF031C120FE03C02FEF221A320AD1011D
:100CA000A501940128583341410951090E94163683
:100CB0006B017C012091A3063091A4064091A5060A
:100CC0005091A6064090A3065090A4066090A506F9
:100CD0007090A6064C825D826E827F820E94B13542
:100CE00029013A019101A0E1B7E20E9400366C0DA2
:100CF0007D1D8E1D9F1D2C813D814E815F810E9437
:100D0000B135421653066406750619F022E0220E2C
:100D1000311CD101A50194010E9416362B013C0122
:100D20000091A3061091A4062091A5063091A60675
:100D3000C12CF12CE12CBC01A2018EEF0E94C70452
:100D4000C884E984FA8095018401B301A20180E09E
:100D50000E94C704C884E980FB809501B301A20109
:100D600081E00E94C704C884F12CE12C9501B301F5
:100D7000A20182E00E94C7046985062E000C770B51
:100D80008981681B710987FD73957D836C83C3011D
:100D9000B201A50194010E94B135AC81BD81A29F31
:100DA000C001A39F900DB29F900D11246AE570E0E1
:100DB0000E949D358091A7069091A80686179707F7
:100DC00041F07093A8066093A70660EA81EB0E9449
:100DD000B7046CEF83E00E94B70480929006909273
:100DE0009106A0929206B0929306209294062091CA
:100DF000A3063091A4064091A5065091A606C30112
:100E0000B2010E94B1352450310941095E4F369537
:100E1000322F2227379527953093960620939506F3
:100E20002091A3063091A4064091A5065091A606F4
:100E3000C090A306D090A406E090A506F090A60668
:100E4000C301B2010E94B1352B013C01812C912CD0
:100E5000540169875A868B877C868D869E86AF86ED
:100E6000B88A9B01AC0160E070E080E090E007E1AF
:100E70000E94F8362A83398356016701E12CF12C50
:100E800000E010E02A8139810E945436C901DA015C
:100E90008093970690939806A0939906B0939A062C
:100EA00060960FB6F894DEBF0FBECDBFDF91CF9135
:100EB0001F910F91FF90EF90DF90CF90BF90AF9078
:100EC0009F908F907F906F905F904F903F902F906A
:100ED00008952091A3063091A4064091A506509153
:100EE000A606A7E0B0E00E941636A50194010E9474
:100EF000B1351901CFCE94E0292E312CCBCECF9332
:100F00006FEF83E00E94B70460E088E10E94B704BD
:100F100060E089E10E94B704C0E160E88C2F0E9484
:100F2000B704CF5FC831C9F760E08BEB0E94B7040C
:100F300060E085E90E94B70462ED87EBCF910C94E5
:100F4000B70480916401882319F05B9A789408951E
:100F50005B98FCCFF8949BB1907F9061892B8BB903
:100F60008BE090E00197F1F75C980E94A1078BEE6F
:100F700090E00197F1F70895CF93C82F82958F7075
:100F80000E94AA078C2F8F70CF910C94AA078CE037
:100F90000C94BC070F931F93CF93DF934091F605FA
:100FA000C0916301C41BDD0BE6EFF4E030E020E00C
:100FB0000FEF10E0C901B8010E948935640F6193F9
:100FC0002C0F3D1F85E0E63FF807A1F7DF91CF9199
:100FD0001F910F9108958091A9028F5B80680E94F4
:100FE000BC078EE00C94BC079091A902980F9093D7
:100FF000A9029091A902911103C098E09093A902CF
:101000009091A902993018F091E09093A9029091E3
:10101000A902943021F09091A902923029F4909184
:10102000A902890F8093A9020C94EB0780917A00A2
:10103000806480937A0080915B0480938A00809121
:101040007800909179002091650192502450330BE3
:1010500002C0880F991F2A95E2F7803E2FEF920772
:101060004CF0803E910514F08FED90E080968093D7
:101070005B04089580E0FBCF80917A0080648093C8
:101080007A008091F50580938A000E944A0480913D
:10109000780090917900209165019250092E000C02
:1010A000AA0BBB0B04C0880F991FAA1FBB1F2A9550
:1010B000D2F740915C0450915D0460915E047091A0
:1010C0005F04840F951FA61FB71F81342FE192077D
:1010D000A105B105B4F580935C0490935D04A093E1
:1010E0005E04B0935F0480915C0490915D04A091D4
:1010F0005E04B0915F04803C904EAF4FBF4F64F4EC
:1011000080EC90EEAFEFBFEF80935C0490935D04B2
:10111000A0935E04B0935F0460915C0470915D04E1
:1011200080915E0490915F0426E095958795779570
:1011300067952A95D1F7072E000C880B990B0C9414
:10114000410280E49FE1A0E0B0E0C5CF0895909116
:101150007E00E1E0F0E0082E01C0EE0F0A94EAF70D
:101160009E2B90937E0010927A0010927B0010923A
:101170007C0090917C00892B80937C0080917C0086
:1011800090E4611190EC892B80937C0068EB7BE705
:1011900087E190E00E94B13580E0369527952115D2
:1011A000310511F08F5FF9CF90917A008770892B0C
:1011B00080937A0080917A00806880937A00089505
:1011C00080916C0680937C0080917A00806480938B
:1011D0007A0020917800309179002F5F3140809122
:1011E000ED049091EE04820F931F959587953093AF
:1011F000EE042093ED04209170062223A1F01092BA
:10120000EC041092EB041092E8041092E704209191
:10121000EB043091EC043093EA042093E90420E8D5
:101220002093880008954091E9045091EA042091A8
:10123000E7043091E804240F351F3093E80420932D
:10124000E7046091EB047091EC04460F571F509334
:10125000EA044093E904359527953595279535950A
:10126000279535952795359527952F37310524F006
:101270002FEF20938800089520384FEF340714F49F
:1012800020E83FEF2058CCCF80916B0680937C0004
:10129000EAE7F0E0808180648083209178003091DB
:1012A00079002F5F314083E99BE0909302068093A1
:1012B00001068091E5049091E6044091E304509189
:1012C000E404480F591FCA01880F991F840F951F06
:1012D000820F931F4091E1045091E204840F951F07
:1012E000959587953093E6042093E5042091DF04DB
:1012F0003091E0044091DD045091DE04420F531F11
:101300009A01220F331F240F351F280F391F4091D8
:10131000DB045091DC04240F351F3093DA04209352
:10132000D9049093E0048093DF04089580916B06C4
:1013300080937C00EAE7F0E0808180648083809184
:1013400078009091790029E13AE0309302062093E9
:1013500001062091E3043091E4043093E2042093E9
:10136000E1048F5F91409093E4048093E304089537
:1013700080916B0680937C00EAE7F0E080818064D6
:10138000808320917800309179002F5F31408DE883
:101390009AE090930206809301068091DD0490917B
:1013A000DE049093DC048093DB048091E50490914B
:1013B000E6044091E3045091E404480F591FCA0128
:1013C000880F991F840F951F820F931F4091E1048E
:1013D0005091E204840F951F959587959093DE04B4
:1013E0008093DD043093E6042093E5040895809112
:1013F0006B0680937C00EAE7F0E080818064808364
:1014000080917800909179002FE13BE030930206C3
:10141000209301062091E3043091E4043093E20428
:101420002093E1048F5F91409093E4048093E30460
:10143000089580916C0680937C0080917A0080648E
:1014400080937A0020917800309179002F5F3140AD
:101450008091ED049091EE04820F931F95958795EE
:101460003093EE042093ED0420917006222331F195
:101470001092EC041092EB041092E8041092E7042E
:101480002091EB043091EC043093EA042093E904BA
:1014900020E82093880024E439E03093020620936A
:1014A00001062091D7043091D8043093D6042093BC
:1014B000D5049093D8048093D70408954091E9040B
:1014C0005091EA042091E7043091E804240F351F7D
:1014D0003093E8042093E7046091EB047091EC04EE
:1014E000460F571F5093EA044093E904359527951A
:1014F00035952795359527953595279535952795D4
:101500002F37310514F02FEFC4CF20384FEF3407B9
:1015100014F420E83FEF2058BCCF80916C068093F4
:101520007C0080917A00806480937A0080917800BA
:10153000909179008F5F91402091ED043091EE04FD
:10154000280F391F359527959093EE048093ED046D
:1015500080917006882309F443C01092EC04109225
:10156000EB041092E8041092E7048091EB04909150
:10157000EC049093EA048093E90480E88093880067
:1015800086E999E090930206809301068091D30446
:101590009091D4049093D2048093D1048091CF048D
:1015A0009091D0044091D7045091D804480F591F0E
:1015B000CA01880F991F840F951F820F931F4091B6
:1015C000D5045091D604840F951F959587959093D7
:1015D000D4048093D3043093D0042093CF0408958F
:1015E0004091E9045091EA048091E7049091E80465
:1015F000840F951F9093E8048093E7046091EB04B7
:101600007091EC04460F571F5093EA044093E9048D
:1016100095958795959587959595879595958795B2
:10162000959587958F37910514F08FEFA7CF803868
:101630004FEF940714F480E89FEF80589FCF80917C
:101640006C0680937C0080917A00806480937A009D
:1016500020917800309179002F5F31408091ED0426
:101660009091EE04820F931F959587953093EE0429
:101670002093ED0420917006222331F11092EC04A6
:101680001092EB041092E8041092E7042091EB040E
:101690003091EC043093EA042093E90420E820938D
:1016A000880028EB39E03093020620930106209150
:1016B000D7043091D8043093D6042093D504909366
:1016C000D8048093D70408954091E9045091EA0426
:1016D0002091E7043091E804240F351F3093E8048B
:1016E0002093E7046091EB047091EC04460F571FC0
:1016F0005093EA044093E90435952795359527954D
:101700003595279535952795359527952F373105AB
:1017100014F02FEFC4CF20384FEF340714F420E833
:101720003FEF2058BCCF2F923F924F925F926F9223
:101730007F928F929F92AF92BF92CF92DF92EF9261
:10174000FF920F931F93CF93DF930E94E00827EF40
:1017500039E030930206209301062091CF043091A6
:10176000D0044091D7045091D804420F531F9A01DE
:10177000220F331F240F351F280F391F4091D50426
:101780005091D604240F351F359527959093D0049A
:101790008093CF048091CD049091CE044091D304E6
:1017A0005091D404480F591FCA01880F991F840F04
:1017B000951F820F931F4091D1045091D204840F42
:1017C000951F3093CE042093CD04A091D904B091FD
:1017D000DA04309170063111CFC14091CB045091A1
:1017E000CC042091C9043091CA04BA01621B730B66
:1017F0002091C7043091C804FB01E21BF30BF09366
:10180000EC04E093EB04C091C6043C2FCF5FC0937F
:10181000C604311107C078944091CB045091CC0498
:10182000C091C6047093C8046093C7045093CA045F
:101830004093C90430916C015D0102C0B594A79436
:101840003A95E2F795014091AF02443009F4BDC0EA
:101850004091AF02433009F4B8C0C090AE04D090BC
:10186000AF048090C2049090C304E090B204F09062
:10187000B304A090BE04B090BF04F701EA19FB09BD
:101880000091B6041091B704A091BA04B091BB04C2
:10189000A8014A1B5B0B6090AA047090AB04621A0B
:1018A000730AB60168197909660F771F660F771FEB
:1018B000660E771E77FE03C06FE3660E711C062C62
:1018C000672C000C661C7708000C661C771CBF0197
:1018D000640F751F77FF02C0695F7F4F759567952D
:1018E0007595679575956795660E771EBF01660FAE
:1018F000771F660F771F6E0F7F1F641B750B77FFB7
:1019000002C061587F4F660F672F661F770B660E08
:10191000771E57FF02C04F5F5F4F55954795640E86
:10192000751E4091AC045091AD045093AB044093AC
:10193000AA04D092AD04C092AC044091B00450917E
:10194000B1045093AF044093AE04F092B104E0921E
:10195000B0044091B4045091B5045093B304409343
:10196000B2041093B5040093B4044091B8045091AC
:10197000B9045093B7044093B604B093B904A0934C
:10198000B8044091BC045091BD045093BB044093F3
:10199000BA04B092BD04A092BC044091C00450911E
:1019A000C1045093BF044093BE049092C10480923E
:1019B000C0044091C4045091C5045093C3044093A3
:1019C000C2043093C5042093C40440916C0102C04A
:1019D000959587954A95E2F79093070680930606BA
:1019E0003093A9042093A80440919A0450919B0439
:1019F00020919C0430919D0430939B0420939A0481
:101A000020919E0430919F0430939D0420939C0468
:101A10002091A0043091A10430939F0420939E0450
:101A20002091A2043091A3043093A1042093A00438
:101A30002091A4043091A5043093A3042093A20420
:101A40002091A6043091A7043093A5042093A40408
:101A50009093A7048093A6049091AF02943009F468
:101A6000DBC18091AF02833009F49BC05195419551
:101A70005109461957098A0190918D04DFEFD90F5A
:101A8000D0938D04C0908904D0908A04E0908B0498
:101A9000F0908C049111AFC0C0921B06D0921C062E
:101AA000E0921D06F0921E061092890410928A049C
:101AB00010928B0410928C0480911001813009F4F3
:101AC000B6C0809195028E300CF003C12091950232
:101AD0008DE090E0821B910927FD939502C05595FA
:101AE00047958A95E2F78091A7028111FFC0809106
:101AF000720681111BC1C0908504D0908604E090CD
:101B00008704F0908804DF7309F0CAC0C0920F0602
:101B1000D0921006E0921106F092120610928504FF
:101B200010928604109287041092880441156EEF7B
:101B3000560714F440E05EEF411572E0570714F0C9
:101B40004FEF51E05093CC044093CB04C150C0936D
:101B5000C604DF91CF911F910F91FF90EF90DF901E
:101B6000CF90BF90AF909F908F907F906F905F903D
:101B70004F903F902F9008951092CC041092CB0478
:101B80001092CA041092C9041092C8041092C7049B
:101B900010927006F0E0E0E070E060E050E040E0BD
:101BA0002ECE00910606109107068091A804909110
:101BB000A904119501951109081B190B8091900436
:101BC000882309F42FC280918E0490918F04209174
:101BD000060630910706289FA001299F500D389FC7
:101BE000500D1124809106069091070690938F0462
:101BF00080938E0441CFC80117FF04C0882799271E
:101C0000801B910B092E000CAA0BBB0B8C0D9D1D8C
:101C1000AE1DBF1D8093890490938A04A0938B040A
:101C2000B0938C0480911001813009F04ACF8091EB
:101C3000020190910301811574E0970774F09C01F3
:101C4000232F330F330B25952595FA01E29FA00131
:101C5000E39F500DF29F500D1124252F25952595BA
:101C6000352F330F330B37FDECC161E070E05B01C2
:101C7000A21AB30A6FEF7FE7681B790BA616B706A7
:101C800034F48A0D9B1D9093030180930201181672
:101C900019060CF0CFC12091950280E190E01ACF97
:101CA000C80117FF03C0919581959109092E000C79
:101CB000AA0BBB0B8C019D010C0D1D1D2E1D3F1D84
:101CC000009385041093860420938704309388043E
:101CD0002DCF809195028D5002C0440F551F8A95DB
:101CE000E2F78091A702882309F401CFE091710403
:101CF000F09172042091A702CA018E1B9F0B215004
:101D0000330B61E070E002C0660F771F2A95E2F79F
:101D10000E949D35AB014E0F5F1F5093720440939C
:101D2000710480917206882309F4E5CE80917206D1
:101D3000E0907D04F0907E04C0908104D0908204F5
:101D4000873008F0C1C0809183049091840450933F
:101D50008404409383049A01281B390B6EE1629F2F
:101D6000C001639F900D112469E1649F9001659FFC
:101D7000300D1124820F931F97FD4F9695958795EF
:101D8000959587959595879595958795959587953B
:101D900020917206233009F4D3C308F456C12530CC
:101DA00009F4AEC308F40FC2263009F02AC2960126
:101DB000220F331F280F391F40917F045091800458
:101DC000240F351F37FF02C02F5F3F4FD901B59554
:101DD000A79560917B0470917C04EBE0E69F500135
:101DE000E79FB00C1124EFEE4E2F97014203B00194
:101DF000439F700D1124A501460F571F57FF02C0C6
:101E0000415F5F4F55954795559547955595479532
:101E1000559547959D014BC1009106061091070607
:101E20008091A8049091A904119501951109081BAE
:101E3000190B809106069091070660910606709135
:101E40000706181619061CF07195619571098091A5
:101E5000A8049091A9042091A8043091A90418160F
:101E600019061CF03195219531092617370734F1F1
:101E7000759567957B01E20EF31EC0909804D09093
:101E80009904B6010D2C000C880B990B0E946F333E
:101E900022E739EF4FE75FE30E94D4340E943733E3
:101EA0009701220F331FC901860F971FAC014C19F0
:101EB0005D099093990480939804DECD359527951C
:101EC0007901E60EF71ED9CF80917206853009F4AC
:101ED00018C208F4F8C1863009F45AC1873009F0F5
:101EE0009DC220917B0430917C04A3ECBFEF0E9443
:101EF000F8354B015C012EE630E0D7010E940F3629
:101F0000860E971EA81EB91EB7FE05C07FE3870E7A
:101F1000911CA11CB11CC501B401E6E09595879503
:101F200077956795EA95D1F7F601E60FF71FF093DD
:101F30007A04E093790480917206A0907704B090BF
:101F40007804853009F43AC208F489C1863009F46E
:101F5000F8C1873009F0F0C1C701880F991F4F0100
:101F6000881A990A20907B0430907C04820C931C80
:101F700097FE03C02FE1820E911C9594879495944F
:101F800087949594879495948794959487942091B9
:101F9000750430917604A2ECBFEF0E94F8352B0156
:101FA0003C0120E730E0D5010E940F36460E571E57
:101FB000681E791E77FE05C03FE3430E511C611C6D
:101FC000711C96E075946794579447949A95D1F74D
:101FD000480C591C5092740440927304B0927604D9
:101FE000A09275045092780440927704F0927C0499
:101FF000E0927B04F0937E04E0937D04D092800411
:10200000C0927F045093820440938104A20157FE42
:1020100002C0495F5F4F5595479555954795559532
:10202000479569CD809106069091070621E020939F
:102030009004CDCD81E090E0909303018093020164
:102040002ACE31952195310910CE213008F4D9C01E
:102050009601220F331F280F391F40917F045091A2
:102060008004240F351F37FF02C02F5F3F4F359587
:10207000279560917B0470917C04EBE0E69FA001C2
:10208000E79F500D1124EDE0EE9DB001EF9D700D26
:102090001124460F571F57FF02C0415F5F4F5595F0
:1020A0004795559547955595479555954795241BC3
:1020B000350B30937A042093790440917206E091B5
:1020C0007704F0917804433009F4D1C108F49EC03C
:1020D000453009F4A8C108F4F1C1463009F0E9C15E
:1020E000A701440F551F420F531F60917B0470914D
:1020F0007C04460F571F57FF02C04D5F5F4F559539
:102100004795559547956091750470917604DB016C
:10211000AA0FBB1FAA0FBB1FAA0FBB1FA60FB71F7B
:10212000BF01660F771F660F771F660F771F5F016E
:10213000A61AB70AB501660F771FA60FB71FB7FD1E
:102140001F96B595A795B595A795B595A795B595FE
:10215000A7954A1B5B0B5093740440937304F09350
:102160007604E09375045093780440937704F092DA
:102170007C04E0927B0430937E0420937D04D09213
:102180008004C0927F049093820480938104B3CC36
:1021900020917B0430917C04A2ECBFEF0E94F835C3
:1021A0004B015C012EE630E0D7010E940F36860E0F
:1021B000971EA81EB91EB7FEAECE6FE3860E911C09
:1021C000A11CB11CA8CE9601220F331F280F391F66
:1021D00040917F0450918004240F351F37FF02C0C7
:1021E0002F5F3F4F3595279540917B0450917C049C
:1021F00057FF02C04D5F5F4F5595479555954795E1
:1022000056CF2091790430917A0457CF413008F4A9
:1022100050C1A701440F551F420F531F60917B040B
:1022200070917C04460F571F57FF02C04F5F5F4FEE
:10223000559547956091750470917604BBE0BB2E6F
:10224000B69ED001B79EB00D1124BF01660F771F57
:10225000660F771F660F771F6E0F7F1F6CCF84305E
:1022600009F06AC02091750430917604ACECBFEFA0
:102270000E94F8352B013C012FE530E0D5010E948A
:102280000F36460E571E681E791E77FE05C08FE377
:10229000480E511C611C711C36E07594679457946C
:1022A00047943A95D1F7C701880F991F9F01281BC2
:1022B000390BC90120917B0430917C04820F931F5C
:1022C000480E591E87CE843009F0A8C020917B04A7
:1022D00030917C04A7ECBFEF0E94F8354B015C0104
:1022E00022E730E0D7010E940F36860E971EA81E07
:1022F000B91EB7FE10CE2FE3820E911CA11CB11C9B
:102300000ACE20917B0430917C04A4ECBFEF0E94A4
:10231000F8354B015C0121E730E0D7010E940F3610
:10232000860E971EA81EB91EB7FEF5CD3FE3830E9D
:10233000911CA11CB11CEFCD40907304509074040B
:102340004DCEC701880F991F1F01281A390A8090A6
:102350007B0490907C04280C391C37FE03C07FE07E
:10236000270E311C3594279435942794359427945F
:10237000359427942091750430917604A2ECBFEF38
:102380000E94F8352B013C0121E730E0D5010E9485
:102390000F36460E571E681E791E77FE05C08FE366
:1023A000480E511C611C711C66E07594679457942B
:1023B00047946A95D1F7420C531C0CCEC701880F85
:1023C000991F4F01881A990A80917B0490917C048F
:1023D000880E991E97FE03C033E0830E911C9594DE
:1023E0008794959487942091750430917604A5EC98
:1023F000BFEF0E94F8352B013C012AE630E0D50101
:102400000E940F36460E571E681E791E77FED9CDE4
:102410006FE3460E511C611C711CD3CDE091790411
:10242000F0917A0488CDA701440F551F420F531F26
:1024300060917B0470917C04460F571F57FF02C0C8
:102440004D5F5F4F5595479555954795609175043C
:1024500070917604DB01AA0FBB1FAA0FBB1FA60F4A
:10246000B71FBF01660F771F660F771F60CEA701EA
:10247000440F551F420F531F60917B0470917C04E1
:10248000460F571F57FF02C04D5F5F4F5595479549
:1024900055954795A0917504B0917604AA0FBB1F7E
:1024A000AE0FBF1FB7FD1396B595A795B595A79528
:1024B00050CE409173045091740451CEA701440F43
:1024C000551F420F531F60917B0470917C04460F8F
:1024D000571F57FF02C04D5F5F4F55954795559564
:1024E0004795609175047091760477FF02C06D5F27
:1024F0007F4F7595679575956795461B570B2BCE46
:102500009601220F331F280F391F40917F045091ED
:102510008004240F351F37FF02C02F5F3F4FD901C2
:10252000B595A79560917B0470917C04AB01440F35
:10253000551F460F571F5A01AA0CBB1CE6EF54CC7F
:102540009601220F331F280F391F40917F045091AD
:102550008004240F351F37FF02C02F5F3F4F359592
:10256000279540917B0450917C04440F551F440FE4
:10257000551F4E0D5F1D57FF02C0495F5F4F5595B8
:102580004795559547955595479591CD8091F5057A
:1025900080938A00E091940284E0E89FF001112486
:1025A000EC52FD4F2081318142815381AEE1B3E095
:1025B0000E94163620EC32E140E050E00E94B13536
:1025C0008091000130915A042802C0011124EFE7E4
:1025D000F0E0BF010E949D35360F30935A04809180
:1025E0005A04309100012802C0011124BF010E9449
:1025F0009D35361B30930001809101018823A1F0A5
:1026000080915A0440910101082E000C990B20E1A1
:1026100030E0241B310902C0959587952A95E2F791
:10262000805880938800089580E8FBCF0F931F9314
:10263000CF93DF93E7E3F4E025E534E04281538173
:10264000419351932E173F07C9F79C01220F331F67
:102650004091350450913604240F351F440F551F07
:10266000841B950BE3E0F0E0BF010E949D35709361
:102670003604609335048091330490913404880FBC
:10268000991F820F931FBF010E949D3570933404E0
:1026900060933304261B370B309356042093550464
:1026A0008091450490914604FC01EE0FFF1F40917C
:1026B0004304509144046091470470914804461BC0
:1026C000570B20913B0430913C0460914F04709172
:1026D0005004261B370B220F331F220F331F60912C
:1026E000370470913804A0915304B09154046A1BCC
:1026F0007B0B260F371F220F331F60913F04709111
:102700004004A0914B04B0914C046A1B7B0BC5E1C3
:10271000C69FD001C79FB00D11242A0F3B1FBA01DD
:1027200014E0660F771F1A95E1F7260F371F37FF62
:1027300002C0215C3F4F66E0359527956A95E1F729
:10274000240F351FE230F10544F4CF01F7FD019667
:1027500095958795919581959109B901223031051B
:1027600094F075956795681779073CF1E230F105AB
:102770000CF4EEC0CF01B3E095958795BA95E1F7DB
:10278000860F971F22C037FF02C06F5F7F4F75957E
:102790006795719561957109681779073CF7A901EB
:1027A00037FF02C0495F5F4FC3E055954795CA9513
:1027B000E1F751954195510906C0A901D3E055951E
:1027C0004795DA95E1F7840F951F40916601481708
:1027D000190608F0CEC0409185064111C8C04FEFE0
:1027E000409385064091650102C0880F991F4A9564
:1027F000E2F78F3F910509F020F4409165014830E0
:1028000011F48FEF90E040918506442309F4BAC09B
:102810008A509B4FDC018C9180935B04E90137FF68
:1028200004C0CC27DD27C21BD30B8F01F7FF04C0E8
:10283000002711270E1B1F0B0C171D070CF0A4C03F
:1028400045EE4003C001419F900D1124BE010E943E
:102850009D356A597F4F609FC001619F900D709FA9
:10286000900D1124BE010E949D35CB0166E970E0F8
:10287000681B790BF7FF06C08CE291E0DC01A61B18
:10288000B70BBD0137FF03C0719561957109809148
:102890003104909132049B01281B390B7093320450
:1028A0006093310437FF02C0285A3D4F2C32B1E00B
:1028B0003B076CF08091F204882349F02C523140A0
:1028C0009091590481E0911180E0809359048091A6
:1028D0007206882309F474C080917206833009F46B
:1028E00072C08CE291E08217930714F58091720612
:1028F000882309F46BC080917206833009F469C0A3
:102900008CE291E0281B390B621B730B709332042D
:10291000609331048091720628E532E0882341F00B
:10292000809172062CE231E0833011F426E930E028
:102930008091AF02813009F04FC0C90123E0880FB8
:10294000991F2A95E1F7DF91CF911F910F9108957B
:10295000AF01F7FF02C0495F5F4FA3E05595479570
:10296000AA95E1F788279927841B950B09CF4EEF8D
:1029700037CF40918506442309F434CF4091850632
:1029800041502ECF80E048CF70E060E0309709F4EE
:1029900079CF45EEBE014603C001479F900D11243B
:1029A000B8010E949D356A597F4F6C9FC0016D9F91
:1029B000900D7C9F900D1124B8010E949D355ACF37
:1029C00088E592E090CF86E990E08DCF88E592E0AF
:1029D00099CF86E990E096CF48EF4203C001439F2C
:1029E000900D1124B0CFCF93DF93C0917800D09198
:1029F000790080917A00806480937A000E944A0472
:102A00008091F204882341F0809159046FE0811194
:102A10006FE182E10E94B70480915B0480938A0099
:102A20008091780090917900C80FD91F80917A0029
:102A3000806480937A0080915704909158040E949A
:102A400016132091780030917900C20FD31F209186
:102A50007A00206420937A00BC01990F880B990BAF
:102A60000E944102209178003091790090917A0083
:102A7000906490937A00CE01820F931F97FD039686
:102A80009595879595958795805E9140909358048C
:102A90008093570480918506813031F410928A002A
:102AA0006FEF83E00E94B704809185068F3F31F479
:102AB0006BEF83E0DF91CF910C94B704DF91CF915E
:102AC0000895F8948BB1807F8061962F92959F70C6
:102AD000892B8BB98BB1807F80616F70682B3C989C
:102AE00000005C986BB93C9A3C9800005C983C9A5A
:102AF0000E94A1078BEE90E00197F1F781E090E052
:102B00000895682F89EA96E00C9461158F929F9240
:102B1000AF92BF92CF92DF92EF92FF92CF93C0918C
:102B2000080680917004C81709F47AC080918C0659
:102B300081110DC00E94C7078FEC0E94BC0782E57F
:102B4000C11101C080E20E9481150E94EB078090B4
:102B5000600490906104A0906204B0906304CC2360
:102B600009F493C00E942B0460936C0470936D046D
:102B700080936E0490936F040E942B04C0906804AD
:102B8000D0906904E0906A04F0906B049B01AC0162
:102B90002C193D094E095F0969017A01C09264044C
:102BA000D0926504E0926604F092670480918F06EB
:102BB000823030F1D501C401880F991FAA1FBB1FB5
:102BC0008C159D05AE05BF05D8F40E94BB0260EBD5
:102BD00074E080E090E0A50194010E94B135CA0143
:102BE000B901A2E0660F771F881F991FAA95D1F738
:102BF00023E030E040E050E00E94B13520936B01CB
:102C0000A5E0B0E0A50194010E941636C616D706CD
:102C1000E806F90628F081E080938F060E94BB0247
:102C20000E942B04C0906804D0906904E0906A046C
:102C3000F0906B049B01AC012C193D094E095F0912
:102C400069017A012091600430916104409162042D
:102C500050916304A6E0B0E00E9416366C157D0525
:102C60008E059F0530F480918F06823010F00E940F
:102C7000BB02C0937004CF91FF90EF90DF90CF9094
:102C8000BF90AF909F908F9008950E942B04609307
:102C900068047093690480936A0490936B040E94A3
:102CA0002B04C0906C04D0906D04E0906E04F09002
:102CB0006F049B01AC012C193D094E095F096901A4
:102CC0007A01D501C401880F991FAA1FBB1FC8161E
:102CD000D906EA06FB0620F089288A288B28A1F469
:102CE000BC01CD016C0D7D1D8E1D9F1D23E030E0CC
:102CF00040E050E00E94B1352093600430936104BD
:102D00004093620450936304209160043091610405
:102D10004091620450916304A5E0B0E00E94163631
:102D20006C157D058E059F0580F4C701B60123E073
:102D300030E040E050E00E94B135209360043093D1
:102D40006104409362045093630440916004509185
:102D500061046091620470916304DB01CA01B6955D
:102D6000A795979587958C159D05AE05BF0508F02D
:102D700057CF80918F0690E0880F991F440F551F01
:102D8000661F771F21E04C155D056E057F0508F075
:102D900020E0822B80938F0643CF0F931F93CF9316
:102DA000DF938C01D0E0C0E0F801EC0FFD1F6491CF
:102DB000662341F089EA96E00E946115892B11F0A3
:102DC0002196F2CFCE01DF91CF911F910F910895FF
:102DD00082EC90E00C94CD160F931F93CF93C62FE7
:102DE0008A018130A1F580E80E94BC078C2F829572
:102DF0008F70CF708A3021F481E30E94811580E0CA
:102E0000805D0E9481158EE20E948115CA3020F0FB
:102E1000CA5081E30E94811580E38C0F0E948115C6
:102E200080E20E948115C8010E94CD160E94E8161A
:102E30000E94E81680EC0E94BC0780918C068230CC
:102E400098F08EE3CF911F910F910C94811580EC37
:102E50000E94BC07C8010E94CD168FEC90E0CF9174
:102E60001F910F910C94CD16CF911F910F91089542
:102E7000089590E080E008950F931F93CF93DF9320
:102E800090E080E00E947904D0E0C0E001E010E032
:102E9000C8010C2E02C0880F991F0A94E2F7809592
:102EA000909581600E9479046EE170E080E090E08E
:102EB0000E94F80390E080E00E9479042196C031DE
:102EC000D10531F7DF91CF911F910F910895FC014A
:102ED00001900020E9F73197AF01481B590BBC0165
:102EE00089EA96E00C94D8028F929F92AF92BF929B
:102EF0000F931F93CF93DF93CDB7DEB7A1970FB694
:102F0000F894DEBF0FBECDBF19A2423008F44AE0EC
:102F10008E010F5D1F4F842E912CB12CA12CA50189
:102F200094010E94B135E62FB901CA01EA30F4F4E8
:102F3000E05DD801EE938D01232B242B252B79F70F
:102F400090E080E0109719F0CD010E946717A196DC
:102F50000FB6F894DEBF0FBECDBFDF91CF911F91AA
:102F60000F91BF90AF909F908F900895E95CE1CF53
:102F7000CF92DF92EF92FF92CF93DF9397FF19C02A
:102F80006B017C018DE20E948115EC016627772799
:102F9000CB016C197D098E099F094AE00E947417C4
:102FA0008C0F9D1FDF91CF91FF90EF90DF90CF901E
:102FB00008954AE0DF91CF91FF90EF90DF90CF909E
:102FC0000C947417009711F00C94671790E080E050
:102FD00008954F925F926F927F928F929F92AF92DD
:102FE000BF92CF92DF92EF92FF920F931F93CF93F6
:102FF000DF934B015C0180EC0E94BC07809173065B
:1030000090917406A0917506B0917606892B8A2B53
:103010008B2B09F040C040917106309171062091D0
:10302000850681E090E0323011F090E080E030E001
:1030300082239323417020E0842B922B892B69F506
:1030400086E00E9481158091730690917406A0918C
:103050007506B0917606892B8A2B8B2B01F1809116
:10306000850681111CC08090730690907406A09014
:103070007506B09076068BEC90E00E94CD1680919C
:10308000730690917406A0917506B0917606B7FF0D
:1030900083C08DE282C080E2D4CF87E0D2CFC50169
:1030A000B40120E836E948E950E00E94D335232BEB
:1030B000242B252B09F47AC040E8C42E46E9D42EEF
:1030C00048E9E42EF12C9AE0492E512C612C712C08
:1030D000C501B401A70196010E94D3358B01D82FF9
:1030E000C92F57FF07C050954095309521953F4F08
:1030F0004F4F5F4FCA01B9010E94B81788EEC8163A
:1031000083E0D806E104F10441F020E4C21622E491
:10311000D2062FE0E206F10419F48CE20E94811538
:103120004801AD2EBC2EC701B601A30192010E9439
:10313000D33569017A0181E0C816D104E104F104B4
:1031400039F680E20E948115E091AF02F0E0EE0FC7
:10315000FF1FE75AFE4F808191810E94E21780E2B3
:103160000E9481158FEC0E94BC0780918A06811114
:1031700028C082E5DF91CF911F910F91FF90EF90D2
:10318000DF90CF90BF90AF909F908F907F906F9087
:103190005F904F900C9481158BE20E94811538EE60
:1031A000C32E33E0D32EE12CF12C8DCF80E20E9490
:1031B000811520E4C22E22E4D22E2FE0E22EF12C43
:1031C00082CF86E5D7CF4F925F926F927F928F9298
:1031D0009F92AF92BF92CF92DF92EF92FF926B01DC
:1031E0007C01AC019B010E944135882381F084E37E
:1031F00093E0FF90EF90DF90CF90BF90AF909F90C3
:103200008F907F906F905F904F900C94671746015E
:103210005701E894B7F82FEF3FEF4FE75FE7C5019D
:10322000B4010E94413581110DC02FEF3FEF4FE7F0
:103230005FE7C501B4010E94C03218161CF488E390
:1032400093E0D7CF2FEF3FEF4FE75FE4C701B60121
:103250000E94773418161CF48CE393E0CACF2FEF4A
:103260003FEF4FE75FECC701B6010E94C03287FD18
:10327000F3CF20E030E0A901C701B6010E94C032BF
:10328000B12CA12C87FF08C08DE20E9481155C0142
:10329000F7FAF094F7F8F0942AE037ED43EA5BE3AD
:1032A000C701B6010E9454322B013C010E943E33FB
:1032B0006B017C010E946D339B01AC01C301B20123
:1032C0000E9453322B013C014AE0C701B6010E9423
:1032D00074177C01EA0CFB1C8EE20E948115E80E3B
:1032E000F91E20E030E040E251E4C301B2010E9447
:1032F000D4342B013C010E943E334B01B12CA12C54
:103300004AE0C501B4010E947417E80EF91EC50118
:10331000B4010E946D339B01AC01C301B2010E9454
:10332000533220E030E040E251E40E94D4340E9465
:103330003E3390E080E04AE00E9474178E0D9F1D9E
:10334000FF90EF90DF90CF90BF90AF909F908F90C5
:103350007F906F905F904F900895CF93DF93282FC9
:10336000CB016091F4047091F504C42FD0E02330B8
:1033700079F0243089F04091F4045091F504C40FA1
:10338000D51FD093F504C093F404DF91CF91089535
:10339000AE010E942B32EFCFAE010E943B32EBCF49
:1033A000EF92FF920F931F93CF937B01642F843092
:1033B00009F48BC058F4823098F040E2B701CF9105
:1033C0001F910F91FF90EF900C94AD198630A9F7E3
:1033D00080918D06803218F48F5F80938D0681E096
:1033E00090918C06933011F010928D0690918C067E
:1033F000923019F493E090938C06C0918D06D7011A
:10340000AC0FB11D9C91E92F092E000CFF0B4091D0
:103410008B068F01040F111D47FD1A95003211050F
:10342000BCF040918B068F01040F111D47FD1A95CA
:10343000012B71F040918B06E40FF11D47FDFA95C9
:10344000EB35F1050CF03FC040918B06940F01C0A5
:1034500090E29C9310928B06A9010E94EC160C2F0F
:1034600006950695069588E0089F800111240E0DAB
:103470001F1DF12CE12CF80181918F01882349F067
:103480000E948115FFEFEF1AFF0A8DE0E816F104A4
:1034900091F781E00E9481150E94E81690918C06B8
:1034A0008C2F8770805CC1E0923008F4C0E08C0FF4
:1034B00080680E94BC078EE0CF911F910F91FF9012
:1034C000EF900C94BC079AE5C4CFF701B0969291A7
:1034D0009F7D09F072CF1082EE16FF06C1F76DCF07
:1034E0004F925F926F927F928F929F92AF92BF9214
:1034F000CF92DF92EF92FF920F931F93CF93DF93C0
:10350000CDB7DEB7FB01823008F063C090814090F8
:103510008B06042C000C550866087708490E511CD0
:10352000611C711C4C145D046E047F046CF5C08238
:103530006901F42E5F01E82E10928B060E94C707E6
:10354000A6016F2D8E2D0E94EC16F50101151105B7
:10355000A1F5608170E090E080E04AE00E9474177D
:103560000E94E816DF91CF911F910F91FF90EF908D
:10357000DF90CF90BF90AF909F908F907F906F9093
:103580005F904F900C94E8169081C0908B060C2CA5
:10359000000CDD08EE08FF08C90ED11CE11CF11C6F
:1035A0008C149D04AE04BF0414F48082C1CF5081FA
:1035B00090918B06950F9083BBCF808190E0880F10
:1035C000991F080F191FF801808191810E94E2174D
:1035D000C7CF41E0DF91CF911F910F91FF90EF9006
:1035E000DF90CF90BF90AF909F908F907F906F9023
:1035F0005F904F900C94AD194F925F926F927F92B3
:103600008F929F92AF92BF92CF92DF92EF92FF92F2
:103610000F931F93CF93DF93EB01823008F076C0B6
:10362000488059806A807B8090918B06892E990F03
:103630009908AA08BB08840C951CA61CB71CB7FEE9
:103640002EC0188219821A821B826901F42EE82E7C
:1036500010928B060E94C707A6016F2D8E2D0E9427
:10366000EC160115110509F043C0688179818A8142
:103670009B810E94B8170E94E816DF91CF911F919D
:103680000F91FF90EF90DF90CF90BF90AF909F9001
:103690008F907F906F905F904F900C94E8164880C9
:1036A00059806A807B8090918B06892E990F9908AA
:1036B000AA08BB08840C951CA61CB71CC814D90406
:1036C000EA04FB042CF4C882D982EA82FB82BDCFD3
:1036D00088809980AA80BB8090918B06C92E990F13
:1036E000DD08EE08FF08C80CD91CEA1CFB1CEBCF58
:1036F00088819981AA81BB81880F991F080F191FA2
:10370000F801808191810E94E217B5CF44E0DF91FA
:10371000CF911F910F91FF90EF90DF90CF90BF90CE
:10372000AF909F908F907F906F905F904F900C9490
:10373000AD1980E80E94BC078091F204882321F132
:1037400081E78093450380912F06882391F01F9293
:103750008F9388E493E09F938F9385E493E09F9306
:103760008F930E9411370F900F900F900F900F9032
:103770000F9080E493E00E94E21781E00E9481159F
:103780000E94E8160C94E81680E2DBCF8F929F929D
:10379000AF92BF92CF92DF92EF92FF920F931F935F
:1037A000CF93DF93C82FD62F7DEFB72EB80E00E54D
:1037B00011E021E02B1580F01093F5040093F40440
:1037C000AA24A394AD1640F46A2D85E00E94C61B7E
:1037D000A394F8CFDFE2EDCFDF3F59F5D1E06D2FB5
:1037E0008C2F0E94C61BDF5FDE33C9F76BEC6D0FB9
:1037F000693008F09BC3A62EB12CB501660F771F68
:10380000660F771F655C794FC12CD12C760110E0D3
:1038100000E030E020E040E08C2F0E94FC1AB5016F
:10382000605D794F812C912C540130E020E040E024
:10383000BAC0D533D8F6ED2FF0E0EF5DF34E0C941F
:10384000F2358E1F561CC41CD71CE71CF71C071D25
:10385000161D251D341DF61B441D541DF61B641D2D
:10386000F61BF61B731D821DF61BF61BF61BF61BC3
:10387000DF1DEE1DFE1DF61BF61B0E1E1E1E271E57
:103880002D1E331E391E3F1E451E5A1E6C1EDE1E87
:10389000F61BEE1EF61BF61BF61BF61BF61BF61BA5
:1038A000FD1E0C1F171F221F301F3E1FC23008F0C5
:1038B00064C08091950240918B06082E000C990BF4
:1038C000AA0BBB0B042E000C550B660B770B840F59
:1038D000951FA61FB71F8F3F9F4FAF4FBF4F7CF560
:1038E0008FEF8093950210928B060E94C7074DE9D7
:1038F00051E061E18C2F0E94EC168091950287FDCA
:1039000003C08BE20E94811560919502062E000C87
:10391000770B880B990B0E94B8170E94E8160E943B
:10392000E8168D2FDF91CF911F910F91FF90EF90AF
:10393000DF90CF90BF90AF909F908F90089580912F
:10394000950240918B06082E000C990BAA0BBB0B1D
:10395000042E000C550B660B770B840F951FA61FCA
:10396000B71F4197A105B10514F080E1BACF80914E
:10397000950290918B06890FB4CF41E065E972E022
:103980008C2F0E94AD19CDCF64E0862E912CA12CF6
:10399000B12CC12CD12C760109E511E028E931E0E8
:1039A00042E16FEA72E08C2F0E94701ABACF5AE09F
:1039B000852E912CA12CB12CC12CD12C760103E4A5
:1039C00011E025E931E043E162E776E0ECCF4AE03F
:1039D000842E912CA12CB12CC12CD12C76010DE27E
:1039E00011E020E931E044E166E972E0DCCF39E042
:1039F000832E912CA12CB12CC12CD12C760109E164
:103A000011E02BE831E045E169EA72E0CCCF812C8E
:103A1000912C54018394C12CD12C760105E111E045
:103A200027E831E046E161E776E0BDCFC12CD12C3B
:103A30007601C39401E111E023E831E047E163E757
:103A400076E08C2F0E94FC1A6CCF812C912C5401B3
:103A50008394C12CD12C760101E111E02FE731E0F4
:103A600048E160E171E09FCF00E1802E912CA12C14
:103A7000B12CC12CD12C760110E000E02CE731E014
:103A800049E167EA72E08FCF10E1812E912CA12CE1
:103A9000B12CC12CD12C760110E000E028E731E0F8
:103AA0004BE16CE671E07FCFB4E08B2E912CA12C22
:103AB000B12CC12CD12C760106E011E020E731E0D9
:103AC0004CE16DEA72E06FCF812C912C540183940C
:103AD000C12CD12C760101E111E025E631E041E273
:103AE0006EEA72E060CF812C912C54018394C12C3A
:103AF000D12C760101E111E02CE531E044E263EFE5
:103B000074E051CFC23008F056C080916F0190919F
:103B1000700140918B06092E000CAA0BBB0B042EE2
:103B2000000C550B660B770B840F951FA61FB71F54
:103B3000181619061A061B06CCF081E090E0909347
:103B4000700180936F0110928B060E94C70743E5B6
:103B500051E065E28C2F0E94EC1660916F0170912C
:103B60007001072E000C880B990BD5CE80916F0148
:103B70009091700140918B06092E000CAA0BBB0B93
:103B8000042E000C550B660B770B840F951FA61F98
:103B9000B71F4F97A105B1051CF08EE190E0CFCF84
:103BA00080916F019091700120918B06820F911D81
:103BB00027FD9A95C4CF42E06FE671E0E1CE812CFB
:103BC000912C54018394C12CD12C760101E111E098
:103BD0002FE431E041E36AE876E0E5CE70E5872E38
:103BE000912CA12CB12CC12CD12C760110E000E03D
:103BF00028E431E042E366E671E0D5CE60E1862E4E
:103C0000912CA12CB12CC12CD12C760110E000E01C
:103C10002FE331E043E365E671E0C5CE58EC852E35
:103C2000912CA12CB12CC12CD12C760110E000E0FC
:103C300022E331E041E461E771E0B5CE29E231E011
:103C400042E462E771E08C2F0E94D0196ACE20E234
:103C500031E043E462EA71E0F6CF27E131E044E489
:103C600062ED71E0F0CF2EE031E045E462E072E019
:103C7000EACF25E031E046E462E372E0E4CF2CEFE6
:103C800030E047E462E672E0DECF80906301882D89
:103C90008150990B4C01092C000CAA08BB08C12CBF
:103CA000D12C760110E000E024EF30E041E866EF2F
:103CB00075E079CEC090F605D12CF12CE12C46E9C7
:103CC000842E912CA12CB12C10E000E02CEE30E0E1
:103CD00042E863E671E067CEC23008F06BC08091C5
:103CE000A3069091A406A091A506B091A6064091C6
:103CF0008B06042E000C550B660B770B840F951F5B
:103D0000A61FB71F80389F49A54DB10514F580E85F
:103D10009FE9A5EDB0E08093A3069093A406A0933D
:103D2000A506B093A60610928B060E94C70744EE24
:103D300050E063E88C2F0E94EC166091A30670910E
:103D4000A4068091A5069091A6064AE00E947417E9
:103D5000E4CD8091A3069091A406A091A506B09110
:103D6000A60640918B06042E000C550B660B770BB4
:103D7000840F951FA61FB71F81309F43AB4AB140E8
:103D80002CF080E09FE3ABEAB1E0C5CF8091A306C1
:103D90009091A406A091A506B091A60640918B062D
:103DA000042E000C550B660B770B840F951FA61F76
:103DB000B71FB1CF44E063EA76E0E2CD34EB832E67
:103DC000912CA12CB12CC12CD12C760110E000E05B
:103DD0002BED30E044E862E972E0E5CD812C912CD6
:103DE00054018394C12CD12C760101E111E026ED20
:103DF00030E047E862EF74E0D6CD812C912C54017D
:103E00008394C12CD12C760101E111E022ED30E048
:103E100041EA64E671E0C7CDC12CD12C760110E0F7
:103E200000E030E020E040E06BE972E00ACEC12C17
:103E3000D12C760110E000E030E020E040E06FE9B6
:103E400072E0FFCD812C912C5401C12CD12C760134
:103E500010E000E030E020E040E063EA72E0A3CD53
:103E6000812C912C5401C12CD12C760110E000E062
:103E700030E020E040E064EA72E095CDC23008F026
:103E800049C0209104063091050680918B06082ECA
:103E9000000C990BAA0BBB0B820F931FA11DB11D28
:103EA000B7FF15C0109205061092040610928B06FB
:103EB0000E94C70750E040E060E08C2F0E94EC16A3
:103EC000609104067091050690E080E03ECF20915D
:103ED00004063091050680918B06082E000C990B84
:103EE000AA0BBB0B820F931FA11DB11D181619063B
:103EF0001A061B06BCF280910406909105062091DB
:103F00008B06820F911D27FD9A959093050680934D
:103F10000406CCCF42E064E076E032CD10928C060D
:103F20000E94991B81E08093A802FBCCC23009F06B
:103F3000F8CCDF3209F4F5CC80918B0621E030E03B
:103F4000181614F02FEF3FEF8D2F90E0280F391F38
:103F50002033310514F420918B0620918B06121624
:103F600074F421E030E0820F931FC0970CF032CC44
:103F700080918B06181634F481E0D80F1ACC2FEFFD
:103F80003FEFF1CF8FEFF9CFCF93C82F8091700023
:103F90008D7F809370008BE490E00197F1F7F894A7
:103FA000C09385068091730690917406A091750662
:103FB000B0917606892B8A2B8B2B51F0609197025A
:103FC000709198028091990290919A020E94E9174B
:103FD000CC2309F495C08091040190910501909340
:103FE000F1048093F00410928106109282061092E0
:103FF0008306109284068091AF02823009F477C064
:1040000008F46EC0833009F478C0843009F472C0BB
:104010007894CC2309F4ADC080916D0680937C0028
:10402000109203068091AE02882361F08091AF0266
:10403000823041F481E0C11101C080E08093080624
:104040000E948615CC2309F4A9C060E088E00E9494
:10405000570361E08BE00E9457038FEC0E94BC077E
:1040600084E50E9481158091AF02823009F085C0FD
:104070008091670690916806A0916906B0916A06E2
:104080009C01AD0166277727CB01621B730B840B64
:10409000950B0E9441020E944A046BEF83E00E944C
:1040A000B70480E8809388008091EF04811109C0F3
:1040B0008091AF02823029F0809180008F778093C9
:1040C00080008091800080628093800080E48093F3
:1040D000B30080917000826080937000CF9108954A
:1040E00083EF94E1909302068093010691CF86ECD2
:1040F00092E1F8CF86E198E0F5CF8CE398E0F2CF3B
:104100008091AF02823009F58091810690918206FC
:10411000A0918306B0918406892B8A2B8B2BA9F45E
:104120000E942B04605C7F4F8F4F9F4F60938106EE
:104130007093820680938306909384068091F304A3
:10414000811114C083E99BE0CDCF8091F004909160
:10415000F10490930501809304011092810610925E
:1041600082061092830610928406ECCF86EA98E0CD
:10417000B9CF81E08093700653CF80917306909100
:104180007406A0917506B0917606892B8A2B8B2B2D
:1041900009F483CF60E070E0CB017BCF8091800099
:1041A000806880938000809180008F7D8093800064
:1041B00060E08AE00E94570310928A008091F20426
:1041C000882321F06FE082E10E94B7046CEF83E066
:1041D0000E94B7048091810690918206A091830687
:1041E000B0918406892B8A2B8B2B21F08091F304CC
:1041F00081110DC080916E0661E0823009F460E0AB
:1042000088E00E94570360E08BE00E9457036091B2
:1042100073067091740680917506909176060E94DF
:1042200041020E944A0480916D01882331F00E946E
:10423000991B8DE493E00E94E2178FEC0E94BC076B
:1042400080918A06811105C082E50E94811584E073
:104250003ECF86E5FACF1F920F920FB60F92112430
:104260002F933F938F939F93AF93BF938091F805C4
:104270009091F905A091FA05B091FB053091F705F1
:1042800023E0230F2D3758F50196A11DB11D209372
:10429000F7058093F8059093F905A093FA05B0937C
:1042A000FB058091FC059091FD05A091FE05B09164
:1042B000FF050196A11DB11D8093FC059093FD059E
:1042C000A093FE05B093FF05BF91AF919F918F9191
:1042D0003F912F910F900FBE0F901F90189526E8D9
:1042E000230F0296A11DB11DD2CF1F920F920FB6C0
:1042F0000F9211242F933F934F935F936F937F936C
:104300008F939F93AF93BF93EF93FF93E091010639
:10431000F09102060995FF91EF91BF91AF919F91A6
:104320008F917F916F915F914F913F912F910F905E
:104330000FBE0F901F9018951F920F920FB60F92FD
:1043400011240F931F932F933F934F935F936F937A
:104350007F938F939F93AF93BF93CF93DF93EF930D
:10436000FF93C091000680E1C89FE001112486E020
:104370000E942E038C0187E00E942E03000F111F64
:104380008C2B802B809300068332B9F08233D9F0D6
:10439000FF91EF91DF91CF91BF91AF919F918F915D
:1043A0007F916F915F914F913F912F911F910F914D
:1043B0000F900FBE0F901F90189580918B068F5F06
:1043C00080938B06E5CF80918B068150F9CFCF93F8
:1043D000DF93CDB7DEB7A2970FB6F894DEBF0FBE5E
:1043E000CDBF789484B5826084BD84B5816084BD7E
:1043F00085B5826085BD85B5816085BD80916E0083
:10440000816080936E0010928100809181008260B3
:1044100080938100809181008160809381008091F0
:1044200080008160809380008091B10084608093DF
:10443000B1008091B00081608093B00080917A00DB
:10444000846080937A0080917A00826080937A0001
:1044500080917A00816080937A0080917A008068F0
:1044600080937A001092C10060E08AE00E945703B6
:104470000E947F0714BE88E198E20FB6F894A895D1
:10448000809360000FBE9093600080E480937C0076
:104490001092680010926B0010926C0010926D00E8
:1044A00062E087E00E94850362E086E00E94850367
:1044B00080916D00806C80936D00809168008460B5
:1044C0008093680086E00E942E036C0187E00E94C2
:1044D0002E03CC0CDD1CC82AC0920006789460E044
:1044E0008BE00E94570361E088E00E94570360E080
:1044F0008AE00E94570360E089E00E94570361E070
:1045000089E00E94850361E08BE00E94850361E001
:1045100088E00E94850361E08AE00E94850360E0F4
:1045200081E10E94850362E08DE00E94850360E0E6
:104530008CE00E94850360E08EE00E94570360E0FB
:104540008FE00E94570360E08EE00E94850360E0E8
:104550008FE00E94850360E08BE00E94570361E0DA
:104560008BE00E94850360E084E10E94850360E0A7
:1045700085E10E94850361E085E00E94850364E691
:1045800070E080E090E00E94F8038AB18F618AB900
:104590003C9A8BE39DE00197F1F73C9A5C9883E3AA
:1045A0000E94BC078BE4C82E86E4D82EC601019772
:1045B000F1F783E30E94BC07C6010197F1F783E39B
:1045C0000E94BC0783E592E00197F1F782E30E9425
:1045D000BC0788E20E94BC078CE00E94BC0781E017
:1045E0000E94BC0763E070E080E090E00E94F80366
:1045F00086E00E94BC0710920706109206065E0134
:1046000029E0A20EB11C809106069091070608973A
:10461000A9F1609106067091070613E0660F771FF7
:104620001A95E1F76B5B7D4F48E050E0CE010196B3
:104630000E94223280910606909107068F5F48E023
:10464000849FC0011124887380640E94BC07CE013E
:1046500001966C01D6016D916D0189EA96E00E9488
:104660006115CA14DB04B1F7809106069091070624
:1046700001969093070680930606C5CF0E94991B6A
:104680000E94E81680E80E94BC078BE392E00E943B
:10469000CD1680EC0E94BC078BE292E00E94CD1602
:1046A00068EE73E080E090E00E94F8030E94E81654
:1046B00080E80E94BC0784E292E00E94CD1687E861
:1046C0000E94BC0781E292E00E94CD168AE192E04E
:1046D0000E94CD160E94E8166CED75E080E090E037
:1046E0000E94F80384E080936501E0919402B4E0B5
:1046F000EB9FF0011124EC52FD4F80819181A2814A
:10470000B3818093670690936806A0936906B0937F
:104710006A06EBE3F6E08CE2DF011D928A95E9F789
:104720001092330610923206109231061092300623
:1047300081E0809338068093370680933606809315
:1047400035068093340664E383E00E94C61B8091A3
:10475000040690910506823D910509F498C382ED07
:1047600090E090930506809304066FEF84E00E942A
:10477000C61B80EC0E94BC0789E092E00E94CD1627
:104780006CED75E080E090E00E94F803A89510922F
:10479000A8061092A706DD24D394D092A802809197
:1047A00096028093930210928A06109273061092DA
:1047B0007406109275061092760680917106082F85
:1047C000017010E0000F111F000F111FF801E556D6
:1047D000FD4F80819181A281B38180939702909354
:1047E0009802A0939902B0939A028091710680FB7F
:1047F000EE24E0F8F12CF701ED55FD4F8081809318
:10480000AF020E94CA0760E273E080E090E00E947D
:10481000F8030E94991BD09270061092030683E958
:104820009BE0909302068093010624E63EED45E06E
:1048300050E061E082E00E94A70880917C008093B4
:104840006D0680916E0661E0813009F460E029E92F
:1048500037E741E050E080E00E94A70880917C00AB
:1048600080936B0680916E0661E0813009F460E010
:1048700029E937E741E050E081E00E94A7088091F4
:104880007C0080936C0610928000109281008091D1
:104890008000826A8093800080918100896180938A
:1048A0008100109287008FEF80938600109289001C
:1048B0001092880010928B0010928A008091B600AE
:1048C0008F7D8093B6001092B0001092B1001092CC
:1048D000B2008091B00082608093B0008091B100FE
:1048E00084608093B100809170008260809370003A
:1048F00084E08093B300809180008F7D809380005E
:1049000060E08AE00E9457038DE00E942E03892B0D
:1049100009F4C8C28091AF0280918A06882391F180
:104920008091AF02882321F08091AF02813051F550
:1049300080918906811106C38091880691E0980FC5
:1049400090938806803109F0C4C2809186069091C8
:104950008706A4E096958795AA95E1F7805E914039
:104960000E941613109288061092870610928606EF
:1049700080918506882331F081E0809389068FEF4E
:104980000E94C41F8091AF02823009F07AC08091EA
:10499000AE02882309F475C080918506811171C02B
:1049A0008091810690918206A0918306B091840641
:1049B000892B8A2B8B2B09F064C080900F06909076
:1049C0001006A0901106B0901206C0906701D0901A
:1049D0006801E0906901F0906A01C501B4016C19A9
:1049E0007D098E099F0920E031E040E050E00E94FF
:1049F000D335C20ED31EE41EF51EC0926701D092BD
:104A00006801E0926901F0926A01C701B60122E0F3
:104A100030E040E050E00E94D33511E02815390520
:104A20004A055B050CF010E010930E0680910D0610
:104A3000181751F00E942B046093090670930A0620
:104A400080930B0690930C060E942B04809009061D
:104A500090900A06A0900B06B0900C066819790990
:104A60008A099B09613171058105910508F479C2B4
:104A7000809108061813109308060E94861510935B
:104A80000D0680918C06811127C080918E068823A7
:104A900009F47CC287E0E1ECF2E0DE0111960190BE
:104AA0000D928A95E1F7E091AD0241E050E04C0FA4
:104AB0005D1F4E0F511DFA0110810E94C707109211
:104AC0008E0680E80E94BC07812F90E080559D4FA4
:104AD0000E94E2170E94EB078091AF028091890645
:104AE000811152C18DE00E942E03892B09F04CC127
:104AF00010927D0610927E0610927F06109280061C
:104B000081E00E94C41FA8958091AF02823009F015
:104B100073C36AE070E080E090E00E94F803809147
:104B2000AF02823009F022C10E942B040091790665
:104B300010917A0620917B0630917C0660177107F0
:104B40008207930708F412C108E010E0812C912C31
:104B500054017501640184E10E94C103BC01990FF5
:104B6000880B990B0E946F332CE03EE248EB5BE32D
:104B70000E94D4349B01AC01C701B6010E9454329B
:104B80006B017C0185E10E94C103BC01990F880B78
:104B9000990B0E946F332CE03EE248EB5BE30E94EE
:104BA000D4349B01AC01C501B4010E9454324B01C5
:104BB0005C0165E070E080E090E00E94F803015045
:104BC000110949F620E030E040E05EE3C701B6019C
:104BD0000E94D4346B017C0120E030E040E05EE3D1
:104BE000C501B4010E94D43469877A878B879C877A
:104BF000A7019601C701B6010E94D4342B013C01E4
:104C0000A701960169857A858B859C850E94C532AE
:104C10004B015C0120E030E040E85FE30E94543249
:104C20006F8F78A389A39AA3A501940160E070E037
:104C300080E89FE30E9453329B01AC016F8D78A105
:104C400089A19AA10E94C5324B015C012AE037ED8F
:104C50004FE151E40E947734181654F020E030E020
:104C600040E85FE3C501B4010E94C03287FF08C07D
:104C7000EAE08E2EE7ED9E2EEFE1AE2EE1E4BE2EB1
:104C80002091230630912406409125065091260656
:104C9000C301B2010E94C03281110FC0A50194016D
:104CA00060911F0670912006809121069091220646
:104CB0000E94C032882309F44BC00E94C70780E8D5
:104CC0000E94BC0780916D01823009F49AC2833042
:104CD00009F4CEC2813061F58CE593E00E94E217C1
:104CE00020E030E048EC52E4C301B2010E94D43429
:104CF0000E94AA3320E030E048EC52E40E94C53222
:104D00000E94E3188EE593E00E94E21720E030E075
:104D100048EC52E4C501B4010E94D4340E94AA3385
:104D200020E030E048EC52E40E94C5320E94E318D3
:104D30004092230650922406609225067092260621
:104D400080921F0690922006A0922106B092220621
:104D50000E942B046C507E4F8F4F9F4F60937906BB
:104D600070937A0680937B0690937C0681E10E9483
:104D70002E03892B31F48DE00E942E03892B09F438
:104D8000C2CE80E00E94C41FC0908106D0908206EF
:104D9000E0908306F0908406C114D104E104F1048C
:104DA00051F00E942B04C616D706E806F90618F43F
:104DB00080E00E94C41F81E10E942E03892B09F428
:104DC000B7C58091780682FD05C080917806857010
:104DD00009F47FC280917806807F90918B06992399
:104DE00009F4F6C29CE0892B8093780680917806BE
:104DF000823209F48AC408F01DC3863108F0EAC281
:104E0000843108F0C0C3813109F4C3C380918C069A
:104E1000811107C090916F0680918C06981709F454
:104E2000A1C610918B0680918C06813009F087C550
:104E3000112309F486C590918B068091AC02890FED
:104E40008093AC028091AC028F322CF48091AC0242
:104E500018160CF070C58091AC028F320CF06DC545
:104E60008091AC028093AC026091AC0282E00E941F
:104E7000C61B8093AC0210928B0680918C0660E07A
:104E800081116091AC0281E00E94C61B60C581E186
:104E90000E942E03892B09F062CC6FEF83E00E9401
:104EA000C61B75CC80EC0E94BC0781E20E94811574
:104EB00081E20E9481158BEF91E00E94CD160E9445
:104EC000E8166CED75E080E090E00E94F803A8958C
:104ED0001BCDF89483E880937A008091660180323C
:104EE00020F060E088E00E94570390917C00809160
:104EF0007A0084FFFCCF80916D0680937C008091C6
:104F00007A00806480937A0080917A0084FFFCCFDD
:104F100090937C0080916601803220F061E088E00F
:104F20000E94570320917800309179007894809105
:104F3000860690918706820F931F90938706809331
:104F4000860616CD8091850681111CCD0E94C41F56
:104F50001092890660E270E080E090E00E94F80321
:104F600011CDC701B60124E630E040E050E00E94D8
:104F7000D335C20ED31EE41EF51EC0926701D09237
:104F80006801E0926901F0926A0177CD8091810613
:104F900090918206A0918306B0918406892B8A2B7A
:104FA0008B2B09F099CD8091890681110C94F831F1
:104FB00040911B0650911C0660911D0670911E06C3
:104FC0008091170690911806A0911906B0911A06C3
:104FD00084179507A607B70708F4F3C0C090170613
:104FE000D0901806E0901906F0901A06C0921706A5
:104FF000D0921806E0921906F0921A068091AD023E
:10500000882311F40C94F4318091150690911606C2
:10501000019690931606809315069770892B11F0D0
:105020000C94F43180916C0161E070E002C0660F75
:10503000771F8A95E2F7072E000C880B990B0E94C8
:105040006F334B015C01C701B6010E946D339B01B8
:10505000AC01C501B4010E94D43421ED35E443EE26
:105060005FE40E94C5329B01AC010E94D43420E071
:1050700030E048E452E40E94C5320E947C3420E0D3
:1050800030E040E251E40E94D43420E030E040EFD0
:1050900051E40E9454320E9437336B01709314061E
:1050A000609313060E94C7078091AD02813069F4B6
:1050B00089E80E94BC07B601DD0C880B990B0E94A1
:1050C000B81785E892E00E94CD168091AD0282303B
:1050D000F9F48091130690911406813C5FEF9507D7
:1050E0000CF078C081589F4F66E070E00E949D35BB
:1050F000162F8EE80E94BC071A3018F483E50E9430
:105100008115612F70E090E080E04AE00E94741702
:105110008091AD02833039F5809113069091140689
:10512000813CAFEF9A070CF05EC081589F4F66E05C
:1051300070E00E949D35FE01319694EF960F8F012D
:1051400082E016162CF481E0860F65300CF085E0C5
:10515000819363506913F4CF1D828CE80E94BC07D1
:10516000C8010E94E2178091AD02843099F48EE864
:105170000E94BC078091AF02823041F460916B01C4
:1051800070E090E080E04AE00E9474178BE593E0C5
:105190000E94E2170E94EB07809117069091180673
:1051A000A0911906B0911A06B695A795979587957F
:1051B0008093170690931806A0931906B0931A06C9
:1051C0008BCCC0901B06D0901C06E0901D06F09082
:1051D0001E060CCF875B1AE0612F0E947D35819FF0
:1051E000102D112486CF875B2AE0622F0E947D3527
:1051F000829F602D11249FCF64E670E080E090E0F4
:105200008CCC86E693E00E94E21720E030E048EC88
:1052100052E4C301B2010E94D4340E94AA3320E0B8
:1052200030E048EC52E40E94C5320E94E3188AE65E
:1052300093E00E94E21729853A854B855C85CA0177
:10524000B9010E94D43420E030E048EC52E40E94DE
:10525000D4340E94AA3320E030E048EC52E40E94AB
:10526000C5320E94E3188FE693E00E94E21760CDFA
:1052700086E693E00E94E21720E030E048EC52E43A
:10528000C701B6010E94D4340E94AA3320E030E066
:1052900048EC52E40E94C5320E94E31881E793E093
:1052A0000E94E21720E030E048EC52E469857A85FC
:1052B0008B859C850E94D4340E94AA3320E030E084
:1052C00048EC52E40E94C5320E94E31886E793E05E
:1052D000CCCFF89480917A0084FFFCCFE0907A00E4
:1052E000F0907C0080917A00877F80937A00809193
:1052F0007A00876080937A0080E480937C0061E08C
:1053000070E080E090E00E94F80381E10E94C10318
:105310008C01E0927A00F0927C00789481E0809396
:1053200078060E942B046B017C0181E10E942E0310
:10533000892B71F00E942B046C197D098E099F093D
:105340006D3271408105910578F184E08093780693
:105350006AE070E080E090E00E94F80380917806B7
:10536000843099F00E942B046C197D098E099F09E5
:10537000643F71408105910540F481E10E942E0354
:10538000892BA1F082E08093780681E10E942E03B0
:10539000892B89F080918B06882321F080917806F3
:1053A000843031F0A895F1CFA895BFCFA895D6CF7E
:1053B0008CE08093780690E10C35F3E01F0728F02D
:1053C00090E2073D134008F090E3809178060BCD02
:1053D00095E009CD8C3109F4DAC0813209F016CD9F
:1053E00080918C0681117BC11091AF028091730670
:1053F00090917406A0917506B0917606892B8A2B40
:105400008B2B09F402C1109273061092740610924D
:105410007506109276062091AF0281E090E022306E
:1054200011F090E080E086559D4FDC018C918093D7
:10543000A90251C1823309F469C270F4843209F4BB
:10544000C1C1813309F0E2CC80918C06811141C247
:1054500081E00E94F407DACC843309F462C28C3311
:1054600009F0D4CC81E10E942E03892B09F433C1C9
:10547000A89580918B068823A9F361E080E00E94C3
:10548000C61B8091950287FF4EC28AE080939502E9
:1054900061E084E00E94C61B80EC0E94BC078AE8A1
:1054A00092E00E94CD160E94E81687EF84BF0FB6E7
:1054B000F894A895809160008861809360001092B4
:1054C00060000FBE809170008D7F8093700061E05E
:1054D00070E080E090E00E94F80310928800109243
:1054E0008A0080917A00877F80937A0080917A0089
:1054F000876080937A0080E480937C000E947F071D
:105500006CED75E080E090E00E94F8031092680076
:1055100010926B0010926C0010926D0010926E0051
:1055200010926F00109270001092600080916C00D9
:10553000886080936C00809168008260809368002E
:105540008FEF8093640088E00E94BC075D9883B76A
:10555000817F846083BF83B7816083BF789485B780
:10556000806685BF8F7D85BF889583B78E7F83BF1B
:1055700088E198E00FB6F894A895809360000FBE7C
:1055800090936000FFCF82E080938C063FCC81E057
:10559000FBCF80918C06813041F48091AC028D313B
:1055A00024F08091AC028332A4F080918C06882391
:1055B00011F180918C06813031F181E090918C065F
:1055C000923010F36091AC0284E00E94C61B80E030
:1055D000DBCF0E942B0460937D0670937E06809340
:1055E0007F06909380068091AC028D518093770660
:1055F00010928C060BCC8091AC028111DACF81E045
:105600008093AC02D6CF82E0D9CF8091AF028F5F7A
:105610008093AF028091AF02833010F01092AF02FE
:105620008091AF02823011F41092A70281E090E0E5
:10563000123011F090E080E02091A902FC01E655C3
:10564000FD4F20834091AF0221E030E0423011F065
:1056500030E020E026553D4FF90120812093A9023A
:10566000209172068B559D4FDC012C932091AF0247
:1056700081E090E0223011F090E080E08B559D4F6A
:10568000FC01808180937206909171068091AF0237
:1056900091709D871E86ED85FE85ED55FD4F8083BB
:1056A0008091710663E380FF62E384E00E94C61B81
:1056B00062E084E00E94C61B63E084E00E94C61B97
:1056C0001092A8061092A706123029F48091AE021B
:1056D00081110E94991B81E08093A80297CB809151
:1056E0008C06813011F410928C0680918C068230E9
:1056F00008F48CCB81E080938C068093A8026091A3
:10570000AC0284E00E94C61B81CB809172068F5F41
:105710008093720681E0809370068091AF028230A0
:1057200039F4809172068B3018F084E08093720611
:105730008091AF02823039F480917206843019F47E
:1057400086E08093A9028091AF02823079F4809143
:105750007206853021F080917206863039F480918E
:10576000A902873018F487E08093A9028091AF02E4
:10577000823059F480917206873039F48091A90201
:10578000883018F488E08093A9028091AF028230BB
:1057900031F080917206843010F0109272061092EF
:1057A0008B0663E080E00E94C61B63E084E00E94F9
:1057B000C61BA8956CED75E080E090E00E94F803B0
:1057C000A89589CF40917306509174066091750633
:1057D0007091760681E090E0A0E0B0E0452B462B8A
:1057E000472B19F080E090E0DC01809373069093E2
:1057F0007406A0937506B093760680917306909117
:105800007406A0917506B0917606892B8A2B8B2B96
:1058100009F058C02091AF0281E090E0223011F0F1
:1058200090E080E086559D4FDC018C918093A90229
:105830008091730690917406A0917506B0917606DA
:10584000892B8A2B8B2B09F046CF9091710681E032
:10585000911180E0809371068091710680FB222473
:1058600020F8312CF101EE0FFF1FEE0FFF1FE55660
:10587000FD4F80819181A281B381809397029093A3
:105880009802A0939902B0939A0280917106817058
:105890008F87188AEF85F889ED55FD4F80818093B9
:1058A000AF028091AF02823079F085E08093A90247
:1058B0008091AF02823051F484E08093720610929E
:1058C000A70209CF88E0B2CF86E0F0CF109272062F
:1058D00002CF80918C0680918C068230A9F481E001
:1058E0008093A8026091AC0284E00E94C61B81E014
:1058F00090918C06933009F047CE6091AC0286E01F
:105900000E94C61B83E040CE82E0F2CF80919602D7
:105910008F5F8A3020F48093960285E088CD81E005
:10592000FACF8FEF96CD61E084E00E94C61B9ACD3E
:10593000109278066BCA81E095CA8FE293CA111162
:105940009CCA90916F0680918C06981396CA80919C
:105950008C0680936F0680918C06823009F002C11C
:10596000112309F4FFC080EC0E94BC078EE00E9466
:10597000BC078091AC02823069F5909171068091EC
:10598000AF029170998B1A8AE989FA89ED55FD4F1A
:1059900080838091710663E380FF62E384E00E946C
:1059A000C61B81E08093A8021092A8061092A70659
:1059B0008091AF02823009F4F9C385E08093A90297
:1059C0008091AF02823009F0F3C384E080937206C5
:1059D0001092A7028091AC02843019F481E0809388
:1059E000A8028091AC028630C9F590917106917041
:1059F0009B8B1C8AEB89FC89EE0FFF1FEE0FFF1FAC
:105A0000E556FD4F40815181628173814093970239
:105A1000509398026093990270939A029091710644
:105A200091709D8B1E8AED89FE89ED55FD4F908109
:105A30009093AF029091AF02923009F085E080938D
:105A4000A9028091AF02823009F0B5C384E080934F
:105A500072061092A70281E08093A8028091AC02A6
:105A6000873099F48091730690917406A091750621
:105A7000B0917606892B8A2B8B2B09F49FC388E083
:105A80008093A90281E08093A8028091AC028A30C1
:105A9000C9F5F89460916E066095617029E937E761
:105AA00041E050E080E00E94A70880917C00809354
:105AB0006B0660916E066095617029E937E741E0F9
:105AC00050E081E00E94A70880917C0080936C06E2
:105AD000789460916E066695617081E0682788E031
