:100000000C948F010C94B7010C94B7010C94B701B8
:100010000C94B7010C9492210C94B7010C946B21B1
:100020000C94B7010C94B7010C94B7010C94B70170
:100030000C94B7010C94B7010C94B7010C94B70160
:100040000C9421210C94B7010C94B7010C94B701C6
:100050000C94B7010C94B7010C94B7010C94B70140
:100060000C94B7010C94B70108000000BE9224491B
:10007000123EABAAAA2ABECDCCCC4C3E00000080DA
:10008000BEABAAAAAA3E00000000BF000000803F4D
:100090000000000000084178D3BB4387D1133D190D
:1000A0000E3CC3BD4282AD2B3E68EC8276BED98F3A
:1000B000E1A93E4C80EFFFBE01C4FF7F3F0000007E
:1000C0000000202020202020202000524954003A07
:1000D00020004C454400515541440049512070686E
:1000E0006173650052656620667271005057522038
:1000F0006D617800505752206D696E004357204D56
:1001000073675F36004357204D73675F3500435771
:10011000204D73675F34004357204D73675F330092
:100120004357204D73675F32004351204D73675F23
:1001300031004357205245504541542078350054F2
:100140005820447269766500535120564F58005626
:100150004F580043572053706565640053656D69BF
:100160002051534B004357204465636F6465720010
:10017000532D4D6574657200415454004E52004138
:100180004743005249540056464F0053746570006F
:1001900042616E64004257004D6F646500566F6C9B
:1001A0000000000000240027002A000000000025B5
:1001B0000028002B00000000002300260029000476
:1001C00004040404040404020202020202030303FE
:1001D00003030301020408102040800102040810F8
:1001E00020010204081020000000080002010000A5
:1001F0000304070000000000000000436865636B13
:10020000205054542F6B65790052657365742073C8
:10021000657474696E67732E2E0033303037323652
:100220000020520055534452202B0070726F6674A8
:100230007064406D61696C2E727500506574726FE8
:10024000762052560008040A050A0408000000003F
:1002500000000000001010101010101010101014EA
:10026000141414141410101515151515150C121E50
:1002700012120000001C121C121C000000000000E2
:10028000000000000064426D2000506F7765722D01
:100290006F6666203733203A2D29007E2045544969
:1002A000414E4D53555257444B474F4856462A4CA2
:1002B0002A504A425843595A512A2A353453332A2C
:1002C0002A2A322A2A2B2A2A2A4A31363D2F2A2A3A
:1002D0002A482A372A472A382A39302A2A2A2A2A13
:1002E0002A2A2A2A2A2A2A3F5F2A2A2A2A222A2A2C
:1002F0002E2A2A2A2A402A2A2A272A2A2D2A2A2A44
:100300002A2A2A2A2A3B212A292A2A2A2A2A2C2A44
:100310002A2A2A3A2A2A2A2A000040325F32112445
:100320001FBECFEFD8E0DEBFCDBF14E0A0E0B1E04C
:10033000E6E0F4E702C005900D92AA31B107D9F7C3
:1003400026E0AAE1B4E001C01D92AD39B207E1F7A1
:1003500011E0CEE8D1E004C02197FE010E943636BC
:10036000CD38D107C9F70E94DD210C94F6390C94E1
:10037000000087FF76C03C983D9800000000000018
:1003800000003D9A000000000000000086FF6BC0E6
:100390003C983D9800000000000000003D9A0000DD
:1003A00000000000000085FF60C03C983D98000000
:1003B0000000000000003D9A000000000000000066
:1003C00084FF55C03C983D980000000000000000EC
:1003D0003D9A000000000000000083FF4AC03C98E6
:1003E0003D9800000000000000003D9A0000000061
:1003F0000000000082FF3FC03C983D9800000000D4
:10040000000000003D9A000000000000000081FF95
:1004100034C03C983D9800000000000000003D9A68
:10042000000000000000000080FF29C03C983D98BB
:1004300000000000000000003D9A000000000000E5
:1004400000003C9800000000000000003D98000003
:100450000000000000003D9A0000000000000000C5
:1004600008953C9A89CF3C9A94CF3C9A9FCF3C9A6E
:10047000AACF3C9AB5CF3C9AC0CF3C9ACBCF3C9AFE
:10048000D6CF2F923F924F925F926F927F928F9230
:100490009F92AF92BF92CF92DF92EF92FF920F9313
:1004A0001F93CF93DF9300D000D0CDB7DEB79B0171
:1004B000AC018091860690918706A0918806B09144
:1004C000890689839A83AB83BC83A0918306C090FD
:1004D0009206D0909306E0909406F0909506B0E0D6
:1004E0000E945A364B015C01BB0C8808982C5401C1
:1004F0009B01AC01682D782D882D982D07E10E9475
:100500003C3756016701E12CF12C00E010E00E941D
:10051000673649015A0149805A806B807C80480CBB
:10052000591C6A1C7B1C8091840690918506860D5F
:10053000971D80938E0680E180938F06852D9927E5
:1005400080939006409291060F900F900F900F901D
:10055000DF91CF911F910F91FF90EF90DF90CF909F
:10056000BF90AF909F908F907F906F905F904F90D3
:100570003F902F900895E0917E06E7FD15C0F0E0D2
:10058000E556FD4FE491EA3279F0A0EBB2E0119626
:100590008C9111978D9382E0AF3BB807C1F7E09340
:1005A000BF0281E080937D0681E080937E060895FE
:1005B000AF92BF92CF92DF92EF92FF920F931F9371
:1005C000CF93DF936C017B018B01040F151FEB01AF
:1005D0005E01AE18BF08C017D10759F06991D60166
:1005E000ED91FC910190F081E02DC6010995892BD8
:1005F00079F7C501DF91CF911F910F91FF90EF9097
:10060000DF90CF90BF90AF900895833081F028F4B1
:10061000813099F08230A9F008958730A9F08830B0
:10062000C9F08430B1F4809180008F7D03C0809147
:1006300080008F7780938000089584B58F7784BD84
:10064000089584B58F7DFBCF8091B0008F77809324
:10065000B00008958091B0008F7DF9CFCF93DF93E4
:10066000282F30E0F901E951FE4F8491F901ED5254
:10067000FE4FD491F901E154FE4FC491CC23A1F077
:1006800081110E940503EC2FF0E0EE0FFF1FEB54E9
:10069000FE4FA591B491EC91ED2381E090E009F437
:1006A00080E0DF91CF91089580E090E0FACF1F9332
:1006B000CF93DF93282F30E0F901E951FE4F849169
:1006C000F901ED52FE4FD491F901E154FE4FC4916E
:1006D000CC23A9F0162F81110E940503EC2FF0E026
:1006E000EE0FFF1FE555FE4FA591B4918FB7F8941B
:1006F000EC91111108C0D095DE23DC938FBFDF9100
:10070000CF911F910895DE2BF8CFCF93DF9390E028
:10071000FC01ED52FE4F249181549E4FFC018491C7
:100720008823C9F090E0880F991FFC01EF55FE4F18
:10073000A591B491FC01E555FE4FC591D49161118D
:100740000DC09FB7F8948C91209582238C9388815B
:10075000282328839FBFDF91CF910895623051F401
:100760009FB7F8943C91822F809583238C93E881E6
:100770002E2BEFCF8FB7F894EC912E2B2C938FBFAD
:10078000EACF8E50806480937C0080917A008064F0
:1007900080937A0080917A0086FDFCCF809178006A
:1007A0009091790008953FB7F8948091F205909167
:1007B000F305A091F405B091F50526B5A89B05C0F9
:1007C0002F3F19F00196A11DB11D3FBFBA2FA92FD0
:1007D000982F8827BC01CD01620F711D811D911DCD
:1007E00042E0660F771F881F991F4A95D1F7089539
:1007F0008F929F92AF92BF92CF92DF92EF92FF9231
:100800006B017C010E94D3034B015C01C114D10434
:10081000E104F104B9F00E94D303681979098A0947
:100820009B09683E73408105910580F321E0C21A5F
:10083000D108E108F10888EE880E83E0981EA11C1B
:10084000B11CE4CFFF90EF90DF90CF90BF90AF90BE
:100850009F908F9008952FB7F8946091EE05709156
:10086000EF058091F0059091F1052FBF08953C9A16
:100870003D9800000000000000003C9887B18F7C8C
:1008800087B93C9A08953D9A0000000000000000DE
:100890003C980895CF93DF930E94430480EC0E941C
:1008A000B9018EE10E94B901CFE7D6E08F850E94A1
:1008B000B90188890E94B90189890E94B9018A8990
:1008C0000E94B901DF91CF910C943704CF93DF934D
:1008D000D82FC62F0E94430480E40E94B9018D2FB7
:1008E0000E94B9018C2F0E94B901DF91CF910C9425
:1008F0003704CF93DF93D82FC92F6FEF87E00E9483
:1009000066046FEF86E00E9466046D2F82E00E940D
:10091000660460E086E00E9466046C2F83E00E941B
:10092000660460E087E0DF91CF910C946604FF924B
:100930000F931F93CF93DF93C82FF62E072F142FFB
:100940000E94430480EC0E94B9018C2F0E94B901DF
:10095000CF2DD02F115020F089910E94B901FACFEC
:10096000DF91CF911F910F91FF900C943704CF939B
:10097000DF931F92CDB7DEB7698341E0BE016F5FA1
:100980007F4F0E9497040F90DF91CF9108952F928F
:100990003F924F925F926F927F928F929F92AF920F
:1009A000BF92CF92DF92EF92FF920F931F93CF935C
:1009B000DF93CDB7DEB764970FB6F894DEBF0FBEF6
:1009C000CDBF898B48015901FB8AEA8ACC8ACB01C9
:1009D000BA01A90198010E94F535290119012430B5
:1009E000310509F497C09B01AC0160E070E080E044
:1009F00090E000E10E943C37F9017501640100E0DC
:100A000010E098018986DA86AB86FC860D871E8702
:100A10002F87388B54016701E12CF12C00E010E0A6
:100A20009F010E949836A32FF42FE52F422F5A2FB3
:100A30006F2F7E2FC12CD12C7601E394CB01BA010C
:100A400027E0660F771F881F991F2A95D1F7A70106
:100A500096010E94F53542019694982C882497942B
:100A60008794B12CA12C02E0901AA108B108280D9E
:100A7000391D4A1D5B1DBC89A0E1BA9FF0011124FC
:100A8000842E8E2AE4E02E16310409F04CC0ECE0EE
:100A90001982CA828E2A8B823C832D8394E0CC0CEF
:100AA000DD1CEE1CFF1C9A95D1F7E82AEE827F83AD
:100AB000688748E0BE016F5F7F4F8989880F880F84
:100AC000880F865D0E949704612F6295660F660FFE
:100AD000607CC988C7FE29C060688C2D885E0E9432
:100AE000B70464960FB6F894DEBF0FBECDBFDF919A
:100AF000CF911F910F91FF90EF90DF90CF90BF901B
:100B0000AF909F908F907F906F905F904F903F90AD
:100B10002F90089540E050E0BA0111E0C12CD12C93
:100B20007601C3948BCFE0E0B3CF6F608989805F9B
:100B30000E94B704EA88FB88E49CA001E59C500D64
:100B4000F49C500D112421E01227212F30E0429F08
:100B5000C001439F900D529F900D11246AE570E0F3
:100B60000E94CD3589898B55BACF2F923F924F92F3
:100B70005F926F927F928F929F92AF92BF92CF922D
:100B8000DF92EF92FF920F931F93CF93DF93CDB736
:100B9000DEB760970FB6F894DEBF0FBECDBF4B0136
:100BA0005C0149875A8329833B8321E0821623EA2B
:100BB000920621EEA20621E1B206DCF023E030E04D
:100BC000CA01B9010E94CD3569877A8389819B81E9
:100BD000B9010E94CD3569837B83C501B40123E04F
:100BE00030E040E050E00E94173649015A01188673
:100BF00011C060E2861661EA960667E0A606B104B7
:100C0000B4F747E0880C991CAA1CBB1C4A95D1F785
:100C100077E0788780E8881683EC980689ECA80648
:100C200081E0B806CCF460919206709193068091B1
:100C3000940690919506A0EE8A16A7E69A06A5E37B
:100C4000AA06B1040CF445C124E0660F771F881F83
:100C5000991F2A95D1F749C1609192067091930628
:100C6000809194069091950635E0660F771F881F56
:100C7000991F3A95D1F7A50194010E94F535190104
:100C8000B1E08B16BBE39B06B8E5AB06B8E0BB064C
:100C90000CF031C120FE03C02FEF221A320AD1011D
:100CA000A501940128583341410951090E945A363F
:100CB0006B017C012091920630919306409194063D
:100CC000509195064090920650909306609094063D
:100CD000709095064C825D826E827F820E94F5350F
:100CE00029013A019101A0E1B7E20E9444366C0D5E
:100CF0007D1D8E1D9F1D2C813D814E815F810E9437
:100D0000F535421653066406750619F022E0220EE8
:100D1000311CD101A50194010E945A362B013C01DE
:100D200000919206109193062091940630919506B9
:100D3000C12CF12CE12CBC01A2018EEF0E94C70452
:100D4000C884E984FA8095018401B301A20180E09E
:100D50000E94C704C884E980FB809501B301A20109
:100D600081E00E94C704C884F12CE12C9501B301F5
:100D7000A20182E00E94C7046985062E000C770B51
:100D80008981681B710987FD73957D836C83C3011D
:100D9000B201A50194010E94F535AC81BD81A29FED
:100DA000C001A39F900DB29F900D11246AE570E0E1
:100DB0000E94E135809196069091970686179707D5
:100DC00041F0709397066093960660EA81EB0E946B
:100DD000B7046CEF83E00E94B70480927F06909284
:100DE0008006A0928106B09282062092830620910E
:100DF0009206309193064091940650919506C30156
:100E0000B2010E94F5352450310941095E4F3695F3
:100E1000322F222737952795309385062093840615
:100E20002091920630919306409194065091950638
:100E3000C0909206D0909306E0909406F0909506AC
:100E4000C301B2010E94F5352B013C01812C912C8C
:100E5000540169875A868B877C868D869E86AF86ED
:100E6000B88A9B01AC0160E070E080E090E007E1AF
:100E70000E943C372A83398356016701E12CF12C0B
:100E800000E010E02A8139810E949836C901DA0118
:100E90008093860690938706A0938806B093890670
:100EA00060960FB6F894DEBF0FBECDBFDF91CF9135
:100EB0001F910F91FF90EF90DF90CF90BF90AF9078
:100EC0009F908F907F906F905F904F903F902F906A
:100ED0000895209192063091930640919406509186
:100EE0009506A7E0B0E00E945A36A50194010E9441
:100EF000F5351901CFCE94E0292E312CCBCECF93EE
:100F00006FEF83E00E94B70460E088E10E94B704BD
:100F100060E089E10E94B704C0E160E88C2F0E9484
:100F2000B704CF5FC831C9F760E08BEB0E94B7040C
:100F300060E085E90E94B70462ED87EBCF910C94E5
:100F4000B704F8949BB1907F9061892B8BB98BE0AB
:100F500090E00197F1F75C9878948BEE90E0019720
:100F6000F1F70895CF93C82F82958F700E94A10743
:100F70008C2F8F70CF910C94A1078CE00C94B2074A
:100F80000F931F93CF93DF934091EC05C0916401C1
:100F9000C41BDD0BECEEF4E030E020E00FEF10E0DE
:100FA000C901B8010E94CD35640F61932C0F3D1F1C
:100FB00085E0EC3EF807A1F7DF91CF911F910F91EB
:100FC00008958091AB028F5B80680E94B2078EE02B
:100FD0000C94B2079091AB02980F9093AB02909152
:100FE000AB02911103C098E09093AB029091AB02D9
:100FF000993018F091E09093AB029091AB0294304D
:1010000021F09091AB02923029F49091AB02890FBC
:101010008093AB020C94E10780917A008064809306
:101020007A008091510480938A0080917800909199
:1010300079002091650192502450330B02C0880F33
:10104000991F2A95E2F7803E2FEF92074CF0803EE1
:10105000910514F08FED90E08096809351040895EF
:1010600080E0FBCF80917A00806480937A00809149
:10107000EB0580938A000E944A0480917800909149
:101080007900209165019250092E000CAA0BBB0B30
:1010900004C0880F991FAA1FBB1F2A95D2F7409141
:1010A0005204509153046091540470915504840F7C
:1010B000951FA61FB71F81342FE19207A105B10527
:1010C000B4F58093520490935304A0935404B093C6
:1010D00055048091520490915304A0915404B0910E
:1010E0005504803C904EAF4FBF4F64F480EC90EEBF
:1010F000AFEFBFEF8093520490935304A093540436
:10110000B09355046091520470915304809154043B
:101110009091550426E095958795779567952A9542
:10112000D1F7072E000C880B990B0C94410280E438
:101130009FE1A0E0B0E0C5CF089590917E00E1E08E
:10114000F0E0082E01C0EE0F0A94EAF79E2B909370
:101150007E0010927A0010927B0010927C00909199
:101160007C00892B80937C0080917C0090E461114D
:1011700090EC892B80937C0068EB7BE787E190E023
:101180000E94F53580E0369527952115310511F03F
:101190008F5FF9CF90917A008770892B80937A00C6
:1011A00080917A00806880937A00089580912A0661
:1011B00080937C0080917A00806480937A002091F3
:1011C0007800309179002F5F31408091E304909155
:1011D000E404820F931F959587953093E404209340
:1011E000E304209163062223A1F01092E2041092FE
:1011F000E1041092DE041092DD042091E1043091AC
:10120000E2043093E0042093DF0420E82093880078
:1012100008954091DF045091E0042091DD04309165
:10122000DE04240F351F3093DE042093DD0460912B
:10123000E1047091E204460F571F5093E00440937D
:10124000DF0435952795359527953595279535955F
:101250002795359527952F37310524F02FEF2093CB
:101260008800089520384FEF340714F420E83FEF4A
:101270002058CCCF8091290680937C00EAE7F0E0EB
:1012800080818064808320917800309179002F5F85
:10129000314089E89BE09093F7058093F6058091B3
:1012A000DB049091DC044091D9045091DA04480F9A
:1012B000591FCA01880F991F840F951F820F931F12
:1012C0004091D7045091D804840F951F9595879528
:1012D0003093DC042093DB042091D5043091D604B4
:1012E0004091D3045091D404420F531F9A01220F0E
:1012F000331F240F351F280F391F4091D1045091FF
:10130000D204240F351F3093D0042093CF04909340
:10131000D6048093D50408958091290680937C009B
:10132000EAE7F0E08081806480838091780090918A
:1013300079002FE03AE03093F7052093F6052091ED
:10134000D9043091DA043093D8042093D7048F5F06
:1013500091409093DA048093D904089580912906EE
:1013600080937C00EAE7F0E08081806480832091B4
:101370007800309179002F5F314083E89AE09093B4
:10138000F7058093F6058091D3049091D40490934F
:10139000D2048093D1048091DB049091DC044091CD
:1013A000D9045091DA04480F591FCA01880F991FB8
:1013B000840F951F820F931F4091D7045091D8043A
:1013C000840F951F959587959093D4048093D304AB
:1013D0003093DC042093DB040895809129068093E8
:1013E0007C00EAE7F0E0808180648083809178006F
:1013F0009091790025E13BE03093F7052093F605C5
:101400002091D9043091DA043093D8042093D70482
:101410008F5F91409093DA048093D904089580916E
:101420002A0680937C0080917A00806480937A0001
:1014300020917800309179002F5F31408091E30452
:101440009091E404820F931F959587953093E4045F
:101450002093E30420916306222331F11092E204E9
:101460001092E1041092DE041092DD042091E10458
:101470003091E2043093E0042093DF0420E82093CD
:1014800088002AE339E03093F7052093F605209190
:10149000CD043091CE043093CC042093CB049093B0
:1014A000CE048093CD0408954091DF045091E00470
:1014B0002091DD043091DE04240F351F3093DE04CB
:1014C0002093DD046091E1047091E204460F571F00
:1014D0005093E0044093DF04359527953595279583
:1014E0003595279535952795359527952F373105CE
:1014F00014F02FEFC4CF20384FEF340714F420E856
:101500003FEF2058BCCF80912A0680937C008091C9
:101510007A00806480937A008091780090917900BD
:101520008F5F91402091E3043091E404280F391F2C
:10153000359527959093E4048093E30480916306A6
:10154000882309F443C01092E2041092E10410923F
:10155000DE041092DD048091E1049091E204909306
:10156000E0048093DF0480E8809388008CE899E0B1
:101570009093F7058093F6058091C9049091CA0471
:101580009093C8048093C7048091C5049091C604C9
:101590004091CD045091CE04480F591FCA01880FC5
:1015A000991F840F951F820F931F4091CB04509178
:1015B000CC04840F951F959587959093CA048093CA
:1015C000C9043093C6042093C50408954091DF04F4
:1015D0005091E0048091DD049091DE04840F951F0A
:1015E0009093DE048093DD046091E1047091E20445
:1015F000460F571F5093E0044093DF04959587955D
:1016000095958795959587959595879595958795C2
:101610008F37910514F08FEFA7CF80384FEF9407E5
:1016200014F480E89FEF80589FCF80912A06809322
:101630007C0080917A00806480937A002091780009
:10164000309179002F5F31408091E3049091E40460
:10165000820F931F959587953093E4042093E304BC
:1016600020916306222331F11092E2041092E104EA
:101670001092DE041092DD042091E1043091E20426
:101680003093E0042093DF0420E8209388002EEAC2
:1016900039E03093F7052093F6052091CD04309181
:1016A000CE043093CC042093CB049093CE0480934B
:1016B000CD0408954091DF045091E0042091DD04B1
:1016C0003091DE04240F351F3093DE042093DD04B7
:1016D0006091E1047091E204460F571F5093E004BB
:1016E0004093DF04359527953595279535952795B2
:1016F00035952795359527952F37310514F02FEF20
:10170000C4CF20384FEF340714F420E83FEF2058BF
:10171000BCCF2F923F924F925F926F927F928F92A7
:101720009F92AF92BF92CF92DF92EF92FF920F9370
:101730001F93CF93DF930E94D6082DEE39E03093AC
:10174000F7052093F6052091C5043091C604409119
:10175000CD045091CE04420F531F9A01220F331F24
:10176000240F351F280F391F4091CB045091CC0412
:10177000240F351F359527959093C6048093C50493
:101780008091C3049091C4044091C9045091CA044B
:10179000480F591FCA01880F991F840F951F820F88
:1017A000931F4091C7045091C804840F951F309334
:1017B000C4042093C304A091CF04B091D00430910D
:1017C00063063111CFC14091C1045091C2042091F0
:1017D000BF043091C004BA01621B730B2091BD0499
:1017E0003091BE04FB01E21BF30BF093E204E093A3
:1017F000E104C091BC043C2FCF5FC093BC04311105
:1018000007C078944091C1045091C204C091BC04B7
:101810007093BE046093BD045093C0044093BF0412
:1018200030916C015D0102C0B594A7943A95E2F73E
:1018300095014091AF02443009F4BDC04091AF0220
:10184000433009F4B8C0C090A404D090A50480909F
:10185000B8049090B904E090A804F090A904A09076
:10186000B404B090B504F701EA19FB090091AC0487
:101870001091AD04A091B004B091B104A8014A1B2D
:101880005B0B6090A0047090A104621A730AB60109
:1018900068197909660F771F660F771F660E771E26
:1018A00077FE03C06FE3660E711C062C672C000CDC
:1018B000661C7708000C661C771CBF01640F751F3F
:1018C00077FF02C0695F7F4F75956795759567953E
:1018D00075956795660E771EBF01660F771F660FB9
:1018E000771F6E0F7F1F641B750B77FF02C0615857
:1018F0007F4F660F672F661F770B660E771E57FFA9
:1019000002C04F5F5F4F55954795640E751E40911D
:10191000A2045091A3045093A1044093A004D09238
:10192000A304C092A2044091A6045091A70450932E
:10193000A5044093A404F092A704E092A604409169
:10194000AA045091AB045093A9044093A8041093A7
:10195000AB040093AA044091AE045091AF0450939D
:10196000AD044093AC04B093AF04A093AE04409197
:10197000B2045091B3045093B1044093B004B092B8
:10198000B304A092B2044091B6045091B7045093AE
:10199000B5044093B4049092B7048092B604409189
:1019A000BA045091BB045093B9044093B8043093E7
:1019B000BB042093BA0440916C0102C095958795B1
:1019C0004A95E2F79093FC058093FB0530939F04C2
:1019D00020939E0440919004509191042091920490
:1019E00030919304309391042093900420919404B7
:1019F000309195043093930420939204209196049F
:101A00003091970430939504209394042091980486
:101A100030919904309397042093960420919A046E
:101A200030919B04309399042093980420919C0456
:101A300030919D0430939B0420939A0490939D04CD
:101A400080939C049091AF02943009F4DBC18091A3
:101A5000AF02833009F49BC0519541955109461955
:101A600057098A0190918304DFEFD90FD093830443
:101A7000C0907F04D0908004E0908104F0908204B4
:101A80009111AFC0C0921006D0921106E0921206DA
:101A9000F092130610927F04109280041092810439
:101AA0001092820480911101813009F4B6C08091B6
:101AB00096028E300CF003C1209196028DE090E0EA
:101AC000821B910927FD939502C0559547958A95EC
:101AD000E2F7809199028111FFC080916406811123
:101AE0001BC1C0907B04D0907C04E0907D04F090FA
:101AF0007E04DF7309F0CAC0C0920406D0920506C6
:101B0000E0920606F092070610927B0410927C0485
:101B100010927D0410927E0441156EEF560714F466
:101B200040E05EEF411572E0570714F04FEF51E0CF
:101B30005093C2044093C104C150C093BC04DF91D0
:101B4000CF911F910F91FF90EF90DF90CF90BF90BA
:101B5000AF909F908F907F906F905F904F903F904D
:101B60002F9008951092C2041092C1041092C004E4
:101B70001092BF041092BE041092BD04109263062E
:101B8000F0E0E0E070E060E050E040E02ECE009158
:101B9000FB051091FC0580919E0490919F04119586
:101BA00001951109081B190B80918604882309F4FB
:101BB0002FC280918404909185042091FB0530917F
:101BC000FC05289FA001299F500D389F500D11241E
:101BD0008091FB059091FC0590938504809384048B
:101BE00041CFC80117FF04C088279927801B910B9C
:101BF000092E000CAA0BBB0B8C0D9D1DAE1DBF1D2D
:101C000080937F0490938004A0938104B093820416
:101C100080911101813009F04ACF809102019091A9
:101C20000301811574E0970774F09C01232F330F93
:101C3000330B25952595FA01E29FA001E39F500DF6
:101C4000F29F500D1124252F25952595352F330F03
:101C5000330B37FDECC161E070E05B01A21AB30AFF
:101C60006FEF7FE7681B790BA616B70634F48A0D71
:101C70009B1D9093030180930201181619060CF026
:101C8000CFC12091960280E190E01ACFC80117FFE2
:101C900003C0919581959109092E000CAA0BBB0BED
:101CA0008C019D010C0D1D1D2E1D3F1D00937B04FD
:101CB00010937C0420937D0430937E042DCF80917B
:101CC00096028D5002C0440F551F8A95E2F780910D
:101CD0009902882309F401CFE0916704F091680428
:101CE00020919902CA018E1B9F0B2150330B61E09A
:101CF00070E002C0660F771F2A95E2F70E94E13577
:101D0000AB014E0F5F1F50936804409367048091AE
:101D10006406882309F4E5CE80916406E09073049C
:101D2000F0907404C0907704D0907804873008F065
:101D3000C1C08091790490917A0450937A044093C1
:101D400079049A01281B390B6EE1629FC001639FE1
:101D5000900D112469E1649F9001659F300D11245D
:101D6000820F931F97FD4F9695958795959587952B
:101D70009595879595958795959587952091640676
:101D8000233009F4D3C308F456C1253009F4AEC397
:101D900008F40FC2263009F02AC29601220F331F21
:101DA000280F391F4091750450917604240F351F78
:101DB00037FF02C02F5F3F4FD901B595A7956091BE
:101DC000710470917204EBE0E69F5001E79FB00C44
:101DD0001124EFEE4E2F97014203B001439F700D87
:101DE0001124A501460F571F57FF02C0415F5F4FE7
:101DF00055954795559547955595479555954795CB
:101E00009D014BC10091FB051091FC0580919E0442
:101E100090919F04119501951109081B190B809150
:101E2000FB059091FC056091FB057091FC0518166F
:101E300019061CF071956195710980919E0490912D
:101E40009F0420919E0430919F04181619061CF0DF
:101E50003195219531092617370734F17595679526
:101E60007B01E20EF31EC0908E04D0908F04B60169
:101E70000D2C000C880B990B0E94B33322E739EF2D
:101E80004FE75FE30E9418350E947B339701220FD2
:101E9000331FC901860F971FAC014C195D09909340
:101EA0008F0480938E04DECD359527957901E60E5B
:101EB000F71ED9CF80916406853009F418C208F462
:101EC000F8C1863009F45AC1873009F09DC22091CB
:101ED000710430917204A3ECBFEF0E943C364B01B9
:101EE0005C012EE630E0D7010E945336860E971E25
:101EF000A81EB91EB7FE05C07FE3870E911CA11C6A
:101F0000B11CC501B401E6E0959587957795679575
:101F1000EA95D1F7F601E60FF71FF0937004E0930E
:101F20006F0480916406A0906D04B0906E048530BB
:101F300009F43AC208F489C1863009F4F8C187303F
:101F400009F0F0C1C701880F991F4F01881A990A3B
:101F50002090710430907204820C931C97FE03C091
:101F60002FE1820E911C9594879495948794959473
:101F70008794959487949594879420916B043091DD
:101F80006C04A2ECBFEF0E943C362B013C0120E721
:101F900030E0D5010E945336460E571E681E791E4A
:101FA00077FE05C03FE3430E511C611C711C96E097
:101FB00075946794579447949A95D1F7480C591C97
:101FC00050926A0440926904B0926C04A0926B042F
:101FD00050926E0440926D04F0927204E09271048B
:101FE000F0937404E0937304D0927604C092750465
:101FF0005093780440937704A20157FE02C0495FD2
:102000005F4F55954795559547955595479569CD9A
:102010008091FB059091FC0521E020938604CDCDB5
:1020200081E090E090930301809302012ACE3195E4
:102030002195310910CE213008F4D9C09601220F24
:10204000331F280F391F4091750450917604240FD7
:10205000351F37FF02C02F5F3F4F359527956091A1
:10206000710470917204EBE0E69FA001E79F500DB0
:102070001124EDE0EE9DB001EF9D700D1124460F8F
:10208000571F57FF02C0415F5F4F559547955595C4
:1020900047955595479555954795241B350B309396
:1020A000700420936F0440916406E0916D04F091F8
:1020B0006E04433009F4D1C108F49EC0453009F4E0
:1020C000A8C108F4F1C1463009F0E9C1A701440FE5
:1020D000551F420F531F6091710470917204460F97
:1020E000571F57FF02C04D5F5F4F55954795559558
:1020F000479560916B0470916C04DB01AA0FBB1FC4
:10210000AA0FBB1FAA0FBB1FA60FB71FBF01660FE9
:10211000771F660F771F660F771F5F01A61AB70A32
:10212000B501660F771FA60FB71FB7FD1F96B595B0
:10213000A795B595A795B595A795B595A7954A1B6C
:102140005B0B50936A0440936904F0936C04E09332
:102150006B0450936E0440936D04F0927204E0920D
:1021600071043093740420937304D0927604C09267
:1021700075049093780480937704B3CC2091710414
:1021800030917204A2ECBFEF0E943C364B015C011F
:102190002EE630E0D7010E945336860E971EA81E09
:1021A000B91EB7FEAECE6FE3860E911CA11CB11C0A
:1021B000A8CE9601220F331F280F391F40917504B6
:1021C00050917604240F351F37FF02C02F5F3F4F19
:1021D00035952795409171045091720457FF02C0C4
:1021E0004D5F5F4F559547955595479556CF209133
:1021F0006F043091700457CF413008F450C1A701EB
:10220000440F551F420F531F609171047091720467
:10221000460F571F57FF02C04F5F5F4F55954795B9
:1022200060916B0470916C04BBE0BB2EB69ED00134
:10223000B79EB00D1124BF01660F771F660F771F81
:10224000660F771F6E0F7F1F6CCF843009F06AC056
:1022500020916B0430916C04ACECBFEF0E943C36D3
:102260002B013C012FE530E0D5010E945336460E8C
:10227000571E681E791E77FE05C08FE3480E511C5D
:10228000611C711C36E075946794579447943A9595
:10229000D1F7C701880F991F9F01281B390BC9016E
:1022A0002091710430917204820F931F480E591EC1
:1022B00087CE843009F0A8C0209171043091720457
:1022C000A7ECBFEF0E943C364B015C0122E730E0F7
:1022D000D7010E945336860E971EA81EB91EB7FE60
:1022E00010CE2FE3820E911CA11CB11C0ACE2091AE
:1022F000710430917204A4ECBFEF0E943C364B0194
:102300005C0121E730E0D7010E945336860E971E0C
:10231000A81EB91EB7FEF5CD3FE3830E911CA11C8C
:10232000B11CEFCD4090690450906A044DCEC701B6
:10233000880F991F1F01281A390A80907104909004
:102340007204280C391C37FE03C07FE0270E311CB5
:10235000359427943594279435942794359427946D
:1023600020916B0430916C04A2ECBFEF0E943C36CC
:102370002B013C0121E730E0D5010E945336460E87
:10238000571E681E791E77FE05C08FE3480E511C4C
:10239000611C711C66E075946794579447946A9524
:1023A000D1F7420C531C0CCEC701880F991F4F0167
:1023B000881A990A8091710490917204880E991E6E
:1023C00097FE03C033E0830E911C959487949594F7
:1023D000879420916B0430916C04A5ECBFEF0E94B0
:1023E0003C362B013C012AE630E0D5010E945336F1
:1023F000460E571E681E791E77FED9CD6FE3460E36
:10240000511C611C711CD3CDE0916F04F0917004DC
:1024100088CDA701440F551F420F531F60917104CF
:1024200070917204460F571F57FF02C04D5F5F4FF8
:10243000559547955595479560916B0470916C043F
:10244000DB01AA0FBB1FAA0FBB1FA60FB71FBF013F
:10245000660F771F660F771F60CEA701440F551FC9
:10246000420F531F6091710470917204460F571F01
:1024700057FF02C04D5F5F4F55954795559547955E
:10248000A0916B04B0916C04AA0FBB1FAE0FBF1FCD
:10249000B7FD1396B595A795B595A79550CE4091E4
:1024A000690450916A0451CEA701440F551F420F91
:1024B000531F6091710470917204460F571F57FFAC
:1024C00002C04D5F5F4F5595479555954795609173
:1024D0006B0470916C0477FF02C06D5F7F4F759540
:1024E000679575956795461B570B2BCE9601220F66
:1024F000331F280F391F4091750450917604240F23
:10250000351F37FF02C02F5F3F4FD901B595A79503
:102510006091710470917204AB01440F551F460F16
:10252000571F5A01AA0CBB1CE6EF54CC9601220F90
:10253000331F280F391F4091750450917604240FE2
:10254000351F37FF02C02F5F3F4F359527954091CC
:10255000710450917204440F551F440F551F4E0DC6
:102560005F1D57FF02C0495F5F4F559547955595D1
:1025700047955595479591CD8091EB0580938A00BD
:10258000E091930284E0E89FF0011124EC52FD4FAA
:102590002081318142815381AEE1B3E00E945A36FD
:1025A00020EC32E140E050E00E94F53580910001DE
:1025B000309150042802C0011124EFE7F0E0BF0180
:1025C0000E94E135360F30935004809150043091D1
:1025D00000012802C0011124BF010E94E135361B11
:1025E00030930001809101018823A1F08091500473
:1025F00040910101082E000C990B20E130E0241BD2
:10260000310902C0959587952A95E2F78058809305
:102610008800089580E8FBCF0F931F93CF93DF933B
:10262000EDE2F4E02BE434E0428153814193519395
:102630002E173F07C9F79C01220F331F40912B042F
:1026400050912C04240F351F440F551F841B950BEC
:10265000E3E0F0E0BF010E94E13570932C04609349
:102660002B048091290490912A04880F991F820FCE
:10267000931FBF010E94E13570932A0460932904DF
:10268000261B370B30934C0420934B0480913B0462
:1026900090913C04FC01EE0FFF1F409139045091D2
:1026A0003A0460913D0470913E04461B570B209103
:1026B0003104309132046091450470914604261B28
:1026C000370B220F331F220F331F60912D0470919F
:1026D0002E04A0914904B0914A046A1B7B0B260F7B
:1026E000371F220F331F6091350470913604A0917B
:1026F0004104B09142046A1B7B0BC5E1C69FD00127
:10270000C79FB00D11242A0F3B1FBA0114E0660FBA
:10271000771F1A95E1F7260F371F37FF02C0215C9C
:102720003F4F66E0359527956A95E1F7240F351FF1
:10273000E230F10544F4CF01F7FD019695958795B8
:10274000919581959109B9012230310594F07595E3
:102750006795681779073CF1E230F1050CF4EEC09B
:10276000CF01B3E095958795BA95E1F7860F971F4E
:1027700022C037FF02C06F5F7F4F759567957195D7
:1027800061957109681779073CF7A90137FF02C005
:10279000495F5F4FC3E055954795CA95E1F751955D
:1027A0004195510906C0A901D3E055954795DA95A1
:1027B000E1F7840F951F409166014817190608F04C
:1027C000CEC0409174064111C8C04FEF40937406CB
:1027D0004091650102C0880F991F4A95E2F78F3F2B
:1027E000910509F020F440916501483011F48FEF14
:1027F00090E040917406442309F4BAC084519B4F81
:10280000DC018C9180935104E90137FF04C0CC278F
:10281000DD27C21BD30B8F01F7FF04C00027112750
:102820000E1B1F0B0C171D070CF0A4C045EE400338
:10283000C001419F900D1124BE010E94E1356A59EB
:102840007F4F609FC001619F900D709F900D11247C
:10285000BE010E94E135CB0166E970E0681B790B8F
:10286000F7FF06C08CE291E0DC01A61BB70BBD01AF
:1028700037FF03C07195619571098091270490918C
:1028800028049B01281B390B7093280460932704AC
:1028900037FF02C0285A3D4F2C32B1E03B076CF0A5
:1028A0008091E804882349F02C52314090914F04E4
:1028B00081E0911180E080934F0480916406882329
:1028C00009F474C080916406833009F472C08CE20C
:1028D00091E08217930714F580916406882309F428
:1028E0006BC080916406833009F469C08CE291E08A
:1028F000281B390B621B730B709328046093270409
:102900008091640628E532E0882341F080916406D6
:102910002CE231E0833011F426E930E08091AF02FF
:10292000813009F04FC0C90123E0880F991F2A9513
:10293000E1F7DF91CF911F910F910895AF01F7FF5C
:1029400002C0495F5F4FA3E055954795AA95E1F70F
:1029500088279927841B950B09CF4EEF37CF4091DD
:102960007406442309F434CF4091740641502ECFAD
:1029700080E048CF70E060E0309709F479CF45EE11
:10298000BE014603C001479F900D1124B8010E946B
:10299000E1356A597F4F6C9FC0016D9F900D7C9F00
:1029A000900D1124B8010E94E1355ACF88E592E0DC
:1029B00090CF86E990E08DCF88E592E099CF86E9C7
:1029C00090E096CF48EF4203C001439F900D112441
:1029D000B0CFCF93DF93C0917800D09179008091F0
:1029E0007A00806480937A000E944A048091E8040F
:1029F000882341F080914F046FE081116FE182E103
:102A00000E94B7048091510480938A0080917800DD
:102A100090917900C80FD91F80917A0080648093CB
:102A20007A0080914D0490914E040E940C132091E5
:102A3000780030917900C20FD31F20917A00206472
:102A400020937A00BC01990F880B990B0E944102D8
:102A5000209178003091790090917A009064909361
:102A60007A00CE01820F931F97FD03969595879567
:102A700095958795805E914090934E0480934D0488
:102A800080917406813031F410928A006FEF83E0F8
:102A90000E94B704809174068F3F31F46BEF83E09E
:102AA000DF91CF910C94B704DF91CF910895F89402
:102AB0008BB1807F8061962F92959F70892B8BB907
:102AC0008BB1807F80616F70682B3C9800005C98B0
:102AD0006BB93C9A3C9800005C983C9A78948BEED9
:102AE00090E00197F1F781E090E00895682F88E980
:102AF00096E00C9457158F929F92AF92BF92CF920F
:102B0000DF92EF92FF92CF93C091FD058091660412
:102B1000C81709F47AC080917B0681110DC00E940C
:102B2000BD078FEC0E94B20782E5C11101C080E2AF
:102B30000E9476150E94E1078090560490905704F9
:102B4000A0905804B0905904CC2309F493C00E947B
:102B50002B046093620470936304809364049093E5
:102B600065040E942B04C0905E04D0905F04E09046
:102B70006004F09061049B01AC012C193D094E09E1
:102B80005F0969017A01C0925A04D0925B04E09215
:102B90005C04F0925D0480917E06823030F1D501B4
:102BA000C401880F991FAA1FBB1F8C159D05AE0578
:102BB000BF05D8F40E94BB0260EB74E080E090E0B7
:102BC000A50194010E94F535CA01B901A2E0660F82
:102BD000771F881F991FAA95D1F723E030E040E0C6
:102BE00050E00E94F53520936B01A5E0B0E0A5010F
:102BF00094010E945A36C616D706E806F90628F050
:102C000081E080937E060E94BB020E942B04C0904C
:102C10005E04D0905F04E0906004F09061049B013A
:102C2000AC012C193D094E095F0969017A01209117
:102C30005604309157044091580450915904A6E02D
:102C4000B0E00E945A366C157D058E059F0530F464
:102C500080917E06823010F00E94BB02C093660411
:102C6000CF91FF90EF90DF90CF90BF90AF909F906B
:102C70008F9008950E942B0460935E0470935F040C
:102C800080936004909361040E942B04C0906204BE
:102C9000D0906304E0906404F09065049B01AC0163
:102CA0002C193D094E095F0969017A01D501C4015A
:102CB000880F991FAA1FBB1FC816D906EA06FB0674
:102CC00020F089288A288B28A1F4BC01CD016C0D45
:102CD0007D1D8E1D9F1D23E030E040E050E00E94EE
:102CE000F53520935604309357044093580450937D
:102CF0005904209156043091570440915804509142
:102D00005904A5E0B0E00E945A366C157D058E0589
:102D10009F0580F4C701B60123E030E040E050E0B9
:102D20000E94F5352093560430935704409358047D
:102D3000509359044091560450915704609158049F
:102D400070915904DB01CA01B695A79597958795AF
:102D50008C159D05AE05BF0508F057CF80917E0606
:102D600090E0880F991F440F551F661F771F21E0C1
:102D70004C155D056E057F0508F020E0822B8093E1
:102D80007E0643CF0F931F93CF93DF938C01D0E048
:102D9000C0E0F801EC0FFD1F6491662341F088E963
:102DA00096E00E945715892B11F02196F2CFCE01A3
:102DB000DF91CF911F910F91089582EC90E00C94D8
:102DC000C2160F931F93CF93C62F8A018130A1F5AE
:102DD00080E80E94B2078C2F82958F70CF708A3066
:102DE00021F481E30E94761580E0805D0E947615D3
:102DF0008EE20E947615CA3020F0CA5081E30E940C
:102E0000761580E38C0F0E94761580E20E9476157D
:102E1000C8010E94C2160E94DD160E94DD1680ECD9
:102E20000E94B20780917B06823098F08EE3CF91AA
:102E30001F910F910C94761580EC0E94B207C80187
:102E40000E94C2168FEC90E0CF911F910F910C94CD
:102E5000C216CF911F910F910895089590E080E0E0
:102E600008950F931F93CF93DF9390E080E00E942B
:102E70007904D0E0C0E001E010E0C8010C2E02C0EF
:102E8000880F991F0A94E2F78095909581600E94BF
:102E900079046EE170E080E090E00E94F80390E039
:102EA00080E00E9479042196C031D10531F7DF918D
:102EB000CF911F910F910895FC0101900020E9F737
:102EC0003197AF01481B590BBC0188E996E00C947F
:102ED000D8028F929F92AF92BF920F931F93CF937E
:102EE000DF93CDB7DEB7A1970FB6F894DEBF0FBE64
:102EF000CDBF19A2423008F44AE08E010F5D1F4F8A
:102F0000842E912CB12CA12CA50194010E94F535A1
:102F1000E62FB901CA01EA30F4F4E05DD801EE937E
:102F20008D01232B242B252B79F790E080E010973F
:102F300019F0CD010E945C17A1960FB6F894DEBF80
:102F40000FBECDBFDF91CF911F910F91BF90AF907A
:102F50009F908F900895E95CE1CFCF92DF92EF923E
:102F6000FF92CF93DF9397FF19C06B017C018DE235
:102F70000E947615EC0166277727CB016C197D0935
:102F80008E099F094AE00E9469178C0F9D1FDF91EF
:102F9000CF91FF90EF90DF90CF9008954AE0DF91BE
:102FA000CF91FF90EF90DF90CF900C94691700972E
:102FB00011F00C945C1790E080E008954F925F92BE
:102FC0006F927F928F929F92AF92BF92CF92DF9239
:102FD000EF92FF920F931F93CF93DF934B015C010E
:102FE00080EC0E94B20780915F0690916006A091EC
:102FF0006106B0916206892B8A2B8B2B09F040C0A9
:1030000040915E0630915E062091740681E090E06A
:10301000323011F090E080E030E082239323417061
:1030200020E0842B922B892B69F586E00E9476158F
:1030300080915F0690916006A0916106B091620652
:10304000892B8A2B8B2B01F18091740681111CC076
:1030500080905F0690906006A0906106B090620636
:103060008BEC90E00E94C21680915F069091600602
:10307000A0916106B0916206B7FF83C08DE282C065
:1030800080E2D4CF87E0D2CFC501B40120E836E991
:1030900048E950E00E941736232B242B252B09F4F6
:1030A0007AC040E8C42E46E9D42E48E9E42EF12C3B
:1030B0009AE0492E512C612C712CC501B401A70155
:1030C00096010E9417368B01D82FC92F57FF07C0D2
:1030D00050954095309521953F4F4F4F5F4FCA0116
:1030E000B9010E94AD1788EEC81683E0D806E10446
:1030F000F10441F020E4C21622E4D2062FE0E206F9
:10310000F10419F48CE20E9476154801AD2EBC2E14
:10311000C701B601A30192010E94173669017A0125
:1031200081E0C816D104E104F10439F680E20E947E
:103130007615E091AF02F0E0EE0FFF1FE65AFE4F6A
:10314000808191810E94D71780E20E9476158FECD2
:103150000E94B20780917906811128C082E5DF9133
:10316000CF911F910F91FF90EF90DF90CF90BF9084
:10317000AF909F908F907F906F905F904F900C9446
:1031800076158BE20E94761538EEC32E33E0D32EEF
:10319000E12CF12C8DCF80E20E94761520E4C22E26
:1031A00022E4D22E2FE0E22EF12C82CF86E5D7CF7B
:1031B0004F925F926F927F928F929F92AF92BF9247
:1031C000CF92DF92EF92FF926B017C01AC019B01E9
:1031D0000E948535882381F084E393E0FF90EF908F
:1031E000DF90CF90BF90AF909F908F907F906F9027
:1031F0005F904F900C945C1746015701E894B7F824
:103200002FEF3FEF4FE75FE7C501B4010E9485351F
:1032100081110DC02FEF3FEF4FE75FE7C501B4010C
:103220000E94043318161CF488E393E0D7CF2FEFE5
:103230003FEF4FE75FE4C701B6010E94BB341816A9
:103240001CF48CE393E0CACF2FEF3FEF4FE75FEC26
:10325000C701B6010E94043387FDF3CF20E030E0C0
:10326000A901C701B6010E940433B12CA12C87FF2C
:1032700008C08DE20E9476155C01F7FAF094F7F829
:10328000F0942AE037ED43EA5BE3C701B6010E9400
:1032900098322B013C010E9482336B017C010E9419
:1032A000B1339B01AC01C301B2010E9497322B01E3
:1032B0003C014AE0C701B6010E9469177C01EA0C93
:1032C000FB1C8EE20E947615E80EF91E20E030E02D
:1032D00040E251E4C301B2010E9418352B013C01C8
:1032E0000E9482334B01B12CA12C4AE0C501B401EC
:1032F0000E946917E80EF91EC501B4010E94B1339E
:103300009B01AC01C301B2010E94973220E030E082
:1033100040E251E40E9418350E94823390E080E040
:103320004AE00E9469178E0D9F1DFF90EF90DF907D
:10333000CF90BF90AF909F908F907F906F905F9055
:103340004F900895CF93DF93282FCB016091EA042B
:103350007091EB04C42FD0E0233079F0243089F051
:103360004091EA045091EB04C40FD51FD093EB04B5
:10337000C093EA04DF91CF910895AE010E946F32AD
:10338000EFCFAE010E947F32EBCFEF92FF920F930F
:103390001F93CF937B01642F843009F48BC058F4C2
:1033A000823098F040E2B701CF911F910F91FF90CA
:1033B000EF900C94A2198630A9F780917C06803298
:1033C00018F48F5F80937C0681E090917B069330A8
:1033D00011F010927C0690917B06923019F493E0E4
:1033E00090937B06C0917C06D701AC0FB11D9C91D8
:1033F000E92F092E000CFF0B40917A068F01040F74
:10340000111D47FD1A9500321105BCF040917A0656
:103410008F01040F111D47FD1A95012B71F040918A
:103420007A06E40FF11D47FDFA95EB35F1050CF036
:103430003FC040917A06940F01C090E29C93109295
:103440007A06A9010E94E1160C2F069506950695AD
:1034500088E0089F800111240E0D1F1DF12CE12C26
:10346000F80181918F01882349F00E947615FFEFC2
:10347000EF1AFF0A8DE0E816F10491F781E00E944F
:1034800076150E94DD1690917B068C2F8770805CEC
:10349000C1E0923008F4C0E08C0F80680E94B2074F
:1034A0008EE0CF911F910F91FF90EF900C94B20797
:1034B0009AE5C4CFF701B09692919F7D09F072CF43
:1034C0001082EE16FF06C1F76DCF4F925F926F929A
:1034D0007F928F929F92AF92BF92CF92DF92EF92A4
:1034E000FF920F931F93CF93DF93CDB7DEB7FB010E
:1034F000823008F063C0908140907A06042C000C62
:10350000550866087708490E511C611C711C4C1443
:103510005D046E047F046CF5C0826901F42E5F01C6
:10352000E82E10927A060E94BD07A6016F2D8E2DFF
:103530000E94E116F50101151105A1F5608170E009
:1035400090E080E04AE00E9469170E94DD16DF915A
:10355000CF911F910F91FF90EF90DF90CF90BF9090
:10356000AF909F908F907F906F905F904F900C9452
:10357000DD169081C0907A060C2C000CDD08EE0858
:10358000FF08C90ED11CE11CF11C8C149D04AE0473
:10359000BF0414F48082C1CF508190917A06950FB8
:1035A0009083BBCF808190E0880F991F080F191F6F
:1035B000F801808191810E94D717C7CF41E0DF9148
:1035C000CF911F910F91FF90EF90DF90CF90BF9020
:1035D000AF909F908F907F906F905F904F900C94E2
:1035E000A2194F925F926F927F928F929F92AF92A9
:1035F000BF92CF92DF92EF92FF920F931F93CF93E0
:10360000DF93EB01823008F076C0488059806A80F1
:103610007B8090917A06892E990F9908AA08BB0899
:10362000840C951CA61CB71CB7FE2EC018821982EC
:103630001A821B826901F42EE82E10927A060E94EB
:10364000BD07A6016F2D8E2D0E94E11601151105F3
:1036500009F043C0688179818A819B810E94AD17FE
:103660000E94DD16DF91CF911F910F91FF90EF9097
:10367000DF90CF90BF90AF909F908F907F906F9092
:103680005F904F900C94DD16488059806A807B8053
:1036900090917A06892E990F9908AA08BB08840C84
:1036A000951CA61CB71CC814D904EA04FB042CF40E
:1036B000C882D982EA82FB82BDCF88809980AA80A5
:1036C000BB8090917A06C92E990FDD08EE08FF089D
:1036D000C80CD91CEA1CFB1CEBCF88819981AA81FC
:1036E000BB81880F991F080F191FF80180819181F4
:1036F0000E94D717B5CF44E0DF91CF911F910F9172
:10370000FF90EF90DF90CF90BF90AF909F908F9001
:103710007F906F905F904F900C94A21980E80E9468
:10372000B2078091E804882321F181E78093450363
:1037300080912406882391F01F928F9388E493E070
:103740009F938F9385E493E09F938F930E945537C7
:103750000F900F900F900F900F900F9080E493E0D8
:103760000E94D71781E00E9476150E94DD160C9406
:10377000DD1680E2DBCF8F929F92AF92BF92CF9205
:10378000DF92EF92FF920F931F93CF93DF93C82F97
:10379000D62FEDEFBE2EB80E00E511E021E02B157F
:1037A00080F01093EB040093EA04AA24A394AD16CE
:1037B00040F46A2D85E00E94BB1BA394F8CFDFE2A2
:1037C000EDCFDF3F59F5D1E06D2F8C2F0E94BB1B51
:1037D000DF5FDE33C9F76BEC6D0F693008F09CC317
:1037E000A62EB12CB501660F771F660F771F675C99
:1037F000794FC12CD12C760110E000E030E020E0C0
:1038000040E08C2F0E94F11AB501605D794F812C48
:10381000912C540130E020E040E0BAC0D533D8F616
:10382000ED2FF0E0EA5EF34E0C943636841F4B1C0D
:10383000B91CCC1CDC1CED1CFD1C0C1D1B1D2A1D09
:10384000EB1B3A1D4A1DEB1B5A1DEB1BEB1B691DA5
:10385000781DEB1BEB1BEB1BEB1BD51DE41DF41DB7
:10386000EB1BEB1B041E141E1D1E231E291E2F1EE8
:10387000351E3B1E501E621ED41EEB1BE41EEB1BAE
:10388000EB1BEB1BEB1BEB1BEB1BF31E021F0D1FBC
:10389000181F261F341FC23008F064C080919602A2
:1038A00040917A06082E000C990BAA0BBB0B042E34
:1038B000000C550B660B770B840F951FA61FB71FC7
:1038C0008F3F9F4FAF4FBF4F7CF58FEF8093960296
:1038D00010927A060E94BD074DE951E061E18C2FFC
:1038E0000E94E1168091960287FD03C08BE20E9440
:1038F000761560919602062E000C770B880B990BBB
:103900000E94AD170E94DD160E94DD168D2FDF91FB
:10391000CF911F910F91FF90EF90DF90CF90BF90CC
:10392000AF909F908F9008958091960240917A0673
:10393000082E000C990BAA0BBB0B042E000C550B88
:10394000660B770B840F951FA61FB71F4197A10524
:10395000B10514F080E1BACF8091960290917A0679
:10396000890FB4CF41E066E972E08C2F0E94A21962
:10397000CDCF74E0872E912CA12CB12CC12CD12C51
:1039800076010AE511E028E931E042E16FEA72E0F0
:103990008C2F0E94651ABACF6AE0862E912CA12C3A
:1039A000B12CC12CD12C760104E411E025E931E0E1
:1039B00043E164E676E0ECCF49E0842E912CA12C23
:1039C000B12CC12CD12C7601C3940EE211E020E978
:1039D00031E044E168E972E0DBCF39E0832E912CDD
:1039E000A12CB12CC12CD12C76010AE111E02BE8DD
:1039F00031E045E16BEA72E0CBCF812C912C540190
:103A00008394C12CD12C760106E111E027E831E046
:103A100046E16EE576E0BCCFC12CD12C7601C39493
:103A200002E111E023E831E047E16FE576E08C2F19
:103A30000E94F11A6BCF812C912C54018394C12CDC
:103A4000D12C760102E111E02FE731E048E161E19C
:103A500071E09ECF00E1802E912CA12CB12CC12CC5
:103A6000D12C760110E000E02CE731E049E169E972
:103A700072E08ECF10E1812E912CA12CB12CC12CA3
:103A8000D12C760110E000E028E731E04BE16CE654
:103A900071E07ECFB4E08B2E912CA12CB12CC12CE7
:103AA000D12C760107E011E020E731E04CE16DEA2E
:103AB00072E06ECF812C912C54018394C12CD12CB7
:103AC000760102E111E025E631E041E26EEA72E0C2
:103AD0005FCF812C912C54018394C12CD12C760181
:103AE00002E111E02CE531E044E269EE74E050CFF0
:103AF000C23008F056C080916F01909170014091E2
:103B00007A06092E000CAA0BBB0B042E000C550BD9
:103B1000660B770B840F951FA61FB71F1816190683
:103B20001A061B06CCF081E090E090937001809320
:103B30006F0110927A060E94BD0743E551E065E2ED
:103B40008C2F0E94E11660916F0170917001072E19
:103B5000000C880B990BD4CE80916F01909170016D
:103B600040917A06092E000CAA0BBB0B042E000C08
:103B7000550B660B770B840F951FA61FB71F4F972A
:103B8000A105B1051CF08EE190E0CFCF80916F01CF
:103B90009091700120917A06820F911D27FD9A95D0
:103BA000C4CF42E06FE671E0E0CE812C912C54014D
:103BB0008394C12CD12C760102E111E02FE431E095
:103BC00041E369E776E0E4CE70E5872E912CA12CE5
:103BD000B12CC12CD12C760110E000E028E431E0BA
:103BE00042E366E671E0D4CE60E1862E912CA12CF2
:103BF000B12CC12CD12C760110E000E02FE331E094
:103C000043E365E671E0C4CE58EC852E912CA12CDF
:103C1000B12CC12CD12C760110E000E022E331E080
:103C200041E461E771E0B4CE29E231E042E462E7C9
:103C300071E08C2F0E94C51969CE20E231E043E487
:103C400062EA71E0F6CF27E131E044E462ED71E031
:103C5000F0CF2EE031E045E462E072E0EACF25E00B
:103C600031E046E462E372E0E4CF2CEF30E047E479
:103C700062E672E0DECF80906401882D8150990B5E
:103C80004C01092C000CAA08BB08C12CD12C7601D0
:103C900010E000E024EF30E041E86CEE75E078CE13
:103CA000C090EC05D12CF12CE12C4AEA842E912C09
:103CB000A12CB12C10E000E02CEE30E042E864E6EC
:103CC00071E066CEC23008F06BC080919206909190
:103CD0009306A0919406B091950640917A06042E21
:103CE000000C550B660B770B840F951FA61FB71F93
:103CF00080389F49A54DB10514F580E89FE9A5EDF1
:103D0000B0E08093920690939306A0939406B093AC
:103D1000950610927A060E94BD0744EE50E063E8D3
:103D20008C2F0E94E116609192067091930680910B
:103D30009406909195064AE00E946917E3CD809120
:103D4000920690919306A0919406B09195064091A9
:103D50007A06042E000C550B660B770B840F951F0B
:103D6000A61FB71F81309F43AB4AB1402CF080E0C3
:103D70009FE3ABEAB1E0C5CF8091920690919306A4
:103D8000A0919406B091950640917A06042E000CFD
:103D9000550B660B770B840F951FA61FB71FB1CF6E
:103DA00044E062E976E0E1CD34EB832E912CA12C46
:103DB000B12CC12CD12C760110E000E02BED30E0CD
:103DC00044E862E972E0E4CD812C912C54018394A3
:103DD000C12CD12C760102E111E026ED30E047E85C
:103DE00068EE74E0D5CD812C912C54018394C12CC4
:103DF000D12C760102E111E022ED30E041EA66E0EB
:103E000071E0C6CDC12CD12C760110E000E030E08D
:103E100020E040E060EA72E00ACEC12CD12C7601AD
:103E200010E000E030E020E040E064EA72E0FFCD26
:103E3000812C912C5401C12CD12C760110E000E092
:103E400030E020E040E06AE972E0A2CD812C912CC4
:103E50005401C12CD12C760110E000E030E020E0CC
:103E600040E06BE972E094CDC23008F049C0209187
:103E7000F9053091FA0580917A06082E000C990B0D
:103E8000AA0BBB0B820F931FA11DB11DB7FF15C05D
:103E90001092FA051092F90510927A060E94BD0759
:103EA00050E040E060E08C2F0E94E1166091F9053F
:103EB0007091FA0590E080E03ECF2091F9053091B5
:103EC000FA0580917A06082E000C990BAA0BBB0B01
:103ED000820F931FA11DB11D181619061A061B0685
:103EE000BCF28091F9059091FA0520917A06820F33
:103EF000911D27FD9A959093FA058093F905CCCFF3
:103F000042E069EF75E031CD10927B060E948E1B76
:103F100081E08093AA02FACCC23009F0F7CCDF32FC
:103F200009F4F4CC80917A0621E030E0181614F000
:103F30002FEF3FEF8D2F90E0280F391F20333105F1
:103F400014F420917A0620917A06121674F421E076
:103F500030E0820F931FC0970CF031CC80917A062D
:103F6000181634F481E0D80F19CC2FEF3FEFF1CFC2
:103F70008FEFF9CFCF93C82F809170008D7F809302
:103F800070008BE490E00197F1F7F894C093740609
:103F900080915F0690916006A0916106B0916206E3
:103FA000892B8A2B8B2B51F060919C0270919D0282
:103FB00080919E0290919F020E94DE17CC2309F40B
:103FC00095C080910401909105019093E70480933E
:103FD000E60410927006109271061092720610920A
:103FE00073068091AF02823009F477C008F46EC086
:103FF000833009F478C0843009F472C07894CC23FB
:1040000009F4ADC080912B0680937C001092F805D6
:104010008091AE02882361F08091AF02823041F43A
:1040200081E0C11101C080E08093FD050E947B15F5
:10403000CC2309F4A9C060E088E00E94570361E046
:104040008BE00E9457038FEC0E94B20784E50E9428
:1040500076158091AF02823009F085C080912506E7
:1040600090912606A0912706B09128069C01AD01EB
:1040700066277727CB01621B730B840B950B0E947D
:1040800041020E944A046BEF83E00E94B70480E87B
:10409000809388008091E504811109C08091AF026E
:1040A000823029F0809180008F778093800080910A
:1040B000800080628093800080E48093B3008091D0
:1040C0007000826080937000CF91089589EE94E132
:1040D0009093F7058093F60591CF8CEB92E1F8CFA2
:1040E0008CE098E0F5CF82E398E0F2CF8091AF02C8
:1040F000823009F58091700690917106A091720648
:10410000B0917306892B8A2B8B2BA9F40E942B0468
:10411000605C7F4F8F4F9F4F609370067093710666
:1041200080937206909373068091E904811114C004
:1041300089E89BE0CDCF8091E6049091E7049093CD
:10414000050180930401109270061092710610927E
:10415000720610927306ECCF8CE998E0B9CF81E03B
:104160008093630653CF80915F0690916006A09183
:104170006106B0916206892B8A2B8B2B09F483CFC1
:1041800060E070E0CB017BCF8091800080688093FD
:104190008000809180008F7D8093800060E08AE0C5
:1041A0000E94570310928A008091E804882321F02E
:1041B0006FE082E10E94B7046CEF83E00E94B704D5
:1041C0008091700690917106A0917206B09173066D
:1041D000892B8A2B8B2B21F08091E90481110DC052
:1041E00080912C0661E0823009F460E088E00E9452
:1041F000570360E08BE00E94570360915F06709167
:10420000600680916106909162060E9441020E94C0
:104210004A0480916D01882331F00E948E1B8DE449
:1042200093E00E94D7178FEC0E94B2078091790625
:10423000811105C082E50E94761584E03ECF86E5B7
:10424000FACF1F920F920FB60F9211242F933F9324
:104250008F939F93AF93BF938091EE059091EF055D
:10426000A091F005B091F1053091ED0523E0230F09
:104270002D3758F50196A11DB11D2093ED058093B2
:10428000EE059093EF05A093F005B093F1058091B2
:10429000F2059091F305A091F405B091F505019612
:1042A000A11DB11D8093F2059093F305A093F40531
:1042B000B093F505BF91AF919F918F913F912F9151
:1042C0000F900FBE0F901F90189526E8230F0296AF
:1042D000A11DB11DD2CF1F920F920FB60F921124C4
:1042E0002F933F934F935F936F937F938F939F93FE
:1042F000AF93BF93EF93FF93E091F605F091F7052D
:104300000995FF91EF91BF91AF919F918F917F910F
:104310006F915F914F913F912F910F900FBE0F9032
:104320001F9018951F920F920FB60F9211240F93A2
:104330001F932F933F934F935F936F937F938F932D
:104340009F93AF93BF93CF93DF93EF93FF93C0916E
:104350002F0680E1C89FE001112486E00E942E0311
:104360008C0187E00E942E03000F111F8C2B802BE5
:1043700080932F068332B9F08233D9F0FF91EF9109
:10438000DF91CF91BF91AF919F918F917F916F916D
:104390005F914F913F912F911F910F910F900FBE01
:1043A0000F901F90189580917A068F5F80937A0600
:1043B000E5CF80917A068150F9CFCF93DF93CDB7C7
:1043C000DEB7A4970FB6F894DEBF0FBECDBF7894CA
:1043D00084B5826084BD84B5816084BD85B582600A
:1043E00085BD85B5816085BD80916E0081608093BB
:1043F0006E00109281008091810082608093810024
:104400008091810081608093810080918000816033
:10441000809380008091B10084608093B10080918E
:10442000B00081608093B00080917A0084608093B6
:104430007A0080917A00826080937A0080917A007D
:10444000816080937A0080917A00806880937A00FE
:104450001092C10060E08AE00E9457030E947F072B
:1044600014BE88E198E20FB6F894A8958093600096
:104470000FBE9093600080E480937C0010926800EF
:1044800010926B0010926C0010926D0062E087E059
:104490000E94850362E086E00E94850380916D00A2
:1044A000806C80936D0080916800846080936800C8
:1044B00086E00E942E036C0187E00E942E03CC0C44
:1044C000DD1CC82AC0922F06789460E08BE00E9421
:1044D000570361E088E00E94570360E08AE00E9491
:1044E000570360E089E00E94570361E089E00E9481
:1044F000850361E08BE00E94850361E088E00E9413
:10450000850361E08AE00E94850360E081E10E940A
:10451000850362E08DE00E94850360E08CE00E94EC
:10452000850360E08EE00E94570360E08FE00E9408
:10453000570360E08EE00E94850360E08FE00E94F8
:10454000850360E08BE00E94570361E08BE00E94EE
:10455000850360E084E10E94850360E085E10E94BC
:10456000850361E085E00E94850364E670E080E0F9
:1045700090E00E94F8038AB18F618AB93C9A8BE37C
:104580009DE00197F1F73C9A5C9883E30E94B207A3
:104590006BE4C62E66E4D62EC6010197F1F783E3DD
:1045A0000E94B207C6010197F1F783E30E94B207A8
:1045B00083E592E00197F1F782E30E94B20788E277
:1045C0000E94B2078CE00E94B20781E00E94B2070D
:1045D00063E070E080E090E00E94F80386E00E94D3
:1045E000B2071092FC051092FB055E0129E0A20EB5
:1045F000B11C8091FB059091FC050897A9F1609191
:10460000FB057091FC0543E0660F771F4A95E1F7C3
:104610006B5B7D4F48E050E0CE0101960E94663210
:104620008091FB059091FC058F5F48E0849FC0015D
:104630001124887380640E94B207CE0101966C0138
:10464000D6016D916D0188E996E00E945715CA1454
:10465000DB04B1F78091FB059091FC0501969093E6
:10466000FC058093FB05C5CF0E948E1B0E94DD16C2
:1046700080E80E94B2078BE392E00E94C21680ECB1
:104680000E94B2078BE292E00E94C21668EE73E0CD
:1046900080E090E00E94F8030E94DD1680E80E940E
:1046A000B20784E292E00E94C21687E80E94B20735
:1046B00081E292E00E94C2168AE192E00E94C21654
:1046C0000E94DD166CED75E080E090E00E94F8033A
:1046D00084E080936501E0919302B4E0EB9FF001E8
:1046E0001124EC52FD4F80819181A281B38180938E
:1046F000250690932606A0932706B0932806E9E3A3
:10470000F6E084E2DF011D928A95E9F71092330604
:1047100010923206109231061092300681E080939A
:10472000380680933706809336068093350680934B
:10473000340664E383E00E94BB1B8091F9059091ED
:10474000FA05823B904109F47BC382EB90E19093A0
:10475000FA058093F9056FEF84E00E94BB1B80ECA3
:104760000E94B20789E092E00E94C2166CED75E0EB
:1047700080E090E00E94F803A895109297061092AE
:104780009606DD24D394D092AA0280919802809359
:1047900097021092790610925F06109260061092AE
:1047A00061061092620680915E06082F017010E08B
:1047B000000F111F000F111FF801E056FD4F8081FF
:1047C0009181A281B38180939C0290939D02A093DA
:1047D0009E02B0939F0280915E0680FBEE24E0F87B
:1047E000F12CF701E656FD4F80818093AF020E94C5
:1047F000C00760E273E080E090E00E94F8030E944E
:104800008E1BD09263061092F80589E89BE0909386
:10481000F7058093F60524E63EED45E050E061E0C3
:1048200082E00E949D0880917C0080932B068091FD
:104830002C0661E0813009F460E029E937E741E0C6
:1048400050E080E00E949D0880917C0080932906C2
:1048500080912C0661E0813009F460E029E937E7B6
:1048600041E050E081E00E949D0880917C008093AF
:104870002A06109280001092810080918000826A46
:1048800080938000809181008961809381001092E3
:1048900087008FEF80938600109289001092880025
:1048A00010928B0010928A008091B6008F7D8093C9
:1048B000B6001092B0001092B1001092B200809138
:1048C000B00082608093B0008091B10084608093DA
:1048D000B1008091700082608093700084E08093CA
:1048E000B300809180008F7D8093800060E08AE03B
:1048F0000E9457038DE00E942E03892B09F4ABC25E
:104900008091AF0280917906882391F18091AF0266
:10491000882321F08091AF02813051F58091780693
:104920008111E9C28091770691E0980F9093770604
:10493000803109F0A7C2809175069091760624E037
:10494000969587952A95E1F7805E91400E940C1319
:104950001092770610927606109275068091740672
:10496000882331F081E0809378068FEF0E94BA1F90
:104970008091AF02823009F07AC08091AE02882324
:1049800009F475C080917406811171C08091700620
:1049900090917106A0917206B0917306892B8A2BB3
:1049A0008B2B09F064C08090040690900506A090BF
:1049B0000606B0900706C0906701D0906801E090AD
:1049C0006901F0906A01C501B4016C197D098E0975
:1049D0009F0920E031E040E050E00E941736C20E0F
:1049E000D31EE41EF51EC0926701D0926801E092CA
:1049F0006901F0926A01C701B60122E030E040E0AF
:104A000050E00E94173611E0281539054A055B056C
:104A10000CF010E01093030680910206181751F075
:104A20000E942B046093FE057093FF05809300069F
:104A3000909301060E942B048090FE059090FF0544
:104A4000A0900006B0900106681979098A099B09AF
:104A5000613171058105910508F45CC28091FD0505
:104A600018131093FD050E947B1510930206809188
:104A70007B06811127C080917D06882309F45FC2DF
:104A800087E0E1ECF2E0DE01119601900D928A954B
:104A9000E1F7E091AD0241E050E04C0F5D1F4E0F99
:104AA000511DFA0110810E94BD0710927D0680E819
:104AB0000E94B207812F90E080559D4F0E94D7172A
:104AC0000E94E1078091AF0280917806811152C166
:104AD0008DE00E942E03892B09F04CC110926C06C8
:104AE00010926D0610926E0610926F0681E00E9481
:104AF000BA1FA8958091AF02823009F056C36AE0D0
:104B000070E080E090E00E94F8038091AF02823074
:104B100009F022C10E942B040091680610916906D9
:104B200020916A0630916B06601771078207930720
:104B300008F412C108E010E0812C912C5401750199
:104B4000640184E10E94C103BC01990F880B990B99
:104B50000E94B3332CE03EE248EB5BE30E94183541
:104B60009B01AC01C701B6010E9498326B017C0128
:104B700085E10E94C103BC01990F880B990B0E942B
:104B8000B3332CE03EE248EB5BE30E9418359B0117
:104B9000AC01C501B4010E9498324B015C0165E093
:104BA00070E080E090E00E94F8030150110949F69E
:104BB00020E030E040E05EE3C701B6010E94183516
:104BC0006B017C0120E030E040E05EE3C501B40110
:104BD0000E94183569877A878B879C87A701960181
:104BE000C701B6010E9418352B013C01A7019601AF
:104BF00069857A858B859C850E9409334B015C0110
:104C000020E030E040E85FE30E94983269A37AA395
:104C10008BA39CA3A501940160E070E080E89FE372
:104C20000E9497329B01AC0169A17AA18BA19CA142
:104C30000E9409334B015C012AE037ED4FE151E45A
:104C40000E94BB34181654F020E030E040E85FE3E7
:104C5000C501B4010E94043387FF08C01AE0812E09
:104C600017ED912E1FE1A12E11E4B12E209118060F
:104C70003091190640911A0650911B06C301B201EA
:104C80000E94043381110FC0A501940160911406A4
:104C90007091150680911606909117060E940433B4
:104CA000882309F44BC00E94BD0780E80E94B20728
:104CB00080916D01823009F47DC2833009F4B1C264
:104CC000813061F58CE593E00E94D71720E030E059
:104CD00048EC52E4C301B2010E9418350E94EE3341
:104CE00020E030E048EC52E40E9409330E94D818DA
:104CF0008EE593E00E94D71720E030E048EC52E4C4
:104D0000C501B4010E9418350E94EE3320E030E066
:104D100048EC52E40E9409330E94D81840921806C9
:104D20005092190660921A0670921B068092140621
:104D300090921506A0921606B09217060E942B04B8
:104D40006C507E4F8F4F9F4F60936806709369063B
:104D500080936A0690936B0681E10E942E03892B53
:104D600031F48DE00E942E03892B09F4C2CE80E03D
:104D70000E94BA1FC0907006D0907106E090720633
:104D8000F0907306C114D104E104F10451F00E94C3
:104D90002B04C616D706E806F90618F480E00E9430
:104DA000BA1F81E10E942E03892B09F43BC5809133
:104DB000670682FD05C080916706857009F462C2AE
:104DC00080916706807F90917A06992309F4D9C271
:104DD0009CE0892B8093670680916706823209F4F4
:104DE000C7C308F0DAC2863108F0CDC2843108F0BA
:104DF0007DC3813109F480C380916506811105C0AE
:104E000080912E06882309F479C510926506809159
:104E10007B068111A8C580912E06811106C580915F
:104E2000AF0280935D068091AF028F5F8093AF02E7
:104E30008091AF02833008F4FDC41092AF02FAC42F
:104E400081E10E942E03892B09F07FCC6FEF83E074
:104E50000E94BB1B92CC80EC0E94B20781E20E94B0
:104E6000761581E20E9476158BEF91E00E94C216C2
:104E70000E94DD166CED75E080E090E00E94F80382
:104E8000A89538CDF89483E880937A0080916601E4
:104E9000803220F060E088E00E94570390917C000F
:104EA00080917A0084FFFCCF80912B0680937C0058
:104EB00080917A00806480937A0080917A0084FFE8
:104EC000FCCF90937C0080916601803220F061E0FD
:104ED00088E00E94570320917800309179007894FF
:104EE0008091750690917606820F931F90937606B7
:104EF0008093750633CD80917406811139CD0E945F
:104F0000BA1F1092780660E270E080E090E00E94A4
:104F1000F8032ECDC701B60124E630E040E050E0B2
:104F20000E941736C20ED31EE41EF51EC092670102
:104F3000D0926801E0926901F0926A0194CD80916B
:104F4000700690917106A0917206B0917306892B3C
:104F50008A2B8B2B09F0B6CD8091780681110C94A9
:104F60003C324091100650911106609112067091EA
:104F7000130680910C0690910D06A0910E06B0913B
:104F80000F0684179507A607B70708F4F3C0C0906B
:104F90000C06D0900D06E0900E06F0900F06C09221
:104FA0000C06D0920D06E0920E06F0920F0680914C
:104FB000AD02882311F40C94383280910A06909146
:104FC0000B06019690930B0680930A069770892B27
:104FD00011F00C94383280916C0161E070E002C0F5
:104FE000660F771F8A95E2F7072E000C880B990B46
:104FF0000E94B3334B015C01C701B6010E94B1337B
:105000009B01AC01C501B4010E94183521ED35E4C6
:1050100043EE5FE40E9409339B01AC010E94183506
:1050200020E030E048E452E40E9409330E94C0349A
:1050300020E030E040E251E40E94183520E030E00A
:1050400040EF51E40E9498320E947B336B017093D1
:105050000906609308060E94BD078091AD02813069
:1050600069F489E80E94B207B601DD0C880B990B40
:105070000E94AD1785E892E00E94C2168091AD02B1
:105080008230F9F48091080690910906813C5FEF27
:1050900095070CF078C081589F4F66E070E00E9441
:1050A000E135162F8EE80E94B2071A3018F483E516
:1050B0000E947615612F70E090E080E04AE00E9447
:1050C00069178091AD02833039F58091080690917F
:1050D0000906813CAFEF9A070CF05EC081589F4FE4
:1050E00066E070E00E94E135FE01319694EF960F84
:1050F0008F0182E016162CF481E0860F65300CF0EB
:1051000085E0819363506913F4CF1D828CE80E947F
:10511000B207C8010E94D7178091AD02843099F47C
:105120008EE80E94B2078091AF02823041F4609114
:105130006B0170E090E080E04AE00E9469178BE527
:1051400093E00E94D7170E94E10780910C0690918E
:105150000D06A0910E06B0910F06B695A7959795EE
:10516000879580930C0690930D06A0930E06B0933E
:105170000F06A8CCC0901006D0901106E090120641
:10518000F09013060CCF875B1AE0612F0E94C135A7
:10519000819F102D112486CF875B2AE0622F0E9409
:1051A000C135829F602D11249FCF64E670E080E0BE
:1051B00090E0A9CC86E693E00E94D71720E030E08B
:1051C00048EC52E4C301B2010E9418350E94EE334C
:1051D00020E030E048EC52E40E9409330E94D818E5
:1051E0008AE693E00E94D71729853A854B855C852E
:1051F000CA01B9010E94183520E030E048EC52E4C1
:105200000E9418350E94EE3320E030E048EC52E472
:105210000E9409330E94D8188FE693E00E94D717A6
:105220007DCD86E693E00E94D71720E030E048EC81
:1052300052E4C701B6010E9418350E94EE3320E007
:1052400030E048EC52E40E9409330E94D81881E70C
:1052500093E00E94D71720E030E048EC52E46985E3
:105260007A858B859C850E9418350E94EE3320E05C
:1052700030E048EC52E40E9409330E94D81886E7D7
:1052800093E0CCCFF89480917A0084FFFCCFE0903B
:105290007A00F0907C0080917A00877F80937A007A
:1052A00080917A00876080937A0080E480937C000C
:1052B00061E070E080E090E00E94F80381E10E94EC
:1052C000C1038C01E0927A00F0927C00789481E036
:1052D000809367060E942B046B017C0181E10E9490
:1052E0002E03892B71F00E942B046C197D098E0905
:1052F0009F096D3271408105910578F184E08093BA
:1053000067066AE070E080E090E00E94F803809118
:105310006706843099F00E942B046C197D098E0970
:105320009F09643F71408105910540F481E10E942D
:105330002E03892BA1F082E08093670681E10E9411
:105340002E03892B89F080917A06882321F08091A1
:105350006706843031F0A895F1CFA895BFCFA89506
:10536000D6CF8CE08093670690E10C35F3E01F0701
:1053700028F090E2073D134008F090E38091670623
:1053800028CD95E026CD8C3109F4B4C0813209F0E6
:1053900033CD81E0809365062FCD823309F4ECC1D3
:1053A00070F4843209F444C1813309F025CD809131
:1053B0007B068111C4C181E00E94EA071DCD8433C0
:1053C00009F429C28C3309F017CD81E10E942E0324
:1053D000892B09F429C1A89580917A068823A9F31D
:1053E00061E080E00E94BB1B8091960287FF15C29E
:1053F0008AE08093960261E084E00E94BB1B80EC0F
:105400000E94B2078AE892E00E94C2160E94DD164E
:1054100087EF84BF0FB6F894A895809160008861EB
:1054200080936000109260000FBE809170008D7FAD
:105430008093700061E070E080E090E00E94F803EB
:105440001092880010928A0080917A00877F809362
:105450007A0080917A00876080937A0080E480935C
:105460007C000E947F076CED75E080E090E00E9478
:10547000F8031092680010926B0010926C0010926A
:105480006D0010926E0010926F00109270001092DA
:10549000600080916C00886080936C00809168004F
:1054A0008260809368008FEF8093640088E00E94A0
:1054B000B2075D9883B7817F846083BF83B78160C3
:1054C00083BF789485B7806685BF8F7D85BF8895BB
:1054D00083B78E7F83BF88E198E00FB6F894A895D4
:1054E000809360000FBE90936000FFCF82E08093B6
:1054F0007B0682CC81E0FBCF80917B06813041F43A
:105500008091AC028D3124F08091AC028332A4F002
:1055100080917B06882311F180917B06813031F1E7
:1055200081E090917B06923010F36091AC0284E0B0
:105530000E94BB1B80E0DBCF0E942B0460936C06B3
:1055400070936D0680936E0690936F068091AC0207
:105550008D518093660610927B064ECC8091AC02F2
:105560008111DACF81E08093AC02D6CF82E0D9CF2F
:10557000809164068F5F8093640681E08093630668
:105580008091AF02823039F4809164068B3018F03C
:1055900084E0809364068091AF02823039F4809178
:1055A0006406843019F486E08093AB028091AF02E8
:1055B000823079F480916406853021F08091640610
:1055C000863039F48091AB02873018F487E08093FD
:1055D000AB028091AF02823059F48091640687302B
:1055E00039F48091AB02883018F488E08093AB02E4
:1055F0008091AF02823031F080916406843010F0E7
:105600001092640610927A0663E080E00E94BB1B51
:1056100063E084E00E94BB1BA8956CED75E080E020
:1056200090E00E94F803A89581E08093AA02E4CB61
:1056300040915F065091600660916106709162062C
:1056400081E090E0A0E0B0E0452B462B472B19F01D
:1056500080E090E0DC0180935F0690936006A09369
:105660006106B093620680915F0690916006A091FA
:105670006106B0916206892B8A2B8B2B09F058C0EA
:105680002091AF0281E090E0223011F090E080E0C4
:1056900088559D4FDC018C918093AB0280915F0611
:1056A00090916006A0916106B0916206892B8A2BC9
:1056B0008B2B09F0B9CF90915E0681E0911180E0CB
:1056C00080935E0680915E0680FB222420F8312CB8
:1056D000F101EE0FFF1FEE0FFF1FE056FD4F80811F
:1056E0009181A281B38180939C0290939D02A093AB
:1056F0009E02B0939F0280915E0681708D871E8608
:10570000ED85FE85E656FD4F80818093AF02809146
:10571000AF02823079F085E08093AB028091AF02D6
:10572000823051F484E080936406109299027CCF19
:1057300088E0B2CF86E0F0CF1092640675CF8091FA
:105740007B0680917B068230A9F481E08093AA02D7
:105750006091AC0284E00E94BB1B81E090917B06CB
:10576000933009F0C4CE6091AC0286E00E94BB1B6E
:1057700083E0BDCE82E0F2CF209198022093970281
:105780008091AF0280935D063FEF320F393020F5F4
:1057900040919C0250919D0260919E0270919F02E7
:1057A000E22FE150FF0BCF01EE0FFF1FEE0FFF1FA7
:1057B000E75CF94F408351836283738340915E06B7
:1057C000805D994F41704F87188AEF85F889E656BA
:1057D000FD4F4081DC014C9380912F06833131F0E5
:1057E000823321F0803211F0813069F430939802D5
:1057F000809198028A3058F081E08093980286E088
:105800008093AB0211CF2F5F20939802F1CF8111CB
:10581000F6CF89E0F2CF8FEFCFCD61E084E00E9438
:10582000BB1BD3CD10926706E7CA8091AF028530CB
:1058300008F003CB8091AF02823011F410929902EC
:1058400081E090E020915D06223011F090E080E050
:105850002091AB02FC01E855FD4F20834091AF023F
:1058600021E030E0423011F030E020E028553D4F9B
:10587000F90120812093AB02209164068C569D4F44
:10588000DC012C932091AF0281E090E0223011F0F6
:1058900090E080E08C569D4FFC01808180936406EF
:1058A00090915E068091AF029170998B1A8AE98976
:1058B000FA89E656FD4F808380915E0663E380FFA0
:1058C00062E384E00E94BB1B62E084E00E94BB1B99
:1058D00063E084E00E94BB1B10929706109296062C
:1058E00080915D06823029F48091AE0281110E9480
:1058F0008E1B81E08093AA0210922E0680917B0677
:10590000811107C090912D0680917B06981709F4AC
:105910005BC110917A0690917B06913009F041C0ED
:10592000112309F440C020917A068091AC02820FC5
:105930008093AC028091AC0280335CF19093AC0216
:105940006091AC0282E00E94BB1B8093AC0210927B
:105950007A0680917B0660E081116091AC0281E063
:105960000E94BB1B26C080917B06813011F41092EF
:105970007B0680917B06823008F4BECF81E0809365
:105980007B068093AA026091AC0284E00E94BB1B5C
:10599000B3CF8091AC0218169CF28FE28093AC02D8
:1059A000CFCF1111D6CF90912D0680917B06981301
:1059B000D0CF80917B0680932D0680917B0682302C
:1059C00009F002C1112309F4FFC080EC0E94B20764
:1059D0008EE00E94B2078091AC02823069F590910E
:1059E0005E068091AF0291709B8B1C8AEB89FC89CB
:1059F000E656FD4F808380915E0663E380FF62E39D
:105A000084E00E94BB1B81E08093AA02109297065B
:105A1000109296068091AF02823009F40BC485E0A3
:105A20008093AB028091AF02823009F005C484E01C
:105A300080936406109299028091AC02843019F42C
:105A400081E08093AA028091AC028630C9F59091E2
:105A50005E0691709D8B1E8AED89FE89EE0FFF1FF9
:105A6000EE0FFF1FE056FD4F40815181628173812F
:105A700040939C0250939D0260939E0270939F02FC
:105A800090915E0691709F8B188EEF89F88DE65687
:105A9000FD4F90819093AF029091AF02923009F048
:105AA00085E08093AB028091AF02823009F0C7C3DA
:105AB00084E0809364061092990281E08093AA02A8
:105AC0008091AC02873099F480915F0690916006D6
:105AD000A0916106B0916206892B8A2B8B2B09F469
