:100000000C948F010C94B7010C94B7010C94B701B8
:100010000C94B7010C9470210C94B7010C944921F5
:100020000C94B7010C94B7010C94B7010C94B70170
:100030000C94B7010C94B7010C94B7010C94B70160
:100040000C94FF200C94B7010C94B7010C94B701E9
:100050000C94B7010C94B7010C94B7010C94B70140
:100060000C94B7010C94B70108000000BE9224491B
:10007000123EABAAAA2ABECDCCCC4C3E00000080DA
:10008000BEABAAAAAA3E00000000BF000000803F4D
:100090000000000000084178D3BB4387D1133D190D
:1000A0000E3CC3BD4282AD2B3E68EC8276BED98F3A
:1000B000E1A93E4C80EFFFBE01C4FF7F3F0000007E
:1000C0000000202020202020202000524954003A07
:1000D00020004C454400515541440049512070686E
:1000E0006173650052656620667271005057522038
:1000F0006D617800505752206D696E004357204D56
:1001000073675F36004357204D73675F3500435771
:10011000204D73675F34004357204D73675F330092
:100120004357204D73675F32004351204D73675F23
:1001300031004357205245504541542078350054F2
:100140005820447269766500535120564F58005626
:100150004F580043572053706565640053656D69BF
:100160002051534B004357204465636F6465720010
:10017000532D4D6574657200415454004E52004138
:100180004743005249540056464F0053746570006F
:1001900042616E64004257004D6F646500566F6C9B
:1001A0000000000000240027002A000000000025B5
:1001B0000028002B00000000002300260029000476
:1001C00004040404040404020202020202030303FE
:1001D00003030301020408102040800102040810F8
:1001E00020010204081020000000080002010000A5
:1001F0000304070000000000000000436865636B13
:10020000205054542F6B65790052657365742073C8
:10021000657474696E67732E2E0033303037323652
:100220000020520055534452202B0070726F6674A8
:100230007064406D61696C2E727500506574726FE8
:10024000762052560008040A050A0408000000003F
:1002500000000000001010101010101010101014EA
:10026000141414141410101515151515150C121E50
:1002700012120000001C121C121C000000000000E2
:10028000000000000064426D2000506F7765722D01
:100290006F6666203733203A2D29007E2045544969
:1002A000414E4D53555257444B474F4856462A4CA2
:1002B0002A504A425843595A512A2A353453332A2C
:1002C0002A2A322A2A2B2A2A2A4A31363D2F2A2A3A
:1002D0002A482A372A472A382A39302A2A2A2A2A13
:1002E0002A2A2A2A2A2A2A3F5F2A2A2A2A222A2A2C
:1002F0002E2A2A2A2A402A2A2A272A2A2D2A2A2A44
:100300002A2A2A2A2A3B212A292A2A2A2A2A2C2A44
:100310002A2A2A3A2A2A2A2A0000F93118321124D4
:100320001FBECFEFD8E0DEBFCDBF14E0A0E0B1E04C
:10033000E8E7F3E702C005900D92A431B107D9F7C1
:1003400026E0A4E1B4E001C01D92A539B207E1F7AF
:1003500011E0CEE8D1E004C02197FE010E94EF3504
:10036000CD38D107C9F70E94BB210C94AF390C944A
:10037000000087FF76C03C983D9800000000000018
:1003800000003D9A000000000000000086FF6BC0E6
:100390003C983D9800000000000000003D9A0000DD
:1003A00000000000000085FF60C03C983D98000000
:1003B0000000000000003D9A000000000000000066
:1003C00084FF55C03C983D980000000000000000EC
:1003D0003D9A000000000000000083FF4AC03C98E6
:1003E0003D9800000000000000003D9A0000000061
:1003F0000000000082FF3FC03C983D9800000000D4
:10040000000000003D9A000000000000000081FF95
:1004100034C03C983D9800000000000000003D9A68
:10042000000000000000000080FF29C03C983D98BB
:1004300000000000000000003D9A000000000000E5
:1004400000003C9800000000000000003D98000003
:100450000000000000003D9A0000000000000000C5
:1004600008953C9A89CF3C9A94CF3C9A9FCF3C9A6E
:10047000AACF3C9AB5CF3C9AC0CF3C9ACBCF3C9AFE
:10048000D6CF2F923F924F925F926F927F928F9230
:100490009F92AF92BF92CF92DF92EF92FF920F9313
:1004A0001F93CF93DF9300D000D0CDB7DEB79B0171
:1004B000AC0180917E0690917F06A0918006B0915C
:1004C000810689839A83AB83BC83A0917B06C0900D
:1004D0008A06D0908B06E0908C06F0908D06B0E0F6
:1004E0000E9413364B015C01BB0C8808982C540108
:1004F0009B01AC01682D782D882D982D07E10E9475
:10050000F53656016701E12CF12C00E010E00E9465
:10051000203649015A0149805A806B807C80480C02
:10052000591C6A1C7B1C80917C0690917D06860D6F
:10053000971D8093860680E180938706852D9927F5
:1005400080938806409289060F900F900F900F902D
:10055000DF91CF911F910F91FF90EF90DF90CF909F
:10056000BF90AF909F908F907F906F905F904F90D3
:100570003F902F900895E0917606E7FD15C0F0E0DA
:10058000E556FD4FE491EA3279F0A0EBB2E0119626
:100590008C9111978D9382E0AF3BB807C1F7E09340
:1005A000BF0281E08093750681E08093760608950E
:1005B000AF92BF92CF92DF92EF92FF920F931F9371
:1005C000CF93DF936C017B018B01040F151FEB01AF
:1005D0005E01AE18BF08C017D10759F06991D60166
:1005E000ED91FC910190F081E02DC6010995892BD8
:1005F00079F7C501DF91CF911F910F91FF90EF9097
:10060000DF90CF90BF90AF900895833081F028F4B1
:10061000813099F08230A9F008958730A9F08830B0
:10062000C9F08430B1F4809180008F7D03C0809147
:1006300080008F7780938000089584B58F7784BD84
:10064000089584B58F7DFBCF8091B0008F77809324
:10065000B00008958091B0008F7DF9CFCF93DF93E4
:10066000282F30E0F901E951FE4F8491F901ED5254
:10067000FE4FD491F901E154FE4FC491CC23A1F077
:1006800081110E940503EC2FF0E0EE0FFF1FEB54E9
:10069000FE4FA591B491EC91ED2381E090E009F437
:1006A00080E0DF91CF91089580E090E0FACF1F9332
:1006B000CF93DF93282F30E0F901E951FE4F849169
:1006C000F901ED52FE4FD491F901E154FE4FC4916E
:1006D000CC23A9F0162F81110E940503EC2FF0E026
:1006E000EE0FFF1FE555FE4FA591B4918FB7F8941B
:1006F000EC91111108C0D095DE23DC938FBFDF9100
:10070000CF911F910895DE2BF8CFCF93DF9390E028
:10071000FC01ED52FE4F249181549E4FFC018491C7
:100720008823C9F090E0880F991FFC01EF55FE4F18
:10073000A591B491FC01E555FE4FC591D49161118D
:100740000DC09FB7F8948C91209582238C9388815B
:10075000282328839FBFDF91CF910895623051F401
:100760009FB7F8943C91822F809583238C93E881E6
:100770002E2BEFCF8FB7F894EC912E2B2C938FBFAD
:10078000EACF8E50806480937C0080917A008064F0
:1007900080937A0080917A0086FDFCCF809178006A
:1007A0009091790008953FB7F8948091EA0590916F
:1007B000EB05A091EC05B091ED0526B5A89B05C011
:1007C0002F3F19F00196A11DB11D3FBFBA2FA92FD0
:1007D000982F8827BC01CD01620F711D811D911DCD
:1007E00042E0660F771F881F991F4A95D1F7089539
:1007F0008F929F92AF92BF92CF92DF92EF92FF9231
:100800006B017C010E94D3034B015C01C114D10434
:10081000E104F104B9F00E94D303681979098A0947
:100820009B09683E73408105910580F321E0C21A5F
:10083000D108E108F10888EE880E83E0981EA11C1B
:10084000B11CE4CFFF90EF90DF90CF90BF90AF90BE
:100850009F908F9008952FB7F8946091E60570915E
:10086000E7058091E8059091E9052FBF08953C9A2E
:100870003D9800000000000000003C9887B18F7C8C
:1008800087B93C9A08953D9A0000000000000000DE
:100890003C980895CF93DF930E94430480EC0E941C
:1008A000B9018EE10E94B901C7E7D6E08F850E94A9
:1008B000B90188890E94B90189890E94B9018A8990
:1008C0000E94B901DF91CF910C943704CF93DF934D
:1008D000D82FC62F0E94430480E40E94B9018D2FB7
:1008E0000E94B9018C2F0E94B901DF91CF910C9425
:1008F0003704CF93DF93D82FC92F6FEF87E00E9483
:1009000066046FEF86E00E9466046D2F82E00E940D
:10091000660460E086E00E9466046C2F83E00E941B
:10092000660460E087E0DF91CF910C946604FF924B
:100930000F931F93CF93DF93C82FF62E072F142FFB
:100940000E94430480EC0E94B9018C2F0E94B901DF
:10095000CF2DD02F115020F089910E94B901FACFEC
:10096000DF91CF911F910F91FF900C943704CF939B
:10097000DF931F92CDB7DEB7698341E0BE016F5FA1
:100980007F4F0E9497040F90DF91CF9108952F928F
:100990003F924F925F926F927F928F929F92AF920F
:1009A000BF92CF92DF92EF92FF920F931F93CF935C
:1009B000DF93CDB7DEB764970FB6F894DEBF0FBEF6
:1009C000CDBF898B48015901FB8AEA8ACC8ACB01C9
:1009D000BA01A90198010E94AE35290119012430FC
:1009E000310509F497C09B01AC0160E070E080E044
:1009F00090E000E10E94F536F9017501640100E024
:100A000010E098018986DA86AB86FC860D871E8702
:100A10002F87388B54016701E12CF12C00E010E0A6
:100A20009F010E945136A32FF42FE52F422F5A2FFA
:100A30006F2F7E2FC12CD12C7601E394CB01BA010C
:100A400027E0660F771F881F991F2A95D1F7A70106
:100A500096010E94AE3542019694982C8824979472
:100A60008794B12CA12C02E0901AA108B108280D9E
:100A7000391D4A1D5B1DBC89A0E1BA9FF0011124FC
:100A8000842E8E2AE4E02E16310409F04CC0ECE0EE
:100A90001982CA828E2A8B823C832D8394E0CC0CEF
:100AA000DD1CEE1CFF1C9A95D1F7E82AEE827F83AD
:100AB000688748E0BE016F5F7F4F8989880F880F84
:100AC000880F865D0E949704612F6295660F660FFE
:100AD000607CC988C7FE29C060688C2D885E0E9432
:100AE000B70464960FB6F894DEBF0FBECDBFDF919A
:100AF000CF911F910F91FF90EF90DF90CF90BF901B
:100B0000AF909F908F907F906F905F904F903F90AD
:100B10002F90089540E050E0BA0111E0C12CD12C93
:100B20007601C3948BCFE0E0B3CF6F608989805F9B
:100B30000E94B704EA88FB88E49CA001E59C500D64
:100B4000F49C500D112421E01227212F30E0429F08
:100B5000C001439F900D529F900D11246AE570E0F3
:100B60000E94863589898B55BACF2F923F924F923A
:100B70005F926F927F928F929F92AF92BF92CF922D
:100B8000DF92EF92FF920F931F93CF93DF93CDB736
:100B9000DEB760970FB6F894DEBF0FBECDBF4B0136
:100BA0005C0149875A8329833B8321E0821623EA2B
:100BB000920621EEA20621E1B206DCF023E030E04D
:100BC000CA01B9010E94863569877A8389819B8130
:100BD000B9010E94863569837B83C501B40123E096
:100BE00030E040E050E00E94D03549015A011886BB
:100BF00011C060E2861661EA960667E0A606B104B7
:100C0000B4F747E0880C991CAA1CBB1C4A95D1F785
:100C100077E0788780E8881683EC980689ECA80648
:100C200081E0B806CCF460918A0670918B068091C1
:100C30008C0690918D06A0EE8A16A7E69A06A5E38B
:100C4000AA06B1040CF445C124E0660F771F881F83
:100C5000991F2A95D1F749C160918A0670918B0638
:100C600080918C0690918D0635E0660F771F881F66
:100C7000991F3A95D1F7A50194010E94AE3519014B
:100C8000B1E08B16BBE39B06B8E5AB06B8E0BB064C
:100C90000CF031C120FE03C02FEF221A320AD1011D
:100CA000A501940128583341410951090E94133686
:100CB0006B017C0120918A0630918B0640918C0655
:100CC00050918D0640908A0650908B0660908C065D
:100CD00070908D064C825D826E827F820E94AE355E
:100CE00029013A019101A0E1B7E20E94FD356C0DA6
:100CF0007D1D8E1D9F1D2C813D814E815F810E9437
:100D0000AE35421653066406750619F022E0220E2F
:100D1000311CD101A50194010E9413362B013C0125
:100D200000918A0610918B0620918C0630918D06D9
:100D3000C12CF12CE12CBC01A2018EEF0E94C70452
:100D4000C884E984FA8095018401B301A20180E09E
:100D50000E94C704C884E980FB809501B301A20109
:100D600081E00E94C704C884F12CE12C9501B301F5
:100D7000A20182E00E94C7046985062E000C770B51
:100D80008981681B710987FD73957D836C83C3011D
:100D9000B201A50194010E94AE35AC81BD81A29F34
:100DA000C001A39F900DB29F900D11246AE570E0E1
:100DB0000E949A3580918E0690918F06861797072C
:100DC00041F070938F0660938E0660EA81EB0E947B
:100DD000B7046CEF83E00E94B7048092770690928C
:100DE0007806A0927906B0927A0620927B0620912E
:100DF0008A0630918B0640918C0650918D06C30176
:100E0000B2010E94AE352450310941095E4F36953A
:100E1000322F22273795279530937D0620937C0625
:100E200020918A0630918B0640918C0650918D0658
:100E3000C0908A06D0908B06E0908C06F0908D06CC
:100E4000C301B2010E94AE352B013C01812C912CD3
:100E5000540169875A868B877C868D869E86AF86ED
:100E6000B88A9B01AC0160E070E080E090E007E1AF
:100E70000E94F5362A83398356016701E12CF12C53
:100E800000E010E02A8139810E945136C901DA015F
:100E900080937E0690937F06A0938006B093810690
:100EA00060960FB6F894DEBF0FBECDBFDF91CF9135
:100EB0001F910F91FF90EF90DF90CF90BF90AF9078
:100EC0009F908F907F906F905F904F903F902F906A
:100ED000089520918A0630918B0640918C0650919E
:100EE0008D06A7E0B0E00E941336A50194010E9490
:100EF000AE351901CFCE94E0292E312CCBCECF9335
:100F00006FEF83E00E94B70460E088E10E94B704BD
:100F100060E089E10E94B704C0E160E88C2F0E9484
:100F2000B704CF5FC831C9F760E08BEB0E94B7040C
:100F300060E085E90E94B70462ED87EBCF910C94E5
:100F4000B70480916401882319F05B9A789408951E
:100F50005B98FCCFF8949BB1907F9061892B8BB903
:100F60008BE090E00197F1F75C980E94A1078BEE6F
:100F700090E00197F1F70895CF93C82F82958F7075
:100F80000E94AA078C2F8F70CF910C94AA078CE037
:100F90000C94BC070F931F93CF93DF934091E4050C
:100FA000C0916301C41BDD0BE4EEF4E030E020E00F
:100FB0000FEF10E0C901B8010E948635640F6193FC
:100FC0002C0F3D1F85E0E43EF807A1F7DF91CF919C
:100FD0001F910F9108958091AB028F5B80680E94F2
:100FE000BC078EE00C94BC079091AB02980F9093D5
:100FF000AB029091AB02911103C098E09093AB02C9
:101000009091AB02993018F091E09093AB029091DF
:10101000AB02943021F09091AB02923029F4909180
:10102000AB02890F8093AB020C94EB0780917A009E
:10103000806480937A0080914B0480938A00809131
:101040007800909179002091650192502450330BE3
:1010500002C0880F991F2A95E2F7803E2FEF920772
:101060004CF0803E910514F08FED90E080968093D7
:101070004B04089580E0FBCF80917A0080648093D8
:101080007A008091E30580938A000E944A0480914F
:10109000780090917900925020914C0430914D0449
:1010A000BC01621B730B90934D0480934C04209100
:1010B0006501072E000C880B990B04C0660F771F83
:1010C000881F991F2A95D2F761382FEF7207820780
:1010D000920724F461E87FEF8FEF9FEF603871058E
:1010E0008105910524F06FE770E080E090E00C94BA
:1010F0004102089590917E00E1E0F0E0082E01C0E9
:10110000EE0F0A94EAF79E2B90937E0010927A00DD
:1011100010927B0010927C0090917C00892B809330
:101120007C0080917C0090E4611190EC892B80938D
:101130007C0068EB7BE787E190E00E94AE3580E0C1
:10114000369527952115310511F08F5FF9CF9091D4
:101150007A008770892B80937A0080917A0080686A
:1011600080937A0008958091220680937C0080917C
:101170007A00806480937A00209178003091790021
:101180002F5F31408091DB049091DC04820F931F2C
:10119000959587953093DC042093DB0420915B06C2
:1011A0002223A1F01092DA041092D9041092D604EE
:1011B0001092D5042091D9043091DA043093D804E8
:1011C0002093D70420E82093880008954091D70405
:1011D0005091D8042091D5043091D604240F351FA6
:1011E0003093D6042093D5046091D9047091DA0429
:1011F000460F571F5093D8044093D7043595279531
:1012000035952795359527953595279535952795C6
:101210002F37310524F02FEF2093880008952038D0
:101220004FEF340714F420E83FEF2058CCCF8091E3
:10123000210680937C00EAE7F0E08081806480836F
:1012400020917800309179002F5F314086E69BE055
:101250009093EF058093EE058091D3049091D40490
:101260004091D1045091D204480F591FCA01880FF0
:10127000991F840F951F820F931F4091CF045091A7
:10128000D004840F951F959587953093D4042093AF
:10129000D3042091CD043091CE044091CB045091E1
:1012A000CC04420F531F9A01220F331F240F351F06
:1012B000280F391F4091C9045091CA04240F351FCB
:1012C0003093C8042093C7049093CE048093CD0438
:1012D00008958091210680937C00EAE7F0E0808108
:1012E0008064808380917800909179002CEE39E0C1
:1012F0003093EF052093EE052091D1043091D20474
:101300003093D0042093CF048F5F91409093D20408
:101310008093D10408958091210680937C00EAE7B0
:10132000F0E08081806480832091780030917900A2
:101330002F5F314080E69AE09093EF058093EE05B1
:101340008091CB049091CC049093CA048093C904FB
:101350008091D3049091D4044091D1045091D2044F
:10136000480F591FCA01880F991F840F951F820FBC
:10137000931F4091CF045091D004840F951F9595F1
:1013800087959093CC048093CB043093D40420931E
:10139000D30408958091210680937C00EAE7F0E071
:1013A000808180648083809178009091790022EF21
:1013B0003AE03093EF052093EE052091D10430916F
:1013C000D2043093D0042093CF048F5F9140909348
:1013D000D2048093D10408958091220680937C00EA
:1013E00080917A00806480937A0020917800309117
:1013F00079002F5F31408091DB049091DC04820FF3
:10140000931F959587953093DC042093DB042091FE
:101410005B06222331F11092DA041092D904109263
:10142000D6041092D5042091D9043091DA04309377
:10143000D8042093D70420E82093880027E139E0DE
:101440003093EF052093EE052091C5043091C6043A
:101450003093C4042093C3049093C6048093C504BE
:1014600008954091D7045091D8042091D50430912B
:10147000D604240F351F3093D6042093D5046091F1
:10148000D9047091DA04460F571F5093D804409343
:10149000D704359527953595279535952795359515
:1014A0002795359527952F37310514F02FEFC4CFA9
:1014B00020384FEF340714F420E83FEF2058BCCF1A
:1014C0008091220680937C0080917A0080648093D2
:1014D0007A0080917800909179008F5F91402091FF
:1014E000DB043091DC04280F391F35952795909344
:1014F000DC048093DB0480915B06882309F443C0FD
:101500001092DA041092D9041092D6041092D504E5
:101510008091D9049091DA049093D8048093D704F1
:1015200080E88093880089E699E09093EF058093A6
:10153000EE058091C1049091C2049093C004809301
:10154000BF048091BD049091BE044091C5045091A8
:10155000C604480F591FCA01880F991F840F951F91
:10156000820F931F4091C3045091C404840F951FB0
:10157000959587959093C2048093C1043093BE04DF
:101580002093BD0408954091D7045091D8048091D0
:10159000D5049091D604840F951F9093D604809320
:1015A000D5046091D9047091DA04460F571F509307
:1015B000D8044093D70495958795959587959595EB
:1015C000879595958795959587958F37910514F013
:1015D0008FEFA7CF80384FEF940714F480E89FEF88
:1015E00080589FCF8091220680937C0080917A0062
:1015F000806480937A0020917800309179002F5F89
:1016000031408091DB049091DC04820F931F95950B
:1016100087953093DC042093DB0420915B06222322
:1016200031F11092DA041092D9041092D60410927B
:10163000D5042091D9043091DA043093D804209352
:10164000D70420E8209388002BE839E03093EF0599
:101650002093EE052091C5043091C6043093C40454
:101660002093C3049093C6048093C50408954091C9
:10167000D7045091D8042091D5043091D604240F7A
:10168000351F3093D6042093D5046091D90470910E
:10169000DA04460F571F5093D8044093D70435956A
:1016A0002795359527953595279535952795359522
:1016B00027952F37310514F02FEFC4CF20384FEF87
:1016C000340714F420E83FEF2058BCCF2F923F920C
:1016D0004F925F926F927F928F929F92AF92BF9242
:1016E000CF92DF92EF92FF920F931F93CF93DF93EE
:1016F0000E94B3082AEC39E03093EF052093EE0501
:101700002091BD043091BE044091C5045091C6049F
:10171000420F531F9A01220F331F240F351F280F2A
:10172000391F4091C3045091C404240F351F3595CF
:1017300027959093BE048093BD048091BB04909143
:10174000BC044091C1045091C204480F591FCA0102
:10175000880F991F840F951F820F931F4091BF041C
:101760005091C004840F951F3093BC042093BB0498
:10177000A091C704B091C80430915B063111CFC16C
:101780004091B9045091BA042091B7043091B80443
:10179000BA01621B730B2091B5043091B604FB01B2
:1017A000E21BF30BF093DA04E093D904C091B40484
:1017B0003C2FCF5FC093B404311107C0789440919F
:1017C000B9045091BA04C091B4047093B604609304
:1017D000B5045093B8044093B70430916C015D0197
:1017E00002C0B594A7943A95E2F795014091AF02F3
:1017F000443009F4BDC04091AF02433009F4B8C091
:10180000C0909C04D0909D048090B0049090B1044E
:10181000E090A004F090A104A090AC04B090AD04BE
:10182000F701EA19FB090091A4041091A504A09105
:10183000A804B091A904A8014A1B5B0B609098040E
:1018400070909904621A730AB60168197909660FD3
:10185000771F660F771F660E771E77FE03C06FE354
:10186000660E711C062C672C000C661C7708000C99
:10187000661C771CBF01640F751F77FF02C0695F8C
:101880007F4F759567957595679575956795660E04
:10189000771EBF01660F771F660F771F6E0F7F1FC2
:1018A000641B750B77FF02C061587F4F660F672F6F
:1018B000661F770B660E771E57FF02C04F5F5F4FA4
:1018C00055954795640E751E40919A0450919B045E
:1018D0005093990440939804D0929B04C0929A0428
:1018E00040919E0450919F0450939D0440939C040A
:1018F000F0929F04E0929E044091A2045091A304B0
:101900005093A1044093A0041093A3040093A20455
:101910004091A6045091A7045093A5044093A404B9
:10192000B093A704A093A6044091AA045091AB04DD
:101930005093A9044093A804B092AB04A092AA04C7
:101940004091AE045091AF045093AD044093AC0469
:101950009092AF048092AE044091B2045091B304CF
:101960005093B1044093B0043093B3042093B20475
:1019700040916C0102C0959587954A95E2F7909346
:10198000F4058093F30530939704209396044091D7
:1019900088045091890420918A0430918B043093FB
:1019A00089042093880420918C0430918D04309315
:1019B0008B0420938A0420918E0430918F043093FD
:1019C0008D0420938C0420919004309191043093E5
:1019D0008F0420938E0420919204309193043093CD
:1019E00091042093900420919404309195043093B5
:1019F000930420939204909395048093940490917F
:101A0000AF02943009F4DBC18091AF02833009F456
:101A10009BC0519541955109461957098A019091EA
:101A20007B04DFEFD90FD0937B04C0907704D09074
:101A30007804E0907904F0907A049111AFC0C092DC
:101A40000806D0920906E0920A06F0920B06109260
:101A50007704109278041092790410927A0480919D
:101A60001001813009F4B6C0809196028E300CF0DE
:101A700003C1209196028DE090E0821B910927FD21
:101A8000939502C0559547958A95E2F78091990202
:101A90008111FFC080915C0681111BC1C09073044D
:101AA000D0907404E0907504F0907604DF7309F030
:101AB000CAC0C092FC05D092FD05E092FE05F092EE
:101AC000FF05109273041092740410927504109222
:101AD000760441156EEF560714F440E05EEF4115B1
:101AE00072E0570714F04FEF51E05093BA0440935F
:101AF000B904C150C093B404DF91CF911F910F91ED
:101B0000FF90EF90DF90CF90BF90AF909F908F901D
:101B10007F906F905F904F903F902F90089510921C
:101B2000BA041092B9041092B8041092B70410923B
:101B3000B6041092B50410925B06F0E0E0E070E0AD
:101B400060E050E040E02ECE0091F3051091F405E6
:101B50008091960490919704119501951109081BA5
:101B6000190B80917E04882309F42FC280917C0494
:101B700090917D042091F3053091F405289FA001F8
:101B8000299F500D389F500D11248091F30590919D
:101B9000F40590937D0480937C0441CFC80117FF26
:101BA00004C088279927801B910B092E000CAA0BD3
:101BB000BB0B8C0D9D1DAE1DBF1D809377049093B4
:101BC0007804A0937904B0937A0480911001813055
:101BD00009F04ACF8091020190910301811574E0D0
:101BE000970774F09C01232F330F330B2595259510
:101BF000FA01E29FA001E39F500DF29F500D1124C6
:101C0000252F25952595352F330F330B37FDECC147
:101C100061E070E05B01A21AB30A6FEF7FE7681B17
:101C2000790BA616B70634F48A0D9B1D9093030119
:101C300080930201181619060CF0CFC1209196026C
:101C400080E190E01ACFC80117FF03C091958195FC
:101C50009109092E000CAA0BBB0B8C019D010C0DE8
:101C60001D1D2E1D3F1D00937304109374042093BB
:101C70007504309376042DCF809196028D5002C06A
:101C8000440F551F8A95E2F780919902882309F441
:101C900001CFE0915F04F091600420919902CA01A4
:101CA0008E1B9F0B2150330B61E070E002C0660F6A
:101CB000771F2A95E2F70E949A35AB014E0F5F1FFE
:101CC0005093600440935F0480915C06882309F47C
:101CD000E5CE80915C06E0906B04F0906C04C090BF
:101CE0006F04D0907004873008F0C1C080917104F7
:101CF0009091720450937204409371049A01281BCE
:101D0000390B6EE1629FC001639F900D112469E160
:101D1000649F9001659F300D1124820F931F97FDE2
:101D20004F969595879595958795959587959595D2
:101D300087959595879520915C06233009F4D3C348
:101D400008F456C1253009F4AEC308F40FC226309A
:101D500009F02AC29601220F331F280F391F409124
:101D60006D0450916E04240F351F37FF02C02F5FA2
:101D70003F4FD901B595A7956091690470916A04A8
:101D8000EBE0E69F5001E79FB00C1124EFEE4E2FE1
:101D900097014203B001439F700D1124A501460F26
:101DA000571F57FF02C0415F5F4F559547955595A7
:101DB000479555954795559547959D014BC1009180
:101DC000F3051091F4058091960490919704119574
:101DD00001951109081B190B8091F3059091F405E9
:101DE0006091F3057091F405181619061CF07195B1
:101DF00061957109809196049091970420919604C1
:101E000030919704181619061CF031952195310967
:101E10002617370734F1759567957B01E20EF31E9F
:101E2000C0908604D0908704B6010D2C000C880B5E
:101E3000990B0E946C3322E739EF4FE75FE30E9472
:101E4000D1340E9434339701220F331FC901860F0A
:101E5000971FAC014C195D09909387048093860409
:101E6000DECD359527957901E60EF71ED9CF809105
:101E70005C06853009F418C208F4F8C1863009F40C
:101E80005AC1873009F09DC22091690430916A04DB
:101E9000A3ECBFEF0E94F5354B015C012EE630E06C
:101EA000D7010E940C36860E971EA81EB91EB7FEDB
:101EB00005C07FE3870E911CA11CB11CC501B401B4
:101EC000E6E09595879577956795EA95D1F7F601C0
:101ED000E60FF71FF0936804E093670480915C06B7
:101EE000A0906504B0906604853009F43AC208F405
:101EF00089C1863009F4F8C1873009F0F0C1C70103
:101F0000880F991F4F01881A990A20906904309010
:101F10006A04820C931C97FE03C02FE1820E911C71
:101F200095948794959487949594879495948794A1
:101F3000959487942091630430916404A2ECBFEFE0
:101F40000E94F5352B013C0120E730E0D5010E94CD
:101F50000C36460E571E681E791E77FE05C03FE3FD
:101F6000430E511C611C711C96E075946794579444
:101F700047949A95D1F7480C591C509262044092AC
:101F80006104B0926404A09263045092660440928B
:101F90006504F0926A04E0926904F0936C04E093A3
:101FA0006B04D0926E04C0926D0450937004409301
:101FB0006F04A20157FE02C0495F5F4F55954795D8
:101FC000559547955595479569CD8091F305909125
:101FD000F40521E020937E04CDCD81E090E0909344
:101FE0000301809302012ACE31952195310910CE4B
:101FF000213008F4D9C09601220F331F280F391F52
:1020000040916D0450916E04240F351F37FF02C0BC
:102010002F5F3F4F359527956091690470916A0451
:10202000EBE0E69FA001E79F500D1124EDE0EE9D4F
:10203000B001EF9D700D1124460F571F57FF02C0CE
:10204000415F5F4F559547955595479555954795F0
:1020500055954795241B350B3093680420936704EE
:1020600040915C06E0916504F0916604433009F408
:10207000D1C108F49EC0453009F4A8C108F4F1C1EB
:10208000463009F0E9C1A701440F551F420F531F05
:102090006091690470916A04460F571F57FF02C090
:1020A0004D5F5F4F559547955595479560916304F2
:1020B00070916404DB01AA0FBB1FAA0FBB1FAA0FFC
:1020C000BB1FA60FB71FBF01660F771F660F771FD5
:1020D000660F771F5F01A61AB70AB501660F771F53
:1020E000A60FB71FB7FD1F96B595A795B595A795F0
:1020F000B595A795B595A7954A1B5B0B50936204C0
:1021000040936104F0936404E09363045093660485
:1021100040936504F0926A04E092690430936C0481
:1021200020936B04D0926E04C0926D04909370045F
:1021300080936F04B3CC2091690430916A04A2ECBF
:10214000BFEF0E94F5354B015C012EE630E0D70170
:102150000E940C36860E971EA81EB91EB7FEAECE84
:102160006FE3860E911CA11CB11CA8CE9601220F14
:10217000331F280F391F40916D0450916E04240FB6
:10218000351F37FF02C02F5F3F4F35952795409190
:10219000690450916A0457FF02C04D5F5F4F559527
:1021A00047955595479556CF20916704309168041F
:1021B00057CF413008F450C1A701440F551F420FBB
:1021C000531F6091690470916A04460F571F57FFAF
:1021D00002C04F5F5F4F55954795609163047091C2
:1021E0006404BBE0BB2EB69ED001B79EB00D112497
:1021F000BF01660F771F660F771F660F771F6E0F81
:102200007F1F6CCF843009F06AC020916304309145
:102210006404ACECBFEF0E94F5352B013C012FE5C7
:1022200030E0D5010E940C36460E571E681E791EFE
:1022300077FE05C08FE3480E511C611C711C36E00F
:1022400075946794579447943A95D1F7C701880FCE
:10225000991F9F01281B390BC901209169043091F6
:102260006A04820F931F480E591E87CE843009F0EE
:10227000A8C02091690430916A04A7ECBFEF0E94C6
:10228000F5354B015C0122E730E0D7010E940C36A6
:10229000860E971EA81EB91EB7FE10CE2FE3820E23
:1022A000911CA11CB11C0ACE2091690430916A04D2
:1022B000A4ECBFEF0E94F5354B015C0121E730E053
:1022C000D7010E940C36860E971EA81EB91EB7FEB7
:1022D000F5CD3FE3830E911CA11CB11CEFCD4090C6
:1022E0006104509062044DCEC701880F991F1F01F1
:1022F000281A390A8090690490906A04280C391CC5
:1023000037FE03C07FE0270E311C359427943594A7
:102310002794359427943594279420916304309121
:102320006404A2ECBFEF0E94F5352B013C0121E7CC
:1023300030E0D5010E940C36460E571E681E791EED
:1023400077FE05C08FE3480E511C611C711C66E0CE
:1023500075946794579447946A95D1F7420C531C2F
:102360000CCEC701880F991F4F01881A990A8091D6
:10237000690490916A04880E991E97FE03C033E0A9
:10238000830E911C9594879495948794209163046F
:1023900030916404A5ECBFEF0E94F5352B013C01A0
:1023A0002AE630E0D5010E940C36460E571E681E04
:1023B000791E77FED9CD6FE3460E511C611C711C4E
:1023C000D3CDE0916704F091680488CDA701440F54
:1023D000551F420F531F6091690470916A04460FA4
:1023E000571F57FF02C04D5F5F4F55954795559555
:1023F00047956091630470916404DB01AA0FBB1FD1
:10240000AA0FBB1FA60FB71FBF01660F771F660F6E
:10241000771F60CEA701440F551F420F531F6091D5
:10242000690470916A04460F571F57FF02C04D5F41
:102430005F4F5595479555954795A0916304B09189
:102440006404AA0FBB1FAE0FBF1FB7FD1396B5954F
:10245000A795B595A79550CE40916104509162041F
:1024600051CEA701440F551F420F531F60916904BD
:1024700070916A04460F571F57FF02C04D5F5F4FB0
:1024800055954795559547956091630470916404FF
:1024900077FF02C06D5F7F4F75956795759567955E
:1024A000461B570B2BCE9601220F331F280F391FC7
:1024B00040916D0450916E04240F351F37FF02C008
:1024C0002F5F3F4FD901B595A79560916904709131
:1024D0006A04AB01440F551F460F571F5A01AA0C3F
:1024E000BB1CE6EF54CC9601220F331F280F391F77
:1024F00040916D0450916E04240F351F37FF02C0C8
:102500002F5F3F4F359527954091690450916A049C
:10251000440F551F440F551F4E0D5F1D57FF02C03E
:10252000495F5F4F55954795559547955595479503
:1025300091CD8091E30580938A00E091930284E03D
:10254000E89FF0011124EC52FD4F2081318142813E
:102550005381AEE1B3E00E94133620EC32E140E05B
:1025600050E00E94AE358091000130914A0428026B
:10257000C0011124EFE7F0E0BF010E949A35360F49
:1025800030934A0480914A04309100012802C0012E
:102590001124BF010E949A35361B309300018091AF
:1025A00001018823A1F080914A0440910101082E85
:1025B000000C990B20E130E0241B310902C09595F5
:1025C00087952A95E2F7805880938800089580E8DF
:1025D000FBCF0F931F93CF93DF93E7E2F4E025E463
:1025E00034E042815381419351932E173F07C9F73D
:1025F0009C01220F331F4091250450912604240F83
:10260000351F440F551F841B950BE3E0F0E0BF011D
:102610000E949A35709326046093250480912304C8
:1026200090912404880F991F820F931FBF010E946D
:102630009A357093240460932304261B370B309340
:102640004604209345048091350490913604FC01A2
:10265000EE0FFF1F40913304509134046091370412
:1026600070913804461B570B20912B0430912C0499
:1026700060913F0470914004261B370B220F331FDB
:10268000220F331F6091270470912804A091430406
:10269000B09144046A1B7B0B260F371F220F331F98
:1026A00060912F0470913004A0913B04B0913C04E0
:1026B0006A1B7B0BC5E1C69FD001C79FB00D1124DB
:1026C0002A0F3B1FBA0114E0660F771F1A95E1F736
:1026D000260F371F37FF02C0215C3F4F66E035955C
:1026E00027956A95E1F7240F351FE230F10544F490
:1026F000CF01F7FD01969595879591958195910963
:10270000B9012230310594F07595679568177907FE
:102710003CF1E230F1050CF4EEC0CF01B3E0959549
:102720008795BA95E1F7860F971F22C037FF02C041
:102730006F5F7F4F75956795719561957109681702
:1027400079073CF7A90137FF02C0495F5F4FC3E03B
:1027500055954795CA95E1F751954195510906C0A0
:10276000A901D3E055954795DA95E1F7840F951FB8
:10277000409166014817190608F0CEC040916C06DA
:102780004111C8C04FEF40936C064091650102C0F3
:10279000880F991F4A95E2F78F3F910509F020F4C1
:1027A00040916501483011F48FEF90E040916C0644
:1027B000442309F4BAC08C519B4FDC018C91809367
:1027C0004B04E90137FF04C0CC27DD27C21BD30B24
:1027D0008F01F7FF04C0002711270E1B1F0B0C17DA
:1027E0001D070CF0A4C045EE4003C001419F900DB1
:1027F0001124BE010E949A356A597F4F609FC00123
:10280000619F900D709F900D1124BE010E949A351A
:10281000CB0166E970E0681B790BF7FF06C08CE21C
:1028200091E0DC01A61BB70BBD0137FF03C071951A
:102830006195710980912104909122049B01281BCC
:10284000390B709322046093210437FF02C0285A89
:102850003D4F2C32B1E03B076CF08091E0048823BF
:1028600049F02C5231409091490481E0911180E06F
:102870008093490480915C06882309F474C0809198
:102880005C06833009F472C08CE291E082179307F2
:1028900014F580915C06882309F46BC080915C0676
:1028A000833009F469C08CE291E0281B390B621B6C
:1028B000730B709322046093210480915C0628E5D9
:1028C00032E0882341F080915C062CE231E08330D5
:1028D00011F426E930E08091AF02813009F04FC059
:1028E000C90123E0880F991F2A95E1F7DF91CF9165
:1028F0001F910F910895AF01F7FF02C0495F5F4F2D
:10290000A3E055954795AA95E1F788279927841B59
:10291000950B09CF4EEF37CF40916C06442309F455
:1029200034CF40916C0641502ECF80E048CF70E00C
:1029300060E0309709F479CF45EEBE014603C0014F
:10294000479F900D1124B8010E949A356A597F4F14
:102950006C9FC0016D9F900D7C9F900D1124B8015C
:102960000E949A355ACF88E592E090CF86E990E0B0
:102970008DCF88E592E099CF86E990E096CF48EF39
:102980004203C001439F900D1124B0CFCF93DF933A
:10299000C0917800D091790080917A008064809312
:1029A0007A000E944A048091E004882341F08091DB
:1029B00049046FE081116FE182E10E94B7048091C8
:1029C0004B0480938A008091780090917900C80F21
:1029D000D91F80917A00806480937A0080914704A7
:1029E000909148040E94E91220917800309179007A
:1029F000C20FD31F20917A00206420937A00BC017B
:102A0000990F880B990B0E94410220917800309118
:102A1000790090917A00906490937A00CE01820FB1
:102A2000931F97FD03969595879595958795805E5D
:102A30009140909348048093470480916C068130C4
:102A400031F410928A006FEF83E00E94B704809106
:102A50006C068F3F31F46BEF83E0DF91CF910C94E4
:102A6000B704DF91CF910895F8948BB1807F806196
:102A7000962F92959F70892B8BB98BB1807F806147
:102A80006F70682B3C9800005C986BB93C9A3C983E
:102A900000005C983C9A0E94A1078BEE90E00197A1
:102AA000F1F781E090E00895682F80E996E00C94BA
:102AB00034158F929F92AF92BF92CF92DF92EF9296
:102AC000FF92CF93C091F50580915E04C81709F479
:102AD0007AC08091730681110DC00E94C7078FECE8
:102AE0000E94BC0782E5C11101C080E20E9454151A
:102AF0000E94EB0780904E0490904F04A0905004E9
:102B0000B0905104CC2309F493C00E942B0460932D
:102B10005A0470935B0480935C0490935D040E945C
:102B20002B04C0905604D0905704E0905804F090C5
:102B300059049B01AC012C193D094E095F0969013B
:102B40007A01C0925204D0925304E0925404F0925D
:102B5000550480917606823030F1D501C401880F8A
:102B6000991FAA1FBB1F8C159D05AE05BF05D8F484
:102B70000E94BB0260EB74E080E090E0A50194014C
:102B80000E94AE35CA01B901A2E0660F771F881F07
:102B9000991FAA95D1F723E030E040E050E00E9471
:102BA000AE3520936B01A5E0B0E0A50194010E9431
:102BB0001336C616D706E806F90628F081E080939A
:102BC00076060E94BB020E942B04C0905604D0904F
:102BD0005704E0905804F09059049B01AC012C1963
:102BE0003D094E095F0969017A0120914E04309137
:102BF0004F044091500450915104A6E0B0E00E946F
:102C000013366C157D058E059F0530F48091760690
:102C1000823010F00E94BB02C0935E04CF91FF90FF
:102C2000EF90DF90CF90BF90AF909F908F900895DE
:102C30000E942B04609356047093570480935804A9
:102C4000909359040E942B04C0905A04D0905B04C6
:102C5000E0905C04F0905D049B01AC012C193D09EF
:102C60004E095F0969017A01D501C401880F991FD6
:102C7000AA1FBB1FC816D906EA06FB0620F0892842
:102C80008A288B28A1F4BC01CD016C0D7D1D8E1D01
:102C90009F1D23E030E040E050E00E94AE352093DD
:102CA0004E0430934F0440935004509351042091AC
:102CB0004E0430914F044091500450915104A5E0CE
:102CC000B0E00E9413366C157D058E059F0580F4DB
:102CD000C701B60123E030E040E050E00E94AE358D
:102CE00020934E0430934F0440935004509351046A
:102CF00040914E0450914F046091500470915104E2
:102D0000DB01CA01B695A795979587958C159D050A
:102D1000AE05BF0508F057CF8091760690E0880F8A
:102D2000991F440F551F661F771F21E04C155D0545
:102D30006E057F0508F020E0822B8093760643CF56
:102D40000F931F93CF93DF938C01D0E0C0E0F80185
:102D5000EC0FFD1F6491662341F080E996E00E942C
:102D60003415892B11F02196F2CFCE01DF91CF914E
:102D70001F910F91089582EC90E00C94A0160F9390
:102D80001F93CF93C62F8A018130A1F580E80E945E
:102D9000BC078C2F82958F70CF708A3021F481E32D
:102DA0000E94541580E0805D0E9454158EE20E94BE
:102DB0005415CA3020F0CA5081E30E94541580E3B4
:102DC0008C0F0E94541580E20E945415C8010E9485
:102DD000A0160E94BB160E94BB1680EC0E94BC0786
:102DE00080917306823098F08EE3CF911F910F91FE
:102DF0000C94541580EC0E94BC07C8010E94A016D8
:102E00008FEC90E0CF911F910F910C94A016CF9171
:102E10001F910F910895089590E080E008950F9319
:102E20001F93CF93DF9390E080E00E947904D0E07D
:102E3000C0E001E010E0C8010C2E02C0880F991F0D
:102E40000A94E2F78095909581600E9479046EE182
:102E500070E080E090E00E94F80390E080E00E9443
:102E600079042196C031D10531F7DF91CF911F91BF
:102E70000F910895FC0101900020E9F73197AF010F
:102E8000481B590BBC0180E996E00C94D8028F9244
:102E90009F92AF92BF920F931F93CF93DF93CDB7C3
:102EA000DEB7A1970FB6F894DEBF0FBECDBF19A253
:102EB000423008F44AE08E010F5D1F4F842E912CA2
:102EC000B12CA12CA50194010E94AE35E62FB901C9
:102ED000CA01EA30F4F4E05DD801EE938D01232BB2
:102EE000242B252B79F790E080E0109719F0CD0185
:102EF0000E943A17A1960FB6F894DEBF0FBECDBF61
:102F0000DF91CF911F910F91BF90AF909F908F90C5
:102F10000895E95CE1CFCF92DF92EF92FF92CF93D9
:102F2000DF9397FF19C06B017C018DE20E9454155D
:102F3000EC0166277727CB016C197D098E099F0963
:102F40004AE00E9447178C0F9D1FDF91CF91FF90A1
:102F5000EF90DF90CF9008954AE0DF91CF91FF90FE
:102F6000EF90DF90CF900C944717009711F00C94DE
:102F70003A1790E080E008954F925F926F927F92AF
:102F80008F929F92AF92BF92CF92DF92EF92FF9279
:102F90000F931F93CF93DF934B015C0180EC0E9452
:102FA000BC078091570690915806A0915906B091A0
:102FB0005A06892B8A2B8B2B09F040C0409156066C
:102FC0003091560620916C0681E090E0323011F08D
:102FD00090E080E030E082239323417020E0842B56
:102FE000922B892B69F586E00E9454158091570633
:102FF00090915806A0915906B0915A06892B8A2BB8
:103000008B2B01F180916C0681111CC080905706BA
:1030100090905806A0905906B0905A068BEC90E01C
:103020000E94A0168091570690915806A0915906CB
:10303000B0915A06B7FF83C08DE282C080E2D4CF40
:1030400087E0D2CFC501B40120E836E948E950E075
:103050000E94D035232B242B252B09F47AC040E87D
:10306000C42E46E9D42E48E9E42EF12C9AE0492EEC
:10307000512C612C712CC501B401A70196010E944D
:10308000D0358B01D82FC92F57FF07C050954095D9
:10309000309521953F4F4F4F5F4FCA01B9010E94B4
:1030A0008B1788EEC81683E0D806E104F10441F0DE
:1030B00020E4C21622E4D2062FE0E206F10419F45D
:1030C0008CE20E9454154801AD2EBC2EC701B601FA
:1030D000A30192010E94D03569017A0181E0C816EE
:1030E000D104E104F10439F680E20E945415E09124
:1030F000AF02F0E0EE0FFF1FE75AFE4F8081918193
:103100000E94B51780E20E9454158FEC0E94BC0704
:1031100080917106811128C082E5DF91CF911F91C6
:103120000F91FF90EF90DF90CF90BF90AF909F9066
:103130008F907F906F905F904F900C9454158BE21E
:103140000E94541538EEC32E33E0D32EE12CF12C1F
:103150008DCF80E20E94541520E4C22E22E4D22EAC
:103160002FE0E22EF12C82CF86E5D7CF4F925F92EF
:103170006F927F928F929F92AF92BF92CF92DF9287
:10318000EF92FF926B017C01AC019B010E943E35E6
:10319000882381F084E393E0FF90EF90DF90CF905D
:1031A000BF90AF909F908F907F906F905F904F9067
:1031B0000C943A1746015701E894B7F82FEF3FEF08
:1031C0004FE75FE7C501B4010E943E3581110DC094
:1031D0002FEF3FEF4FE75FE7C501B4010E94BD321B
:1031E00018161CF488E393E0D7CF2FEF3FEF4FE79B
:1031F0005FE4C701B6010E94743418161CF48CE316
:1032000093E0CACF2FEF3FEF4FE75FECC701B60166
:103210000E94BD3287FDF3CF20E030E0A901C70155
:10322000B6010E94BD32B12CA12C87FF08C08DE2EF
:103230000E9454155C01F7FAF094F7F8F0942AE034
:1032400037ED43EA5BE3C701B6010E9451322B011F
:103250003C010E943B336B017C010E946A339B015D
:10326000AC01C301B2010E9450322B013C014AE083
:10327000C701B6010E9447177C01EA0CFB1C8EE2D5
:103280000E945415E80EF91E20E030E040E251E4BF
:10329000C301B2010E94D1342B013C010E943B3397
:1032A0004B01B12CA12C4AE0C501B4010E94471783
:1032B000E80EF91EC501B4010E946A339B01AC01FE
:1032C000C301B2010E94503220E030E040E251E4FC
:1032D0000E94D1340E943B3390E080E04AE00E949B
:1032E00047178E0D9F1DFF90EF90DF90CF90BF90FE
:1032F000AF909F908F907F906F905F904F900895C8
:10330000CF93DF93282FCB016091E2047091E30407
:10331000C42FD0E0233079F0243089F04091E204CA
:103320005091E304C40FD51FD093E304C093E2048B
:10333000DF91CF910895AE010E942832EFCFAE0108
:103340000E943832EBCFEF92FF920F931F93CF93EF
:103350007B01642F843009F48BC058F4823098F0DC
:1033600040E2B701CF911F910F91FF90EF900C9425
:1033700080198630A9F780917406803218F48F5F27
:103380008093740681E090917306933011F010924F
:10339000740690917306923019F493E0909373063B
:1033A000C0917406D701AC0FB11D9C91E92F092E75
:1033B000000CFF0B409172068F01040F111D47FD99
:1033C0001A9500321105BCF0409172068F01040F6E
:1033D000111D47FD1A95012B71F040917206E40F03
:1033E000F11D47FDFA95EB35F1050CF03FC040911A
:1033F0007206940F01C090E29C9310927206A9018C
:103400000E94BF160C2F06950695069588E0089F2A
:10341000800111240E0D1F1DF12CE12CF80181916A
:103420008F01882349F00E945415FFEFEF1AFF0A1D
:103430008DE0E816F10491F781E00E9454150E9496
:10344000BB16909173068C2F8770805CC1E0923020
:1034500008F4C0E08C0F80680E94BC078EE0CF911A
:103460001F910F91FF90EF900C94BC079AE5C4CF89
:10347000F701B09692919F7D09F072CF1082EE16FF
:10348000FF06C1F76DCF4F925F926F927F928F923E
:103490009F92AF92BF92CF92DF92EF92FF920F93E3
:1034A0001F93CF93DF93CDB7DEB7FB01823008F0D7
:1034B00063C0908140907206042C000C5508660889
:1034C0007708490E511C611C711C4C145D046E047C
:1034D0007F046CF5C0826901F42E5F01E82E109222
:1034E00072060E94C707A6016F2D8E2D0E94BF167F
:1034F000F50101151105A1F5608170E090E080E013
:103500004AE00E9447170E94BB16DF91CF911F919E
:103510000F91FF90EF90DF90CF90BF90AF909F9072
:103520008F907F906F905F904F900C94BB1690811E
:10353000C09072060C2C000CDD08EE08FF08C90EC6
:10354000D11CE11CF11C8C149D04AE04BF0414F4C6
:103550008082C1CF508190917206950F9083BBCF2E
:10356000808190E0880F991F080F191FF801808152
:1035700091810E94B517C7CF41E0DF91CF911F9194
:103580000F91FF90EF90DF90CF90BF90AF909F9002
:103590008F907F906F905F904F900C9480194F9216
:1035A0005F926F927F928F929F92AF92BF92CF92D3
:1035B000DF92EF92FF920F931F93CF93DF93EB0174
:1035C000823008F076C0488059806A807B80909174
:1035D0007206892E990F9908AA08BB08840C951CBD
:1035E000A61CB71CB7FE2EC0188219821A821B8235
:1035F0006901F42EE82E109272060E94C707A601F8
:103600006F2D8E2D0E94BF160115110509F043C0C4
:10361000688179818A819B810E948B170E94BB16E9
:10362000DF91CF911F910F91FF90EF90DF90CF909E
:10363000BF90AF909F908F907F906F905F904F90D2
:103640000C94BB16488059806A807B8090917206EA
:10365000892E990F9908AA08BB08840C951CA61CF2
:10366000B71CC814D904EA04FB042CF4C882D9821C
:10367000EA82FB82BDCF88809980AA80BB8090912E
:103680007206C92E990FDD08EE08FF08C80CD91C78
:10369000EA1CFB1CEBCF88819981AA81BB81880F32
:1036A000991F080F191FF801808191810E94B51799
:1036B000B5CF44E0DF91CF911F910F91FF90EF9034
:1036C000DF90CF90BF90AF909F908F907F906F9042
:1036D0005F904F900C94801980E80E94BC07809105
:1036E000E004882321F181E78093450380911C0643
:1036F000882391F01F928F9388E493E09F938F9398
:1037000085E493E09F938F930E940E370F900F9064
:103710000F900F900F900F9080E493E00E94B517E8
:1037200081E00E9454150E94BB160C94BB1680E2E7
:10373000DBCF8F929F92AF92BF92CF92DF92EF92A8
:10374000FF920F931F93CF93DF93C82FD62FEDEFE8
:10375000BE2EB80E00E511E021E02B1580F010938D
:10376000E3040093E204AA24A394AD1640F46A2D66
:1037700085E00E94991BA394F8CFDFE2EDCFDF3FF5
:1037800059F5D1E06D2F8C2F0E94991BDF5FDE333E
:10379000C9F76BEC6D0F693008F09CC3A62EB12CF5
:1037A000B501660F771F660F771F6F5C794FC12CCD
:1037B000D12C760110E000E030E020E040E08C2FDA
:1037C0000E94CF1AB501685D794F812C912C54016C
:1037D00030E020E040E0BAC0D533D8F6ED2FF0E07D
:1037E000EC50F44E0C94EF35621F291C971CAA1C58
:1037F000BA1CCB1CDB1CEA1CF91C081DC91B181DBC
:10380000281DC91B381DC91BC91B471D561DC91BB7
:10381000C91BC91BC91BB31DC21DD21DC91BC91B96
:10382000E21DF21DFB1D011E071E0D1E131E191E9B
:103830002E1E401EB21EC91BC21EC91BC91BC91B9E
:10384000C91BC91BC91BD11EE01EEB1EF61E041F9F
:10385000121FC23008F064C0809196024091720637
:10386000082E000C990BAA0BBB0B042E000C550B59
:10387000660B770B840F951FA61FB71F8F3F9F4FB7
:10388000AF4FBF4F7CF58FEF809396021092720678
:103890000E94C7074DE951E061E18C2F0E94BF16DD
:1038A0008091960287FD03C08BE20E9454156091BF
:1038B0009602062E000C770B880B990B0E948B1733
:1038C0000E94BB160E94BB168D2FDF91CF911F91D6
:1038D0000F91FF90EF90DF90CF90BF90AF909F90AF
:1038E0008F9008958091960240917206082E000CE8
:1038F000990BAA0BBB0B042E000C550B660B770B18
:10390000840F951FA61FB71F4197A105B10514F09D
:1039100080E1BACF8091960290917206890FB4CF60
:1039200041E066E972E08C2F0E948019CDCF74E0EF
:10393000872E912CA12CB12CC12CD12C760109E51C
:1039400011E028E931E042E16FEA72E08C2F0E9439
:10395000431ABACF6AE0862E912CA12CB12CC12C2F
:10396000D12C760103E411E025E931E043E16CE577
:1039700076E0ECCF49E0842E912CA12CB12CC12C07
:10398000D12C7601C3940DE211E020E931E044E14D
:1039900068E972E0DBCF39E0832E912CA12CB12CA9
:1039A000C12CD12C760109E111E02BE831E045E191
:1039B0006BEA72E0CBCF812C912C54018394C12C03
:1039C000D12C760105E111E027E831E046E166E51A
:1039D00076E0BCCFC12CD12C7601C39401E111E07B
:1039E00023E831E047E167E576E08C2F0E94CF1AAB
:1039F0006BCF812C912C54018394C12CD12C760156
:103A000001E111E02FE731E048E160E171E09ECF94
:103A100000E1802E912CA12CB12CC12CD12C76014F
:103A200010E000E02CE731E049E169E972E08ECF77
:103A300010E1812E912CA12CB12CC12CD12C76011E
:103A400010E000E028E731E04BE16CE671E07ECF6A
:103A5000B4E08B2E912CA12CB12CC12CD12C760151
:103A600006E011E020E731E04CE16DEA72E06ECF54
:103A7000812C912C54018394C12CD12C760101E12D
:103A800011E025E631E041E26EEA72E05FCF812C81
:103A9000912C54018394C12CD12C760101E111E0C9
:103AA0002CE531E044E261EE74E050CFC23008F022
:103AB00056C080916F019091700140917206092E5D
:103AC000000CAA0BBB0B042E000C550B660B770BDE
:103AD000840F951FA61FB71F181619061A061B0676
:103AE000CCF081E090E09093700180936F01109290
:103AF00072060E94C70743E551E065E28C2F0E94E1
:103B0000BF1660916F0170917001072E000C880B39
:103B1000990BD4CE80916F01909170014091720603
:103B2000092E000CAA0BBB0B042E000C550B660BC8
:103B3000770B840F951FA61FB71F4F97A105B105DF
:103B40001CF08EE190E0CFCF80916F0190917001D9
:103B500020917206820F911D27FD9A95C4CF42E0F5
:103B60006FE671E0E0CE812C912C54018394C12C3E
:103B7000D12C760101E111E02FE431E041E361E76E
:103B800076E0E4CE70E5872E912CA12CB12CC12CCF
:103B9000D12C760110E000E028E431E042E366E653
:103BA00071E0D4CE60E1862E912CA12CB12CC12CD9
:103BB000D12C760110E000E02FE331E043E365E62D
:103BC00071E0C4CE58EC852E912CA12CB12CC12CC7
:103BD000D12C760110E000E022E331E041E461E71E
:103BE00071E0B4CE29E231E042E462E771E08C2F6B
:103BF0000E94A31969CE20E231E043E462EA71E059
:103C0000F6CF27E131E044E462ED71E0F0CF2EE041
:103C100031E045E462E072E0EACF25E031E046E4DD
:103C200062E372E0E4CF2CEF30E047E462E672E05A
:103C3000DECF80906301882D8150990B4C01092CB7
:103C4000000CAA08BB08C12CD12C760110E000E0C2
:103C500024EF30E041E864EE75E078CEC090E405F2
:103C6000D12CF12CE12C4AEA842E912CA12CB12CE0
:103C700010E000E02CEE30E042E863E671E066CE52
:103C8000C23008F06BC080918A0690918B06A0919B
:103C90008C06B0918D0640917206042E000C550BD7
:103CA000660B770B840F951FA61FB71F80389F499F
:103CB000A54DB10514F580E89FE9A5EDB0E080932E
:103CC0008A0690938B06A0938C06B0938D06109273
:103CD00072060E94C70744EE50E063E88C2F0E94F2
:103CE000BF1660918A0670918B0680918C06909128
:103CF0008D064AE00E944717E3CD80918A06909195
:103D00008B06A0918C06B0918D0640917206042E10
:103D1000000C550B660B770B840F951FA61FB71F62
:103D200081309F43AB4AB1402CF080E09FE3ABEA87
:103D3000B1E0C5CF80918A0690918B06A0918C0648
:103D4000B0918D0640917206042E000C550B660B47
:103D5000770B840F951FA61FB71FB1CF44E06AE809
:103D600076E0E1CD34EB832E912CA12CB12CC12C2B
:103D7000D12C760110E000E02BED30E044E862E960
:103D800072E0E4CD812C912C54018394C12CD12C70
:103D9000760101E111E026ED30E047E860EE74E0E5
:103DA000D5CD812C912C54018394C12CD12C76013A
:103DB00001E111E022ED30E041EA64E671E0C6CDB8
:103DC000C12CD12C760110E000E030E020E040E092
:103DD00060EA72E00ACEC12CD12C760110E000E03E
:103DE00030E020E040E064EA72E0FFCD812C912CCD
:103DF0005401C12CD12C760110E000E030E020E02D
:103E000040E06AE972E0A2CD812C912C5401C12CD2
:103E1000D12C760110E000E030E020E040E06BE9DA
:103E200072E094CDC23008F049C02091F105309184
:103E3000F20580917206082E000C990BAA0BBB0BA1
:103E4000820F931FA11DB11DB7FF15C01092F2057F
:103E50001092F105109272060E94C70750E040E0F0
:103E600060E08C2F0E94BF166091F1057091F20501
:103E700090E080E03ECF2091F1053091F2058091F5
:103E80007206082E000C990BAA0BBB0B820F931F16
:103E9000A11DB11D181619061A061B06BCF2809149
:103EA000F1059091F20520917206820F911D27FD78
:103EB0009A959093F2058093F105CCCF42E061EFA3
:103EC00075E031CD109273060E946C1B81E08093E7
:103ED000AA02FACCC23009F0F7CCDF3209F4F4CCF4
:103EE0008091720621E030E0181614F02FEF3FEFBA
:103EF0008D2F90E0280F391F2033310514F42091C5
:103F0000720620917206121674F421E030E0820FDE
:103F1000931FC0970CF031CC80917206181634F4C0
:103F200081E0D80F19CC2FEF3FEFF1CF8FEFF9CF12
:103F3000CF93C82F809170008D7F809370008BE4A9
:103F400090E00197F1F7F894C0936C0680915706C2
:103F500090915806A0915906B0915A06892B8A2B48
:103F60008B2B51F060919C0270919D0280919E027A
:103F700090919F020E94BC17CC2309F495C08091B8
:103F80000401909105019093DF048093DE04109268
:103F900068061092690610926A0610926B0680916C
:103FA000AF02823009F477C008F46EC0833009F4A0
:103FB00078C0843009F472C07894CC2309F4ADC081
:103FC0008091230680937C001092F0058091AE02D0
:103FD000882361F08091AF02823041F481E0C11109
:103FE00001C080E08093F5050E945915CC2309F4A7
:103FF000A9C060E088E00E94570361E08BE00E9466
:1040000057038FEC0E94BC0784E50E9454158091F1
:10401000AF02823009F085C080911D0690911E0686
:10402000A0911F06B09120069C01AD01662777275D
:10403000CB01621B730B840B950B0E9441020E9403
:104040004A046BEF83E00E94B70480E88093880005
:104050008091DD04811109C08091AF02823029F086
:10406000809180008F7780938000809180008062B3
:104070008093800080E48093B30080917000826020
:1040800080937000CF91089586EC94E19093EF05B2
:104090008093EE0591CF89E992E1F8CF86E198E02F
:1040A000F5CF8CE398E0F2CF8091AF02823009F532
:1040B0008091680690916906A0916A06B0916B069E
:1040C000892B8A2B8B2BA9F40E942B04605C7F4FD9
:1040D0008F4F9F4F609368067093690680936A06BE
:1040E00090936B068091E104811114C086E69BE0F9
:1040F000CDCF8091DE049091DF04909305018093F1
:104100000401109268061092690610926A061092D5
:104110006B06ECCF89E798E0B9CF81E080935B062E
:1041200053CF8091570690915806A0915906B091AF
:104130005A06892B8A2B8B2B09F483CF60E070E021
:10414000CB017BCF8091800080688093800080913C
:1041500080008F7D8093800060E08AE00E9457039A
:1041600010928A008091E004882321F06FE082E1C0
:104170000E94B7046CEF83E00E94B7048091680648
:1041800090916906A0916A06B0916B06892B8A2BE3
:104190008B2B21F08091E10481110DC080912406C8
:1041A00061E0823009F460E088E00E94570360E03B
:1041B0008BE00E94570360915706709158068091DA
:1041C000590690915A060E9441020E944A04809129
:1041D0006D01882331F00E946C1B8DE493E00E94F6
:1041E000B5178FEC0E94BC0780917106811105C044
:1041F00082E50E94541584E03ECF86E5FACF1F92F7
:104200000F920FB60F9211242F933F938F939F938A
:10421000AF93BF938091E6059091E705A091E805E3
:10422000B091E9053091E50523E0230F2D3758F5CE
:104230000196A11DB11D2093E5058093E60590939D
:10424000E705A093E805B093E9058091EA05909110
:10425000EB05A091EC05B091ED050196A11DB11DF6
:104260008093EA059093EB05A093EC05B093ED05E0
:10427000BF91AF919F918F913F912F910F900FBE62
:104280000F901F90189526E8230F0296A11DB11DCF
:10429000D2CF1F920F920FB60F9211242F933F93FC
:1042A0004F935F936F937F938F939F93AF93BF933E
:1042B000EF93FF93E091EE05F091EF050995FF91E3
:1042C000EF91BF91AF919F918F917F916F915F918E
:1042D0004F913F912F910F900FBE0F901F90189507
:1042E0001F920F920FB60F9211240F931F932F93CB
:1042F0003F934F935F936F937F938F939F93AF936E
:10430000BF93CF93DF93EF93FF93C091270680E194
:10431000C89FE001112486E00E942E038C0187E0F3
:104320000E942E03000F111F8C2B802B80932706D9
:104330008332B9F08233D9F0FF91EF91DF91CF91C1
:10434000BF91AF919F918F917F916F915F914F91AD
:104350003F912F911F910F910F900FBE0F901F90C3
:104360001895809172068F5F80937206E5CF8091D9
:1043700072068150F9CFCF93DF93CDB7DEB7A49704
:104380000FB6F894DEBF0FBECDBF789484B58260BF
:1043900084BD84B5816084BD85B5826085BD85B5E9
:1043A000816085BD80916E00816080936E00109267
:1043B00081008091810082608093810080918100E2
:1043C0008160809381008091800081608093800073
:1043D0008091B10084608093B1008091B0008160D1
:1043E0008093B00080917A00846080937A008091FD
:1043F0007A00826080937A0080917A008160809355
:104400007A0080917A00806880937A001092C100CF
:1044100060E08AE00E9457030E947F0714BE88E193
:1044200098E20FB6F894A895809360000FBE909321
:10443000600080E480937C001092680010926B0012
:1044400010926C0010926D0062E087E00E9485037C
:1044500062E086E00E94850380916D00806C80930D
:104460006D008091680084608093680086E00E94FF
:104470002E036C0187E00E942E03CC0CDD1CC82AA1
:10448000C0922706789460E08BE00E94570361E0B9
:1044900088E00E94570360E08AE00E94570360E0D2
:1044A00089E00E94570361E089E00E94850361E092
:1044B0008BE00E94850361E088E00E94850361E053
:1044C0008AE00E94850360E081E10E94850362E04A
:1044D0008DE00E94850360E08CE00E94850360E02F
:1044E0008EE00E94570360E08FE00E94570360E077
:1044F0008EE00E94850360E08FE00E94850360E00B
:104500008BE00E94570361E08BE00E94850360E02E
:1045100084E10E94850360E085E10E94850361E0FB
:1045200085E00E94850364E670E080E090E00E94F0
:10453000F8038AB18F618AB93C9A8BE39DE00197B9
:10454000F1F73C9A5C9883E30E94BC076BE4C62EAB
:1045500066E4D62EC6010197F1F783E30E94BC07FB
:10456000C6010197F1F783E30E94BC0783E592E05F
:104570000197F1F782E30E94BC0788E20E94BC0722
:104580008CE00E94BC0781E00E94BC0763E070E001
:1045900080E090E00E94F80386E00E94BC07109241
:1045A000F4051092F3055E0129E0A20EB11C809182
:1045B000F3059091F4050897A9F16091F3057091C6
:1045C000F40543E0660F771F4A95E1F76B5B7D4F7B
:1045D00048E050E0CE0101960E941F328091F30521
:1045E0009091F4058F5F48E0849FC0011124887387
:1045F00080640E94BC07CE0101966C01D6016D91CA
:104600006D0180E996E00E943415CA14DB04B1F70D
:104610008091F3059091F40501969093F4058093B1
:10462000F305C5CF0E946C1B0E94BB1680E80E9458
:10463000BC078BE392E00E94A01680EC0E94BC07AE
:104640008BE292E00E94A01668EE73E080E090E0BA
:104650000E94F8030E94BB1680E80E94BC0784E217
:1046600092E00E94A01687E80E94BC0781E292E0D7
:104670000E94A0168AE192E00E94A0160E94BB163A
:104680006CED75E080E090E00E94F80384E0809398
:104690006501E0919302B4E0EB9FF0011124EC522C
:1046A000FD4F80819181A281B38180931D069093FB
:1046B0001E06A0931F06B0932006E1E3F6E084E215
:1046C000DF011D928A95E9F710922B0610922A06B7
:1046D000109229061092280681E08093300680937C
:1046E0002F0680932E0680932D0680932C0664E37C
:1046F00083E00E94991B8091F1059091F205823B25
:10470000904109F47BC382EB90E19093F205809392
:10471000F1056FEF84E00E94991B80EC0E94BC07BA
:1047200089E092E00E94A0166CED75E080E090E0D8
:104730000E94F803A89510928F0610928E06DD2431
:10474000D394D092AA0280919802809397021092FB
:104750007106109257061092580610925906109240
:104760005A0680915606082F017010E0000F111FA5
:10477000000F111FF801E056FD4F80819181A28149
:10478000B38180939C0290939D02A0939E02B0936C
:104790009F028091560680FBEE24E0F8F12CF70191
:1047A000E656FD4F80818093AF020E94CA0760E207
:1047B00073E080E090E00E94F8030E946C1BD092AE
:1047C0005B061092F00586E69BE09093EF058093E0
:1047D000EE0524E63EED45E050E061E082E00E9417
:1047E0007A0880917C00809323068091240661E002
:1047F000813009F460E029E937E741E050E080E0EA
:104800000E947A0880917C00809321068091240682
:1048100061E0813009F460E029E937E741E050E0E8
:1048200081E00E947A0880917C0080932206109299
:1048300080001092810080918000826A80938000C5
:1048400080918100896180938100109287008FEFB1
:1048500080938600109289001092880010928B003D
:1048600010928A008091B6008F7D8093B6001092DE
:10487000B0001092B1001092B2008091B00082603E
:104880008093B0008091B10084608093B1008091EA
:10489000700082608093700084E08093B300809108
:1048A00080008F7D8093800060E08AE00E94570343
:1048B0008DE00E942E03892B09F4ABC28091AF02D8
:1048C00080917106882391F18091AF02882321F0B5
:1048D0008091AF02813051F5809170068111E9C25B
:1048E00080916F0691E0980F90936F06803109F0E8
:1048F000A7C280916D0690916E0624E096958795EB
:104900002A95E1F7805E91400E94E91210926F06AD
:1049100010926E0610926D0680916C06882331F01D
:1049200081E0809370068FEF0E94981F8091AF0204
:10493000823009F07AC08091AE02882309F475C0F4
:1049400080916C06811171C0809168069091690612
:10495000A0916A06B0916B06892B8A2B8B2B09F0EC
:1049600064C08090FC059090FD05A090FE05B0907D
:10497000FF05C0906701D0906801E0906901F09058
:104980006A01C501B4016C197D098E099F0920E0F7
:1049900031E040E050E00E94D035C20ED31EE41E4C
:1049A000F51EC0926701D0926801E0926901F09211
:1049B0006A01C701B60122E030E040E050E00E9409
:1049C000D03511E0281539054A055B050CF010E0DB
:1049D0001093FB058091FA05181751F00E942B04E3
:1049E0006093F6057093F7058093F8059093F905A9
:1049F0000E942B048090F6059090F705A090F80592
:104A0000B090F905681979098A099B096131710526
:104A10008105910508F45CC28091F5051813109387
:104A2000F5050E9459151093FA05809173068111BE
:104A300027C080917506882309F45FC287E0E1EC06
:104A4000F2E0DE01119601900D928A95E1F7E09176
:104A5000AD0241E050E04C0F5D1F4E0F511DFA01B9
:104A600010810E94C7071092750680E80E94BC075B
:104A7000812F90E080559D4F0E94B5170E94EB0753
:104A80008091AF0280917006811152C18DE00E9429
:104A90002E03892B09F04CC1109264061092650612
:104AA000109266061092670681E00E94981FA895F2
:104AB0008091AF02823009F056C36AE070E080E076
:104AC00090E00E94F8038091AF02823009F022C189
:104AD0000E942B04009160061091610620916206ED
:104AE00030916306601771078207930708F412C1BB
:104AF00008E010E0812C912C54017501640184E1DF
:104B00000E94C103BC01990F880B990B0E946C3362
:104B10002CE03EE248EB5BE30E94D1349B01AC0108
:104B2000C701B6010E9451326B017C0185E10E94F0
:104B3000C103BC01990F880B990B0E946C332CE0C8
:104B40003EE248EB5BE30E94D1349B01AC01C5011E
:104B5000B4010E9451324B015C0165E070E080E0DD
:104B600090E00E94F8030150110949F620E030E07E
:104B700040E05EE3C701B6010E94D1346B017C01C5
:104B800020E030E040E05EE3C501B4010E94D13492
:104B900069877A878B879C87A7019601C701B60131
:104BA0000E94D1342B013C01A701960169857A85C9
:104BB0008B859C850E94C2324B015C0120E030E075
:104BC00040E85FE30E94513269A37AA38BA39CA3C0
:104BD000A501940160E070E080E89FE30E945032FC
:104BE0009B01AC0169A17AA18BA19CA10E94C23258
:104BF0004B015C012AE037ED4FE151E40E9474342F
:104C0000181654F020E030E040E85FE3C501B4013D
:104C10000E94BD3287FF08C01AE0812E17ED912E49
:104C20001FE1A12E11E4B12E209110063091110642
:104C30004091120650911306C301B2010E94BD3289
:104C400081110FC0A501940160910C0670910D06B1
:104C500080910E0690910F060E94BD32882309F4C0
:104C60004BC00E94C70780E80E94BC0780916D017D
:104C7000823009F47DC2833009F4B1C2813061F51C
:104C80008CE593E00E94B51720E030E048EC52E458
:104C9000C301B2010E94D1340E94A73320E030E06A
:104CA00048EC52E40E94C2320E94B6188EE593E0AE
:104CB0000E94B51720E030E048EC52E4C501B40191
:104CC0000E94D1340E94A73320E030E048EC52E447
:104CD0000E94C2320E94B6184092100650921106ED
:104CE000609212067092130680920C0690920D0646
:104CF000A0920E06B0920F060E942B046C507E4FBD
:104D00008F4F9F4F60936006709361068093620699
:104D10009093630681E10E942E03892B31F48DE08C
:104D20000E942E03892B09F4C2CE80E00E94981FB6
:104D3000C0906806D0906906E0906A06F0906B0615
:104D4000C114D104E104F10451F00E942B04C616F1
:104D5000D706E806F90618F480E00E94981F81E162
:104D60000E942E03892B09F43BC580915F0682FDCA
:104D700005C080915F06857009F462C280915F066C
:104D8000807F90917206992309F4D9C29CE0892B07
:104D900080935F0680915F06823209F4C7C308F0F2
:104DA000DAC2863108F0CDC2843108F07DC381318A
:104DB00009F480C380915D06811105C080912606AB
:104DC000882309F479C510925D06809173068111DC
:104DD000A8C580912606811106C58091AF028093F7
:104DE00055068091AF028F5F8093AF028091AF0232
:104DF000833008F4FDC41092AF02FAC481E10E942E
:104E00002E03892B09F07FCC6FEF83E00E94991B62
:104E100092CC80EC0E94BC0781E20E94541581E292
:104E20000E9454158BEF91E00E94A0160E94BB16C1
:104E30006CED75E080E090E00E94F803A89538CD15
:104E4000F89483E880937A0080916601803220F0A4
:104E500060E088E00E94570390917C0080917A0086
:104E600084FFFCCF8091230680937C0080917A00A0
:104E7000806480937A0080917A0084FFFCCF9093C5
:104E80007C0080916601803220F061E088E00E9421
:104E900057032091780030917900789480916D06C5
:104EA00090916E06820F931F90936E0680936D060D
:104EB00033CD80916C06811139CD0E94981F1092DC
:104EC000700660E270E080E090E00E94F8032ECD72
:104ED000C701B60124E630E040E050E00E94D03542
:104EE000C20ED31EE41EF51EC0926701D092680167
:104EF000E0926901F0926A0194CD809168069091E8
:104F00006906A0916A06B0916B06892B8A2B8B2BC0
:104F100009F0B6CD8091700681110C94F531409165
:104F200008065091090660910A0670910B0680915F
:104F3000040690910506A0910606B0910706841715
:104F40009507A607B70708F4F3C0C0900406D090F1
:104F50000506E0900606F0900706C0920406D0927F
:104F60000506E0920606F09207068091AD028823BE
:104F700011F40C94F1318091020690910306019690
:104F800090930306809302069770892B11F00C947E
:104F9000F13180916C0161E070E002C0660F771F13
:104FA0008A95E2F7072E000C880B990B0E946C3350
:104FB0004B015C01C701B6010E946A339B01AC0141
:104FC000C501B4010E94D13421ED35E443EE5FE424
:104FD0000E94C2329B01AC010E94D13420E030E03B
:104FE00048E452E40E94C2320E94793420E030E06A
:104FF00040E251E40E94D13420E030E040EF51E43F
:105000000E9451320E9434336B0170930106609309
:1050100000060E94C7078091AD02813069F489E8DB
:105020000E94BC07B601DD0C880B990B0E948B1700
:1050300085E892E00E94A0168091AD028230F9F4DA
:105040008091000690910106813C5FEF95070CF07E
:1050500078C081589F4F66E070E00E949A35162F05
:105060008EE80E94BC071A3018F483E50E9454159C
:10507000612F70E090E080E04AE00E944717809145
:10508000AD02833039F58091000690910106813C94
:10509000AFEF9A070CF05EC081589F4F66E070E05A
:1050A0000E949A35FE01319694EF960F8F0182E0AF
:1050B00016162CF481E0860F65300CF085E08193A4
:1050C00063506913F4CF1D828CE80E94BC07C801AD
:1050D0000E94B5178091AD02843099F48EE80E9449
:1050E000BC078091AF02823041F460916B0170E0A7
:1050F00090E080E04AE00E9447178BE593E00E9431
:10510000B5170E94EB078091040690910506A091C7
:105110000606B0910706B695A79597958795809353
:10512000040690930506A0930606B0930706A8CC44
:10513000C0900806D0900906E0900A06F0900B0691
:105140000CCF875B1AE0612F0E947A35819F102D6A
:10515000112486CF875B2AE0622F0E947A35829FD6
:10516000602D11249FCF64E670E080E090E0A9CC30
:1051700086E693E00E94B51720E030E048EC52E468
:10518000C301B2010E94D1340E94A73320E030E075
:1051900048EC52E40E94C2320E94B6188AE693E0BC
:1051A0000E94B51729853A854B855C85CA01B901EE
:1051B0000E94D13420E030E048EC52E40E94D13427
:1051C0000E94A73320E030E048EC52E40E94C23253
:1051D0000E94B6188FE693E00E94B5177DCD86E653
:1051E00093E00E94B51720E030E048EC52E4C7019C
:1051F000B6010E94D1340E94A73320E030E048EC91
:1052000052E40E94C2320E94B61881E793E00E94E5
:10521000B51720E030E048EC52E469857A858B854B
:105220009C850E94D1340E94A73320E030E048ECF6
:1052300052E40E94C2320E94B61886E793E0CCCFB7
:10524000F89480917A0084FFFCCFE0907A00F0908F
:105250007C0080917A00877F80937A0080917A0029
:10526000876080937A0080E480937C0061E070E046
:1052700080E090E00E94F80381E10E94C1038C016C
:10528000E0927A00F0927C00789481E080935F064F
:105290000E942B046B017C0181E10E942E03892B6B
:1052A00071F00E942B046C197D098E099F096D32E3
:1052B00071408105910578F184E080935F066AE092
:1052C00070E080E090E00E94F80380915F068430F7
:1052D00099F00E942B046C197D098E099F09643F87
:1052E00071408105910540F481E10E942E03892BD4
:1052F000A1F082E080935F0681E10E942E03892B5A
:1053000089F080917206882321F080915F068430B5
:1053100031F0A895F1CFA895BFCFA895D6CF8CE056
:1053200080935F0690E10C35F3E01F0728F090E2D0
:10533000073D134008F090E380915F0628CD95E08B
:1053400026CD8C3109F4B4C0813209F033CD81E02F
:1053500080935D062FCD823309F4ECC170F4843262
:1053600009F444C1813309F025CD80917306811180
:10537000C4C181E00E94F4071DCD843309F429C221
:105380008C3309F017CD81E10E942E03892B09F49B
:1053900029C1A895809172068823A9F361E080E075
:1053A0000E94991B8091960287FF15C28AE0809324
:1053B000960261E084E00E94991B80EC0E94BC0789
:1053C0008AE892E00E94A0160E94BB1687EF84BF75
:1053D0000FB6F894A8958091600088618093600072
:1053E000109260000FBE809170008D7F80937000DE
:1053F00061E070E080E090E00E94F8031092880085
:1054000010928A0080917A00877F80937A00809141
:105410007A00876080937A0080E480937C000E9409
:105420007F076CED75E080E090E00E94F803109239
:10543000680010926B0010926C0010926D00109238
:105440006E0010926F0010927000109260008091B8
:105450006C00886080936C0080916800826080930B
:1054600068008FEF8093640088E00E94BC075D981D
:1054700083B7817F846083BF83B7816083BF789463
:1054800085B7806685BF8F7D85BF889583B78E7F02
:1054900083BF88E198E00FB6F894A89580936000E8
:1054A0000FBE90936000FFCF82E08093730682CCA2
:1054B00081E0FBCF80917306813041F48091AC0292
:1054C0008D3124F08091AC028332A4F08091730678
:1054D000882311F180917306813031F181E0909140
:1054E0007306923010F36091AC0284E00E94991B25
:1054F00080E0DBCF0E942B04609364067093650606
:1055000080936606909367068091AC028D518093DC
:105510005E06109273064ECC8091AC028111DACFF8
:1055200081E08093AC02D6CF82E0D9CF80915C0637
:105530008F5F80935C0681E080935B068091AF0271
:10554000823039F480915C068B3018F084E08093CF
:105550005C068091AF02823039F480915C06843021
:1055600019F486E08093AB028091AF02823079F427
:1055700080915C06853021F080915C06863039F49C
:105580008091AB02873018F487E08093AB02809162
:10559000AF02823059F480915C06873039F48091F3
:1055A000AB02883018F488E08093AB028091AF02A0
:1055B000823031F080915C06843010F010925C06ED
:1055C0001092720663E080E00E94991B63E084E021
:1055D0000E94991BA8956CED75E080E090E00E9418
:1055E000F803A89581E08093AA02E4CB4091570686
:1055F000509158066091590670915A0681E090E0EA
:10560000A0E0B0E0452B462B472B19F080E090E05E
:10561000DC018093570690935806A0935906B093E7
:105620005A068091570690915806A0915906B0915C
:105630005A06892B8A2B8B2B09F058C02091AF0278
:1056400081E090E0223011F090E080E088559D4F9D
:10565000DC018C918093AB028091570690915806A3
:10566000A0915906B0915A06892B8A2B8B2B09F0F1
:10567000B9CF9091560681E0911180E08093560653
:105680008091560680FB222420F8312CF101EE0F88
:10569000FF1FEE0FFF1FE056FD4F80819181A28119
:1056A000B38180939C0290939D02A0939E02B0933D
:1056B0009F028091560681708D871E86ED85FE853E
:1056C000E656FD4F80818093AF028091AF02823019
:1056D00079F085E08093AB028091AF02823051F483
:1056E00084E080935C06109299027CCF88E0B2CF70
:1056F00086E0F0CF10925C0675CF809173068091A2
:1057000073068230A9F481E08093AA026091AC0212
:1057100084E00E94991B81E090917306933009F018
:10572000C4CE6091AC0286E00E94991B83E0BDCE9E
:1057300082E0F2CF20919802209397028091AF02ED
:10574000809355063FEF320F393020F540919C028F
:1057500050919D0260919E0270919F02E22FE15054
:10576000FF0BCF01EE0FFF1FEE0FFF1FEF5CF94F96
:10577000408351836283738340915606885D994FBD
:1057800041704F87188AEF85F889E656FD4F4081B2
:10579000DC014C9380912706833131F0823321F074
:1057A000803211F0813069F4309398028091980230
:1057B0008A3058F081E08093980286E08093AB02B3
:1057C00011CF2F5F20939802F1CF8111F6CF89E09E
:1057D000F2CF8FEFCFCD61E084E00E94991BD3CD53
:1057E00010925F06E7CA8091AF02853008F003CBC4
:1057F0008091AF02823011F41092990281E090E022
:1058000020915506223011F090E080E02091AB020B
:10581000FC01E855FD4F20834091AF0221E030E0CC
:10582000423011F030E020E028553D4FF901208151
:105830002093AB0220915C068C569D4FDC012C938B
:105840002091AF0281E090E0223011F090E080E002
:105850008C569D4FFC01808180935C06909156068A
:105860008091AF029170998B1A8AE989FA89E6567C
:10587000FD4F80838091560663E380FF62E384E0FE
:105880000E94991B62E084E00E94991B63E084E01F
:105890000E94991B10928F0610928E0680915506D9
:1058A000823029F48091AE0281110E946C1B81E04C
:1058B0008093AA021092260680917306811107C078
:1058C0009091250680917306981709F45BC1109199
:1058D000720690917306913009F041C0112309F4CA
:1058E00040C0209172068091AC02820F8093AC027E
:1058F0008091AC0280335CF19093AC026091AC0279
:1059000082E00E94991B8093AC02109272068091F3
:10591000730660E081116091AC0281E00E94991BE6
:1059200026C080917306813011F410927306809125
:105930007306823008F4BECF81E0809373068093B3
:10594000AA026091AC0284E00E94991BB3CF8091BF
:10595000AC0218169CF28FE28093AC02CFCF1111EB
:10596000D6CF90912506809173069813D0CF809161
:1059700073068093250680917306823009F002C178
:10598000112309F4FFC080EC0E94BC078EE00E9446
:10599000BC078091AC02823069F5909156068091E7
:1059A000AF0291709B8B1C8AEB89FC89E656FD4FF8
:1059B00080838091560663E380FF62E384E00E9467
:1059C000991B81E08093AA0210928F0610928E0696
:1059D0008091AF02823009F4E8C385E08093AB0286
:1059E0008091AF02823009F0E2C384E080935C06CC
:1059F000109299028091AC02843019F481E0809376
:105A0000AA028091AC028630C9F590915606917039
:105A10009D8B1E8AED89FE89EE0FFF1FEE0FFF1F83
:105A2000E056FD4F408151816281738140939C0219
:105A300050939D0260939E0270939F029091560630
:105A400091709F8B188EEF89F88DE656FD4F9081EF
:105A50009093AF029091AF02923009F085E080936D
:105A6000AB028091AF02823009F0A4C384E080933E
:105A70005C061092990281E08093AA028091AC02A8
:105A8000873099F48091570690915806A091590655
:105A9000B0915A06892B8A2B8B2B09F48EC388E090
:105AA0008093AB0281E08093AA028091AC028A309D
:105AB000C9F5F894609124066095617029E937E78B
:105AC00041E050E080E00E947A0880917C00809361
:105AD0002106609124066095617029E937E741E06D
