:100000000C948F010C94B7010C94B7010C94B701B8
:100010000C94B7010C94FC210C94B7010C94D521DD
:100020000C94B7010C94B7010C94B7010C94B70170
:100030000C94B7010C94B7010C94B7010C94B70160
:100040000C948B210C94B7010C94B7010C94B7015C
:100050000C94B7010C94B7010C94B7010C94B70140
:100060000C94B7010C94B70108000000BE9224491B
:10007000123EABAAAA2ABECDCCCC4C3E00000080DA
:10008000BEABAAAAAA3E00000000BF000000803F4D
:100090000000000000084178D3BB4387D1133D190D
:1000A0000E3CC3BD4282AD2B3E68EC8276BED98F3A
:1000B000E1A93E4C80EFFFBE01C4FF7F3F0000007E
:1000C0000000202020202020202000524954003A07
:1000D00020004C454400515541440049512070686E
:1000E0006173650052656620667271005057522038
:1000F0006D617800505752206D696E004357204D56
:1001000073675F36004357204D73675F3500435771
:10011000204D73675F34004357204D73675F330092
:100120004357204D73675F32004351204D73675F23
:1001300031004357205245504541542078350054F2
:100140005820447269766500535120564F58005626
:100150004F580043572053706565640053656D69BF
:100160002051534B004357204465636F6465720010
:10017000532D4D6574657200415454004E52004138
:100180004743005249540056464F0053746570006F
:1001900042616E64004257004D6F646500566F6C9B
:1001A0000000000000240027002A000000000025B5
:1001B0000028002B00000000002300260029000476
:1001C00004040404040404020202020202030303FE
:1001D00003030301020408102040800102040810F8
:1001E00020010204081020000000080002010000A5
:1001F0000304070000000000000000436865636B13
:10020000205054542F6B65790052657365742073C8
:10021000657474696E67732E2E0031333038323650
:100220000020520055534452202B0070726F6674A8
:100230007064406D61696C2E727500506574726FE8
:10024000762052560008040A050A0408000000003F
:1002500000000000001010101010101010101014EA
:10026000141414141410101515151515150C121E50
:1002700012120000001C121C121C000000000000E2
:10028000000000000064426D2000506F7765722D01
:100290006F6666203733203A2D29007E2045544969
:1002A000414E4D53555257444B474F4856462A4CA2
:1002B0002A504A425843595A512A2A353453332A2C
:1002C0002A2A322A2A2B2A2A2A4A31363D2F2A2A3A
:1002D0002A482A372A472A382A39302A2A2A2A2A13
:1002E0002A2A2A2A2A2A2A3F5F2A2A2A2A222A2A2C
:1002F0002E2A2A2A2A402A2A2A272A2A2D2A2A2A44
:100300002A2A2A2A2A3B212A292A2A2A2A2A2C2A44
:100310002A2A2A3A2A2A2A2A000037325632112457
:100320001FBECFEFD8E0DEBFCDBF14E0A0E0B1E04C
:10033000E4EFF3E702C005900D92A831B107D9F7B9
:1003400026E0A8E1B4E001C01D92A43AB207E1F7AB
:1003500011E0CEE8D1E004C02197FE010E942D36C5
:10036000CD38D107C9F70E9447220C94ED390C947F
:10037000000087FF76C03C983D9800000000000018
:1003800000003D9A000000000000000086FF6BC0E6
:100390003C983D9800000000000000003D9A0000DD
:1003A00000000000000085FF60C03C983D98000000
:1003B0000000000000003D9A000000000000000066
:1003C00084FF55C03C983D980000000000000000EC
:1003D0003D9A000000000000000083FF4AC03C98E6
:1003E0003D9800000000000000003D9A0000000061
:1003F0000000000082FF3FC03C983D9800000000D4
:10040000000000003D9A000000000000000081FF95
:1004100034C03C983D9800000000000000003D9A68
:10042000000000000000000080FF29C03C983D98BB
:1004300000000000000000003D9A000000000000E5
:1004400000003C9800000000000000003D98000003
:100450000000000000003D9A0000000000000000C5
:1004600008953C9A89CF3C9A94CF3C9A9FCF3C9A6E
:10047000AACF3C9AB5CF3C9AC0CF3C9ACBCF3C9AFE
:10048000D6CF2F923F924F925F926F927F928F9230
:100490009F92AF92BF92CF92DF92EF92FF920F9313
:1004A0001F93CF93DF9300D000D0CDB7DEB79B0171
:1004B000AC0180918D0690918E06A0918F06B0912F
:1004C000900689839A83AB83BC83A0918A06C090EF
:1004D0009906D0909A06E0909B06F0909C06B0E0BA
:1004E0000E9451364B015C01BB0C8808982C5401CA
:1004F0009B01AC01682D782D882D982D07E10E9475
:10050000333756016701E12CF12C00E010E00E9426
:100510005E3649015A0149805A806B807C80480CC4
:10052000591C6A1C7B1C80918B0690918C06860D51
:10053000971D8093950680E180939606852D9927D7
:1005400080939706409298060F900F900F900F900F
:10055000DF91CF911F910F91FF90EF90DF90CF909F
:10056000BF90AF909F908F907F906F905F904F90D3
:100570003F902F900895E0918506E7FD15C0F0E0CB
:10058000E556FD4FE491EA3279F0A0EBB2E0119626
:100590008C9111978D9382E0AF3BB807C1F7E09340
:1005A000BF0281E08093840681E0809385060895F0
:1005B000AF92BF92CF92DF92EF92FF920F931F9371
:1005C000CF93DF936C017B018B01040F151FEB01AF
:1005D0005E01AE18BF08C017D10759F06991D60166
:1005E000ED91FC910190F081E02DC6010995892BD8
:1005F00079F7C501DF91CF911F910F91FF90EF9097
:10060000DF90CF90BF90AF900895833081F028F4B1
:10061000813099F08230A9F008958730A9F08830B0
:10062000C9F08430B1F4809180008F7D03C0809147
:1006300080008F7780938000089584B58F7784BD84
:10064000089584B58F7DFBCF8091B0008F77809324
:10065000B00008958091B0008F7DF9CFCF93DF93E4
:10066000282F30E0F901E951FE4F8491F901ED5254
:10067000FE4FD491F901E154FE4FC491CC23A1F077
:1006800081110E940503EC2FF0E0EE0FFF1FEB54E9
:10069000FE4FA591B491EC91ED2381E090E009F437
:1006A00080E0DF91CF91089580E090E0FACF1F9332
:1006B000CF93DF93282F30E0F901E951FE4F849169
:1006C000F901ED52FE4FD491F901E154FE4FC4916E
:1006D000CC23A9F0162F81110E940503EC2FF0E026
:1006E000EE0FFF1FE555FE4FA591B4918FB7F8941B
:1006F000EC91111108C0D095DE23DC938FBFDF9100
:10070000CF911F910895DE2BF8CFCF93DF9390E028
:10071000FC01ED52FE4F249181549E4FFC018491C7
:100720008823C9F090E0880F991FFC01EF55FE4F18
:10073000A591B491FC01E555FE4FC591D49161118D
:100740000DC09FB7F8948C91209582238C9388815B
:10075000282328839FBFDF91CF910895623051F401
:100760009FB7F8943C91822F809583238C93E881E6
:100770002E2BEFCF8FB7F894EC912E2B2C938FBFAD
:10078000EACF8E50806480937C0080917A008064F0
:1007900080937A0080917A0086FDFCCF809178006A
:1007A0009091790008953FB7F8948091F205909167
:1007B000F305A091F405B091F50526B5A89B05C0F9
:1007C0002F3F19F00196A11DB11D3FBFBA2FA92FD0
:1007D000982F8827BC01CD01620F711D811D911DCD
:1007E00042E0660F771F881F991F4A95D1F7089539
:1007F0008F929F92AF92BF92CF92DF92EF92FF9231
:100800006B017C010E94D3034B015C01C114D10434
:10081000E104F104B9F00E94D303681979098A0947
:100820009B09683E73408105910580F321E0C21A5F
:10083000D108E108F10888EE880E83E0981EA11C1B
:10084000B11CE4CFFF90EF90DF90CF90BF90AF90BE
:100850009F908F9008952FB7F8946091EE05709156
:10086000EF058091F0059091F1052FBF08953C9A16
:100870003D9800000000000000003C9887B18F7C8C
:1008800087B93C9A08953D9A0000000000000000DE
:100890003C980895CF93DF930E94430480EC0E941C
:1008A000B9018EE10E94B901C6E8D6E08F850E94A9
:1008B000B90188890E94B90189890E94B9018A8990
:1008C0000E94B901DF91CF910C943704CF93DF934D
:1008D000D82FC62F0E94430480E40E94B9018D2FB7
:1008E0000E94B9018C2F0E94B901DF91CF910C9425
:1008F0003704CF93DF93D82FC92F6FEF87E00E9483
:1009000066046FEF86E00E9466046D2F82E00E940D
:10091000660460E086E00E9466046C2F83E00E941B
:10092000660460E087E0DF91CF910C946604FF924B
:100930000F931F93CF93DF93C82FF62E072F142FFB
:100940000E94430480EC0E94B9018C2F0E94B901DF
:10095000CF2DD02F115020F089910E94B901FACFEC
:10096000DF91CF911F910F91FF900C943704CF939B
:10097000DF931F92CDB7DEB7698341E0BE016F5FA1
:100980007F4F0E9497040F90DF91CF9108952F928F
:100990003F924F925F926F927F928F929F92AF920F
:1009A000BF92CF92DF92EF92FF920F931F93CF935C
:1009B000DF93CDB7DEB764970FB6F894DEBF0FBEF6
:1009C000CDBF898B48015901FB8AEA8ACC8ACB01C9
:1009D000BA01A90198010E94EC35290119012430BE
:1009E000310509F497C09B01AC0160E070E080E044
:1009F00090E000E10E943337F9017501640100E0E5
:100A000010E098018986DA86AB86FC860D871E8702
:100A10002F87388B54016701E12CF12C00E010E0A6
:100A20009F010E948F36A32FF42FE52F422F5A2FBC
:100A30006F2F7E2FC12CD12C7601E394CB01BA010C
:100A400027E0660F771F881F991F2A95D1F7A70106
:100A500096010E94EC3542019694982C8824979434
:100A60008794B12CA12C02E0901AA108B108280D9E
:100A7000391D4A1D5B1DBC89A0E1BA9FF0011124FC
:100A8000842E8E2AE4E02E16310409F04CC0ECE0EE
:100A90001982CA828E2A8B823C832D8394E0CC0CEF
:100AA000DD1CEE1CFF1C9A95D1F7E82AEE827F83AD
:100AB000688748E0BE016F5F7F4F8989880F880F84
:100AC000880F865D0E949704612F6295660F660FFE
:100AD000607CC988C7FE29C060688C2D885E0E9432
:100AE000B70464960FB6F894DEBF0FBECDBFDF919A
:100AF000CF911F910F91FF90EF90DF90CF90BF901B
:100B0000AF909F908F907F906F905F904F903F90AD
:100B10002F90089540E050E0BA0111E0C12CD12C93
:100B20007601C3948BCFE0E0B3CF6F608989805F9B
:100B30000E94B704EA88FB88E49CA001E59C500D64
:100B4000F49C500D112421E01227212F30E0429F08
:100B5000C001439F900D529F900D11246AE570E0F3
:100B60000E94C43589898B55BACF2F923F924F92FC
:100B70005F926F927F928F929F92AF92BF92CF922D
:100B8000DF92EF92FF920F931F93CF93DF93CDB736
:100B9000DEB760970FB6F894DEBF0FBECDBF4B0136
:100BA0005C0149875A8329833B8321E0821623EA2B
:100BB000920621EEA20621E1B206DCF023E030E04D
:100BC000CA01B9010E94C43569877A8389819B81F2
:100BD000B9010E94C43569837B83C501B40123E058
:100BE00030E040E050E00E940E3649015A0118867C
:100BF00011C060E2861661EA960667E0A606B104B7
:100C0000B4F747E0880C991CAA1CBB1C4A95D1F785
:100C100077E0788780E8881683EC980689ECA80648
:100C200081E0B806CCF46091990670919A068091A3
:100C30009B0690919C06A0EE8A16A7E69A06A5E36D
:100C4000AA06B1040CF445C124E0660F771F881F83
:100C5000991F2A95D1F749C16091990670919A061A
:100C600080919B0690919C0635E0660F771F881F48
:100C7000991F3A95D1F7A50194010E94EC3519010D
:100C8000B1E08B16BBE39B06B8E5AB06B8E0BB064C
:100C90000CF031C120FE03C02FEF221A320AD1011D
:100CA000A501940128583341410951090E94513648
:100CB0006B017C012091990630919A0640919B0628
:100CC00050919C064090990650909A0660909B0621
:100CD00070909C064C825D826E827F820E94EC3511
:100CE00029013A019101A0E1B7E20E943B366C0D67
:100CF0007D1D8E1D9F1D2C813D814E815F810E9437
:100D0000EC35421653066406750619F022E0220EF1
:100D1000311CD101A50194010E9451362B013C01E7
:100D20000091990610919A0620919B0630919C069D
:100D3000C12CF12CE12CBC01A2018EEF0E94C70452
:100D4000C884E984FA8095018401B301A20180E09E
:100D50000E94C704C884E980FB809501B301A20109
:100D600081E00E94C704C884F12CE12C9501B301F5
:100D7000A20182E00E94C7046985062E000C770B51
:100D80008981681B710987FD73957D836C83C3011D
:100D9000B201A50194010E94EC35AC81BD81A29FF6
:100DA000C001A39F900DB29F900D11246AE570E0E1
:100DB0000E94D83580919D0690919E0686179707D0
:100DC00041F070939E0660939D0660EA81EB0E945D
:100DD000B7046CEF83E00E94B7048092860690927D
:100DE0008706A0928806B092890620928A062091F2
:100DF000990630919A0640919B0650919C06C3013A
:100E0000B2010E94EC352450310941095E4F3695FC
:100E1000322F22273795279530938C0620938B0607
:100E20002091990630919A0640919B0650919C061C
:100E3000C0909906D0909A06E0909B06F0909C0690
:100E4000C301B2010E94EC352B013C01812C912C95
:100E5000540169875A868B877C868D869E86AF86ED
:100E6000B88A9B01AC0160E070E080E090E007E1AF
:100E70000E9433372A83398356016701E12CF12C14
:100E800000E010E02A8139810E948F36C901DA0121
:100E900080938D0690938E06A0938F06B093900654
:100EA00060960FB6F894DEBF0FBECDBFDF91CF9135
:100EB0001F910F91FF90EF90DF90CF90BF90AF9078
:100EC0009F908F907F906F905F904F903F902F906A
:100ED00008952091990630919A0640919B06509171
:100EE0009C06A7E0B0E00E945136A50194010E9443
:100EF000EC351901CFCE94E0292E312CCBCECF93F7
:100F00006FEF83E00E94B70460E088E10E94B704BD
:100F100060E089E10E94B704C0E160E88C2F0E9484
:100F2000B704CF5FC831C9F760E08BEB0E94B7040C
:100F300060E085E90E94B70462ED87EBCF910C94E5
:100F4000B70480916401882319F05B9A789408951E
:100F50005B98FCCFF8949BB1907F9061892B8BB903
:100F60008BE090E00197F1F75C980E94A1078BEE6F
:100F700090E00197F1F70895CF93C82F82958F7075
:100F80000E94AA078C2F8F70CF910C94AA078CE037
:100F90000C94BC070F931F93CF93DF934091EC0504
:100FA000C0916301C41BDD0BECEEF4E030E020E007
:100FB0000FEF10E0C901B8010E94C435640F6193BE
:100FC0002C0F3D1F85E0EC3EF807A1F7DF91CF9194
:100FD0001F910F9108958091A9028F5B80680E94F4
:100FE000BC078EE00C94BC079091A902980F9093D7
:100FF000A9029091A902911103C098E09093A902CF
:101000009091A902993018F091E09093A9029091E3
:10101000A902943021F09091A902923029F4909184
:10102000A902890F8093A9020C94EB0780917A00A2
:10103000806480937A008091510480938A0080912B
:101040007800909179002091650192502450330BE3
:1010500002C0880F991F2A95E2F7803E2FEF920772
:101060004CF0803E910514F08FED90E080968093D7
:101070005104089580E0FBCF80917A0080648093D2
:101080007A008091EB0580938A000E944A04809147
:101090007800909179009250092E000CAA0BBB0B9E
:1010A0002091650104C0880F991FAA1FBB1F2A95B4
:1010B000D2F74091520450915304609154047091BE
:1010C0005504840F951FA61FB71F893823E1920787
:1010D000A105B105B4F58093520490935304A093F5
:1010E0005404B09355048091520490915304A091FC
:1010F0005404B091550488379C4EAF4FBF4F64F4F1
:1011000088E79CEEAFEFBFEF8093520490935304B7
:10111000A0935404B0935504609152047091530409
:10112000809154049091550426E095958795779584
:1011300067952A95D1F7072E000C880B990B0C9414
:10114000410288E893E1A0E0B0E0C5CF0895909116
:101150007E00E1E0F0E0082E01C0EE0F0A94EAF70D
:101160009E2B90937E0010927A0010927B0010923A
:101170007C0090917C00892B80937C0080917C0086
:1011800090E4611190EC892B80937C0068EB7BE705
:1011900087E190E00E94EC3580E036952795211597
:1011A000310511F08F5FF9CF90917A008770892B0C
:1011B00080937A0080917A00806880937A00089505
:1011C0008091620680937C0080917A008064809395
:1011D0007A0020917800309179002F5F3140809122
:1011E000E3049091E404820F931F959587953093C3
:1011F000E4042093E304209166062223A1F01092D8
:10120000E2041092E1041092DE041092DD042091B9
:10121000E1043091E2043093E0042093DF0420E8FD
:101220002093880008954091DF045091E0042091BC
:10123000DD043091DE04240F351F3093DE0420934B
:10124000DD046091E1047091E204460F571F509352
:10125000E0044093DF04359527953595279535951E
:10126000279535952795359527952F37310524F006
:101270002FEF20938800089520384FEF340714F49F
:1012800020E83FEF2058CCCF8091610680937C000E
:10129000EAE7F0E0808180648083209178003091DB
:1012A00079002F5F314083E99BE09093F8058093AC
:1012B000F7058091DB049091DC044091D9045091B2
:1012C000DA04480F591FCA01880F991F840F951F10
:1012D000820F931F4091D7045091D804840F951F1B
:1012E000959587953093DC042093DB042091D504F9
:1012F0003091D6044091D3045091D404420F531F2F
:101300009A01220F331F240F351F280F391F4091D8
:10131000D1045091D204240F351F3093D004209370
:10132000CF049093D6048093D504089580916106EC
:1013300080937C00EAE7F0E0808180648083809184
:1013400078009091790029E13AE03093F8052093F4
:10135000F7052091D9043091DA043093D804209312
:10136000D7048F5F91409093DA048093D904089555
:101370008091610680937C00EAE7F0E080818064E0
:10138000808320917800309179002F5F31408DE883
:101390009AE09093F8058093F7058091D30490919B
:1013A000D4049093D2048093D1048091DB04909173
:1013B000DC044091D9045091DA04480F591FCA0146
:1013C000880F991F840F951F820F931F4091D70498
:1013D0005091D804840F951F959587959093D404C8
:1013E0008093D3043093DC042093DB040895809130
:1013F000610680937C00EAE7F0E08081806480836E
:1014000080917800909179002FE13BE03093F805CE
:101410002093F7052091D9043091DA043093D80451
:101420002093D7048F5F91409093DA048093D9047E
:1014300008958091620680937C0080917A00806498
:1014400080937A0020917800309179002F5F3140AD
:101450008091E3049091E404820F931F9595879502
:101460003093E4042093E30420916606222331F1B3
:101470001092E2041092E1041092DE041092DD0456
:101480002091E1043091E2043093E0042093DF04E2
:1014900020E82093880024E439E03093F805209375
:1014A000F7052091CD043091CE043093CC042093E5
:1014B000CB049093CE048093CD0408954091DF0433
:1014C0005091E0042091DD043091DE04240F351F9B
:1014D0003093DE042093DD046091E1047091E20416
:1014E000460F571F5093E0044093DF04359527952E
:1014F00035952795359527953595279535952795D4
:101500002F37310514F02FEFC4CF20384FEF3407B9
:1015100014F420E83FEF2058BCCF809162068093FE
:101520007C0080917A00806480937A0080917800BA
:10153000909179008F5F91402091E3043091E40411
:10154000280F391F359527959093E4048093E30481
:1015500080916606882309F443C01092E204109239
:10156000E1041092DE041092DD048091E104909178
:10157000E2049093E0048093DF0480E88093880085
:1015800086E999E09093F8058093F7058091C90466
:101590009091CA049093C8048093C7048091C504B5
:1015A0009091C6044091CD045091CE04480F591F2C
:1015B000CA01880F991F840F951F820F931F4091B6
:1015C000CB045091CC04840F951F959587959093EB
:1015D000CA048093C9043093C6042093C5040895B7
:1015E0004091DF045091E0048091DD049091DE048D
:1015F000840F951F9093DE048093DD046091E104D5
:101600007091E204460F571F5093E0044093DF04AB
:1016100095958795959587959595879595958795B2
:10162000959587958F37910514F08FEFA7CF803868
:101630004FEF940714F480E89FEF80589FCF80917C
:10164000620680937C0080917A00806480937A00A7
:1016500020917800309179002F5F31408091E30430
:101660009091E404820F931F959587953093E4043D
:101670002093E30420916606222331F11092E204C4
:101680001092E1041092DE041092DD042091E10436
:101690003091E2043093E0042093DF0420E82093AB
:1016A000880028EB39E03093F8052093F705209166
:1016B000CD043091CE043093CC042093CB0490938E
:1016C000CE048093CD0408954091DF045091E0044E
:1016D0002091DD043091DE04240F351F3093DE04A9
:1016E0002093DD046091E1047091E204460F571FDE
:1016F0005093E0044093DF04359527953595279561
:101700003595279535952795359527952F373105AB
:1017100014F02FEFC4CF20384FEF340714F420E833
:101720003FEF2058BCCF2F923F924F925F926F9223
:101730007F928F929F92AF92BF92CF92DF92EF9261
:10174000FF920F931F93CF93DF930E94E00827EF40
:1017500039E03093F8052093F7052091C5043091C6
:10176000C6044091CD045091CE04420F531F9A01FC
:10177000220F331F240F351F280F391F4091CB0430
:101780005091CC04240F351F359527959093C604AE
:101790008093C5048091C3049091C4044091C9040E
:1017A0005091CA04480F591FCA01880F991F840F0E
:1017B000951F820F931F4091C7045091C804840F56
:1017C000951F3093C4042093C304A091CF04B0911B
:1017D000D004309166063111CFC14091C1045091BF
:1017E000C2042091BF043091C004BA01621B730B84
:1017F0002091BD043091BE04FB01E21BF30BF0937A
:10180000E204E093E104C091BC043C2FCF5FC0939D
:10181000BC04311107C078944091C1045091C204B6
:10182000C091BC047093BE046093BD045093C00487
:101830004093BF0430916C01AD0102C055954795AE
:101840003A95E2F79A014091AF02443009F4BDC0E5
:101850004091AF02433009F4B8C0C090A404D090C6
:10186000A5048090B8049090B904E090A804F0908A
:10187000A904A090B404B090B504F701EA19FB09DB
:101880000091AC041091AD04A091B004B091B104EA
:10189000A8014A1B5B0B6090A0047090A104621A1F
:1018A000730AB60168197909660F771F660F771FEB
:1018B000660E771E77FE03C06FE3660E711C062C62
:1018C000672C000C661C7708000C661C771CBF0197
:1018D000640F751F77FF02C0695F7F4F759567952D
:1018E0007595679575956795660E771EBF01660FAE
:1018F000771F660F771F6E0F7F1F641B750B77FFB7
:1019000002C061587F4F660F672F661F770B660E08
:10191000771E57FF02C04F5F5F4F55954795640E86
:10192000751E4091A2045091A3045093A1044093CA
:10193000A004D092A304C092A2044091A6045091A6
:10194000A7045093A5044093A404F092A704E09246
:10195000A6044091AA045091AB045093A90440936B
:10196000A8041093AB040093AA044091AE045091D4
:10197000AF045093AD044093AC04B093AF04A09374
:10198000AE044091B2045091B3045093B10440931B
:10199000B004B092B304A092B2044091B604509146
:1019A000B7045093B5044093B4049092B704809266
:1019B000B6044091BA045091BB045093B9044093CB
:1019C000B8043093BB042093BA0440916C0102C068
:1019D000959587954A95E2F79093FD058093FC05D0
:1019E00030939F0420939E04409190045091910461
:1019F00020919204309193043093910420939004A9
:101A00002091940430919504309393042093920490
:101A10002091960430919704309395042093940478
:101A20002091980430919904309397042093960460
:101A300020919A0430919B04309399042093980448
:101A400020919C0430919D0430939B0420939A0430
:101A500090939D0480939C049091AF02943009F47C
:101A6000E5C18091AF02833009F49BC05195419547
:101A70005109461957098A0190918304DFEFD90F64
:101A8000D0938304C0907F04D0908004E0908104C0
:101A9000F09082049111AFC0C0921106D09212064C
:101AA000E0921306F092140610927F0410928004C4
:101AB000109281041092820480911001813009F407
:101AC000B6C0809195028E300CF003C12091950232
:101AD0008DE090E0821B910927FD939502C05595FA
:101AE00047958A95E2F78091A702811118C18091EC
:101AF0006806811134C1C0907B04D0907C04E090D2
:101B00007D04F0907E04DF7309F0CAC0C092050620
:101B1000D0920606E0920706F092080610927B0427
:101B200010927C0410927D0410927E0441158EEF79
:101B3000580714F440E05EEF4115E2E05E0714F050
:101B40004FEF51E05093C2044093C104C150C09381
:101B5000BC04DF91CF911F910F91FF90EF90DF9028
:101B6000CF90BF90AF909F908F907F906F905F903D
:101B70004F903F902F9008951092C2041092C1048C
:101B80001092C0041092BF041092BE041092BD04C3
:101B900010926606F0E0E0E070E060E050E040E0C7
:101BA0002ECE0091FC051091FD0580919E04909130
:101BB0009F04119501951109081B190B809186044A
:101BC000882309F445C28091840490918504209172
:101BD000FC053091FD05289FA001299F500D389FDD
:101BE000500D11248091FC059091FD059093850482
:101BF0008093840441CFC80117FF04C08827992728
:101C0000801B910B092E000CAA0BBB0B8C0D9D1D8C
:101C1000AE1DBF1D80937F0490938004A093810428
:101C2000B093820480911001813009F04ACF8091F5
:101C3000020190910301811574E0970774F09C01F3
:101C4000232F330F330B25952595FA01E29FA00131
:101C5000E39F500DF29F500D1124252F25952595BA
:101C6000352F330F330B37FD02C261E070E0FB010B
:101C7000E21BF30B6FEF7FE7681B790BE617F707A3
:101C800034F48E0F9F1F9093030180930201181666
:101C900019060CF0E5C12091950280E190E01ACF81
:101CA000C80117FF03C0919581959109092E000C79
:101CB000AA0BBB0B8C019D010C0D1D1D2E1D3F1D84
:101CC00000937B0410937C0420937D0430937E0466
:101CD0002DCF80919502052E000C660B770B8D5051
:101CE00004C0440F551F661F771F8A95D2F74130F5
:101CF000F0E85F07FFEF6F077F070CF4E9C04115BD
:101D000020E85207610571050CF4EDCE4FEF5FE757
:101D100060E070E08091A702882309F4E8CEE091AA
:101D20006704F09168042091A702CA018E1B9F0BE3
:101D30002150330B61E070E002C0660F771F2A95D7
:101D4000E2F70E94D835AB014E0F5F1F5093680435
:101D50004093670480916806882309F4CCCE809173
:101D60006806E0907104F0907204C0907504D09001
:101D70007604873008F0BEC08091790490917A048F
:101D800050937A04409379049A01281B390B6EE131
:101D9000629FC001639F900D112469E1649F9001CF
:101DA000659F300D1124820F931F97FD4F969595D7
:101DB000879595958795959587959595879595950B
:101DC000879520916806233009F4DCC308F453C1D9
:101DD000253009F4B7C308F41DC2263009F0C9C282
:101DE0009601220F331F280F391F40917304509121
:101DF0007404240F351F37FF02C02F5F3F4F359506
:101E0000279560916F0470917004AB01440F551FCA
:101E1000440F551F460F571FB701660F771F660FF8
:101E2000771F660F771F461B570B50C10091FC05AB
:101E30001091FD0580919E0490919F04119501954C
:101E40001109081B190B8091FC059091FD0560910B
:101E5000FC057091FD05181619061CF07195619529
:101E6000710980919E0490919F0420919E0430916D
:101E70009F04181619061CF0319521953109261773
:101E8000370794F1759567957B01E20EF31EC090BC
:101E90008E04D0908F04B6010D2C000C880B990B8A
:101EA0000E94AA3322E739EF4FE75FE30E940F3524
:101EB0000E9472339701220F331FC901860F971FAB
:101EC000AC014C195D0990938F0480938E04D4CD9E
:101ED00041E050E86FEF7FEF411520E852076105C0
:101EE00071050CF400CE12CF359527957901E60ED9
:101EF000F71ECDCF80916806853009F475C208F4CD
:101F0000E0C1863009F447C1873009F038C220911A
:101F10006F0430917004A3ECBFEF0E9433364B0185
:101F20005C012EE630E0D7010E944A36860E971EED
:101F3000A81EB91EB7FE05C08FE3880E911CA11C18
:101F4000B11CC501B401E6E0959587957795679535
:101F5000EA95D1F7F601E60FF71FF0937804E093C6
:101F6000770480916806A0906B04B0906C04853073
:101F700009F40AC208F4C3C1863009F455C2873097
:101F800009F04DC2C701880F991F4F01881A990A9D
:101F900020906F0430907004820C931C97FE03C055
:101FA0006FE1860E911C95948794959487949594EF
:101FB000879495948794959487942091690430919F
:101FC0006A04A2ECBFEF0E9433362B013C0120E7EC
:101FD00030E0D5010E944A36460E571E681E791E13
:101FE00077FE05C07FE3470E511C611C711C96E013
:101FF00075946794579447949A95D1F7480C591C57
:1020000050926E0440926D04B0926A04A0926904EA
:1020100050926C0440926B04F0927004E0926F0452
:10202000F0937204E0937104D0927404C09273042C
:102030005093760440937504A20157FE02C0495F95
:102040005F4F55954795559547955595479553CD70
:102050008091FC059091FD0521E020938604B7CD89
:1020600081E090E0909303018093020114CE3195BA
:1020700021953109FACD213009F4A8C0223009F0A8
:1020800078C19601220F331F280F391F4091730426
:1020900050917404240F351F37FF02C02F5F3F4F4C
:1020A0003595279560916F0470917004AB01440FD2
:1020B000551F440F551F460F571FB701660F771F57
:1020C0006E0D7F1D660F771F460F571F57FF02C00B
:1020D000415F5F4F55954795559547955595479560
:1020E00055954795241B350B30937804209377043E
:1020F00040916806E0916B04F0916C04433009F460
:10210000D0C108F4A4C0453009F482C208F45EC20C
:10211000463009F028C1A701440F551F420F531F35
:1021200060916F0470917004460F571F57FF02C0F3
:102130004D5F5F4F5595479555954795609169045B
:1021400070916A046E1B7F0B77FF02C06D5F7F4F3B
:102150007595679575956795461B570B50936E045B
:1021600040936D04F0936A04E093690450936C0407
:1021700040936B04F0927004E0926F043093720409
:1021800020937104D0927404C092730490937604E7
:1021900080937504B0CC20916F0430917004A2EC50
:1021A000BFEF0E9433364B015C012EE630E0D701D1
:1021B0000E944A36860E971EA81EB91EB7FEC1CED3
:1021C0007FE3870E911CA11CB11CBBCE9601220F90
:1021D000331F280F391F4091730450917404240F4A
:1021E000351F37FF02C02F5F3F4F35952795609110
:1021F0006F0470917004AB01440F551F440F551FBD
:10220000440F551F461B570BB701660F771F660F0C
:10221000771F56CF9601220F331F280F391F409189
:10222000730450917404240F351F37FF02C02F5FD1
:102230003F4F3595279560916F0470917004AB0105
:10224000440F551F460F571F4E0D5F1D3FCF4130A6
:1022500009F44FC1423009F086C0A701440F551F51
:10226000420F531F60916F0470917004460F571F07
:1022700057FF02C04D5F5F4F559547955595479560
:102280006091690470916A04DB01AA0FBB1FA60F5D
:10229000B71FAA0FBB1F7BE0B72EBE9EB001BF9E2B
:1022A000700D1124A60FB71FB7FD1F96B595A79502
:1022B000B595A795B595A795B595A7954A1B5B0BC1
:1022C0004DCF843009F05BC020916F0430917004D1
:1022D000A7ECBFEF0E9433364B015C0122E730E0F0
:1022E000D7010E944A36860E971EA81EB91EB7FE59
:1022F00028CE3FE3830E911CA11CB11C22CE84305A
:1023000009F08DC02091690430916A04ACECBFEFF4
:102310000E9433362B013C012FE530E0D5010E94AD
:102320004A36460E571E681E791E77FE05C02FE3FB
:10233000420E511C611C711C36E0759467945794D1
:1023400047943A95D1F7C701880F991FBF01681BC1
:10235000790BCB0120916F0430917004820F931F91
:10236000480E591E4DCE30936E0420936D04A90182
:10237000F9CE90937804809377049C01B9CEE091D4
:102380007704F0917804EDCDC701880F991F4F01B4
:10239000881A990A80916F0490917004880E991E92
:1023A00097FE03C073E0870E911C959487949594D3
:1023B00087942091690430916A04A5ECBFEF0E94D4
:1023C00033362B013C012AE630E0D5010E944A3623
:1023D000460E571E681E791E77FE09CE8FE3480E03
:1023E000511C611C711C03CE20916F04309170044C
:1023F000A4ECBFEF0E9433364B015C0121E730E0D3
:10240000D7010E944A36860E971EA81EB91EB7FE37
:1024100098CD6FE3860E911CA11CB11C92CD40900B
:102420006D0450906E04F0CDC701880F991F1F01F5
:10243000281A390A80906F0490907004280C391C77
:1024400037FE03C02FE0220E311C359427943594BB
:1024500027943594279435942794209169043091DA
:102460006A04A2ECBFEF0E9433362B013C0121E746
:1024700030E0D5010E944A36460E571E681E791E6E
:1024800077FE05C03FE3430E511C611C711C66E0E2
:1024900075946794579447946A95D1F7420C531CEE
:1024A000AFCDA701440F551F420F531F60916F041A
:1024B00070917004460F571F57FF02C04D5F5F4F6A
:1024C00055954795559547956091690470916A04B3
:1024D000DB01AA0FBB1FAA0FBB1FA60FB71FBF01AF
:1024E000660F771F660F771F660F771F6E1B7F0BB8
:1024F000D9CEA701440F551F420F531F60916F049F
:1025000070917004460F571F57FF02C04D5F5F4F19
:102510005595479555954795A0916904B0916A04E2
:10252000AA0FBB1FAA0FBB1FAA0FBB1FBF01660FBD
:10253000771F660F771F660F771F6E1B7F0B660F67
:10254000771FB0CE9601220F331F280F391F4091FD
:10255000730450917404240F351F37FF02C02F5F9E
:102560003F4F3595279540916F04509170044E1957
:102570005F0957FF02C04D5F5F4F559547955595D1
:102580004795B0CD9601220F331F280F391F409178
:10259000730450917404240F351F37FF02C02F5F5E
:1025A0003F4F3595279540916F0450917004440F2B
:1025B000551F4E0D5F1D57FF02C0495F5F4F559578
:1025C000479555954795559547958CCDA701440F4F
:1025D000551F420F531F60916F0470917004460F96
:1025E000571F57FF02C04D5F5F4F55954795559553
:1025F00047956091690470916A04DB01AA0FBB1FC3
:10260000A60FB71FBF01660F771F660F771F4ACE51
:10261000A701440F551F420F531F60916F04709123
:102620007004460F571F57FF02C04D5F5F4F55950F
:10263000479555954795A0916904B0916A04AA0FF2
:10264000BB1FAA0FBB1FAE1BBF0B2ECE8091EB058D
:1026500080938A00E091940284E0E89FF0011124C5
:10266000EC52FD4F2081318142815381AEE1B3E0D4
:102670000E94513620EC32E140E050E00E94EC35FF
:1026800080910001309150042802C0011124EFE72D
:10269000F0E0BF010E94D835360F3093500480918E
:1026A0005004309100012802C0011124BF010E9492
:1026B000D835361B30930001809101018823A1F0A9
:1026C0008091500440910101082E000C990B20E1EB
:1026D00030E0241B310902C0959587952A95E2F7D1
:1026E000805880938800089580E8FBCF0F931F9354
:1026F000CF93DF93EDE2F4E02BE434E042815381A9
:10270000419351932E173F07C9F79C01220F331FA6
:1027100040912B0450912C04240F351F440F551F5A
:10272000841B950BE3E0F0E0BF010E94D835709365
:102730002C0460932B048091290490912A04880F23
:10274000991F820F931FBF010E94D83570932A04EE
:1027500060932904261B370B30934C0420934B04C1
:1027600080913B0490913C04FC01EE0FFF1F4091CF
:10277000390450913A0460913D0470913E04461B27
:10278000570B2091310430913204609145047091CF
:102790004604261B370B220F331F220F331F609175
:1027A0002D0470912E04A0914904B0914A046A1B33
:1027B0007B0B260F371F220F331F6091350470915A
:1027C0003604A0914104B09142046A1B7B0BC5E121
:1027D000C69FD001C79FB00D11242A0F3B1FBA011D
:1027E00014E0660F771F1A95E1F7260F371F37FFA2
:1027F00002C0215C3F4F66E0359527956A95E1F769
:10280000240F351FE230F10544F4CF01F7FD0196A6
:1028100095958795919581959109B901223031055A
:1028200094F075956795681779073CF1E230F105EA
:102830000CF4EEC0CF01B3E095958795BA95E1F71A
:10284000860F971F22C037FF02C06F5F7F4F7595BD
:102850006795719561957109681779073CF7A9012A
:1028600037FF02C0495F5F4FC3E055954795CA9552
:10287000E1F751954195510906C0A901D3E055955D
:102880004795DA95E1F7840F951F40916601481747
:10289000190608F0CEC040917B064111C8C04FEF29
:1028A00040937B064091650102C0880F991F4A95AD
:1028B000E2F78F3F910509F020F44091650148301F
:1028C00011F48FEF90E040917B06442309F4BAC0E5
:1028D00084519B4FDC018C9180935104E90137FFB7
:1028E00004C0CC27DD27C21BD30B8F01F7FF04C028
:1028F000002711270E1B1F0B0C171D070CF0A4C07F
:1029000045EE4003C001419F900D1124BE010E947D
:10291000D8356A597F4F609FC001619F900D709FAD
:10292000900D1124BE010E94D835CB0166E970E0FC
:10293000681B790BF7FF06C08CE291E0DC01A61B57
:10294000B70BBD0137FF03C0719561957109809187
:102950002704909128049B01281B390B70932804AD
:102960006093270437FF02C0285A3D4F2C32B1E054
:102970003B076CF08091E804882349F02C523140E9
:1029800090914F0481E0911180E080934F048091F9
:102990006806882309F474C080916806833009F4BE
:1029A00072C08CE291E08217930714F5809168065B
:1029B000882309F46BC080916806833009F469C0EC
:1029C0008CE291E0281B390B621B730B7093280477
:1029D000609327048091680628E532E0882341F05F
:1029E000809168062CE231E0833011F426E930E072
:1029F0008091AF02813009F04FC0C90123E0880FF8
:102A0000991F2A95E1F7DF91CF911F910F910895BA
:102A1000AF01F7FF02C0495F5F4FA3E055954795AF
:102A2000AA95E1F788279927841B950B09CF4EEFCC
:102A300037CF40917B06442309F434CF40917B0685
:102A400041502ECF80E048CF70E060E0309709F42D
:102A500079CF45EEBE014603C001479F900D11247A
:102A6000B8010E94D8356A597F4F6C9FC0016D9F95
:102A7000900D7C9F900D1124B8010E94D8355ACF3B
:102A800088E592E090CF86E990E08DCF88E592E0EE
:102A900099CF86E990E096CF48EF4203C001439F6B
:102AA000900D1124B0CFCF93DF93C0917800D091D7
:102AB000790080917A00806480937A000E944A04B1
:102AC0008091E804882341F080914F046FE08111E8
:102AD0006FE182E10E94B7048091510480938A00E3
:102AE0008091780090917900C80FD91F80917A0069
:102AF000806480937A0080914D0490914E040E94EE
:102B000076132091780030917900C20FD31F209165
:102B10007A00206420937A00BC01990F880B990BEE
:102B20000E944102209178003091790090917A00C2
:102B3000906490937A00CE01820F931F97FD0396C5
:102B40009595879595958795805E914090934E04D5
:102B500080934D0480917B06813031F410928A007D
:102B60006FEF83E00E94B70480917B068F3F31F4C2
:102B70006BEF83E0DF91CF910C94B704DF91CF919D
:102B80000895F8948BB1807F8061962F92959F7005
:102B9000892B8BB98BB1807F80616F70682B3C98DB
:102BA00000005C986BB93C9A3C9800005C983C9A99
:102BB0000E94A1078BEE90E00197F1F781E090E091
:102BC0000895682F8FE996E00C94C1158F929F921B
:102BD000AF92BF92CF92DF92EF92FF92CF93C091CC
:102BE000FE0580916604C81709F47AC080918206B8
:102BF00081110DC00E94C7078FEC0E94BC0782E5BF
:102C0000C11101C080E20E94E1150E94EB07809093
:102C1000560490905704A0905804B0905904CC23C7
:102C200009F493C00E942B046093620470936304C0
:102C300080936404909365040E942B04C0905E040A
:102C4000D0905F04E0906004F09061049B01AC01BF
:102C50002C193D094E095F0969017A01C0925A0495
:102C6000D0925B04E0925C04F0925D048091850652
:102C7000823030F1D501C401880F991FAA1FBB1FF4
:102C80008C159D05AE05BF05D8F40E94BB0260EB14
:102C900074E080E090E0A50194010E94EC35CA0147
:102CA000B901A2E0660F771F881F991FAA95D1F777
:102CB00023E030E040E050E00E94EC3520936B01CF
:102CC000A5E0B0E0A50194010E945136C616D706D2
:102CD000E806F90628F081E0809385060E94BB0291
:102CE0000E942B04C0905E04D0905F04E0906004CA
:102CF000F09061049B01AC012C193D094E095F095C
:102D000069017A012091560430915704409158048A
:102D100050915904A6E0B0E00E9451366C157D0533
:102D20008E059F0530F480918506823010F00E9458
:102D3000BB02C0936604CF91FF90EF90DF90CF90DD
:102D4000BF90AF909F908F9008950E942B04609346
:102D50005E0470935F0480936004909361040E940A
:102D60002B04C0906204D0906304E0906404F0905F
:102D700065049B01AC012C193D094E095F096901ED
:102D80007A01D501C401880F991FAA1FBB1FC8165D
:102D9000D906EA06FB0620F089288A288B28A1F4A8
:102DA000BC01CD016C0D7D1D8E1D9F1D23E030E00B
:102DB00040E050E00E94EC352093560430935704D5
:102DC000409358045093590420915604309157046D
:102DD0004091580450915904A5E0B0E00E9451364A
:102DE0006C157D058E059F0580F4C701B60123E0B3
:102DF00030E040E050E00E94EC35209356043093E0
:102E000057044093580450935904409156045091EC
:102E100057046091580470915904DB01CA01B695BA
:102E2000A795979587958C159D05AE05BF0508F06C
:102E300057CF8091850690E0880F991F440F551F4A
:102E4000661F771F21E04C155D056E057F0508F0B4
:102E500020E0822B8093850643CF0F931F93CF935F
:102E6000DF938C01D0E0C0E0F801EC0FFD1F64910E
:102E7000662341F08FE996E00E94C115892B11F07D
:102E80002196F2CFCE01DF91CF911F910F9108953E
:102E900082EC90E00C942D170F931F93CF93C62FC5
:102EA0008A018130A1F580E80E94BC078C2F8295B1
:102EB0008F70CF708A3021F481E30E94E11580E0A9
:102EC000805D0E94E1158EE20E94E115CA3020F07B
:102ED000CA5081E30E94E11580E38C0F0E94E11546
:102EE00080E20E94E115C8010E942D170E94481738
:102EF0000E94481780EC0E94BC07809182068230B5
:102F000098F08EE3CF911F910F910C94E11580EC16
:102F10000E94BC07C8010E942D178FEC90E0CF9152
:102F20001F910F910C942D17CF911F910F91089520
:102F3000089590E080E008950F931F93CF93DF935F
:102F400090E080E00E947904D0E0C0E001E010E071
:102F5000C8010C2E02C0880F991F0A94E2F78095D1
:102F6000909581600E9479046EE170E080E090E0CD
:102F70000E94F80390E080E00E9479042196C0311D
:102F8000D10531F7DF91CF911F910F910895FC0189
:102F900001900020E9F73197AF01481B590BBC01A4
:102FA0008FE996E00C94D8028F929F92AF92BF92D5
:102FB0000F931F93CF93DF93CDB7DEB7A1970FB6D3
:102FC000F894DEBF0FBECDBF19A2423008F44AE02C
:102FD0008E010F5D1F4F842E912CB12CA12CA501C9
:102FE00094010E94EC35E62FB901CA01EA30F4F4ED
:102FF000E05DD801EE938D01232B242B252B79F74F
:1030000090E080E0109719F0CD010E94C717A196BB
:103010000FB6F894DEBF0FBECDBFDF91CF911F91E9
:103020000F91BF90AF909F908F900895E95CE1CF92
:10303000CF92DF92EF92FF92CF93DF9397FF19C069
:103040006B017C018DE20E94E115EC016627772778
:10305000CB016C197D098E099F094AE00E94D417A3
:103060008C0F9D1FDF91CF91FF90EF90DF90CF905D
:1030700008954AE0DF91CF91FF90EF90DF90CF90DD
:103080000C94D417009711F00C94C71790E080E0CF
:1030900008954F925F926F927F928F929F92AF921C
:1030A000BF92CF92DF92EF92FF920F931F93CF9335
:1030B000DF934B015C0180EC0E94BC0780916906A4
:1030C00090916A06A0916B06B0916C06892B8A2BB1
:1030D0008B2B09F040C04091670630916706209124
:1030E0007B0681E090E0323011F090E080E030E04B
:1030F00082239323417020E0842B922B892B69F546
:1031000086E00E94E1158091690690916A06A0917F
:103110006B06B0916C06892B8A2B8B2B01F1809169
:103120007B0681111CC08090690690906A06A09071
:103130006B06B0906C068BEC90E00E942D1780918E
:10314000690690916A06A0916B06B0916C06B7FF74
:1031500083C08DE282C080E2D4CF87E0D2CFC501A8
:10316000B40120E836E948E950E00E940E36232BEE
:10317000242B252B09F47AC040E8C42E46E9D42E2E
:1031800048E9E42EF12C9AE0492E512C612C712C47
:10319000C501B401A70196010E940E368B01D82FFC
:1031A000C92F57FF07C050954095309521953F4F47
:1031B0004F4F5F4FCA01B9010E94181888EEC81618
:1031C00083E0D806E104F10441F020E4C21622E4D1
:1031D000D2062FE0E206F10419F48CE20E94E11518
:1031E0004801AD2EBC2EC701B601A30192010E9479
:1031F0000E3669017A0181E0C816D104E104F104B8
:1032000039F680E20E94E115E091AF02F0E0EE0FA6
:10321000FF1FE75AFE4F808191810E94421880E291
:103220000E94E1158FEC0E94BC07809180068111FD
:1032300028C082E5DF91CF911F910F91FF90EF9011
:10324000DF90CF90BF90AF909F908F907F906F90C6
:103250005F904F900C94E1158BE20E94E11538EEDF
:10326000C32E33E0D32EE12CF12C8DCF80E20E94CF
:10327000E11520E4C22E22E4D22E2FE0E22EF12C22
:1032800082CF86E5D7CF4F925F926F927F928F92D7
:103290009F92AF92BF92CF92DF92EF92FF926B011B
:1032A0007C01AC019B010E947C35882381F084E382
:1032B00093E0FF90EF90DF90CF90BF90AF909F9002
:1032C0008F907F906F905F904F900C94C71746013E
:1032D0005701E894B7F82FEF3FEF4FE75FE7C501DD
:1032E000B4010E947C3581110DC02FEF3FEF4FE7F5
:1032F0005FE7C501B4010E94FB3218161CF488E395
:1033000093E0D7CF2FEF3FEF4FE75FE4C701B60160
:103310000E94B23418161CF48CE393E0CACF2FEF4E
:103320003FEF4FE75FECC701B6010E94FB3287FD1C
:10333000F3CF20E030E0A901C701B6010E94FB32C3
:10334000B12CA12C87FF08C08DE20E94E1155C0121
:10335000F7FAF094F7F8F0942AE037ED43EA5BE3EC
:10336000C701B6010E948F322B013C010E947933C4
:103370006B017C010E94A8339B01AC01C301B20127
:103380000E948E322B013C014AE0C701B6010E9427
:10339000D4177C01EA0CFB1C8EE20E94E115E80EBA
:1033A000F91E20E030E040E251E4C301B2010E9486
:1033B0000F352B013C010E9479334B01B12CA12C1C
:1033C0004AE0C501B4010E94D417E80EF91EC501F8
:1033D000B4010E94A8339B01AC01C301B2010E9459
:1033E0008E3220E030E040E251E40E940F350E942E
:1033F000793390E080E04AE00E94D4178E0D9F1D43
:10340000FF90EF90DF90CF90BF90AF909F908F9004
:103410007F906F905F904F900895CF93DF93282F08
:10342000CB016091EA047091EB04C42FD0E023300B
:1034300079F0243089F04091EA045091EB04C40FF4
:10344000D51FD093EB04C093EA04DF91CF91089588
:10345000AE010E946632EFCFAE010E947632EBCF12
:10346000EF92FF920F931F93CF937B01642F8430D1
:1034700009F48BC058F4823098F040E2B701CF9144
:103480001F910F91FF90EF900C940D1A8630A9F7C1
:1034900080918306803218F48F5F8093830681E0E9
:1034A00090918206933011F01092830690918206DB
:1034B000923019F493E090938206C0918306D7016D
:1034C000AC0FB11D9C91E92F092E000CFF0B409110
:1034D00081068F01040F111D47FD1A950032110559
:1034E000BCF0409181068F01040F111D47FD1A9514
:1034F000012B71F040918106E40FF11D47FDFA9513
:10350000EB35F1050CF03FC040918106940F01C0EE
:1035100090E29C9310928106A9010E944C170C2FF7
:1035200006950695069588E0089F800111240E0DEA
:103530001F1DF12CE12CF80181918F01882349F0A6
:103540000E94E115FFEFEF1AFF0A8DE0E816F10483
:1035500091F781E00E94E1150E9448179091820640
:103560008C2F8770805CC1E0923008F4C0E08C0F33
:1035700080680E94BC078EE0CF911F910F91FF9051
:10358000EF900C94BC079AE5C4CFF701B0969291E6
:103590009F7D09F072CF1082EE16FF06C1F76DCF46
:1035A0004F925F926F927F928F929F92AF92BF9253
:1035B000CF92DF92EF92FF920F931F93CF93DF93FF
:1035C000CDB7DEB7FB01823008F063C09081409038
:1035D0008106042C000C550866087708490E511C1A
:1035E000611C711C4C145D046E047F046CF5C08278
:1035F0006901F42E5F01E82E109281060E94C70730
:10360000A6016F2D8E2D0E944C17F5010115110595
:10361000A1F5608170E090E080E04AE00E94D4175C
:103620000E944817DF91CF911F910F91FF90EF906B
:10363000DF90CF90BF90AF909F908F907F906F90D2
:103640005F904F900C9448179081C09081060C2C8D
:10365000000CDD08EE08FF08C90ED11CE11CF11CAE
:103660008C149D04AE04BF0414F48082C1CF508139
:1036700090918106950F9083BBCF808190E0880F59
:10368000991F080F191FF801808191810E9442182B
:10369000C7CF41E0DF91CF911F910F91FF90EF9045
:1036A000DF90CF90BF90AF909F908F907F906F9062
:1036B0005F904F900C940D1A4F925F926F927F9291
:1036C0008F929F92AF92BF92CF92DF92EF92FF9232
:1036D0000F931F93CF93DF93EB01823008F076C0F6
:1036E000488059806A807B8090918106892E990F4D
:1036F0009908AA08BB08840C951CA61CB71CB7FE29
:103700002EC0188219821A821B826901F42EE82EBB
:10371000109281060E94C707A6016F2D8E2D0E9470
:103720004C170115110509F043C0688179818A8120
:103730009B810E9418180E944817DF91CF911F911A
:103740000F91FF90EF90DF90CF90BF90AF909F9040
:103750008F907F906F905F904F900C9448174880A7
:1037600059806A807B8090918106892E990F9908F3
:10377000AA08BB08840C951CA61CB71CC814D90445
:10378000EA04FB042CF4C882D982EA82FB82BDCF12
:1037900088809980AA80BB8090918106C92E990F5C
:1037A000DD08EE08FF08C80CD91CEA1CFB1CEBCF97
:1037B00088819981AA81BB81880F991F080F191FE1
:1037C000F801808191810E944218B5CF44E0DF91D9
:1037D000CF911F910F91FF90EF90DF90CF90BF900E
:1037E000AF909F908F907F906F905F904F900C94D0
:1037F0000D1A80E80E94BC078091E804882321F11B
:1038000081E78093450380912506882391F01F92DC
:103810008F9388E493E09F938F9385E493E09F9345
:103820008F930E944C370F900F900F900F900F9036
:103830000F9080E493E00E94421881E00E94E1151D
:103840000E9448170C94481780E2DBCF8F929F921A
:10385000AF92BF92CF92DF92EF92FF920F931F939E
:10386000CF93DF93C82FD62F7DEFB72EB80E00E58C
:1038700011E021E02B1580F01093EB040093EA0493
:10388000AA24A394AD1640F46A2D85E00E94261C5C
:10389000A394F8CFDFE2EDCFDF3F59F5D1E06D2FF4
:1038A0008C2F0E94261CDF5FDE33C9F76BEC6D0F97
:1038B000693008F09BC3A62EB12CB501660F771FA7
:1038C000660F771F6F5C794FC12CD12C760110E009
:1038D00000E030E020E040E08C2F0E945C1BB5014E
:1038E0006A5D794F812C912C540130E020E040E05A
:1038F000BAC0D533D8F6ED2FF0E0EF57F34E0C9465
:103900002D36EE1FB61C241D371D471D571D671D84
:10391000761D851D941D561CA41DB41D561CC41D6A
:10392000561C561CD31DE21D561C561C561C561CFC
:103930003F1E4E1E5E1E561C561C6E1E7E1E871E91
:103940008D1E931E991E9F1EA51EBA1ECC1E3E1FC5
:10395000561C4E1F561C561C561C561C561C561CDC
:103960005D1F6C1F771F821F901F9E1FC23008F0C3
:1039700064C08091950240918106082E000C990B3D
:10398000AA0BBB0B042E000C550B660B770B840F98
:10399000951FA61FB71F8F3F9F4FAF4FBF4F7CF59F
:1039A0008FEF80939502109281060E94C7074DE920
:1039B00051E061E18C2F0E944C178091950287FDA8
:1039C00003C08BE20E94E11560919502062E000C67
:1039D000770B880B990B0E9418180E9448170E94B9
:1039E00048178D2FDF91CF911F910F91FF90EF908E
:1039F000DF90CF90BF90AF909F908F90089580916F
:103A0000950240918106082E000C990BAA0BBB0B66
:103A1000042E000C550B660B770B840F951FA61F09
:103A2000B71F4197A105B10514F080E1BACF80918D
:103A3000950290918106890FB4CF41E065E972E06B
:103A40008C2F0E940D1ACDCF64E0862E912CA12CD4
:103A5000B12CC12CD12C760109E511E028E931E027
:103A600042E16FEA72E08C2F0E94D01ABACF5AE07E
:103A7000852E912CA12CB12CC12CD12C760103E4E4
:103A800011E025E931E043E168E676E0ECCF4AE079
:103A9000842E912CA12CB12CC12CD12C76010DE2BD
:103AA00011E020E931E044E166E972E0DCCF39E081
:103AB000832E912CA12CB12CC12CD12C760109E1A3
:103AC00011E02BE831E045E169EA72E0CCCF812CCE
:103AD000912C54018394C12CD12C760105E111E085
:103AE00027E831E046E167E676E0BDCFC12CD12C76
:103AF0007601C39401E111E023E831E047E169E692
:103B000076E08C2F0E945C1B6CCF812C912C540191
:103B10008394C12CD12C760101E111E02FE731E033
:103B200048E160E171E09FCF00E1802E912CA12C53
:103B3000B12CC12CD12C760110E000E02CE731E053
:103B400049E167EA72E08FCF10E1812E912CA12C20
:103B5000B12CC12CD12C760110E000E028E731E037
:103B60004BE16CE671E07FCFB4E08B2E912CA12C61
:103B7000B12CC12CD12C760106E011E020E731E018
:103B80004CE16DEA72E06FCF812C912C540183944B
:103B9000C12CD12C760101E111E025E631E041E2B2
:103BA0006EEA72E060CF812C912C54018394C12C79
:103BB000D12C760101E111E02CE531E044E269EE1F
:103BC00074E051CFC23008F056C080916F019091DF
:103BD000700140918106092E000CAA0BBB0B042E2C
:103BE000000C550B660B770B840F951FA61FB71F94
:103BF000181619061A061B06CCF081E090E0909387
:103C0000700180936F01109281060E94C70743E5FF
:103C100051E065E28C2F0E944C1760916F0170910A
:103C20007001072E000C880B990BD5CE80916F0187
:103C30009091700140918106092E000CAA0BBB0BDC
:103C4000042E000C550B660B770B840F951FA61FD7
:103C5000B71F4F97A105B1051CF08EE190E0CFCFC3
:103C600080916F019091700120918106820F911DCA
:103C700027FD9A95C4CF42E06FE671E0E1CE812C3A
:103C8000912C54018394C12CD12C760101E111E0D7
:103C90002FE431E041E360E876E0E5CE70E5872E81
:103CA000912CA12CB12CC12CD12C760110E000E07C
:103CB00028E431E042E366E671E0D5CE60E1862E8D
:103CC000912CA12CB12CC12CD12C760110E000E05C
:103CD0002FE331E043E365E671E0C5CE58EC852E75
:103CE000912CA12CB12CC12CD12C760110E000E03C
:103CF00022E331E041E461E771E0B5CE29E231E051
:103D000042E462E771E08C2F0E94301A6ACE20E212
:103D100031E043E462EA71E0F6CF27E131E044E4C8
:103D200062ED71E0F0CF2EE031E045E462E072E058
:103D3000EACF25E031E046E462E372E0E4CF2CEF25
:103D400030E047E462E672E0DECF80906301882DC8
:103D50008150990B4C01092C000CAA08BB08C12CFE
:103D6000D12C760110E000E024EF30E041E86CEE69
:103D700075E079CEC090EC05D12CF12CE12C46E910
:103D8000842E912CA12CB12C10E000E02CEE30E020
:103D900042E863E671E067CEC23008F06BC0809104
:103DA000990690919A06A0919B06B0919C0640912D
:103DB0008106042E000C550B660B770B840F951FA4
:103DC000A61FB71F80389F49A54DB10514F580E89F
:103DD0009FE9A5EDB0E08093990690939A06A09391
:103DE0009B06B0939C06109281060E94C70744EE82
:103DF00050E063E88C2F0E944C17609199067091F7
:103E00009A0680919B0690919C064AE00E94D417E6
:103E1000E4CD8091990690919A06A0919B06B0916D
:103E20009C0640918106042E000C550B660B770B07
:103E3000840F951FA61FB71F81309F43AB4AB14027
:103E40002CF080E09FE3ABEAB1E0C5CF809199060A
:103E500090919A06A0919B06B0919C064091810694
:103E6000042E000C550B660B770B840F951FA61FB5
:103E7000B71FB1CF44E069E976E0E2CD34EB832EA1
:103E8000912CA12CB12CC12CD12C760110E000E09A
:103E90002BED30E044E862E972E0E5CD812C912C15
:103EA00054018394C12CD12C760101E111E026ED5F
:103EB00030E047E868EE74E0D6CD812C912C5401B7
:103EC0008394C12CD12C760101E111E022ED30E088
:103ED00041EA64E671E0C7CDC12CD12C760110E037
:103EE00000E030E020E040E06BE972E00ACEC12C57
:103EF000D12C760110E000E030E020E040E06FE9F6
:103F000072E0FFCD812C912C5401C12CD12C760173
:103F100010E000E030E020E040E063EA72E0A3CD92
:103F2000812C912C5401C12CD12C760110E000E0A1
:103F300030E020E040E064EA72E095CDC23008F065
:103F400049C02091FA053091FB0580918106082E29
:103F5000000C990BAA0BBB0B820F931FA11DB11D67
:103F6000B7FF15C01092FB051092FA05109281065A
:103F70000E94C70750E040E060E08C2F0E944C1781
:103F80006091FA057091FB0590E080E03ECF2091B2
:103F9000FA053091FB0580918106082E000C990BE3
:103FA000AA0BBB0B820F931FA11DB11D181619067A
:103FB0001A061B06BCF28091FA059091FB05209130
:103FC0008106820F911D27FD9A959093FB058093A2
:103FD000FA05CCCF42E06AEF75E032CD109282064E
:103FE0000E94F91B81E08093A802FBCCC23009F04B
:103FF000F8CCDF3209F4F5CC8091810621E030E085
:10400000181614F02FEF3FEF8D2F90E0280F391F77
:104010002033310514F42091810620918106121677
:1040200074F421E030E0820F931FC0970CF032CC83
:1040300080918106181634F481E0D80F1ACC2FEF46
:104040003FEFF1CF8FEFF9CFCF93C82F8091700062
:104050008D7F809370008BE490E00197F1F7F894E6
:10406000C0937B068091690690916A06A0916B06C9
:10407000B0916C06892B8A2B8B2B51F060919702A3
:10408000709198028091990290919A020E94491829
:10409000CC2309F495C0809104019091050190937F
:1040A000E7048093E6041092770610927806109247
:1040B000790610927A068091AF02823009F477C0B7
:1040C00008F46EC0833009F478C0843009F472C0FB
:1040D0007894CC2309F4ADC08091630680937C0072
:1040E0001092F9058091AE02882361F08091AF02B1
:1040F000823041F481E0C11101C080E08093FE056F
:104100000E94E615CC2309F4A9C060E088E00E9473
:10411000570361E08BE00E9457038FEC0E94BC07BD
:1041200084E50E94E1158091AF02823009F085C0DC
:1041300080915D0690915E06A0915F06B091600649
:104140009C01AD0166277727CB01621B730B840BA3
:10415000950B0E9441020E944A046BEF83E00E948B
:10416000B70480E8809388008091E504811109C03C
:104170008091AF02823029F0809180008F77809308
:1041800080008091800080628093800080E4809332
:10419000B30080917000826080937000CF91089589
:1041A00083E595E19093F8058093F70591CF86E23A
:1041B00093E1F8CF86E198E0F5CF8CE398E0F2CF79
:1041C0008091AF02823009F5809177069091780650
:1041D000A0917906B0917A06892B8A2B8B2BA9F4B2
:1041E0000E942B04605C7F4F8F4F9F4F6093770638
:1041F000709378068093790690937A068091E9040B
:10420000811114C083E99BE0CDCF8091E6049091A9
:10421000E7049093050180930401109277061092B1
:1042200078061092790610927A06ECCF86EA98E02A
:10423000B9CF81E08093660653CF80916906909153
:104240006A06A0916B06B0916C06892B8A2B8B2B8A
:1042500009F483CF60E070E0CB017BCF80918000D8
:10426000806880938000809180008F7D80938000A3
:1042700060E08AE00E94570310928A008091E8046F
:10428000882321F06FE082E10E94B7046CEF83E0A5
:104290000E94B7048091770690917806A0917906E4
:1042A000B0917A06892B8A2B8B2B21F08091E9041F
:1042B00081110DC08091640661E0823009F460E0F4
:1042C00088E00E94570360E08BE00E9457036091F2
:1042D000690670916A0680916B0690916C060E9447
:1042E00041020E944A0480916D01882331F00E94AE
:1042F000F91B8DE493E00E9442188FEC0E94BC07EA
:1043000080918006811105C082E50E94E11584E05C
:104310003ECF86E5FACF1F920F920FB60F9211246F
:104320002F933F938F939F93AF93BF938091EE050D
:104330009091EF05A091F005B091F1053091ED0558
:1043400023E0230F2D3758F50196A11DB11D2093B1
:10435000ED058093EE059093EF05A093F005B093E3
:10436000F1058091F2059091F305A091F405B091CB
:10437000F5050196A11DB11D8093F2059093F305FB
:10438000A093F405B093F505BF91AF919F918F91E4
:104390003F912F910F900FBE0F901F90189526E818
:1043A000230F0296A11DB11DD2CF1F920F920FB6FF
:1043B0000F9211242F933F934F935F936F937F93AB
:1043C0008F939F93AF93BF93EF93FF93E091F70584
:1043D000F091F8050995FF91EF91BF91AF919F91F1
:1043E0008F917F916F915F914F913F912F910F909E
:1043F0000FBE0F901F9018951F920F920FB60F923D
:1044000011240F931F932F933F934F935F936F93B9
:104410007F938F939F93AF93BF93CF93DF93EF934C
:10442000FF93C091F60580E1C89FE001112486E06A
:104430000E942E038C0187E00E942E03000F111FA3
:104440008C2B802B8093F6058332B9F08233D9F020
:10445000FF91EF91DF91CF91BF91AF919F918F919C
:104460007F916F915F914F913F912F911F910F918C
:104470000F900FBE0F901F901895809181068F5F4F
:1044800080938106E5CF809181068150F9CFCF934B
:10449000DF93CDB7DEB7A2970FB6F894DEBF0FBE9D
:1044A000CDBF789484B5826084BD84B5816084BDBD
:1044B00085B5826085BD85B5816085BD80916E00C2
:1044C000816080936E0010928100809181008260F3
:1044D0008093810080918100816080938100809130
:1044E00080008160809380008091B100846080931F
:1044F000B1008091B00081608093B00080917A001B
:10450000846080937A0080917A00826080937A0040
:1045100080917A00816080937A0080917A0080682F
:1045200080937A001092C10060E08AE00E945703F5
:104530000E947F0714BE88E198E20FB6F894A89510
:10454000809360000FBE9093600080E480937C00B5
:104550001092680010926B0010926C0010926D0027
:1045600062E087E00E94850362E086E00E948503A6
:1045700080916D00806C80936D00809168008460F4
:104580008093680086E00E942E036C0187E00E9401
:104590002E03CC0CDD1CC82AC092F605789460E08E
:1045A0008BE00E94570361E088E00E94570360E0BF
:1045B0008AE00E94570360E089E00E94570361E0AF
:1045C00089E00E94850361E08BE00E94850361E041
:1045D00088E00E94850361E08AE00E94850360E034
:1045E00081E10E94850362E08DE00E94850360E026
:1045F0008CE00E94850360E08EE00E94570360E03B
:104600008FE00E94570360E08EE00E94850360E027
:104610008FE00E94850360E08BE00E94570361E019
:104620008BE00E94850360E084E10E94850360E0E6
:1046300085E10E94850361E085E00E94850364E6D0
:1046400070E080E090E00E94F8038AB18F618AB93F
:104650003C9A8BE39DE00197F1F73C9A5C9883E3E9
:104660000E94BC078BE4C82E86E4D82EC6010197B1
:10467000F1F783E30E94BC07C6010197F1F783E3DA
:104680000E94BC0783E592E00197F1F782E30E9464
:10469000BC0788E20E94BC078CE00E94BC0781E056
:1046A0000E94BC0763E070E080E090E00E94F803A5
:1046B00086E00E94BC071092FD051092FC055E0189
:1046C00029E0A20EB11C8091FC059091FD05089790
:1046D000A9F16091FC057091FD0513E0660F771F4D
:1046E0001A95E1F76B5B7D4F48E050E0CE010196F3
:1046F0000E945D328091FC059091FD058F5F48E03E
:10470000849FC0011124887380640E94BC07CE017D
:1047100001966C01D6016D916D018FE996E00E94C2
:10472000C115CA14DB04B1F78091FC059091FD0519
:1047300001969093FD058093FC05C5CF0E94F91B5F
:104740000E94481780E80E94BC078BE392E00E9419
:104750002D1780EC0E94BC078BE292E00E942D177F
:1047600068EE73E080E090E00E94F8030E94481732
:1047700080E80E94BC0784E292E00E942D1787E83F
:104780000E94BC0781E292E00E942D178AE192E02C
:104790000E942D170E9448176CED75E080E090E0B4
:1047A0000E94F80384E080936501E0919402B4E0F4
:1047B000EB9FF0011124EC52FD4F80819181A28189
:1047C000B38180935D0690935E06A0935F06B093DD
:1047D0006006E1E3F6E08CE2DF011D928A95E9F7DD
:1047E000109229061092280610922706109226068B
:1047F00081E080932E0680932D0680932C06809373
:104800002B0680932A0664E383E00E94261C809195
:10481000FA059091FB05823D910509F498C382ED5C
:1048200090E09093FB058093FA056FEF84E00E947F
:10483000261C80EC0E94BC0789E092E00E942D17A4
:104840006CED75E080E090E00E94F803A89510926E
:104850009E0610929D06DD24D394D092A8028091EA
:10486000960280939302109280061092690610922D
:104870006A0610926B0610926C0680916706082FEC
:10488000017010E0000F111F000F111FF801E55615
:10489000FD4F80819181A281B38180939702909393
:1048A0009802A0939902B0939A028091670680FBC8
:1048B000EE24E0F8F12CF701ED55FD4F8081809357
:1048C000AF020E94CA0760E273E080E090E00E94BD
:1048D000F8030E94F91BD09266061092F90583E94D
:1048E0009BE09093F8058093F70524E63EED45E0C4
:1048F00050E061E082E00E94A70880917C008093F4
:1049000063068091640661E0813009F460E029E982
:1049100037E741E050E080E00E94A70880917C00EA
:10492000809361068091640661E0813009F460E063
:1049300029E937E741E050E081E00E94A708809133
:104940007C0080936206109280001092810080911A
:104950008000826A809380008091810089618093C9
:104960008100109287008FEF80938600109289005B
:104970001092880010928B0010928A008091B600ED
:104980008F7D8093B6001092B0001092B10010920B
:10499000B2008091B00082608093B0008091B1003D
:1049A00084608093B1008091700082608093700079
:1049B00084E08093B300809180008F7D809380009D
:1049C00060E08AE00E9457038DE00E942E03892B4D
:1049D00009F4C8C28091AF0280918006882391F1CA
:1049E0008091AF02882321F08091AF02813051F590
:1049F00080917F06811106C380917E0691E0980F19
:104A000090937E06803109F0C4C280917C0690911B
:104A10007D06A4E096958795AA95E1F7805E914082
:104A20000E94761310927E0610927D0610927C06EC
:104A300080917B06882331F081E080937F068FEFA1
:104A40000E9424208091AF02823009F07AC08091C8
:104A5000AE02882309F475C080917B06811171C074
:104A60008091770690917806A0917906B0917A06A8
:104A7000892B8A2B8B2B09F064C0809005069090BF
:104A80000606A0900706B0900806C0906701D09077
:104A90006801E0906901F0906A01C501B4016C19E8
:104AA0007D098E099F0920E031E040E050E00E943E
:104AB0000E36C20ED31EE41EF51EC0926701D092C0
:104AC0006801E0926901F0926A01C701B60122E033
:104AD00030E040E050E00E940E3611E02815390524
:104AE0004A055B050CF010E0109304068091030664
:104AF000181751F00E942B046093FF057093000675
:104B000080930106909302060E942B048090FF057B
:104B100090900006A0900106B090020668197909ED
:104B20008A099B09613171058105910508F479C2F3
:104B30008091FE0518131093FE050E94E615109350
:104B4000030680918206811127C080918406882304
:104B500009F47CC287E0E1ECF2E0DE0111960190FD
:104B60000D928A95E1F7E091AD0241E050E04C0FE3
:104B70005D1F4E0F511DFA0110810E94C707109250
:104B8000840680E80E94BC07812F90E080559D4FED
:104B90000E9442180E94EB078091AF0280917F062D
:104BA000811152C18DE00E942E03892B09F04CC166
:104BB0001092730610927406109275061092760683
:104BC00081E00E942420A8958091AF02823009F0F4
:104BD00073C36AE070E080E090E00E94F803809187
:104BE000AF02823009F022C10E942B0400916F06AF
:104BF000109170062091710630917206601771074E
:104C00008207930708F412C108E010E0812C912C70
:104C100054017501640184E10E94C103BC01990F34
:104C2000880B990B0E94AA332CE03EE248EB5BE331
:104C30000E940F359B01AC01C701B6010E948F3263
:104C40006B017C0185E10E94C103BC01990F880BB7
:104C5000990B0E94AA332CE03EE248EB5BE30E94F2
:104C60000F359B01AC01C501B4010E948F324B018D
:104C70005C0165E070E080E090E00E94F803015084
:104C8000110949F620E030E040E05EE3C701B601DB
:104C90000E940F356B017C0120E030E040E05EE3D4
:104CA000C501B4010E940F3569877A878B879C877D
:104CB000A7019601C701B6010E940F352B013C01E7
:104CC000A701960169857A858B859C850E940033B2
:104CD0004B015C0120E030E040E85FE30E948F324E
:104CE0006F8F78A389A39AA3A501940160E070E077
:104CF00080E89FE30E948E329B01AC016F8D78A10A
:104D000089A19AA10E9400334B015C012AE037ED92
:104D10004FE151E40E94B234181654F020E030E024
:104D200040E85FE3C501B4010E94FB3287FF08C081
:104D3000EAE08E2EE7ED9E2EEFE1AE2EE1E4BE2EF0
:104D40002091190630911A0640911B0650911C06BD
:104D5000C301B2010E94FB3281110FC0A501940171
:104D600060911506709116068091170690911806AD
:104D70000E94FB32882309F44BC00E94C70780E8D9
:104D80000E94BC0780916D01823009F49AC2833081
:104D900009F4CEC2813061F58CE593E00E9442189F
:104DA00020E030E048EC52E4C301B2010E940F352C
:104DB0000E94E53320E030E048EC52E40E940033EA
:104DC0000E9443198EE593E00E94421820E030E0F3
:104DD00048EC52E4C501B4010E940F350E94E5334E
:104DE00020E030E048EC52E40E9400330E94431976
:104DF0004092190650921A0660921B0670921C0689
:104E00008092150690921606A0921706B092180688
:104E10000E942B046C507E4F8F4F9F4F60936F0604
:104E200070937006809371069093720681E10E94E0
:104E30002E03892B31F48DE00E942E03892B09F477
:104E4000C2CE80E00E942420C0907706D0907806E1
:104E5000E0907906F0907A06C114D104E104F104DF
:104E600051F00E942B04C616D706E806F90618F47E
:104E700080E00E94242081E10E942E03892B09F406
:104E8000B7C580916E0682FD05C080916E06857063
:104E900009F47FC280916E06807F909181069923EC
:104EA00009F4F6C29CE0892B80936E0680916E0611
:104EB000823209F48AC408F01DC3863108F0EAC2C0
:104EC000843108F0C0C3813109F4C3C380918206E4
:104ED000811107C09091650680918206981709F4A8
:104EE000A1C61091810680918206813009F087C5A4
:104EF000112309F486C5909181068091AC02890F37
:104F00008093AC028091AC028F322CF48091AC0281
:104F100018160CF070C58091AC028F320CF06DC584
:104F20008091AC028093AC026091AC0282E00E945E
:104F3000261C8093AC02109281068091820660E06C
:104F400081116091AC0281E00E94261C60C581E164
:104F50000E942E03892B09F062CC6FEF83E00E9440
:104F6000261C75CC80EC0E94BC0781E20E94E115F2
:104F700081E20E94E1158BEF91E00E942D170E94C3
:104F800048176CED75E080E090E00E94F803A8956A
:104F90001BCDF89483E880937A008091660180327B
:104FA00020F060E088E00E94570390917C0080919F
:104FB0007A0084FFFCCF8091630680937C0080910F
:104FC0007A00806480937A0080917A0084FFFCCF1D
:104FD00090937C0080916601803220F061E088E04F
:104FE0000E94570320917800309179007894809145
:104FF0007C0690917D06820F931F90937D0680938F
:105000007C0616CD80917B0681111CCD0E94242048
:1050100010927F0660E270E080E090E00E94F8036A
:1050200011CDC701B60124E630E040E050E00E9417
:105030000E36C20ED31EE41EF51EC0926701D0923A
:105040006801E0926901F0926A0177CD809177065C
:1050500090917806A0917906B0917A06892B8A2BD7
:105060008B2B09F099CD80917F0681110C943332FE
:10507000409111065091120660911306709114062A
:1050800080910D0690910E06A0910F06B09110062A
:1050900084179507A607B70708F4F3C0C0900D065C
:1050A000D0900E06E0900F06F0901006C0920D060C
:1050B000D0920E06E0920F06F09210068091AD029B
:1050C000882311F40C942F3280910B0690910C06DA
:1050D000019690930C0680930B069770892B11F024
:1050E0000C942F3280916C0161E070E002C0660F79
:1050F000771F8A95E2F7072E000C880B990B0E9408
:10510000AA334B015C01C701B6010E94A8339B0181
:10511000AC01C501B4010E940F3521ED35E443EE29
:105120005FE40E9400339B01AC010E940F3520E038
:1051300030E048E452E40E9400330E94B73420E09B
:1051400030E040E251E40E940F3520E030E040EFD3
:1051500051E40E948F320E9472336B0170930A06F1
:10516000609309060E94C7078091AD02813069F4FF
:1051700089E80E94BC07B601DD0C880B990B0E94E0
:10518000181885E892E00E942D178091AD028230B8
:10519000F9F48091090690910A06813C5FEF95072A
:1051A0000CF078C081589F4F66E070E00E94D835BF
:1051B000162F8EE80E94BC071A3018F483E50E946F
:1051C000E115612F70E090E080E04AE00E94D41782
:1051D0008091AD02833039F58091090690910A06DD
:1051E000813CAFEF9A070CF05EC081589F4F66E09C
:1051F00070E00E94D835FE01319694EF960F8F0132
:1052000082E016162CF481E0860F65300CF085E004
:10521000819363506913F4CF1D828CE80E94BC0710
:10522000C8010E9442188091AD02843099F48EE842
:105230000E94BC078091AF02823041F460916B0103
:1052400070E090E080E04AE00E94D4178BE593E0A4
:105250000E9442180E94EB0780910D0690910E0665
:10526000A0910F06B0911006B695A79597958795D2
:1052700080930D0690930E06A0930F06B093100630
:105280008BCCC0901106D0901206E0901306F090DF
:1052900014060CCF875B1AE0612F0E94B835819FFE
:1052A000102D112486CF875B2AE0622F0E94B8352B
:1052B000829F602D11249FCF64E670E080E090E033
:1052C0008CCC86E693E00E94421820E030E048EC67
:1052D00052E4C301B2010E940F350E94E53320E081
:1052E00030E048EC52E40E9400330E9443198AE601
:1052F00093E00E94421829853A854B855C85CA0156
:10530000B9010E940F3520E030E048EC52E40E94E1
:105310000F350E94E53320E030E048EC52E40E9473
:1053200000330E9443198FE693E00E94421860CD3B
:1053300086E693E00E94421820E030E048EC52E418
:10534000C701B6010E940F350E94E53320E030E02E
:1053500048EC52E40E9400330E94431981E793E035
:105360000E94421820E030E048EC52E469857A85DA
:105370008B859C850E940F350E94E53320E030E04C
:1053800048EC52E40E9400330E94431986E793E000
:10539000CCCFF89480917A0084FFFCCFE0907A0023
:1053A000F0907C0080917A00877F80937A008091D2
:1053B0007A00876080937A0080E480937C0061E0CB
:1053C00070E080E090E00E94F80381E10E94C10358
:1053D0008C01E0927A00F0927C00789481E08093D6
:1053E0006E060E942B046B017C0181E10E942E035A
:1053F000892B71F00E942B046C197D098E099F097D
:105400006D3271408105910578F184E080936E06DC
:105410006AE070E080E090E00E94F80380916E0600
:10542000843099F00E942B046C197D098E099F0924
:10543000643F71408105910540F481E10E942E0393
:10544000892BA1F082E080936E0681E10E942E03F9
:10545000892B89F080918106882321F080916E0646
:10546000843031F0A895F1CFA895BFCFA895D6CFBD
:105470008CE080936E0690E10C35F3E01F0728F076
:1054800090E2073D134008F090E380916E060BCD4B
:1054900095E009CD8C3109F4DAC0813209F016CDDE
:1054A0008091820681117BC11091AF0280916906C3
:1054B00090916A06A0916B06B0916C06892B8A2B9D
:1054C0008B2B09F402C11092690610926A061092A1
:1054D0006B0610926C062091AF0281E090E02230C2
:1054E00011F090E080E086559D4FDC018C91809317
:1054F000A90251C1823309F469C270F4843209F4FB
:10550000C1C1813309F0E2CC80918206811141C290
:1055100081E00E94F407DACC843309F462C28C3350
:1055200009F0D4CC81E10E942E03892B09F433C108
:10553000A895809181068823A9F361E080E00E940C
:10554000261C8091950287FF4EC28AE080939502C7
:1055500061E084E00E94261C80EC0E94BC078AE87F
:1055600092E00E942D170E94481787EF84BF0FB664
:10557000F894A895809160008861809360001092F3
:1055800060000FBE809170008D7F8093700061E09D
:1055900070E080E090E00E94F80310928800109282
:1055A0008A0080917A00877F80937A0080917A00C8
:1055B000876080937A0080E480937C000E947F075C
:1055C0006CED75E080E090E00E94F80310926800B6
:1055D00010926B0010926C0010926D0010926E0091
:1055E00010926F00109270001092600080916C0019
:1055F000886080936C00809168008260809368006E
:105600008FEF8093640088E00E94BC075D9883B7A9
:10561000817F846083BF83B7816083BF789485B7BF
:10562000806685BF8F7D85BF889583B78E7F83BF5A
:1056300088E198E00FB6F894A895809360000FBEBB
:1056400090936000FFCF82E0809382063FCC81E0A0
:10565000FBCF80918206813041F48091AC028D3184
:1056600024F08091AC028332A4F0809182068823DA
:1056700011F180918206813031F181E090918206B2
:10568000923010F36091AC0284E00E94261C80E00E
:10569000DBCF0E942B046093730670937406809393
:1056A0007506909376068091AC028D5180936D06BD
:1056B000109282060BCC8091AC028111DACF81E08E
:1056C0008093AC02D6CF82E0D9CF8091AF028F5FBA
:1056D0008093AF028091AF02833010F01092AF023E
:1056E0008091AF02823011F41092A70281E090E025
:1056F000123011F090E080E02091A902FC01E65503
:10570000FD4F20834091AF0221E030E0423011F0A4
:1057100030E020E026553D4FF90120812093A90279
:10572000209168068B559D4FDC012C932091AF0290
:1057300081E090E0223011F090E080E08B559D4FA9
:10574000FC01808180936806909167068091AF028A
:1057500091709D871E86ED85FE85ED55FD4F8083FA
:105760008091670663E380FF62E384E00E94261C69
:1057700062E084E00E94261C63E084E00E94261C14
:1057800010929E0610929D06123029F48091AE026E
:1057900081110E94F91B81E08093A80297CB809130
:1057A0008206813011F41092820680918206823046
:1057B00008F48CCB81E0809382068093A8026091EC
:1057C000AC0284E00E94261C81CB809168068F5F2A
:1057D0008093680681E0809366068091AF028230F4
:1057E00039F4809168068B3018F084E08093680665
:1057F0008091AF02823039F480916806843019F4C8
:1058000086E08093A9028091AF02823079F4809182
:105810006806853021F080916806863039F48091E1
:10582000A902873018F487E08093A9028091AF0223
:10583000823059F480916806873039F48091A9024A
:10584000883018F488E08093A9028091AF028230FA
:1058500031F080916806843010F010926806109242
:10586000810663E080E00E94261C63E084E00E94E1
:10587000261CA8956CED75E080E090E00E94F8038E
:10588000A89589CF4091690650916A0660916B0690
:1058900070916C0681E090E0A0E0B0E0452B462BD3
:1058A000472B19F080E090E0DC018093690690932B
:1058B0006A06A0936B06B0936C068091690690917E
:1058C0006A06A0916B06B0916C06892B8A2B8B2BF4
:1058D00009F058C02091AF0281E090E0223011F031
:1058E00090E080E086559D4FDC018C918093A90269
:1058F0008091690690916A06A0916B06B0916C0642
:10590000892B8A2B8B2B09F046CF9091670681E07B
:10591000911180E0809367068091670680FB2224C6
:1059200020F8312CF101EE0FFF1FEE0FFF1FE5569F
:10593000FD4F80819181A281B381809397029093E2
:105940009802A0939902B0939A02809167068170A1
:105950008F87188AEF85F889ED55FD4F80818093F8
:10596000AF028091AF02823079F085E08093A90286
:105970008091AF02823051F484E0809368061092E7
:10598000A70209CF88E0B2CF86E0F0CF1092680678
:1059900002CF80918206809182068230A9F481E054
:1059A0008093A8026091AC0284E00E94261C81E0F2
:1059B00090918206933009F047CE6091AC0286E068
:1059C0000E94261C83E040CE82E0F2CF80919602B6
:1059D0008F5F8A3020F48093960285E088CD81E045
:1059E000FACF8FEF96CD61E084E00E94261C9ACD1D
:1059F00010926E066BCA81E095CA8FE293CA1111AC
:105A00009CCA9091650680918206981396CA8091EF
:105A100082068093650680918206823009F002C179
:105A2000112309F4FFC080EC0E94BC078EE00E94A5
:105A3000BC078091AC02823069F590916706809135
:105A4000AF029170998B1A8AE989FA89ED55FD4F59
:105A500080838091670663E380FF62E384E00E94B5
:105A6000261C81E08093A80210929E0610929D064B
:105A70008091AF02823009F4D6C385E08093A902F9
:105A80008091AF02823009F0D0C384E08093680631
:105A90001092A7028091AC02843019F481E08093C7
:105AA000A8028091AC028630C9F59091670691708A
:105AB0009B8B1C8AEB89FC89EE0FFF1FEE0FFF1FEB
:105AC000E556FD4F40815181628173814093970279
:105AD000509398026093990270939A02909167068E
